{
  "abi": [
    {
      "inputs": [
        {
          "internalType": "address",
          "name": "_l1CrossDomainMessenger",
          "type": "address"
        }
      ],
      "stateMutability": "nonpayable",
      "type": "constructor"
    },
    {
      "anonymous": false,
      "inputs": [
        {
          "indexed": true,
          "internalType": "bytes32",
          "name": "msgHash",
          "type": "bytes32"
        }
      ],
      "name": "FailedRelayedMessage",
      "type": "event"
    },
    {
      "anonymous": false,
      "inputs": [
        {
          "indexed": false,
          "internalType": "uint8",
          "name": "version",
          "type": "uint8"
        }
      ],
      "name": "Initialized",
      "type": "event"
    },
    {
      "anonymous": false,
      "inputs": [
        {
          "indexed": true,
          "internalType": "bytes32",
          "name": "msgHash",
          "type": "bytes32"
        }
      ],
      "name": "RelayedMessage",
      "type": "event"
    },
    {
      "anonymous": false,
      "inputs": [
        {
          "indexed": true,
          "internalType": "address",
          "name": "target",
          "type": "address"
        },
        {
          "indexed": false,
          "internalType": "address",
          "name": "sender",
          "type": "address"
        },
        {
          "indexed": false,
          "internalType": "bytes",
          "name": "message",
          "type": "bytes"
        },
        {
          "indexed": false,
          "internalType": "uint256",
          "name": "messageNonce",
          "type": "uint256"
        },
        {
          "indexed": false,
          "internalType": "uint256",
          "name": "gasLimit",
          "type": "uint256"
        }
      ],
      "name": "SentMessage",
      "type": "event"
    },
    {
      "anonymous": false,
      "inputs": [
        {
          "indexed": true,
          "internalType": "address",
          "name": "sender",
          "type": "address"
        },
        {
          "indexed": false,
          "internalType": "uint256",
          "name": "value",
          "type": "uint256"
        }
      ],
      "name": "SentMessageExtension1",
      "type": "event"
    },
    {
      "inputs": [],
      "name": "MESSAGE_VERSION",
      "outputs": [
        {
          "internalType": "uint16",
          "name": "",
          "type": "uint16"
        }
      ],
      "stateMutability": "view",
      "type": "function"
    },
    {
      "inputs": [],
      "name": "MIN_GAS_CALLDATA_OVERHEAD",
      "outputs": [
        {
          "internalType": "uint64",
          "name": "",
          "type": "uint64"
        }
      ],
      "stateMutability": "view",
      "type": "function"
    },
    {
      "inputs": [],
      "name": "MIN_GAS_DYNAMIC_OVERHEAD_DENOMINATOR",
      "outputs": [
        {
          "internalType": "uint64",
          "name": "",
          "type": "uint64"
        }
      ],
      "stateMutability": "view",
      "type": "function"
    },
    {
      "inputs": [],
      "name": "MIN_GAS_DYNAMIC_OVERHEAD_NUMERATOR",
      "outputs": [
        {
          "internalType": "uint64",
          "name": "",
          "type": "uint64"
        }
      ],
      "stateMutability": "view",
      "type": "function"
    },
    {
      "inputs": [],
      "name": "OTHER_MESSENGER",
      "outputs": [
        {
          "internalType": "address",
          "name": "",
          "type": "address"
        }
      ],
      "stateMutability": "view",
      "type": "function"
    },
    {
      "inputs": [],
      "name": "RELAY_CALL_OVERHEAD",
      "outputs": [
        {
          "internalType": "uint64",
          "name": "",
          "type": "uint64"
        }
      ],
      "stateMutability": "view",
      "type": "function"
    },
    {
      "inputs": [],
      "name": "RELAY_CONSTANT_OVERHEAD",
      "outputs": [
        {
          "internalType": "uint64",
          "name": "",
          "type": "uint64"
        }
      ],
      "stateMutability": "view",
      "type": "function"
    },
    {
      "inputs": [],
      "name": "RELAY_GAS_CHECK_BUFFER",
      "outputs": [
        {
          "internalType": "uint64",
          "name": "",
          "type": "uint64"
        }
      ],
      "stateMutability": "view",
      "type": "function"
    },
    {
      "inputs": [],
      "name": "RELAY_RESERVED_GAS",
      "outputs": [
        {
          "internalType": "uint64",
          "name": "",
          "type": "uint64"
        }
      ],
      "stateMutability": "view",
      "type": "function"
    },
    {
      "inputs": [
        {
          "internalType": "bytes",
          "name": "_message",
          "type": "bytes"
        },
        {
          "internalType": "uint32",
          "name": "_minGasLimit",
          "type": "uint32"
        }
      ],
      "name": "baseGas",
      "outputs": [
        {
          "internalType": "uint64",
          "name": "",
          "type": "uint64"
        }
      ],
      "stateMutability": "pure",
      "type": "function"
    },
    {
      "inputs": [
        {
          "internalType": "bytes32",
          "name": "",
          "type": "bytes32"
        }
      ],
      "name": "failedMessages",
      "outputs": [
        {
          "internalType": "bool",
          "name": "",
          "type": "bool"
        }
      ],
      "stateMutability": "view",
      "type": "function"
    },
    {
      "inputs": [],
      "name": "initialize",
      "outputs": [],
      "stateMutability": "nonpayable",
      "type": "function"
    },
    {
      "inputs": [],
      "name": "l1CrossDomainMessenger",
      "outputs": [
        {
          "internalType": "address",
          "name": "",
          "type": "address"
        }
      ],
      "stateMutability": "view",
      "type": "function"
    },
    {
      "inputs": [],
      "name": "messageNonce",
      "outputs": [
        {
          "internalType": "uint256",
          "name": "",
          "type": "uint256"
        }
      ],
      "stateMutability": "view",
      "type": "function"
    },
    {
      "inputs": [
        {
          "internalType": "uint256",
          "name": "_nonce",
          "type": "uint256"
        },
        {
          "internalType": "address",
          "name": "_sender",
          "type": "address"
        },
        {
          "internalType": "address",
          "name": "_target",
          "type": "address"
        },
        {
          "internalType": "uint256",
          "name": "_value",
          "type": "uint256"
        },
        {
          "internalType": "uint256",
          "name": "_minGasLimit",
          "type": "uint256"
        },
        {
          "internalType": "bytes",
          "name": "_message",
          "type": "bytes"
        }
      ],
      "name": "relayMessage",
      "outputs": [],
      "stateMutability": "payable",
      "type": "function"
    },
    {
      "inputs": [
        {
          "internalType": "address",
          "name": "_target",
          "type": "address"
        },
        {
          "internalType": "bytes",
          "name": "_message",
          "type": "bytes"
        },
        {
          "internalType": "uint32",
          "name": "_minGasLimit",
          "type": "uint32"
        }
      ],
      "name": "sendMessage",
      "outputs": [],
      "stateMutability": "payable",
      "type": "function"
    },
    {
      "inputs": [
        {
          "internalType": "bytes32",
          "name": "",
          "type": "bytes32"
        }
      ],
      "name": "successfulMessages",
      "outputs": [
        {
          "internalType": "bool",
          "name": "",
          "type": "bool"
        }
      ],
      "stateMutability": "view",
      "type": "function"
    },
    {
      "inputs": [],
      "name": "version",
      "outputs": [
        {
          "internalType": "string",
          "name": "",
          "type": "string"
        }
      ],
      "stateMutability": "view",
      "type": "function"
    },
    {
      "inputs": [],
      "name": "xDomainMessageSender",
      "outputs": [
        {
          "internalType": "address",
          "name": "",
          "type": "address"
        }
      ],
      "stateMutability": "view",
      "type": "function"
    }
  ],
  "bytecode": {
    "object": "0x60a06040523480156200001157600080fd5b5060405162001db738038062001db78339810160408190526200003491620001e4565b6001600160a01b0381166080526200004b62000052565b5062000216565b600054600290600160a81b900460ff161580156200007e575060005460ff808316600160a01b90920416105b620000e75760405162461bcd60e51b815260206004820152602e60248201527f496e697469616c697a61626c653a20636f6e747261637420697320616c72656160448201526d191e481a5b9a5d1a585b1a5e995960921b60648201526084015b60405180910390fd5b6000805460ff60a81b1960ff8416600160a01b021661ffff60a01b1990911617600160a81b179055620001196200015f565b6000805460ff60a81b1916905560405160ff821681527f7f26b83ff96e1f2b6a682f133852f6798a09c465da95921460cefb38474024989060200160405180910390a150565b600054600160a81b900460ff16620001ce5760405162461bcd60e51b815260206004820152602b60248201527f496e697469616c697a61626c653a20636f6e7472616374206973206e6f74206960448201526a6e697469616c697a696e6760a81b6064820152608401620000de565b60cc80546001600160a01b03191661dead179055565b600060208284031215620001f757600080fd5b81516001600160a01b03811681146200020f57600080fd5b9392505050565b608051611b7062000247600039600081816102dd0152818161034e0152818161043f0152610bef0152611b706000f3fe6080604052600436106101445760003560e01c80638129fc1c116100c0578063a711986911610074578063b28ade2511610059578063b28ade25146103a2578063d764ad0b146103c2578063ecc70428146103d557600080fd5b8063a71198691461033f578063b1b1b2091461037257600080fd5b80638cbeeef2116100a55780638cbeeef2146101e35780639fce812c146102cb578063a4e7f8bd146102ff57600080fd5b80638129fc1c1461029f57806383a74074146102b457600080fd5b80633f827a5a1161011757806354fd4d50116100fc57806354fd4d50146101f95780635644cfdf1461024f5780636e296e451461026557600080fd5b80633f827a5a146101bb5780634c1d6a69146101e357600080fd5b8063028f85f7146101495780630c5684981461017c5780632828d7e8146101915780633dbb202b146101a6575b600080fd5b34801561015557600080fd5b5061015e601081565b60405167ffffffffffffffff90911681526020015b60405180910390f35b34801561018857600080fd5b5061015e603f81565b34801561019d57600080fd5b5061015e604081565b6101b96101b436600461168c565b61043a565b005b3480156101c757600080fd5b506101d0600181565b60405161ffff9091168152602001610173565b3480156101ef57600080fd5b5061015e619c4081565b34801561020557600080fd5b506102426040518060400160405280600581526020017f312e362e3000000000000000000000000000000000000000000000000000000081525081565b604051610173919061175c565b34801561025b57600080fd5b5061015e61138881565b34801561027157600080fd5b5061027a61069e565b60405173ffffffffffffffffffffffffffffffffffffffff9091168152602001610173565b3480156102ab57600080fd5b506101b961078a565b3480156102c057600080fd5b5061015e62030d4081565b3480156102d757600080fd5b5061027a7f000000000000000000000000000000000000000000000000000000000000000081565b34801561030b57600080fd5b5061032f61031a366004611776565b60ce6020526000908152604090205460ff1681565b6040519015158152602001610173565b34801561034b57600080fd5b507f000000000000000000000000000000000000000000000000000000000000000061027a565b34801561037e57600080fd5b5061032f61038d366004611776565b60cb6020526000908152604090205460ff1681565b3480156103ae57600080fd5b5061015e6103bd36600461178f565b61094d565b6101b96103d03660046117e3565b6109bb565b3480156103e157600080fd5b5061042c60cd547dffffffffffffffffffffffffffffffffffffffffffffffffffffffffffff167e010000000000000000000000000000000000000000000000000000000000001790565b604051908152602001610173565b6105737f000000000000000000000000000000000000000000000000000000000000000061046985858561094d565b347fd764ad0b000000000000000000000000000000000000000000000000000000006104d560cd547dffffffffffffffffffffffffffffffffffffffffffffffffffffffffffff167e010000000000000000000000000000000000000000000000000000000000001790565b338a34898c8c6040516024016104f197969594939291906118ae565b604080517fffffffffffffffffffffffffffffffffffffffffffffffffffffffffffffffe08184030181529190526020810180517bffffffffffffffffffffffffffffffffffffffffffffffffffffffff167fffffffff0000000000000000000000000000000000000000000000000000000090931692909217909152611298565b8373ffffffffffffffffffffffffffffffffffffffff167fcb0f7ffd78f9aee47a248fae8db181db6eee833039123e026dcbff529522e52a3385856105f860cd547dffffffffffffffffffffffffffffffffffffffffffffffffffffffffffff167e010000000000000000000000000000000000000000000000000000000000001790565b8660405161060a95949392919061190d565b60405180910390a260405134815233907f8ebb2ec2465bdb2a06a66fc37a0963af8a2a6a1479d81d56fdb8cbb98096d5469060200160405180910390a2505060cd80547dffffffffffffffffffffffffffffffffffffffffffffffffffffffffffff808216600101167fffff0000000000000000000000000000000000000000000000000000000000009091161790555050565b60cc5460009073ffffffffffffffffffffffffffffffffffffffff167fffffffffffffffffffffffffffffffffffffffffffffffffffffffffffff21530161076d576040517f08c379a000000000000000000000000000000000000000000000000000000000815260206004820152603560248201527f43726f7373446f6d61696e4d657373656e6765723a2078446f6d61696e4d657360448201527f7361676553656e646572206973206e6f7420736574000000000000000000000060648201526084015b60405180910390fd5b5060cc5473ffffffffffffffffffffffffffffffffffffffff1690565b6000546002907501000000000000000000000000000000000000000000900460ff161580156107d8575060005460ff8083167401000000000000000000000000000000000000000090920416105b610864576040517f08c379a000000000000000000000000000000000000000000000000000000000815260206004820152602e60248201527f496e697469616c697a61626c653a20636f6e747261637420697320616c72656160448201527f647920696e697469616c697a65640000000000000000000000000000000000006064820152608401610764565b600080547fffffffffffffffffffff00ffffffffffffffffffffffffffffffffffffffffff60ff84167401000000000000000000000000000000000000000002167fffffffffffffffffffff0000ffffffffffffffffffffffffffffffffffffffff9091161775010000000000000000000000000000000000000000001790556108ec611326565b600080547fffffffffffffffffffff00ffffffffffffffffffffffffffffffffffffffffff16905560405160ff821681527f7f26b83ff96e1f2b6a682f133852f6798a09c465da95921460cefb38474024989060200160405180910390a150565b6000611388619c4080603f610969604063ffffffff881661198a565b61097391906119ba565b61097e60108861198a565b61098b9062030d40611a08565b6109959190611a08565b61099f9190611a08565b6109a99190611a08565b6109b39190611a08565b949350505050565b60f087901c60028110610a76576040517f08c379a000000000000000000000000000000000000000000000000000000000815260206004820152604d60248201527f43726f7373446f6d61696e4d657373656e6765723a206f6e6c7920766572736960448201527f6f6e2030206f722031206d657373616765732061726520737570706f7274656460648201527f20617420746869732074696d6500000000000000000000000000000000000000608482015260a401610764565b8061ffff16600003610b6b576000610ac7878986868080601f0160208091040260200160405190810160405280939291908181526020018383808284376000920191909152508f92506113ff915050565b600081815260cb602052604090205490915060ff1615610b69576040517f08c379a000000000000000000000000000000000000000000000000000000000815260206004820152603760248201527f43726f7373446f6d61696e4d657373656e6765723a206c65676163792077697460448201527f6864726177616c20616c72656164792072656c617965640000000000000000006064820152608401610764565b505b6000610bb1898989898989898080601f01602080910402602001604051908101604052809392919081815260200183838082843760009201919091525061141e92505050565b905073ffffffffffffffffffffffffffffffffffffffff7fffffffffffffffffffffffffeeeeffffffffffffffffffffffffffffffffeeef330181167f000000000000000000000000000000000000000000000000000000000000000090911603610c4957853414610c2557610c25611a34565b600081815260ce602052604090205460ff1615610c4457610c44611a34565b610d9b565b3415610cfd576040517f08c379a000000000000000000000000000000000000000000000000000000000815260206004820152605060248201527f43726f7373446f6d61696e4d657373656e6765723a2076616c7565206d75737460448201527f206265207a65726f20756e6c657373206d6573736167652069732066726f6d2060648201527f612073797374656d206164647265737300000000000000000000000000000000608482015260a401610764565b600081815260ce602052604090205460ff16610d9b576040517f08c379a000000000000000000000000000000000000000000000000000000000815260206004820152603060248201527f43726f7373446f6d61696e4d657373656e6765723a206d65737361676520636160448201527f6e6e6f74206265207265706c61796564000000000000000000000000000000006064820152608401610764565b610da487611441565b15610e57576040517f08c379a000000000000000000000000000000000000000000000000000000000815260206004820152604360248201527f43726f7373446f6d61696e4d657373656e6765723a2063616e6e6f742073656e60448201527f64206d65737361676520746f20626c6f636b65642073797374656d206164647260648201527f6573730000000000000000000000000000000000000000000000000000000000608482015260a401610764565b600081815260cb602052604090205460ff1615610ef6576040517f08c379a000000000000000000000000000000000000000000000000000000000815260206004820152603660248201527f43726f7373446f6d61696e4d657373656e6765723a206d65737361676520686160448201527f7320616c7265616479206265656e2072656c61796564000000000000000000006064820152608401610764565b610f1785610f08611388619c40611a08565b67ffffffffffffffff16611496565b1580610f3d575060cc5473ffffffffffffffffffffffffffffffffffffffff1661dead14155b1561105657600081815260ce602052604080822080547fffffffffffffffffffffffffffffffffffffffffffffffffffffffffffffff001660011790555182917f99d0e048484baa1b1540b1367cb128acd7ab2946d1ed91ec10e3c85e4bf51b8f91a27fffffffffffffffffffffffffffffffffffffffffffffffffffffffffffffffff320161104f576040517f08c379a000000000000000000000000000000000000000000000000000000000815260206004820152602d60248201527f43726f7373446f6d61696e4d657373656e6765723a206661696c656420746f2060448201527f72656c6179206d657373616765000000000000000000000000000000000000006064820152608401610764565b505061128f565b60cc80547fffffffffffffffffffffffff00000000000000000000000000000000000000001673ffffffffffffffffffffffffffffffffffffffff8a1617905560006110e788619c405a6110aa9190611a63565b8988888080601f0160208091040260200160405190810160405280939291908181526020018383808284376000920191909152506114b492505050565b60cc80547fffffffffffffffffffffffff00000000000000000000000000000000000000001661dead1790559050801561117e57600082815260cb602052604080822080547fffffffffffffffffffffffffffffffffffffffffffffffffffffffffffffff001660011790555183917f4641df4a962071e12719d8c8c8e5ac7fc4d97b927346a3d7a335b1f7517e133c91a261128b565b600082815260ce602052604080822080547fffffffffffffffffffffffffffffffffffffffffffffffffffffffffffffff001660011790555183917f99d0e048484baa1b1540b1367cb128acd7ab2946d1ed91ec10e3c85e4bf51b8f91a27fffffffffffffffffffffffffffffffffffffffffffffffffffffffffffffffff320161128b576040517f08c379a000000000000000000000000000000000000000000000000000000000815260206004820152602d60248201527f43726f7373446f6d61696e4d657373656e6765723a206661696c656420746f2060448201527f72656c6179206d657373616765000000000000000000000000000000000000006064820152608401610764565b5050505b50505050505050565b6040517fc2b3e5ac0000000000000000000000000000000000000000000000000000000081527342000000000000000000000000000000000000169063c2b3e5ac9084906112ee90889088908790600401611a7a565b6000604051808303818588803b15801561130757600080fd5b505af115801561131b573d6000803e3d6000fd5b505050505050505050565b6000547501000000000000000000000000000000000000000000900460ff166113d1576040517f08c379a000000000000000000000000000000000000000000000000000000000815260206004820152602b60248201527f496e697469616c697a61626c653a20636f6e7472616374206973206e6f74206960448201527f6e697469616c697a696e670000000000000000000000000000000000000000006064820152608401610764565b60cc80547fffffffffffffffffffffffff00000000000000000000000000000000000000001661dead179055565b600061140d858585856114ce565b805190602001209050949350505050565b600061142e878787878787611567565b8051906020012090509695505050505050565b600073ffffffffffffffffffffffffffffffffffffffff8216301480611490575073ffffffffffffffffffffffffffffffffffffffff8216734200000000000000000000000000000000000016145b92915050565b600080603f83619c4001026040850201603f5a021015949350505050565b600080600080845160208601878a8af19695505050505050565b6060848484846040516024016114e79493929190611ac2565b604080517fffffffffffffffffffffffffffffffffffffffffffffffffffffffffffffffe08184030181529190526020810180517bffffffffffffffffffffffffffffffffffffffffffffffffffffffff167fcbd4ece9000000000000000000000000000000000000000000000000000000001790529050949350505050565b606086868686868660405160240161158496959493929190611b0c565b604080517fffffffffffffffffffffffffffffffffffffffffffffffffffffffffffffffe08184030181529190526020810180517bffffffffffffffffffffffffffffffffffffffffffffffffffffffff167fd764ad0b0000000000000000000000000000000000000000000000000000000017905290509695505050505050565b803573ffffffffffffffffffffffffffffffffffffffff8116811461162a57600080fd5b919050565b60008083601f84011261164157600080fd5b50813567ffffffffffffffff81111561165957600080fd5b60208301915083602082850101111561167157600080fd5b9250929050565b803563ffffffff8116811461162a57600080fd5b600080600080606085870312156116a257600080fd5b6116ab85611606565b9350602085013567ffffffffffffffff8111156116c757600080fd5b6116d38782880161162f565b90945092506116e6905060408601611678565b905092959194509250565b6000815180845260005b81811015611717576020818501810151868301820152016116fb565b81811115611729576000602083870101525b50601f017fffffffffffffffffffffffffffffffffffffffffffffffffffffffffffffffe0169290920160200192915050565b60208152600061176f60208301846116f1565b9392505050565b60006020828403121561178857600080fd5b5035919050565b6000806000604084860312156117a457600080fd5b833567ffffffffffffffff8111156117bb57600080fd5b6117c78682870161162f565b90945092506117da905060208501611678565b90509250925092565b600080600080600080600060c0888a0312156117fe57600080fd5b8735965061180e60208901611606565b955061181c60408901611606565b9450606088013593506080880135925060a088013567ffffffffffffffff81111561184657600080fd5b6118528a828b0161162f565b989b979a50959850939692959293505050565b8183528181602085013750600060208284010152600060207fffffffffffffffffffffffffffffffffffffffffffffffffffffffffffffffe0601f840116840101905092915050565b878152600073ffffffffffffffffffffffffffffffffffffffff808916602084015280881660408401525085606083015263ffffffff8516608083015260c060a083015261190060c083018486611865565b9998505050505050505050565b73ffffffffffffffffffffffffffffffffffffffff8616815260806020820152600061193d608083018688611865565b905083604083015263ffffffff831660608301529695505050505050565b7f4e487b7100000000000000000000000000000000000000000000000000000000600052601160045260246000fd5b600067ffffffffffffffff808316818516818304811182151516156119b1576119b161195b565b02949350505050565b600067ffffffffffffffff808416806119fc577f4e487b7100000000000000000000000000000000000000000000000000000000600052601260045260246000fd5b92169190910492915050565b600067ffffffffffffffff808316818516808303821115611a2b57611a2b61195b565b01949350505050565b7f4e487b7100000000000000000000000000000000000000000000000000000000600052600160045260246000fd5b600082821015611a7557611a7561195b565b500390565b73ffffffffffffffffffffffffffffffffffffffff8416815267ffffffffffffffff83166020820152606060408201526000611ab960608301846116f1565b95945050505050565b600073ffffffffffffffffffffffffffffffffffffffff808716835280861660208401525060806040830152611afb60808301856116f1565b905082606083015295945050505050565b868152600073ffffffffffffffffffffffffffffffffffffffff808816602084015280871660408401525084606083015283608083015260c060a0830152611b5760c08301846116f1565b9897505050505050505056fea164736f6c634300080f000a",
    "linkReferences": {}
  },
  "methodIdentifiers": {
    "MESSAGE_VERSION()": "3f827a5a",
    "MIN_GAS_CALLDATA_OVERHEAD()": "028f85f7",
    "MIN_GAS_DYNAMIC_OVERHEAD_DENOMINATOR()": "0c568498",
    "MIN_GAS_DYNAMIC_OVERHEAD_NUMERATOR()": "2828d7e8",
    "OTHER_MESSENGER()": "9fce812c",
    "RELAY_CALL_OVERHEAD()": "4c1d6a69",
    "RELAY_CONSTANT_OVERHEAD()": "83a74074",
    "RELAY_GAS_CHECK_BUFFER()": "5644cfdf",
    "RELAY_RESERVED_GAS()": "8cbeeef2",
    "baseGas(bytes,uint32)": "b28ade25",
    "failedMessages(bytes32)": "a4e7f8bd",
    "initialize()": "8129fc1c",
    "l1CrossDomainMessenger()": "a7119869",
    "messageNonce()": "ecc70428",
    "relayMessage(uint256,address,address,uint256,uint256,bytes)": "d764ad0b",
    "sendMessage(address,bytes,uint32)": "3dbb202b",
    "successfulMessages(bytes32)": "b1b1b209",
    "version()": "54fd4d50",
    "xDomainMessageSender()": "6e296e45"
  },
  "storageLayout": {
    "storage": [
      {
        "astId": 74884,
        "contract": "src/L2/L2CrossDomainMessenger.sol:L2CrossDomainMessenger",
        "label": "spacer_0_0_20",
        "offset": 0,
        "slot": "0",
        "type": "t_address"
      },
      {
        "astId": 29536,
        "contract": "src/L2/L2CrossDomainMessenger.sol:L2CrossDomainMessenger",
        "label": "_initialized",
        "offset": 20,
        "slot": "0",
        "type": "t_uint8"
      },
      {
        "astId": 29539,
        "contract": "src/L2/L2CrossDomainMessenger.sol:L2CrossDomainMessenger",
        "label": "_initializing",
        "offset": 21,
        "slot": "0",
        "type": "t_bool"
      },
      {
        "astId": 74891,
        "contract": "src/L2/L2CrossDomainMessenger.sol:L2CrossDomainMessenger",
        "label": "spacer_1_0_1600",
        "offset": 0,
        "slot": "1",
        "type": "t_array(t_uint256)50_storage"
      },
      {
        "astId": 74894,
        "contract": "src/L2/L2CrossDomainMessenger.sol:L2CrossDomainMessenger",
        "label": "spacer_51_0_20",
        "offset": 0,
        "slot": "51",
        "type": "t_address"
      },
      {
        "astId": 74899,
        "contract": "src/L2/L2CrossDomainMessenger.sol:L2CrossDomainMessenger",
        "label": "spacer_52_0_1568",
        "offset": 0,
        "slot": "52",
        "type": "t_array(t_uint256)49_storage"
      },
      {
        "astId": 74902,
        "contract": "src/L2/L2CrossDomainMessenger.sol:L2CrossDomainMessenger",
        "label": "spacer_101_0_1",
        "offset": 0,
        "slot": "101",
        "type": "t_bool"
      },
      {
        "astId": 74907,
        "contract": "src/L2/L2CrossDomainMessenger.sol:L2CrossDomainMessenger",
        "label": "spacer_102_0_1568",
        "offset": 0,
        "slot": "102",
        "type": "t_array(t_uint256)49_storage"
      },
      {
        "astId": 74910,
        "contract": "src/L2/L2CrossDomainMessenger.sol:L2CrossDomainMessenger",
        "label": "spacer_151_0_32",
        "offset": 0,
        "slot": "151",
        "type": "t_uint256"
      },
      {
        "astId": 74915,
        "contract": "src/L2/L2CrossDomainMessenger.sol:L2CrossDomainMessenger",
        "label": "spacer_152_0_1568",
        "offset": 0,
        "slot": "152",
        "type": "t_array(t_uint256)49_storage"
      },
      {
        "astId": 74920,
        "contract": "src/L2/L2CrossDomainMessenger.sol:L2CrossDomainMessenger",
        "label": "spacer_201_0_32",
        "offset": 0,
        "slot": "201",
        "type": "t_mapping(t_bytes32,t_bool)"
      },
      {
        "astId": 74925,
        "contract": "src/L2/L2CrossDomainMessenger.sol:L2CrossDomainMessenger",
        "label": "spacer_202_0_32",
        "offset": 0,
        "slot": "202",
        "type": "t_mapping(t_bytes32,t_bool)"
      },
      {
        "astId": 74973,
        "contract": "src/L2/L2CrossDomainMessenger.sol:L2CrossDomainMessenger",
        "label": "successfulMessages",
        "offset": 0,
        "slot": "203",
        "type": "t_mapping(t_bytes32,t_bool)"
      },
      {
        "astId": 74976,
        "contract": "src/L2/L2CrossDomainMessenger.sol:L2CrossDomainMessenger",
        "label": "xDomainMsgSender",
        "offset": 0,
        "slot": "204",
        "type": "t_address"
      },
      {
        "astId": 74979,
        "contract": "src/L2/L2CrossDomainMessenger.sol:L2CrossDomainMessenger",
        "label": "msgNonce",
        "offset": 0,
        "slot": "205",
        "type": "t_uint240"
      },
      {
        "astId": 74984,
        "contract": "src/L2/L2CrossDomainMessenger.sol:L2CrossDomainMessenger",
        "label": "failedMessages",
        "offset": 0,
        "slot": "206",
        "type": "t_mapping(t_bytes32,t_bool)"
      },
      {
        "astId": 74989,
        "contract": "src/L2/L2CrossDomainMessenger.sol:L2CrossDomainMessenger",
        "label": "__gap",
        "offset": 0,
        "slot": "207",
        "type": "t_array(t_uint256)42_storage"
      }
    ],
    "types": {
      "t_address": {
        "encoding": "inplace",
        "label": "address",
        "numberOfBytes": "20"
      },
      "t_array(t_uint256)42_storage": {
        "encoding": "inplace",
        "label": "uint256[42]",
        "numberOfBytes": "1344",
        "base": "t_uint256"
      },
      "t_array(t_uint256)49_storage": {
        "encoding": "inplace",
        "label": "uint256[49]",
        "numberOfBytes": "1568",
        "base": "t_uint256"
      },
      "t_array(t_uint256)50_storage": {
        "encoding": "inplace",
        "label": "uint256[50]",
        "numberOfBytes": "1600",
        "base": "t_uint256"
      },
      "t_bool": {
        "encoding": "inplace",
        "label": "bool",
        "numberOfBytes": "1"
      },
      "t_bytes32": {
        "encoding": "inplace",
        "label": "bytes32",
        "numberOfBytes": "32"
      },
      "t_mapping(t_bytes32,t_bool)": {
        "encoding": "mapping",
        "key": "t_bytes32",
        "label": "mapping(bytes32 => bool)",
        "numberOfBytes": "32",
        "value": "t_bool"
      },
      "t_uint240": {
        "encoding": "inplace",
        "label": "uint240",
        "numberOfBytes": "30"
      },
      "t_uint256": {
        "encoding": "inplace",
        "label": "uint256",
        "numberOfBytes": "32"
      },
      "t_uint8": {
        "encoding": "inplace",
        "label": "uint8",
        "numberOfBytes": "1"
      }
    }
  },
  "userdoc": {
    "version": 1,
    "kind": "user",
    "methods": {
      "MESSAGE_VERSION()": {
        "notice": "Current message version identifier."
      },
      "MIN_GAS_CALLDATA_OVERHEAD()": {
        "notice": "Extra gas added to base gas for each byte of calldata in a message."
      },
      "MIN_GAS_DYNAMIC_OVERHEAD_DENOMINATOR()": {
        "notice": "Denominator for dynamic overhead added to the base gas for a message."
      },
      "MIN_GAS_DYNAMIC_OVERHEAD_NUMERATOR()": {
        "notice": "Numerator for dynamic overhead added to the base gas for a message."
      },
      "OTHER_MESSENGER()": {
        "notice": "Address of the paired CrossDomainMessenger contract on the other chain."
      },
      "RELAY_CALL_OVERHEAD()": {
        "notice": "Gas reserved for performing the external call in `relayMessage`."
      },
      "RELAY_CONSTANT_OVERHEAD()": {
        "notice": "Constant overhead added to the base gas for a message."
      },
      "RELAY_GAS_CHECK_BUFFER()": {
        "notice": "Gas reserved for the execution between the `hasMinGas` check and the external         call in `relayMessage`."
      },
      "RELAY_RESERVED_GAS()": {
        "notice": "Gas reserved for finalizing the execution of `relayMessage` after the safe call."
      },
      "baseGas(bytes,uint32)": {
        "notice": "Computes the amount of gas required to guarantee that a given message will be         received on the other chain without running out of gas. Guaranteeing that a message         will not run out of gas is important because this ensures that a message can always         be replayed on the other chain if it fails to execute completely."
      },
      "constructor": {
        "notice": "Constructs the L2CrossDomainMessenger contract."
      },
      "failedMessages(bytes32)": {
        "notice": "Mapping of message hashes to a boolean if and only if the message has failed to be         executed at least once. A message will not be present in this mapping if it         successfully executed on the first attempt."
      },
      "initialize()": {
        "notice": "Initializer."
      },
      "messageNonce()": {
        "notice": "Retrieves the next message nonce. Message version will be added to the upper two         bytes of the message nonce. Message version allows us to treat messages as having         different structures."
      },
      "relayMessage(uint256,address,address,uint256,uint256,bytes)": {
        "notice": "Relays a message that was sent by the other CrossDomainMessenger contract. Can only         be executed via cross-chain call from the other messenger OR if the message was         already received once and is currently being replayed."
      },
      "sendMessage(address,bytes,uint32)": {
        "notice": "Sends a message to some target address on the other chain. Note that if the call         always reverts, then the message will be unrelayable, and any ETH sent will be         permanently locked. The same will occur if the target on the other chain is         considered unsafe (see the _isUnsafeTarget() function)."
      },
      "successfulMessages(bytes32)": {
        "notice": "Mapping of message hashes to boolean receipt values. Note that a message will only         be present in this mapping if it has successfully been relayed on this chain, and         can therefore not be relayed again."
      },
      "xDomainMessageSender()": {
        "notice": "Retrieves the address of the contract or wallet that initiated the currently         executing message on the other chain. Will throw an error if there is no message         currently being executed. Allows the recipient of a call to see who triggered it."
      }
    },
    "events": {
      "FailedRelayedMessage(bytes32)": {
        "notice": "Emitted whenever a message fails to be relayed on this chain."
      },
      "RelayedMessage(bytes32)": {
        "notice": "Emitted whenever a message is successfully relayed on this chain."
      },
      "SentMessage(address,address,bytes,uint256,uint256)": {
        "notice": "Emitted whenever a message is sent to the other chain."
      },
      "SentMessageExtension1(address,uint256)": {
        "notice": "Additional event data to emit, required as of Bedrock. Cannot be merged with the         SentMessage event without breaking the ABI of this contract, this is good enough."
      }
    },
    "notice": "The L2CrossDomainMessenger is a high-level interface for message passing between L1 and         L2 on the L2 side. Users are generally encouraged to use this contract instead of lower         level message passing contracts."
  },
  "devdoc": {
    "version": 1,
    "kind": "dev",
    "methods": {
      "baseGas(bytes,uint32)": {
        "params": {
          "_message": "Message to compute the amount of required gas for.",
          "_minGasLimit": "Minimum desired gas limit when message goes to target."
        },
        "returns": {
          "_0": "Amount of gas required to guarantee message receipt."
        }
      },
      "constructor": {
        "params": {
          "_l1CrossDomainMessenger": "Address of the L1CrossDomainMessenger contract."
        }
      },
      "l1CrossDomainMessenger()": {
        "returns": {
          "_0": "Address of the L1CrossDomainMessenger contract."
        }
      },
      "messageNonce()": {
        "returns": {
          "_0": "Nonce of the next message to be sent, with added message version."
        }
      },
      "relayMessage(uint256,address,address,uint256,uint256,bytes)": {
        "params": {
          "_message": "Message to send to the target.",
          "_minGasLimit": "Minimum amount of gas that the message can be executed with.",
          "_nonce": "Nonce of the message being relayed.",
          "_sender": "Address of the user who sent the message.",
          "_target": "Address that the message is targeted at.",
          "_value": "ETH value to send with the message."
        }
      },
      "sendMessage(address,bytes,uint32)": {
        "params": {
          "_message": "Message to trigger the target address with.",
          "_minGasLimit": "Minimum gas limit that the message can be executed with.",
          "_target": "Target contract or wallet address."
        }
      },
      "xDomainMessageSender()": {
        "returns": {
          "_0": "Address of the sender of the currently executing message on the other chain."
        }
      }
    },
    "title": "L2CrossDomainMessenger"
  },
  "id": 123
}