{
  "abi": [
    {
      "inputs": [
        {
          "internalType": "contract StandardBridge",
          "name": "_otherBridge",
          "type": "address"
        }
      ],
      "stateMutability": "nonpayable",
      "type": "constructor"
    },
    {
      "anonymous": false,
      "inputs": [
        {
          "indexed": true,
          "internalType": "address",
          "name": "l1Token",
          "type": "address"
        },
        {
          "indexed": true,
          "internalType": "address",
          "name": "l2Token",
          "type": "address"
        },
        {
          "indexed": true,
          "internalType": "address",
          "name": "from",
          "type": "address"
        },
        {
          "indexed": false,
          "internalType": "address",
          "name": "to",
          "type": "address"
        },
        {
          "indexed": false,
          "internalType": "uint256",
          "name": "amount",
          "type": "uint256"
        },
        {
          "indexed": false,
          "internalType": "bytes",
          "name": "extraData",
          "type": "bytes"
        }
      ],
      "name": "DepositFinalized",
      "type": "event"
    },
    {
      "anonymous": false,
      "inputs": [
        {
          "indexed": true,
          "internalType": "address",
          "name": "localToken",
          "type": "address"
        },
        {
          "indexed": true,
          "internalType": "address",
          "name": "remoteToken",
          "type": "address"
        },
        {
          "indexed": true,
          "internalType": "address",
          "name": "from",
          "type": "address"
        },
        {
          "indexed": false,
          "internalType": "address",
          "name": "to",
          "type": "address"
        },
        {
          "indexed": false,
          "internalType": "uint256",
          "name": "amount",
          "type": "uint256"
        },
        {
          "indexed": false,
          "internalType": "bytes",
          "name": "extraData",
          "type": "bytes"
        }
      ],
      "name": "ERC20BridgeFinalized",
      "type": "event"
    },
    {
      "anonymous": false,
      "inputs": [
        {
          "indexed": true,
          "internalType": "address",
          "name": "localToken",
          "type": "address"
        },
        {
          "indexed": true,
          "internalType": "address",
          "name": "remoteToken",
          "type": "address"
        },
        {
          "indexed": true,
          "internalType": "address",
          "name": "from",
          "type": "address"
        },
        {
          "indexed": false,
          "internalType": "address",
          "name": "to",
          "type": "address"
        },
        {
          "indexed": false,
          "internalType": "uint256",
          "name": "amount",
          "type": "uint256"
        },
        {
          "indexed": false,
          "internalType": "bytes",
          "name": "extraData",
          "type": "bytes"
        }
      ],
      "name": "ERC20BridgeInitiated",
      "type": "event"
    },
    {
      "anonymous": false,
      "inputs": [
        {
          "indexed": true,
          "internalType": "address",
          "name": "from",
          "type": "address"
        },
        {
          "indexed": true,
          "internalType": "address",
          "name": "to",
          "type": "address"
        },
        {
          "indexed": false,
          "internalType": "uint256",
          "name": "amount",
          "type": "uint256"
        },
        {
          "indexed": false,
          "internalType": "bytes",
          "name": "extraData",
          "type": "bytes"
        }
      ],
      "name": "ETHBridgeFinalized",
      "type": "event"
    },
    {
      "anonymous": false,
      "inputs": [
        {
          "indexed": true,
          "internalType": "address",
          "name": "from",
          "type": "address"
        },
        {
          "indexed": true,
          "internalType": "address",
          "name": "to",
          "type": "address"
        },
        {
          "indexed": false,
          "internalType": "uint256",
          "name": "amount",
          "type": "uint256"
        },
        {
          "indexed": false,
          "internalType": "bytes",
          "name": "extraData",
          "type": "bytes"
        }
      ],
      "name": "ETHBridgeInitiated",
      "type": "event"
    },
    {
      "anonymous": false,
      "inputs": [
        {
          "indexed": false,
          "internalType": "uint8",
          "name": "version",
          "type": "uint8"
        }
      ],
      "name": "Initialized",
      "type": "event"
    },
    {
      "anonymous": false,
      "inputs": [
        {
          "indexed": true,
          "internalType": "address",
          "name": "l1Token",
          "type": "address"
        },
        {
          "indexed": true,
          "internalType": "address",
          "name": "l2Token",
          "type": "address"
        },
        {
          "indexed": true,
          "internalType": "address",
          "name": "from",
          "type": "address"
        },
        {
          "indexed": false,
          "internalType": "address",
          "name": "to",
          "type": "address"
        },
        {
          "indexed": false,
          "internalType": "uint256",
          "name": "amount",
          "type": "uint256"
        },
        {
          "indexed": false,
          "internalType": "bytes",
          "name": "extraData",
          "type": "bytes"
        }
      ],
      "name": "WithdrawalInitiated",
      "type": "event"
    },
    {
      "inputs": [],
      "name": "MESSENGER",
      "outputs": [
        {
          "internalType": "contract CrossDomainMessenger",
          "name": "",
          "type": "address"
        }
      ],
      "stateMutability": "view",
      "type": "function"
    },
    {
      "inputs": [],
      "name": "OTHER_BRIDGE",
      "outputs": [
        {
          "internalType": "contract StandardBridge",
          "name": "",
          "type": "address"
        }
      ],
      "stateMutability": "view",
      "type": "function"
    },
    {
      "inputs": [
        {
          "internalType": "address",
          "name": "_localToken",
          "type": "address"
        },
        {
          "internalType": "address",
          "name": "_remoteToken",
          "type": "address"
        },
        {
          "internalType": "uint256",
          "name": "_amount",
          "type": "uint256"
        },
        {
          "internalType": "uint32",
          "name": "_minGasLimit",
          "type": "uint32"
        },
        {
          "internalType": "bytes",
          "name": "_extraData",
          "type": "bytes"
        }
      ],
      "name": "bridgeERC20",
      "outputs": [],
      "stateMutability": "nonpayable",
      "type": "function"
    },
    {
      "inputs": [
        {
          "internalType": "address",
          "name": "_localToken",
          "type": "address"
        },
        {
          "internalType": "address",
          "name": "_remoteToken",
          "type": "address"
        },
        {
          "internalType": "address",
          "name": "_to",
          "type": "address"
        },
        {
          "internalType": "uint256",
          "name": "_amount",
          "type": "uint256"
        },
        {
          "internalType": "uint32",
          "name": "_minGasLimit",
          "type": "uint32"
        },
        {
          "internalType": "bytes",
          "name": "_extraData",
          "type": "bytes"
        }
      ],
      "name": "bridgeERC20To",
      "outputs": [],
      "stateMutability": "nonpayable",
      "type": "function"
    },
    {
      "inputs": [
        {
          "internalType": "uint32",
          "name": "_minGasLimit",
          "type": "uint32"
        },
        {
          "internalType": "bytes",
          "name": "_extraData",
          "type": "bytes"
        }
      ],
      "name": "bridgeETH",
      "outputs": [],
      "stateMutability": "payable",
      "type": "function"
    },
    {
      "inputs": [
        {
          "internalType": "address",
          "name": "_to",
          "type": "address"
        },
        {
          "internalType": "uint32",
          "name": "_minGasLimit",
          "type": "uint32"
        },
        {
          "internalType": "bytes",
          "name": "_extraData",
          "type": "bytes"
        }
      ],
      "name": "bridgeETHTo",
      "outputs": [],
      "stateMutability": "payable",
      "type": "function"
    },
    {
      "inputs": [
        {
          "internalType": "address",
          "name": "",
          "type": "address"
        },
        {
          "internalType": "address",
          "name": "",
          "type": "address"
        }
      ],
      "name": "deposits",
      "outputs": [
        {
          "internalType": "uint256",
          "name": "",
          "type": "uint256"
        }
      ],
      "stateMutability": "view",
      "type": "function"
    },
    {
      "inputs": [
        {
          "internalType": "address",
          "name": "_localToken",
          "type": "address"
        },
        {
          "internalType": "address",
          "name": "_remoteToken",
          "type": "address"
        },
        {
          "internalType": "address",
          "name": "_from",
          "type": "address"
        },
        {
          "internalType": "address",
          "name": "_to",
          "type": "address"
        },
        {
          "internalType": "uint256",
          "name": "_amount",
          "type": "uint256"
        },
        {
          "internalType": "bytes",
          "name": "_extraData",
          "type": "bytes"
        }
      ],
      "name": "finalizeBridgeERC20",
      "outputs": [],
      "stateMutability": "nonpayable",
      "type": "function"
    },
    {
      "inputs": [
        {
          "internalType": "address",
          "name": "_from",
          "type": "address"
        },
        {
          "internalType": "address",
          "name": "_to",
          "type": "address"
        },
        {
          "internalType": "uint256",
          "name": "_amount",
          "type": "uint256"
        },
        {
          "internalType": "bytes",
          "name": "_extraData",
          "type": "bytes"
        }
      ],
      "name": "finalizeBridgeETH",
      "outputs": [],
      "stateMutability": "payable",
      "type": "function"
    },
    {
      "inputs": [
        {
          "internalType": "address",
          "name": "_l1Token",
          "type": "address"
        },
        {
          "internalType": "address",
          "name": "_l2Token",
          "type": "address"
        },
        {
          "internalType": "address",
          "name": "_from",
          "type": "address"
        },
        {
          "internalType": "address",
          "name": "_to",
          "type": "address"
        },
        {
          "internalType": "uint256",
          "name": "_amount",
          "type": "uint256"
        },
        {
          "internalType": "bytes",
          "name": "_extraData",
          "type": "bytes"
        }
      ],
      "name": "finalizeDeposit",
      "outputs": [],
      "stateMutability": "payable",
      "type": "function"
    },
    {
      "inputs": [],
      "name": "initialize",
      "outputs": [],
      "stateMutability": "nonpayable",
      "type": "function"
    },
    {
      "inputs": [],
      "name": "l1TokenBridge",
      "outputs": [
        {
          "internalType": "address",
          "name": "",
          "type": "address"
        }
      ],
      "stateMutability": "view",
      "type": "function"
    },
    {
      "inputs": [],
      "name": "messenger",
      "outputs": [
        {
          "internalType": "contract CrossDomainMessenger",
          "name": "",
          "type": "address"
        }
      ],
      "stateMutability": "view",
      "type": "function"
    },
    {
      "inputs": [],
      "name": "otherBridge",
      "outputs": [
        {
          "internalType": "contract StandardBridge",
          "name": "",
          "type": "address"
        }
      ],
      "stateMutability": "view",
      "type": "function"
    },
    {
      "inputs": [],
      "name": "version",
      "outputs": [
        {
          "internalType": "string",
          "name": "",
          "type": "string"
        }
      ],
      "stateMutability": "view",
      "type": "function"
    },
    {
      "inputs": [
        {
          "internalType": "address",
          "name": "_l2Token",
          "type": "address"
        },
        {
          "internalType": "uint256",
          "name": "_amount",
          "type": "uint256"
        },
        {
          "internalType": "uint32",
          "name": "_minGasLimit",
          "type": "uint32"
        },
        {
          "internalType": "bytes",
          "name": "_extraData",
          "type": "bytes"
        }
      ],
      "name": "withdraw",
      "outputs": [],
      "stateMutability": "payable",
      "type": "function"
    },
    {
      "inputs": [
        {
          "internalType": "address",
          "name": "_l2Token",
          "type": "address"
        },
        {
          "internalType": "address",
          "name": "_to",
          "type": "address"
        },
        {
          "internalType": "uint256",
          "name": "_amount",
          "type": "uint256"
        },
        {
          "internalType": "uint32",
          "name": "_minGasLimit",
          "type": "uint32"
        },
        {
          "internalType": "bytes",
          "name": "_extraData",
          "type": "bytes"
        }
      ],
      "name": "withdrawTo",
      "outputs": [],
      "stateMutability": "payable",
      "type": "function"
    },
    {
      "stateMutability": "payable",
      "type": "receive"
    }
  ],
  "bytecode": {
    "object": "0x60a06040523480156200001157600080fd5b5060405162002c8538038062002c858339810160408190526200003491620001e4565b6001600160a01b0381166080526200004b62000052565b5062000216565b600054600290610100900460ff1615801562000075575060005460ff8083169116105b620000de5760405162461bcd60e51b815260206004820152602e60248201527f496e697469616c697a61626c653a20636f6e747261637420697320616c72656160448201526d191e481a5b9a5d1a585b1a5e995960921b60648201526084015b60405180910390fd5b6000805461ffff191660ff8316176101001790556200011173420000000000000000000000000000000000000762000155565b6000805461ff001916905560405160ff821681527f7f26b83ff96e1f2b6a682f133852f6798a09c465da95921460cefb38474024989060200160405180910390a150565b600054610100900460ff16620001c25760405162461bcd60e51b815260206004820152602b60248201527f496e697469616c697a61626c653a20636f6e7472616374206973206e6f74206960448201526a6e697469616c697a696e6760a81b6064820152608401620000d5565b600380546001600160a01b0319166001600160a01b0392909216919091179055565b600060208284031215620001f757600080fd5b81516001600160a01b03811681146200020f57600080fd5b9392505050565b608051612a30620002556000396000818161024e015281816103600152818161058e01528181610a230152818161134001526116820152612a306000f3fe6080604052600436106101125760003560e01c8063662a633a116100a55780638f601f6611610074578063a3a7954811610059578063a3a7954814610428578063c89701a21461023f578063e11013dd1461043b57600080fd5b80638f601f66146103b7578063927ede2d146103fd57600080fd5b8063662a633a1461033b5780637f46ddb21461034e5780638129fc1c14610382578063870876231461039757600080fd5b806336c717c1116100e157806336c717c11461023f5780633cb747bf14610298578063540abf73146102c557806354fd4d50146102e557600080fd5b80630166a07a146101e657806309fc8843146102065780631635f5fd1461021957806332b7006d1461022c57600080fd5b366101e157333b156101ab576040517f08c379a000000000000000000000000000000000000000000000000000000000815260206004820152603760248201527f5374616e646172644272696467653a2066756e6374696f6e2063616e206f6e6c60448201527f792062652063616c6c65642066726f6d20616e20454f4100000000000000000060648201526084015b60405180910390fd5b6101df73deaddeaddeaddeaddeaddeaddeaddeaddead000033333462030d406040518060200160405280600081525061044e565b005b600080fd5b3480156101f257600080fd5b506101df610201366004612440565b610529565b6101df6102143660046124f1565b6108e7565b6101df610227366004612544565b6109be565b6101df61023a3660046125b7565b610e2c565b34801561024b57600080fd5b507f00000000000000000000000000000000000000000000000000000000000000005b60405173ffffffffffffffffffffffffffffffffffffffff90911681526020015b60405180910390f35b3480156102a457600080fd5b5060035461026e9073ffffffffffffffffffffffffffffffffffffffff1681565b3480156102d157600080fd5b506101df6102e036600461260b565b610f06565b3480156102f157600080fd5b5061032e6040518060400160405280600581526020017f312e332e3000000000000000000000000000000000000000000000000000000081525081565b60405161028f91906126f8565b6101df610349366004612440565b610f4b565b34801561035a57600080fd5b5061026e7f000000000000000000000000000000000000000000000000000000000000000081565b34801561038e57600080fd5b506101df610fbe565b3480156103a357600080fd5b506101df6103b236600461270b565b61111b565b3480156103c357600080fd5b506103ef6103d236600461278e565b600260209081526000928352604080842090915290825290205481565b60405190815260200161028f565b34801561040957600080fd5b5060035473ffffffffffffffffffffffffffffffffffffffff1661026e565b6101df61043636600461270b565b6111ef565b6101df6104493660046127c7565b611233565b7fffffffffffffffffffffffff215221522152215221522152215221522153000073ffffffffffffffffffffffffffffffffffffffff87160161049d57610498858585858561127c565b610521565b60008673ffffffffffffffffffffffffffffffffffffffff1663c01e1bd66040518163ffffffff1660e01b8152600401602060405180830381865afa1580156104ea573d6000803e3d6000fd5b505050506040513d601f19601f8201168201806040525081019061050e919061282a565b905061051f87828888888888611462565b505b505050505050565b60035473ffffffffffffffffffffffffffffffffffffffff16331480156106185750600354604080517f6e296e45000000000000000000000000000000000000000000000000000000008152905173ffffffffffffffffffffffffffffffffffffffff7f00000000000000000000000000000000000000000000000000000000000000008116931691636e296e459160048083019260209291908290030181865afa1580156105dc573d6000803e3d6000fd5b505050506040513d601f19601f82011682018060405250810190610600919061282a565b73ffffffffffffffffffffffffffffffffffffffff16145b6106ca576040517f08c379a000000000000000000000000000000000000000000000000000000000815260206004820152604160248201527f5374616e646172644272696467653a2066756e6374696f6e2063616e206f6e6c60448201527f792062652063616c6c65642066726f6d20746865206f7468657220627269646760648201527f6500000000000000000000000000000000000000000000000000000000000000608482015260a4016101a2565b6106d3876117aa565b15610821576106e2878761180c565b610794576040517f08c379a000000000000000000000000000000000000000000000000000000000815260206004820152604a60248201527f5374616e646172644272696467653a2077726f6e672072656d6f746520746f6b60448201527f656e20666f72204f7074696d69736d204d696e7461626c65204552433230206c60648201527f6f63616c20746f6b656e00000000000000000000000000000000000000000000608482015260a4016101a2565b6040517f40c10f1900000000000000000000000000000000000000000000000000000000815273ffffffffffffffffffffffffffffffffffffffff8581166004830152602482018590528816906340c10f1990604401600060405180830381600087803b15801561080457600080fd5b505af1158015610818573d6000803e3d6000fd5b505050506108a3565b73ffffffffffffffffffffffffffffffffffffffff8088166000908152600260209081526040808320938a168352929052205461085f908490612876565b73ffffffffffffffffffffffffffffffffffffffff8089166000818152600260209081526040808320948c16835293905291909120919091556108a390858561192c565b61051f878787878787878080601f016020809104026020016040519081016040528093929190818152602001838380828437600092019190915250611a0092505050565b333b15610976576040517f08c379a000000000000000000000000000000000000000000000000000000000815260206004820152603760248201527f5374616e646172644272696467653a2066756e6374696f6e2063616e206f6e6c60448201527f792062652063616c6c65642066726f6d20616e20454f4100000000000000000060648201526084016101a2565b6109b93333348686868080601f01602080910402602001604051908101604052809392919081815260200183838082843760009201919091525061127c92505050565b505050565b60035473ffffffffffffffffffffffffffffffffffffffff1633148015610aad5750600354604080517f6e296e45000000000000000000000000000000000000000000000000000000008152905173ffffffffffffffffffffffffffffffffffffffff7f00000000000000000000000000000000000000000000000000000000000000008116931691636e296e459160048083019260209291908290030181865afa158015610a71573d6000803e3d6000fd5b505050506040513d601f19601f82011682018060405250810190610a95919061282a565b73ffffffffffffffffffffffffffffffffffffffff16145b610b5f576040517f08c379a000000000000000000000000000000000000000000000000000000000815260206004820152604160248201527f5374616e646172644272696467653a2066756e6374696f6e2063616e206f6e6c60448201527f792062652063616c6c65642066726f6d20746865206f7468657220627269646760648201527f6500000000000000000000000000000000000000000000000000000000000000608482015260a4016101a2565b823414610bee576040517f08c379a000000000000000000000000000000000000000000000000000000000815260206004820152603a60248201527f5374616e646172644272696467653a20616d6f756e742073656e7420646f657360448201527f206e6f74206d6174636820616d6f756e7420726571756972656400000000000060648201526084016101a2565b3073ffffffffffffffffffffffffffffffffffffffff851603610c93576040517f08c379a000000000000000000000000000000000000000000000000000000000815260206004820152602360248201527f5374616e646172644272696467653a2063616e6e6f742073656e6420746f207360448201527f656c66000000000000000000000000000000000000000000000000000000000060648201526084016101a2565b60035473ffffffffffffffffffffffffffffffffffffffff90811690851603610d3e576040517f08c379a000000000000000000000000000000000000000000000000000000000815260206004820152602860248201527f5374616e646172644272696467653a2063616e6e6f742073656e6420746f206d60448201527f657373656e67657200000000000000000000000000000000000000000000000060648201526084016101a2565b610d8085858585858080601f016020809104026020016040519081016040528093929190818152602001838380828437600092019190915250611a8e92505050565b6000610d9d855a8660405180602001604052806000815250611b2f565b905080610521576040517f08c379a000000000000000000000000000000000000000000000000000000000815260206004820152602360248201527f5374616e646172644272696467653a20455448207472616e736665722066616960448201527f6c6564000000000000000000000000000000000000000000000000000000000060648201526084016101a2565b333b15610ebb576040517f08c379a000000000000000000000000000000000000000000000000000000000815260206004820152603760248201527f5374616e646172644272696467653a2066756e6374696f6e2063616e206f6e6c60448201527f792062652063616c6c65642066726f6d20616e20454f4100000000000000000060648201526084016101a2565b610eff853333878787878080601f01602080910402602001604051908101604052809392919081815260200183838082843760009201919091525061044e92505050565b5050505050565b61051f87873388888888888080601f01602080910402602001604051908101604052809392919081815260200183838082843760009201919091525061146292505050565b73ffffffffffffffffffffffffffffffffffffffff8716158015610f98575073ffffffffffffffffffffffffffffffffffffffff861673deaddeaddeaddeaddeaddeaddeaddeaddead0000145b15610faf57610faa85858585856109be565b61051f565b61051f86888787878787610529565b600054600290610100900460ff16158015610fe0575060005460ff8083169116105b61106c576040517f08c379a000000000000000000000000000000000000000000000000000000000815260206004820152602e60248201527f496e697469616c697a61626c653a20636f6e747261637420697320616c72656160448201527f647920696e697469616c697a656400000000000000000000000000000000000060648201526084016101a2565b600080547fffffffffffffffffffffffffffffffffffffffffffffffffffffffffffff00001660ff8316176101001790556110ba734200000000000000000000000000000000000007611b49565b600080547fffffffffffffffffffffffffffffffffffffffffffffffffffffffffffff00ff16905560405160ff821681527f7f26b83ff96e1f2b6a682f133852f6798a09c465da95921460cefb38474024989060200160405180910390a150565b333b156111aa576040517f08c379a000000000000000000000000000000000000000000000000000000000815260206004820152603760248201527f5374616e646172644272696467653a2066756e6374696f6e2063616e206f6e6c60448201527f792062652063616c6c65642066726f6d20616e20454f4100000000000000000060648201526084016101a2565b61052186863333888888888080601f01602080910402602001604051908101604052809392919081815260200183838082843760009201919091525061146292505050565b610521863387878787878080601f01602080910402602001604051908101604052809392919081815260200183838082843760009201919091525061044e92505050565b6112763385348686868080601f01602080910402602001604051908101604052809392919081815260200183838082843760009201919091525061127c92505050565b50505050565b82341461130b576040517f08c379a000000000000000000000000000000000000000000000000000000000815260206004820152603e60248201527f5374616e646172644272696467653a206272696467696e6720455448206d757360448201527f7420696e636c7564652073756666696369656e74204554482076616c7565000060648201526084016101a2565b61131785858584611c27565b60035460405173ffffffffffffffffffffffffffffffffffffffff90911690633dbb202b9085907f0000000000000000000000000000000000000000000000000000000000000000907f1635f5fd0000000000000000000000000000000000000000000000000000000090611396908b908b9086908a9060240161288d565b604080517fffffffffffffffffffffffffffffffffffffffffffffffffffffffffffffffe08184030181529181526020820180517bffffffffffffffffffffffffffffffffffffffffffffffffffffffff167fffffffff000000000000000000000000000000000000000000000000000000009485161790525160e086901b9092168252611429929188906004016128d6565b6000604051808303818588803b15801561144257600080fd5b505af1158015611456573d6000803e3d6000fd5b50505050505050505050565b61146b876117aa565b156115b95761147a878761180c565b61152c576040517f08c379a000000000000000000000000000000000000000000000000000000000815260206004820152604a60248201527f5374616e646172644272696467653a2077726f6e672072656d6f746520746f6b60448201527f656e20666f72204f7074696d69736d204d696e7461626c65204552433230206c60648201527f6f63616c20746f6b656e00000000000000000000000000000000000000000000608482015260a4016101a2565b6040517f9dc29fac00000000000000000000000000000000000000000000000000000000815273ffffffffffffffffffffffffffffffffffffffff868116600483015260248201859052881690639dc29fac90604401600060405180830381600087803b15801561159c57600080fd5b505af11580156115b0573d6000803e3d6000fd5b5050505061164d565b6115db73ffffffffffffffffffffffffffffffffffffffff8816863086611cc8565b73ffffffffffffffffffffffffffffffffffffffff8088166000908152600260209081526040808320938a168352929052205461161990849061291b565b73ffffffffffffffffffffffffffffffffffffffff8089166000908152600260209081526040808320938b16835292905220555b61165b878787878786611d26565b60035460405173ffffffffffffffffffffffffffffffffffffffff90911690633dbb202b907f0000000000000000000000000000000000000000000000000000000000000000907f0166a07a00000000000000000000000000000000000000000000000000000000906116dc908b908d908c908c908c908b90602401612933565b604080517fffffffffffffffffffffffffffffffffffffffffffffffffffffffffffffffe08184030181529181526020820180517bffffffffffffffffffffffffffffffffffffffffffffffffffffffff167fffffffff000000000000000000000000000000000000000000000000000000009485161790525160e085901b909216825261176f929187906004016128d6565b600060405180830381600087803b15801561178957600080fd5b505af115801561179d573d6000803e3d6000fd5b5050505050505050505050565b60006117d6827f1d1d8b6300000000000000000000000000000000000000000000000000000000611db4565b806118065750611806827fec4fc8e300000000000000000000000000000000000000000000000000000000611db4565b92915050565b6000611838837f1d1d8b6300000000000000000000000000000000000000000000000000000000611db4565b156118e1578273ffffffffffffffffffffffffffffffffffffffff1663c01e1bd66040518163ffffffff1660e01b8152600401602060405180830381865afa158015611888573d6000803e3d6000fd5b505050506040513d601f19601f820116820180604052508101906118ac919061282a565b73ffffffffffffffffffffffffffffffffffffffff168273ffffffffffffffffffffffffffffffffffffffff16149050611806565b8273ffffffffffffffffffffffffffffffffffffffff1663d6c0b2c46040518163ffffffff1660e01b8152600401602060405180830381865afa158015611888573d6000803e3d6000fd5b60405173ffffffffffffffffffffffffffffffffffffffff83166024820152604481018290526109b99084907fa9059cbb00000000000000000000000000000000000000000000000000000000906064015b604080517fffffffffffffffffffffffffffffffffffffffffffffffffffffffffffffffe08184030181529190526020810180517bffffffffffffffffffffffffffffffffffffffffffffffffffffffff167fffffffff0000000000000000000000000000000000000000000000000000000090931692909217909152611dd7565b8373ffffffffffffffffffffffffffffffffffffffff168673ffffffffffffffffffffffffffffffffffffffff168673ffffffffffffffffffffffffffffffffffffffff167fb0444523268717a02698be47d0803aa7468c00acbed2f8bd93a0459cde61dd89868686604051611a789392919061298e565b60405180910390a4610521868686868686611ee3565b8373ffffffffffffffffffffffffffffffffffffffff1673deaddeaddeaddeaddeaddeaddeaddeaddead000073ffffffffffffffffffffffffffffffffffffffff16600073ffffffffffffffffffffffffffffffffffffffff167fb0444523268717a02698be47d0803aa7468c00acbed2f8bd93a0459cde61dd89868686604051611b1b9392919061298e565b60405180910390a461127684848484611f6b565b600080600080845160208601878a8af19695505050505050565b600054610100900460ff16611be0576040517f08c379a000000000000000000000000000000000000000000000000000000000815260206004820152602b60248201527f496e697469616c697a61626c653a20636f6e7472616374206973206e6f74206960448201527f6e697469616c697a696e6700000000000000000000000000000000000000000060648201526084016101a2565b600380547fffffffffffffffffffffffff00000000000000000000000000000000000000001673ffffffffffffffffffffffffffffffffffffffff92909216919091179055565b8373ffffffffffffffffffffffffffffffffffffffff1673deaddeaddeaddeaddeaddeaddeaddeaddead000073ffffffffffffffffffffffffffffffffffffffff16600073ffffffffffffffffffffffffffffffffffffffff167f73d170910aba9e6d50b102db522b1dbcd796216f5128b445aa2135272886497e868686604051611cb49392919061298e565b60405180910390a461127684848484611fd8565b60405173ffffffffffffffffffffffffffffffffffffffff808516602483015283166044820152606481018290526112769085907f23b872dd000000000000000000000000000000000000000000000000000000009060840161197e565b8373ffffffffffffffffffffffffffffffffffffffff168673ffffffffffffffffffffffffffffffffffffffff168673ffffffffffffffffffffffffffffffffffffffff167f73d170910aba9e6d50b102db522b1dbcd796216f5128b445aa2135272886497e868686604051611d9e9392919061298e565b60405180910390a4610521868686868686612037565b6000611dbf836120af565b8015611dd05750611dd08383612113565b9392505050565b6000611e39826040518060400160405280602081526020017f5361666545524332303a206c6f772d6c6576656c2063616c6c206661696c65648152508573ffffffffffffffffffffffffffffffffffffffff166121e29092919063ffffffff16565b8051909150156109b95780806020019051810190611e5791906129cc565b6109b9576040517f08c379a000000000000000000000000000000000000000000000000000000000815260206004820152602a60248201527f5361666545524332303a204552433230206f7065726174696f6e20646964206e60448201527f6f7420737563636565640000000000000000000000000000000000000000000060648201526084016101a2565b8373ffffffffffffffffffffffffffffffffffffffff168573ffffffffffffffffffffffffffffffffffffffff168773ffffffffffffffffffffffffffffffffffffffff167fd59c65b35445225835c83f50b6ede06a7be047d22e357073e250d9af537518cd868686604051611f5b9392919061298e565b60405180910390a4505050505050565b8273ffffffffffffffffffffffffffffffffffffffff168473ffffffffffffffffffffffffffffffffffffffff167f31b2166ff604fc5672ea5df08a78081d2bc6d746cadce880747f3643d819e83d8484604051611fca9291906129ee565b60405180910390a350505050565b8273ffffffffffffffffffffffffffffffffffffffff168473ffffffffffffffffffffffffffffffffffffffff167f2849b43074093a05396b6f2a937dee8565b15a48a7b3d4bffb732a5017380af58484604051611fca9291906129ee565b8373ffffffffffffffffffffffffffffffffffffffff168573ffffffffffffffffffffffffffffffffffffffff168773ffffffffffffffffffffffffffffffffffffffff167f7ff126db8024424bbfd9826e8ab82ff59136289ea440b04b39a0df1b03b9cabf868686604051611f5b9392919061298e565b60006120db827f01ffc9a700000000000000000000000000000000000000000000000000000000612113565b8015611806575061210c827fffffffff00000000000000000000000000000000000000000000000000000000612113565b1592915050565b604080517fffffffff000000000000000000000000000000000000000000000000000000008316602480830191909152825180830390910181526044909101909152602080820180517bffffffffffffffffffffffffffffffffffffffffffffffffffffffff167f01ffc9a700000000000000000000000000000000000000000000000000000000178152825160009392849283928392918391908a617530fa92503d915060005190508280156121cb575060208210155b80156121d75750600081115b979650505050505050565b60606121f184846000856121f9565b949350505050565b60608247101561228b576040517f08c379a000000000000000000000000000000000000000000000000000000000815260206004820152602660248201527f416464726573733a20696e73756666696369656e742062616c616e636520666f60448201527f722063616c6c000000000000000000000000000000000000000000000000000060648201526084016101a2565b73ffffffffffffffffffffffffffffffffffffffff85163b612309576040517f08c379a000000000000000000000000000000000000000000000000000000000815260206004820152601d60248201527f416464726573733a2063616c6c20746f206e6f6e2d636f6e747261637400000060448201526064016101a2565b6000808673ffffffffffffffffffffffffffffffffffffffff1685876040516123329190612a07565b60006040518083038185875af1925050503d806000811461236f576040519150601f19603f3d011682016040523d82523d6000602084013e612374565b606091505b50915091506121d78282866060831561238e575081611dd0565b82511561239e5782518084602001fd5b816040517f08c379a00000000000000000000000000000000000000000000000000000000081526004016101a291906126f8565b73ffffffffffffffffffffffffffffffffffffffff811681146123f457600080fd5b50565b60008083601f84011261240957600080fd5b50813567ffffffffffffffff81111561242157600080fd5b60208301915083602082850101111561243957600080fd5b9250929050565b600080600080600080600060c0888a03121561245b57600080fd5b8735612466816123d2565b96506020880135612476816123d2565b95506040880135612486816123d2565b94506060880135612496816123d2565b93506080880135925060a088013567ffffffffffffffff8111156124b957600080fd5b6124c58a828b016123f7565b989b979a50959850939692959293505050565b803563ffffffff811681146124ec57600080fd5b919050565b60008060006040848603121561250657600080fd5b61250f846124d8565b9250602084013567ffffffffffffffff81111561252b57600080fd5b612537868287016123f7565b9497909650939450505050565b60008060008060006080868803121561255c57600080fd5b8535612567816123d2565b94506020860135612577816123d2565b935060408601359250606086013567ffffffffffffffff81111561259a57600080fd5b6125a6888289016123f7565b969995985093965092949392505050565b6000806000806000608086880312156125cf57600080fd5b85356125da816123d2565b9450602086013593506125ef604087016124d8565b9250606086013567ffffffffffffffff81111561259a57600080fd5b600080600080600080600060c0888a03121561262657600080fd5b8735612631816123d2565b96506020880135612641816123d2565b95506040880135612651816123d2565b945060608801359350612666608089016124d8565b925060a088013567ffffffffffffffff8111156124b957600080fd5b60005b8381101561269d578181015183820152602001612685565b838111156112765750506000910152565b600081518084526126c6816020860160208601612682565b601f017fffffffffffffffffffffffffffffffffffffffffffffffffffffffffffffffe0169290920160200192915050565b602081526000611dd060208301846126ae565b60008060008060008060a0878903121561272457600080fd5b863561272f816123d2565b9550602087013561273f816123d2565b945060408701359350612754606088016124d8565b9250608087013567ffffffffffffffff81111561277057600080fd5b61277c89828a016123f7565b979a9699509497509295939492505050565b600080604083850312156127a157600080fd5b82356127ac816123d2565b915060208301356127bc816123d2565b809150509250929050565b600080600080606085870312156127dd57600080fd5b84356127e8816123d2565b93506127f6602086016124d8565b9250604085013567ffffffffffffffff81111561281257600080fd5b61281e878288016123f7565b95989497509550505050565b60006020828403121561283c57600080fd5b8151611dd0816123d2565b7f4e487b7100000000000000000000000000000000000000000000000000000000600052601160045260246000fd5b60008282101561288857612888612847565b500390565b600073ffffffffffffffffffffffffffffffffffffffff8087168352808616602084015250836040830152608060608301526128cc60808301846126ae565b9695505050505050565b73ffffffffffffffffffffffffffffffffffffffff8416815260606020820152600061290560608301856126ae565b905063ffffffff83166040830152949350505050565b6000821982111561292e5761292e612847565b500190565b600073ffffffffffffffffffffffffffffffffffffffff80891683528088166020840152808716604084015280861660608401525083608083015260c060a083015261298260c08301846126ae565b98975050505050505050565b73ffffffffffffffffffffffffffffffffffffffff841681528260208201526060604082015260006129c360608301846126ae565b95945050505050565b6000602082840312156129de57600080fd5b81518015158114611dd057600080fd5b8281526040602082015260006121f160408301846126ae565b60008251612a19818460208701612682565b919091019291505056fea164736f6c634300080f000a",
    "linkReferences": {}
  },
  "methodIdentifiers": {
    "MESSENGER()": "927ede2d",
    "OTHER_BRIDGE()": "7f46ddb2",
    "bridgeERC20(address,address,uint256,uint32,bytes)": "87087623",
    "bridgeERC20To(address,address,address,uint256,uint32,bytes)": "540abf73",
    "bridgeETH(uint32,bytes)": "09fc8843",
    "bridgeETHTo(address,uint32,bytes)": "e11013dd",
    "deposits(address,address)": "8f601f66",
    "finalizeBridgeERC20(address,address,address,address,uint256,bytes)": "0166a07a",
    "finalizeBridgeETH(address,address,uint256,bytes)": "1635f5fd",
    "finalizeDeposit(address,address,address,address,uint256,bytes)": "662a633a",
    "initialize()": "8129fc1c",
    "l1TokenBridge()": "36c717c1",
    "messenger()": "3cb747bf",
    "otherBridge()": "c89701a2",
    "version()": "54fd4d50",
    "withdraw(address,uint256,uint32,bytes)": "32b7006d",
    "withdrawTo(address,address,uint256,uint32,bytes)": "a3a79548"
  },
  "storageLayout": {
    "storage": [
      {
        "astId": 32100,
        "contract": "src/L2/L2StandardBridge.sol:L2StandardBridge",
        "label": "_initialized",
        "offset": 0,
        "slot": "0",
        "type": "t_uint8"
      },
      {
        "astId": 32103,
        "contract": "src/L2/L2StandardBridge.sol:L2StandardBridge",
        "label": "_initializing",
        "offset": 1,
        "slot": "0",
        "type": "t_bool"
      },
      {
        "astId": 77520,
        "contract": "src/L2/L2StandardBridge.sol:L2StandardBridge",
        "label": "spacer_0_2_20",
        "offset": 2,
        "slot": "0",
        "type": "t_address"
      },
      {
        "astId": 77523,
        "contract": "src/L2/L2StandardBridge.sol:L2StandardBridge",
        "label": "spacer_1_0_20",
        "offset": 0,
        "slot": "1",
        "type": "t_address"
      },
      {
        "astId": 77530,
        "contract": "src/L2/L2StandardBridge.sol:L2StandardBridge",
        "label": "deposits",
        "offset": 0,
        "slot": "2",
        "type": "t_mapping(t_address,t_mapping(t_address,t_uint256))"
      },
      {
        "astId": 77534,
        "contract": "src/L2/L2StandardBridge.sol:L2StandardBridge",
        "label": "messenger",
        "offset": 0,
        "slot": "3",
        "type": "t_contract(CrossDomainMessenger)75405"
      },
      {
        "astId": 77539,
        "contract": "src/L2/L2StandardBridge.sol:L2StandardBridge",
        "label": "__gap",
        "offset": 0,
        "slot": "4",
        "type": "t_array(t_uint256)46_storage"
      }
    ],
    "types": {
      "t_address": {
        "encoding": "inplace",
        "label": "address",
        "numberOfBytes": "20"
      },
      "t_array(t_uint256)46_storage": {
        "encoding": "inplace",
        "label": "uint256[46]",
        "numberOfBytes": "1472",
        "base": "t_uint256"
      },
      "t_bool": {
        "encoding": "inplace",
        "label": "bool",
        "numberOfBytes": "1"
      },
      "t_contract(CrossDomainMessenger)75405": {
        "encoding": "inplace",
        "label": "contract CrossDomainMessenger",
        "numberOfBytes": "20"
      },
      "t_mapping(t_address,t_mapping(t_address,t_uint256))": {
        "encoding": "mapping",
        "key": "t_address",
        "label": "mapping(address => mapping(address => uint256))",
        "numberOfBytes": "32",
        "value": "t_mapping(t_address,t_uint256)"
      },
      "t_mapping(t_address,t_uint256)": {
        "encoding": "mapping",
        "key": "t_address",
        "label": "mapping(address => uint256)",
        "numberOfBytes": "32",
        "value": "t_uint256"
      },
      "t_uint256": {
        "encoding": "inplace",
        "label": "uint256",
        "numberOfBytes": "32"
      },
      "t_uint8": {
        "encoding": "inplace",
        "label": "uint8",
        "numberOfBytes": "1"
      }
    }
  },
  "userdoc": {
    "version": 1,
    "kind": "user",
    "methods": {
      "MESSENGER()": {
        "notice": "Getter for messenger contract."
      },
      "OTHER_BRIDGE()": {
        "notice": "Corresponding bridge on the other domain. This public getter is deprecated         and will be removed in the future. Please use `otherBridge` instead."
      },
      "bridgeERC20(address,address,uint256,uint32,bytes)": {
        "notice": "Sends ERC20 tokens to the sender's address on the other chain. Note that if the         ERC20 token on the other chain does not recognize the local token as the correct         pair token, the ERC20 bridge will fail and the tokens will be returned to sender on         this chain."
      },
      "bridgeERC20To(address,address,address,uint256,uint32,bytes)": {
        "notice": "Sends ERC20 tokens to a receiver's address on the other chain. Note that if the         ERC20 token on the other chain does not recognize the local token as the correct         pair token, the ERC20 bridge will fail and the tokens will be returned to sender on         this chain."
      },
      "bridgeETH(uint32,bytes)": {
        "notice": "Sends ETH to the sender's address on the other chain."
      },
      "bridgeETHTo(address,uint32,bytes)": {
        "notice": "Sends ETH to a receiver's address on the other chain. Note that if ETH is sent to a         smart contract and the call fails, the ETH will be temporarily locked in the         StandardBridge on the other chain until the call is replayed. If the call cannot be         replayed with any amount of gas (call always reverts), then the ETH will be         permanently locked in the StandardBridge on the other chain. ETH will also         be locked if the receiver is the other bridge, because finalizeBridgeETH will revert         in that case."
      },
      "constructor": {
        "notice": "Constructs the L2StandardBridge contract."
      },
      "deposits(address,address)": {
        "notice": "Mapping that stores deposits for a given pair of local and remote tokens."
      },
      "finalizeBridgeERC20(address,address,address,address,uint256,bytes)": {
        "notice": "Finalizes an ERC20 bridge on this chain. Can only be triggered by the other         StandardBridge contract on the remote chain."
      },
      "finalizeBridgeETH(address,address,uint256,bytes)": {
        "notice": "Finalizes an ETH bridge on this chain. Can only be triggered by the other         StandardBridge contract on the remote chain."
      },
      "initialize()": {
        "notice": "Initializer"
      },
      "messenger()": {
        "notice": "Messenger contract on this domain. This public getter is deprecated         and will be removed in the future. Please use `messenger` instead."
      },
      "otherBridge()": {
        "notice": "Getter for the remote domain bridge contract."
      }
    },
    "events": {
      "ERC20BridgeFinalized(address,address,address,address,uint256,bytes)": {
        "notice": "Emitted when an ERC20 bridge is finalized on this chain."
      },
      "ERC20BridgeInitiated(address,address,address,address,uint256,bytes)": {
        "notice": "Emitted when an ERC20 bridge is initiated to the other chain."
      },
      "ETHBridgeFinalized(address,address,uint256,bytes)": {
        "notice": "Emitted when an ETH bridge is finalized on this chain."
      },
      "ETHBridgeInitiated(address,address,uint256,bytes)": {
        "notice": "Emitted when an ETH bridge is initiated to the other chain."
      }
    },
    "notice": "The L2StandardBridge is responsible for transfering ETH and ERC20 tokens between L1 and         L2. In the case that an ERC20 token is native to L2, it will be escrowed within this         contract. If the ERC20 token is native to L1, it will be burnt.         NOTE: this contract is not intended to support all variations of ERC20 tokens. Examples         of some token types that may not be properly supported by this contract include, but are         not limited to: tokens with transfer fees, rebasing tokens, and tokens with blocklists."
  },
  "devdoc": {
    "version": 1,
    "kind": "dev",
    "methods": {
      "MESSENGER()": {},
      "bridgeERC20(address,address,uint256,uint32,bytes)": {
        "params": {
          "_amount": "Amount of local tokens to deposit.",
          "_extraData": "Extra data to be sent with the transaction. Note that the recipient will                     not be triggered with this data, but it will be emitted and can be used                     to identify the transaction.",
          "_localToken": "Address of the ERC20 on this chain.",
          "_minGasLimit": "Minimum amount of gas that the bridge can be relayed with.",
          "_remoteToken": "Address of the corresponding token on the remote chain."
        }
      },
      "bridgeERC20To(address,address,address,uint256,uint32,bytes)": {
        "params": {
          "_amount": "Amount of local tokens to deposit.",
          "_extraData": "Extra data to be sent with the transaction. Note that the recipient will                     not be triggered with this data, but it will be emitted and can be used                     to identify the transaction.",
          "_localToken": "Address of the ERC20 on this chain.",
          "_minGasLimit": "Minimum amount of gas that the bridge can be relayed with.",
          "_remoteToken": "Address of the corresponding token on the remote chain.",
          "_to": "Address of the receiver."
        }
      },
      "bridgeETH(uint32,bytes)": {
        "params": {
          "_extraData": "Extra data to be sent with the transaction. Note that the recipient will                     not be triggered with this data, but it will be emitted and can be used                     to identify the transaction.",
          "_minGasLimit": "Minimum amount of gas that the bridge can be relayed with."
        }
      },
      "bridgeETHTo(address,uint32,bytes)": {
        "params": {
          "_extraData": "Extra data to be sent with the transaction. Note that the recipient will                     not be triggered with this data, but it will be emitted and can be used                     to identify the transaction.",
          "_minGasLimit": "Minimum amount of gas that the bridge can be relayed with.",
          "_to": "Address of the receiver."
        }
      },
      "constructor": {
        "params": {
          "_otherBridge": "Address of the L1StandardBridge."
        }
      },
      "finalizeBridgeERC20(address,address,address,address,uint256,bytes)": {
        "params": {
          "_amount": "Amount of the ERC20 being bridged.",
          "_extraData": "Extra data to be sent with the transaction. Note that the recipient will                     not be triggered with this data, but it will be emitted and can be used                     to identify the transaction.",
          "_from": "Address of the sender.",
          "_localToken": "Address of the ERC20 on this chain.",
          "_remoteToken": "Address of the corresponding token on the remote chain.",
          "_to": "Address of the receiver."
        }
      },
      "finalizeBridgeETH(address,address,uint256,bytes)": {
        "params": {
          "_amount": "Amount of ETH being bridged.",
          "_extraData": "Extra data to be sent with the transaction. Note that the recipient will                   not be triggered with this data, but it will be emitted and can be used                   to identify the transaction.",
          "_from": "Address of the sender.",
          "_to": "Address of the receiver."
        }
      },
      "finalizeDeposit(address,address,address,address,uint256,bytes)": {
        "params": {
          "_amount": "Amount of the tokens being deposited.",
          "_extraData": "Extra data attached to the deposit.",
          "_from": "Address of the depositor.",
          "_l1Token": "Address of the L1 token to deposit.",
          "_l2Token": "Address of the corresponding L2 token.",
          "_to": "Address of the recipient."
        }
      },
      "l1TokenBridge()": {
        "returns": {
          "_0": "Address of the corresponding L1 bridge contract."
        }
      },
      "withdraw(address,uint256,uint32,bytes)": {
        "params": {
          "_amount": "Amount of the L2 token to withdraw.",
          "_extraData": "Extra data attached to the withdrawal.",
          "_l2Token": "Address of the L2 token to withdraw.",
          "_minGasLimit": "Minimum gas limit to use for the transaction."
        }
      },
      "withdrawTo(address,address,uint256,uint32,bytes)": {
        "params": {
          "_amount": "Amount of the L2 token to withdraw.",
          "_extraData": "Extra data attached to the withdrawal.",
          "_l2Token": "Address of the L2 token to withdraw.",
          "_minGasLimit": "Minimum gas limit to use for the transaction.",
          "_to": "Recipient account on L1."
        }
      }
    },
    "events": {
      "DepositFinalized(address,address,address,address,uint256,bytes)": {
        "params": {
          "amount": "Amount of the ERC20 deposited.",
          "extraData": "Extra data attached to the deposit.",
          "from": "Address of the depositor.",
          "l1Token": "Address of the token on L1.",
          "l2Token": "Address of the corresponding token on L2.",
          "to": "Address of the recipient on L2."
        }
      },
      "WithdrawalInitiated(address,address,address,address,uint256,bytes)": {
        "params": {
          "amount": "Amount of the ERC20 withdrawn.",
          "extraData": "Extra data attached to the withdrawal.",
          "from": "Address of the withdrawer.",
          "l1Token": "Address of the token on L1.",
          "l2Token": "Address of the corresponding token on L2.",
          "to": "Address of the recipient on L1."
        }
      }
    },
    "title": "L2StandardBridge"
  },
  "id": 125
}