{
  "abi": [
    {
      "anonymous": false,
      "inputs": [
        {
          "indexed": false,
          "internalType": "address",
          "name": "oldOwner",
          "type": "address"
        },
        {
          "indexed": false,
          "internalType": "address",
          "name": "newOwner",
          "type": "address"
        }
      ],
      "name": "OwnerChanged",
      "type": "event"
    },
    {
      "anonymous": false,
      "inputs": [
        {
          "indexed": false,
          "internalType": "address",
          "name": "oldOwner",
          "type": "address"
        }
      ],
      "name": "WhitelistDisabled",
      "type": "event"
    },
    {
      "anonymous": false,
      "inputs": [
        {
          "indexed": false,
          "internalType": "address",
          "name": "deployer",
          "type": "address"
        },
        {
          "indexed": false,
          "internalType": "bool",
          "name": "whitelisted",
          "type": "bool"
        }
      ],
      "name": "WhitelistStatusChanged",
      "type": "event"
    },
    {
      "inputs": [],
      "name": "enableArbitraryContractDeployment",
      "outputs": [],
      "stateMutability": "nonpayable",
      "type": "function"
    },
    {
      "inputs": [
        {
          "internalType": "address",
          "name": "_deployer",
          "type": "address"
        }
      ],
      "name": "isDeployerAllowed",
      "outputs": [
        {
          "internalType": "bool",
          "name": "",
          "type": "bool"
        }
      ],
      "stateMutability": "view",
      "type": "function"
    },
    {
      "inputs": [],
      "name": "owner",
      "outputs": [
        {
          "internalType": "address",
          "name": "",
          "type": "address"
        }
      ],
      "stateMutability": "view",
      "type": "function"
    },
    {
      "inputs": [
        {
          "internalType": "address",
          "name": "_owner",
          "type": "address"
        }
      ],
      "name": "setOwner",
      "outputs": [],
      "stateMutability": "nonpayable",
      "type": "function"
    },
    {
      "inputs": [
        {
          "internalType": "address",
          "name": "_deployer",
          "type": "address"
        },
        {
          "internalType": "bool",
          "name": "_isWhitelisted",
          "type": "bool"
        }
      ],
      "name": "setWhitelistedDeployer",
      "outputs": [],
      "stateMutability": "nonpayable",
      "type": "function"
    },
    {
      "inputs": [],
      "name": "version",
      "outputs": [
        {
          "internalType": "string",
          "name": "",
          "type": "string"
        }
      ],
      "stateMutability": "view",
      "type": "function"
    },
    {
      "inputs": [
        {
          "internalType": "address",
          "name": "",
          "type": "address"
        }
      ],
      "name": "whitelist",
      "outputs": [
        {
          "internalType": "bool",
          "name": "",
          "type": "bool"
        }
      ],
      "stateMutability": "view",
      "type": "function"
    }
  ],
  "bytecode": {
    "object": "0x608060405234801561001057600080fd5b506107bc806100206000396000f3fe608060405234801561001057600080fd5b506004361061007d5760003560e01c80638da5cb5b1161005b5780638da5cb5b146100fc5780639b19251a14610141578063b1540a0114610174578063bdc7b54f1461018757600080fd5b806308fd63221461008257806313af40351461009757806354fd4d50146100aa575b600080fd5b6100956100903660046106de565b61018f565b005b6100956100a536600461071a565b6102ef565b6100e66040518060400160405280600581526020017f312e312e3000000000000000000000000000000000000000000000000000000081525081565b6040516100f3919061073c565b60405180910390f35b60005461011c9073ffffffffffffffffffffffffffffffffffffffff1681565b60405173ffffffffffffffffffffffffffffffffffffffff90911681526020016100f3565b61016461014f36600461071a565b60016020526000908152604090205460ff1681565b60405190151581526020016100f3565b61016461018236600461071a565b610520565b610095610571565b60005473ffffffffffffffffffffffffffffffffffffffff163314610261576040517f08c379a000000000000000000000000000000000000000000000000000000000815260206004820152604c60248201527f4465706c6f79657257686974656c6973743a2066756e6374696f6e2063616e2060448201527f6f6e6c792062652063616c6c656420627920746865206f776e6572206f66207460648201527f68697320636f6e74726163740000000000000000000000000000000000000000608482015260a4015b60405180910390fd5b73ffffffffffffffffffffffffffffffffffffffff821660008181526001602090815260409182902080547fffffffffffffffffffffffffffffffffffffffffffffffffffffffffffffff00168515159081179091558251938452908301527f8daaf060c3306c38e068a75c054bf96ecd85a3db1252712c4d93632744c42e0d910160405180910390a15050565b60005473ffffffffffffffffffffffffffffffffffffffff1633146103bc576040517f08c379a000000000000000000000000000000000000000000000000000000000815260206004820152604c60248201527f4465706c6f79657257686974656c6973743a2066756e6374696f6e2063616e2060448201527f6f6e6c792062652063616c6c656420627920746865206f776e6572206f66207460648201527f68697320636f6e74726163740000000000000000000000000000000000000000608482015260a401610258565b73ffffffffffffffffffffffffffffffffffffffff8116610485576040517f08c379a000000000000000000000000000000000000000000000000000000000815260206004820152604d60248201527f4465706c6f79657257686974656c6973743a2063616e206f6e6c79206265206460448201527f697361626c65642076696120656e61626c65417262697472617279436f6e747260648201527f6163744465706c6f796d656e7400000000000000000000000000000000000000608482015260a401610258565b6000546040805173ffffffffffffffffffffffffffffffffffffffff928316815291831660208301527fb532073b38c83145e3e5135377a08bf9aab55bc0fd7c1179cd4fb995d2a5159c910160405180910390a1600080547fffffffffffffffffffffffff00000000000000000000000000000000000000001673ffffffffffffffffffffffffffffffffffffffff92909216919091179055565b6000805473ffffffffffffffffffffffffffffffffffffffff16158061056b575073ffffffffffffffffffffffffffffffffffffffff821660009081526001602052604090205460ff165b92915050565b60005473ffffffffffffffffffffffffffffffffffffffff16331461063e576040517f08c379a000000000000000000000000000000000000000000000000000000000815260206004820152604c60248201527f4465706c6f79657257686974656c6973743a2066756e6374696f6e2063616e2060448201527f6f6e6c792062652063616c6c656420627920746865206f776e6572206f66207460648201527f68697320636f6e74726163740000000000000000000000000000000000000000608482015260a401610258565b60005460405173ffffffffffffffffffffffffffffffffffffffff90911681527fc0e106cf568e50698fdbde1eff56f5a5c966cc7958e37e276918e9e4ccdf8cd49060200160405180910390a1600080547fffffffffffffffffffffffff0000000000000000000000000000000000000000169055565b803573ffffffffffffffffffffffffffffffffffffffff811681146106d957600080fd5b919050565b600080604083850312156106f157600080fd5b6106fa836106b5565b91506020830135801515811461070f57600080fd5b809150509250929050565b60006020828403121561072c57600080fd5b610735826106b5565b9392505050565b600060208083528351808285015260005b818110156107695785810183015185820160400152820161074d565b8181111561077b576000604083870101525b50601f017fffffffffffffffffffffffffffffffffffffffffffffffffffffffffffffffe01692909201604001939250505056fea164736f6c634300080f000a",
    "linkReferences": {}
  },
  "methodIdentifiers": {
    "enableArbitraryContractDeployment()": "bdc7b54f",
    "isDeployerAllowed(address)": "b1540a01",
    "owner()": "8da5cb5b",
    "setOwner(address)": "13af4035",
    "setWhitelistedDeployer(address,bool)": "08fd6322",
    "version()": "54fd4d50",
    "whitelist(address)": "9b19251a"
  },
  "storageLayout": {
    "storage": [
      {
        "astId": 68534,
        "contract": "src/legacy/DeployerWhitelist.sol:DeployerWhitelist",
        "label": "owner",
        "offset": 0,
        "slot": "0",
        "type": "t_address"
      },
      {
        "astId": 68539,
        "contract": "src/legacy/DeployerWhitelist.sol:DeployerWhitelist",
        "label": "whitelist",
        "offset": 0,
        "slot": "1",
        "type": "t_mapping(t_address,t_bool)"
      }
    ],
    "types": {
      "t_address": {
        "encoding": "inplace",
        "label": "address",
        "numberOfBytes": "20"
      },
      "t_bool": {
        "encoding": "inplace",
        "label": "bool",
        "numberOfBytes": "1"
      },
      "t_mapping(t_address,t_bool)": {
        "encoding": "mapping",
        "key": "t_address",
        "label": "mapping(address => bool)",
        "numberOfBytes": "32",
        "value": "t_bool"
      }
    }
  },
  "userdoc": {
    "version": 1,
    "kind": "user",
    "methods": {
      "enableArbitraryContractDeployment()": {
        "notice": "Permanently enables arbitrary contract deployment and deletes the owner."
      },
      "isDeployerAllowed(address)": {
        "notice": "Checks whether an address is allowed to deploy contracts."
      },
      "owner()": {
        "notice": "Address of the owner of this contract. Note that when this address is set to         address(0), the whitelist is disabled."
      },
      "setOwner(address)": {
        "notice": "Updates the owner of this contract."
      },
      "setWhitelistedDeployer(address,bool)": {
        "notice": "Adds or removes an address from the deployment whitelist."
      },
      "version()": {
        "notice": "Semantic version."
      },
      "whitelist(address)": {
        "notice": "Mapping of deployer addresses to boolean whitelist status."
      }
    },
    "events": {
      "OwnerChanged(address,address)": {
        "notice": "Emitted when the owner of this contract changes."
      },
      "WhitelistDisabled(address)": {
        "notice": "Emitted when the whitelist is disabled."
      },
      "WhitelistStatusChanged(address,bool)": {
        "notice": "Emitted when the whitelist status of a deployer changes."
      }
    },
    "notice": "DeployerWhitelist is a legacy contract that was originally used to act as a whitelist of         addresses allowed to the Optimism network. The DeployerWhitelist has since been         disabled, but the code is kept in state for the sake of full backwards compatibility.         As of the Bedrock upgrade, the DeployerWhitelist is completely unused by the Optimism         system and could, in theory, be removed entirely."
  },
  "devdoc": {
    "version": 1,
    "kind": "dev",
    "methods": {
      "isDeployerAllowed(address)": {
        "params": {
          "_deployer": "Address to check."
        },
        "returns": {
          "_0": "Whether or not the address can deploy contracts."
        }
      },
      "setOwner(address)": {
        "params": {
          "_owner": "Address of the new owner."
        }
      },
      "setWhitelistedDeployer(address,bool)": {
        "params": {
          "_deployer": "Address to update permissions for.",
          "_isWhitelisted": "Whether or not the address is whitelisted."
        }
      }
    },
    "events": {
      "OwnerChanged(address,address)": {
        "params": {
          "newOwner": "Address of the new owner.",
          "oldOwner": "Address of the previous owner."
        }
      },
      "WhitelistDisabled(address)": {
        "params": {
          "oldOwner": "Address of the final owner of the whitelist."
        }
      },
      "WhitelistStatusChanged(address,bool)": {
        "params": {
          "deployer": "Address of the deployer.",
          "whitelisted": "Boolean indicating whether the deployer is whitelisted."
        }
      }
    },
    "title": "DeployerWhitelist"
  },
  "id": 149
}