{
  "abi": [
    {
      "inputs": [
        {
          "internalType": "GameType",
          "name": "_gameType",
          "type": "uint8"
        },
        {
          "internalType": "Claim",
          "name": "_absolutePrestate",
          "type": "bytes32"
        },
        {
          "internalType": "uint256",
          "name": "_maxGameDepth",
          "type": "uint256"
        },
        {
          "internalType": "Duration",
          "name": "_gameDuration",
          "type": "uint64"
        },
        {
          "internalType": "contract IBigStepper",
          "name": "_vm",
          "type": "address"
        },
        {
          "internalType": "contract L2OutputOracle",
          "name": "_l2oo",
          "type": "address"
        },
        {
          "internalType": "contract BlockOracle",
          "name": "_blockOracle",
          "type": "address"
        }
      ],
      "stateMutability": "nonpayable",
      "type": "constructor"
    },
    {
      "inputs": [],
      "name": "CannotDefendRootClaim",
      "type": "error"
    },
    {
      "inputs": [],
      "name": "ClaimAlreadyExists",
      "type": "error"
    },
    {
      "inputs": [],
      "name": "ClaimAlreadyResolved",
      "type": "error"
    },
    {
      "inputs": [],
      "name": "ClockNotExpired",
      "type": "error"
    },
    {
      "inputs": [],
      "name": "ClockTimeExceeded",
      "type": "error"
    },
    {
      "inputs": [],
      "name": "GameDepthExceeded",
      "type": "error"
    },
    {
      "inputs": [],
      "name": "GameNotInProgress",
      "type": "error"
    },
    {
      "inputs": [],
      "name": "InvalidParent",
      "type": "error"
    },
    {
      "inputs": [],
      "name": "InvalidPrestate",
      "type": "error"
    },
    {
      "inputs": [],
      "name": "L1HeadTooOld",
      "type": "error"
    },
    {
      "inputs": [],
      "name": "OutOfOrderResolution",
      "type": "error"
    },
    {
      "inputs": [
        {
          "internalType": "Claim",
          "name": "rootClaim",
          "type": "bytes32"
        }
      ],
      "name": "UnexpectedRootClaim",
      "type": "error"
    },
    {
      "inputs": [],
      "name": "ValidStep",
      "type": "error"
    },
    {
      "anonymous": false,
      "inputs": [
        {
          "indexed": true,
          "internalType": "uint256",
          "name": "parentIndex",
          "type": "uint256"
        },
        {
          "indexed": true,
          "internalType": "Claim",
          "name": "claim",
          "type": "bytes32"
        },
        {
          "indexed": true,
          "internalType": "address",
          "name": "claimant",
          "type": "address"
        }
      ],
      "name": "Move",
      "type": "event"
    },
    {
      "anonymous": false,
      "inputs": [
        {
          "indexed": true,
          "internalType": "enum GameStatus",
          "name": "status",
          "type": "uint8"
        }
      ],
      "name": "Resolved",
      "type": "event"
    },
    {
      "inputs": [],
      "name": "ABSOLUTE_PRESTATE",
      "outputs": [
        {
          "internalType": "Claim",
          "name": "",
          "type": "bytes32"
        }
      ],
      "stateMutability": "view",
      "type": "function"
    },
    {
      "inputs": [],
      "name": "BLOCK_ORACLE",
      "outputs": [
        {
          "internalType": "contract BlockOracle",
          "name": "",
          "type": "address"
        }
      ],
      "stateMutability": "view",
      "type": "function"
    },
    {
      "inputs": [],
      "name": "GAME_DURATION",
      "outputs": [
        {
          "internalType": "Duration",
          "name": "",
          "type": "uint64"
        }
      ],
      "stateMutability": "view",
      "type": "function"
    },
    {
      "inputs": [],
      "name": "L2_OUTPUT_ORACLE",
      "outputs": [
        {
          "internalType": "contract L2OutputOracle",
          "name": "",
          "type": "address"
        }
      ],
      "stateMutability": "view",
      "type": "function"
    },
    {
      "inputs": [],
      "name": "MAX_GAME_DEPTH",
      "outputs": [
        {
          "internalType": "uint256",
          "name": "",
          "type": "uint256"
        }
      ],
      "stateMutability": "view",
      "type": "function"
    },
    {
      "inputs": [],
      "name": "VM",
      "outputs": [
        {
          "internalType": "contract IBigStepper",
          "name": "",
          "type": "address"
        }
      ],
      "stateMutability": "view",
      "type": "function"
    },
    {
      "inputs": [
        {
          "internalType": "uint256",
          "name": "_ident",
          "type": "uint256"
        },
        {
          "internalType": "uint256",
          "name": "_partOffset",
          "type": "uint256"
        }
      ],
      "name": "addLocalData",
      "outputs": [],
      "stateMutability": "nonpayable",
      "type": "function"
    },
    {
      "inputs": [
        {
          "internalType": "uint256",
          "name": "_parentIndex",
          "type": "uint256"
        },
        {
          "internalType": "Claim",
          "name": "_claim",
          "type": "bytes32"
        }
      ],
      "name": "attack",
      "outputs": [],
      "stateMutability": "payable",
      "type": "function"
    },
    {
      "inputs": [],
      "name": "bondManager",
      "outputs": [
        {
          "internalType": "contract IBondManager",
          "name": "",
          "type": "address"
        }
      ],
      "stateMutability": "view",
      "type": "function"
    },
    {
      "inputs": [
        {
          "internalType": "uint256",
          "name": "",
          "type": "uint256"
        }
      ],
      "name": "claimData",
      "outputs": [
        {
          "internalType": "uint32",
          "name": "parentIndex",
          "type": "uint32"
        },
        {
          "internalType": "bool",
          "name": "countered",
          "type": "bool"
        },
        {
          "internalType": "Claim",
          "name": "claim",
          "type": "bytes32"
        },
        {
          "internalType": "Position",
          "name": "position",
          "type": "uint128"
        },
        {
          "internalType": "Clock",
          "name": "clock",
          "type": "uint128"
        }
      ],
      "stateMutability": "view",
      "type": "function"
    },
    {
      "inputs": [],
      "name": "claimDataLen",
      "outputs": [
        {
          "internalType": "uint256",
          "name": "len_",
          "type": "uint256"
        }
      ],
      "stateMutability": "view",
      "type": "function"
    },
    {
      "inputs": [],
      "name": "createdAt",
      "outputs": [
        {
          "internalType": "Timestamp",
          "name": "",
          "type": "uint64"
        }
      ],
      "stateMutability": "view",
      "type": "function"
    },
    {
      "inputs": [
        {
          "internalType": "uint256",
          "name": "_parentIndex",
          "type": "uint256"
        },
        {
          "internalType": "Claim",
          "name": "_claim",
          "type": "bytes32"
        }
      ],
      "name": "defend",
      "outputs": [],
      "stateMutability": "payable",
      "type": "function"
    },
    {
      "inputs": [],
      "name": "extraData",
      "outputs": [
        {
          "internalType": "bytes",
          "name": "extraData_",
          "type": "bytes"
        }
      ],
      "stateMutability": "pure",
      "type": "function"
    },
    {
      "inputs": [],
      "name": "gameData",
      "outputs": [
        {
          "internalType": "GameType",
          "name": "gameType_",
          "type": "uint8"
        },
        {
          "internalType": "Claim",
          "name": "rootClaim_",
          "type": "bytes32"
        },
        {
          "internalType": "bytes",
          "name": "extraData_",
          "type": "bytes"
        }
      ],
      "stateMutability": "view",
      "type": "function"
    },
    {
      "inputs": [],
      "name": "gameType",
      "outputs": [
        {
          "internalType": "GameType",
          "name": "gameType_",
          "type": "uint8"
        }
      ],
      "stateMutability": "view",
      "type": "function"
    },
    {
      "inputs": [],
      "name": "initialize",
      "outputs": [],
      "stateMutability": "nonpayable",
      "type": "function"
    },
    {
      "inputs": [],
      "name": "l1BlockNumber",
      "outputs": [
        {
          "internalType": "uint256",
          "name": "l1BlockNumber_",
          "type": "uint256"
        }
      ],
      "stateMutability": "pure",
      "type": "function"
    },
    {
      "inputs": [],
      "name": "l1Head",
      "outputs": [
        {
          "internalType": "Hash",
          "name": "",
          "type": "bytes32"
        }
      ],
      "stateMutability": "view",
      "type": "function"
    },
    {
      "inputs": [],
      "name": "l2BlockNumber",
      "outputs": [
        {
          "internalType": "uint256",
          "name": "l2BlockNumber_",
          "type": "uint256"
        }
      ],
      "stateMutability": "pure",
      "type": "function"
    },
    {
      "inputs": [
        {
          "internalType": "uint256",
          "name": "_challengeIndex",
          "type": "uint256"
        },
        {
          "internalType": "Claim",
          "name": "_claim",
          "type": "bytes32"
        },
        {
          "internalType": "bool",
          "name": "_isAttack",
          "type": "bool"
        }
      ],
      "name": "move",
      "outputs": [],
      "stateMutability": "payable",
      "type": "function"
    },
    {
      "inputs": [],
      "name": "proposals",
      "outputs": [
        {
          "components": [
            {
              "internalType": "uint128",
              "name": "index",
              "type": "uint128"
            },
            {
              "internalType": "uint128",
              "name": "l2BlockNumber",
              "type": "uint128"
            },
            {
              "internalType": "Hash",
              "name": "outputRoot",
              "type": "bytes32"
            }
          ],
          "internalType": "struct IFaultDisputeGame.OutputProposal",
          "name": "starting",
          "type": "tuple"
        },
        {
          "components": [
            {
              "internalType": "uint128",
              "name": "index",
              "type": "uint128"
            },
            {
              "internalType": "uint128",
              "name": "l2BlockNumber",
              "type": "uint128"
            },
            {
              "internalType": "Hash",
              "name": "outputRoot",
              "type": "bytes32"
            }
          ],
          "internalType": "struct IFaultDisputeGame.OutputProposal",
          "name": "disputed",
          "type": "tuple"
        }
      ],
      "stateMutability": "view",
      "type": "function"
    },
    {
      "inputs": [],
      "name": "resolve",
      "outputs": [
        {
          "internalType": "enum GameStatus",
          "name": "status_",
          "type": "uint8"
        }
      ],
      "stateMutability": "nonpayable",
      "type": "function"
    },
    {
      "inputs": [
        {
          "internalType": "uint256",
          "name": "_claimIndex",
          "type": "uint256"
        }
      ],
      "name": "resolveClaim",
      "outputs": [],
      "stateMutability": "payable",
      "type": "function"
    },
    {
      "inputs": [],
      "name": "rootClaim",
      "outputs": [
        {
          "internalType": "Claim",
          "name": "rootClaim_",
          "type": "bytes32"
        }
      ],
      "stateMutability": "pure",
      "type": "function"
    },
    {
      "inputs": [],
      "name": "status",
      "outputs": [
        {
          "internalType": "enum GameStatus",
          "name": "",
          "type": "uint8"
        }
      ],
      "stateMutability": "view",
      "type": "function"
    },
    {
      "inputs": [
        {
          "internalType": "uint256",
          "name": "_claimIndex",
          "type": "uint256"
        },
        {
          "internalType": "bool",
          "name": "_isAttack",
          "type": "bool"
        },
        {
          "internalType": "bytes",
          "name": "_stateData",
          "type": "bytes"
        },
        {
          "internalType": "bytes",
          "name": "_proof",
          "type": "bytes"
        }
      ],
      "name": "step",
      "outputs": [],
      "stateMutability": "nonpayable",
      "type": "function"
    },
    {
      "inputs": [],
      "name": "version",
      "outputs": [
        {
          "internalType": "string",
          "name": "",
          "type": "string"
        }
      ],
      "stateMutability": "view",
      "type": "function"
    }
  ],
  "bytecode": {
    "object": "0x6101606040523480156200001257600080fd5b5060405162002b1f38038062002b1f83398101604081905262000035916200008f565b60ff9096166101405260809490945260a0929092526001600160401b031660c0526001600160a01b0390811660e05290811661010052166101205262000133565b6001600160a01b03811681146200008c57600080fd5b50565b600080600080600080600060e0888a031215620000ab57600080fd5b875160ff81168114620000bd57600080fd5b602089015160408a015160608b015192995090975095506001600160401b0381168114620000ea57600080fd5b6080890151909450620000fd8162000076565b60a0890151909350620001108162000076565b60c0890151909250620001238162000076565b8091505092959891949750929550565b60805160a05160c05160e05161010051610120516101405161293d620001e2600039600081816105610152611c3b01526000818161036901526114bc0152600081816105da015281816112890152818161135d015261143601526000818161052b0152818161079701526119ba01526000818161060e01528181610d850152611d2a01526000818161033501528181610bc401526117b901526000818161022c0152611915015261293d6000f3fe6080604052600436106101b75760003560e01c80638129fc1c116100ec578063c31b29ce1161008a578063cf09e0d011610064578063cf09e0d0146106c0578063d8cc1a3c146106e1578063fa24f74314610701578063fdffbb281461072557600080fd5b8063c31b29ce146105fc578063c55cd0c714610649578063c6f0308c1461065c57600080fd5b806392931298116100c65780639293129814610519578063bbdc02db1461054d578063bcef3b551461058b578063c0c3a092146105c857600080fd5b80638129fc1c146104af5780638980e0cc146104c45780638b85902b146104d957600080fd5b80634778efe81161015957806355ef20e61161013357806355ef20e6146103e1578063609d333414610471578063632247ea146104865780636361506d1461049957600080fd5b80634778efe814610323578063529184c91461035757806354fd4d501461038b57600080fd5b80632810e1d6116101955780632810e1d61461025c578063298c90051461027157806335fef567146102b1578063363cc427146102c457600080fd5b80631e27052a146101bc578063200d2ed2146101de578063266198f91461021a575b600080fd5b3480156101c857600080fd5b506101dc6101d736600461228f565b610738565b005b3480156101ea57600080fd5b506000546102049068010000000000000000900460ff1681565b60405161021191906122e0565b60405180910390f35b34801561022657600080fd5b5061024e7f000000000000000000000000000000000000000000000000000000000000000081565b604051908152602001610211565b34801561026857600080fd5b506102046108f7565b34801561027d57600080fd5b50367ffffffffffffffffffffffffffffffffffffffffffffffffffffffffffffffffe81013560f01c90036040013561024e565b6101dc6102bf36600461228f565b610a5b565b3480156102d057600080fd5b506000546102fe906901000000000000000000900473ffffffffffffffffffffffffffffffffffffffff1681565b60405173ffffffffffffffffffffffffffffffffffffffff9091168152602001610211565b34801561032f57600080fd5b5061024e7f000000000000000000000000000000000000000000000000000000000000000081565b34801561036357600080fd5b506102fe7f000000000000000000000000000000000000000000000000000000000000000081565b34801561039757600080fd5b506103d46040518060400160405280600681526020017f302e302e3130000000000000000000000000000000000000000000000000000081525081565b604051610211919061238c565b3480156103ed57600080fd5b5060408051606080820183526003546fffffffffffffffffffffffffffffffff808216845270010000000000000000000000000000000091829004811660208086019190915260045485870152855193840186526005548083168552929092041690820152600654928101929092526104639182565b6040516102119291906123a6565b34801561047d57600080fd5b506103d4610a6b565b6101dc61049436600461240f565b610a79565b3480156104a557600080fd5b5061024e60015481565b3480156104bb57600080fd5b506101dc61108f565b3480156104d057600080fd5b5060025461024e565b3480156104e557600080fd5b50367ffffffffffffffffffffffffffffffffffffffffffffffffffffffffffffffffe81013560f01c90036020013561024e565b34801561052557600080fd5b506102fe7f000000000000000000000000000000000000000000000000000000000000000081565b34801561055957600080fd5b5060405160ff7f0000000000000000000000000000000000000000000000000000000000000000168152602001610211565b34801561059757600080fd5b50367ffffffffffffffffffffffffffffffffffffffffffffffffffffffffffffffffe81013560f01c90033561024e565b3480156105d457600080fd5b506102fe7f000000000000000000000000000000000000000000000000000000000000000081565b34801561060857600080fd5b506106307f000000000000000000000000000000000000000000000000000000000000000081565b60405167ffffffffffffffff9091168152602001610211565b6101dc61065736600461228f565b611693565b34801561066857600080fd5b5061067c610677366004612444565b61169f565b6040805163ffffffff90961686529315156020860152928401919091526fffffffffffffffffffffffffffffffff908116606084015216608082015260a001610211565b3480156106cc57600080fd5b506000546106309067ffffffffffffffff1681565b3480156106ed57600080fd5b506101dc6106fc3660046124a6565b611710565b34801561070d57600080fd5b50610716611c39565b60405161021193929190612530565b6101dc610733366004612444565b611c96565b6000805468010000000000000000900460ff16600281111561075c5761075c6122b1565b14610793576040517f67fe195000000000000000000000000000000000000000000000000000000000815260040160405180910390fd5b60007f000000000000000000000000000000000000000000000000000000000000000073ffffffffffffffffffffffffffffffffffffffff16637dc0d1d06040518163ffffffff1660e01b8152600401602060405180830381865afa158015610800573d6000803e3d6000fd5b505050506040513d601f19601f82011682018060405250810190610824919061255b565b7f9a1f5e7f00000000000000000000000000000000000000000000000000000000601c81905260208590529091506000846001811461088b5760028114610895576003811461089f57600481146108a957600581146108b95763ff137e656000526004601cfd5b60015491506108c0565b60045491506108c0565b60065491506108c0565b60035460801c60c01b91506108c0565b4660c01b91505b50604052600160038511811b6005031b60605260808390526000806084601c82865af16108f1573d6000803e3d6000fd5b50505050565b60008060005468010000000000000000900460ff16600281111561091d5761091d6122b1565b14610954576040517f67fe195000000000000000000000000000000000000000000000000000000000815260040160405180910390fd5b60095460ff16610990576040517f9a07664600000000000000000000000000000000000000000000000000000000815260040160405180910390fd5b60026000815481106109a4576109a4612591565b6000918252602090912060039091020154640100000000900460ff166109cb5760026109ce565b60015b6000805491925082917fffffffffffffffffffffffffffffffffffffffffffffff00ffffffffffffffff1668010000000000000000836002811115610a1557610a156122b1565b021790556002811115610a2a57610a2a6122b1565b6040517f5e186f09b9c93491f14e277eea7faa5de6a2d4bda75a79af7a3684fbfb42da6090600090a290565b905090565b610a6782826000610a79565b5050565b6060610a5660206040611fc7565b6000805468010000000000000000900460ff166002811115610a9d57610a9d6122b1565b14610ad4576040517f67fe195000000000000000000000000000000000000000000000000000000000815260040160405180910390fd5b82158015610ae0575080155b15610b17576040517fa42637bc00000000000000000000000000000000000000000000000000000000815260040160405180910390fd5b600060028481548110610b2c57610b2c612591565b600091825260208083206040805160a081018252600394909402909101805463ffffffff808216865264010000000090910460ff16151593850193909352600181015491840191909152600201546fffffffffffffffffffffffffffffffff80821660608501819052700100000000000000000000000000000000909204166080840152919350610bc09190859061205e16565b90507f0000000000000000000000000000000000000000000000000000000000000000610c7f826fffffffffffffffffffffffffffffffff167e09010a0d15021d0b0e10121619031e080c141c0f111807131b17061a05041f7f07c4acdd0000000000000000000000000000000000000000000000000000000067ffffffffffffffff831160061b83811c63ffffffff1060051b1792831c600181901c17600281901c17600481901c17600881901c17601081901c170260fb1c1a1790565b67ffffffffffffffff161115610cc1576040517f56f57b2b00000000000000000000000000000000000000000000000000000000815260040160405180910390fd5b815160009063ffffffff90811614610d21576002836000015163ffffffff1681548110610cf057610cf0612591565b906000526020600020906003020160020160109054906101000a90046fffffffffffffffffffffffffffffffff1690505b608083015160009067ffffffffffffffff1667ffffffffffffffff1642610d5a846fffffffffffffffffffffffffffffffff1660401c90565b67ffffffffffffffff16610d6e91906125ef565b610d789190612607565b9050677fffffffffffffff7f000000000000000000000000000000000000000000000000000000000000000060011c1667ffffffffffffffff82161115610deb576040517f3381d11400000000000000000000000000000000000000000000000000000000815260040160405180910390fd5b6000604082901b42176000888152608086901b6fffffffffffffffffffffffffffffffff8b1617602052604081209192509060008181526007602052604090205490915060ff1615610e69576040517f80497e3b00000000000000000000000000000000000000000000000000000000815260040160405180910390fd5b600081815260076020908152604080832080547fffffffffffffffffffffffffffffffffffffffffffffffffffffffffffffff00166001908117909155815160a08101835263ffffffff808f1682529381018581529281018d81526fffffffffffffffffffffffffffffffff808c16606084019081528982166080850190815260028054808801825599819052945160039099027f405787fa12a823e0f2b7631cc41b3ba8828b3321ca811111fa75cd3aa3bb5ace8101805498511515640100000000027fffffffffffffffffffffffffffffffffffffffffffffffffffffff00000000009099169a909916999099179690961790965590517f405787fa12a823e0f2b7631cc41b3ba8828b3321ca811111fa75cd3aa3bb5acf8701559351925184167001000000000000000000000000000000000292909316919091177f405787fa12a823e0f2b7631cc41b3ba8828b3321ca811111fa75cd3aa3bb5ad09093019290925580548b908110610fe157610fe1612591565b6000918252602080832060039092029091018054931515640100000000027fffffffffffffffffffffffffffffffffffffffffffffffffffffff00ffffffff909416939093179092558a815260089091526040902060025461104590600190612607565b8154600181018355600092835260208320015560405133918a918c917f9b3245740ec3b155098a55be84957a4da13eaf7f14a8bc6f53126c0b9350f2be91a4505050505050505050565b367ffffffffffffffffffffffffffffffffffffffffffffffffffffffffffffffffe81013560f01c90033560001a60018114806110cf575060ff81166002145b611135576040517ff40239db000000000000000000000000000000000000000000000000000000008152367ffffffffffffffffffffffffffffffffffffffffffffffffffffffffffffffffe81013560f01c900335600482015260240160405180910390fd5b600080547fffffffffffffffffffffffffffffffffffffffffffffffff0000000000000000164267ffffffffffffffff161781556040805160a08101825263ffffffff815260208101929092526002919081016111ba7ffffffffffffffffffffffffffffffffffffffffffffffffffffffffffffffffe369081013560f01c90033590565b815260016020820152604001426fffffffffffffffffffffffffffffffff9081169091528254600181810185556000948552602080862085516003909402018054918601511515640100000000027fffffffffffffffffffffffffffffffffffffffffffffffffffffff000000000090921663ffffffff909416939093171782556040840151908201556060830151608090930151821670010000000000000000000000000000000002929091169190911760029091015573ffffffffffffffffffffffffffffffffffffffff7f000000000000000000000000000000000000000000000000000000000000000016637f0064206112e360207ffffffffffffffffffffffffffffffffffffffffffffffffffffffffffffffffe369081013560f01c9003013590565b6040518263ffffffff1660e01b815260040161130191815260200190565b602060405180830381865afa15801561131e573d6000803e3d6000fd5b505050506040513d601f19601f82011682018060405250810190611342919061261e565b9050600073ffffffffffffffffffffffffffffffffffffffff7f00000000000000000000000000000000000000000000000000000000000000001663a25ae55761138d600185612607565b6040518263ffffffff1660e01b81526004016113ab91815260200190565b606060405180830381865afa1580156113c8573d6000803e3d6000fd5b505050506040513d601f19601f820116820180604052508101906113ec9190612686565b6040517fa25ae5570000000000000000000000000000000000000000000000000000000081526004810184905290915060009073ffffffffffffffffffffffffffffffffffffffff7f0000000000000000000000000000000000000000000000000000000000000000169063a25ae55790602401606060405180830381865afa15801561147d573d6000803e3d6000fd5b505050506040513d601f19601f820116820180604052508101906114a19190612686565b9050600073ffffffffffffffffffffffffffffffffffffffff7f0000000000000000000000000000000000000000000000000000000000000000166399d548aa367ffffffffffffffffffffffffffffffffffffffffffffffffffffffffffffffffe81013560f01c9003604001356040518263ffffffff1660e01b815260040161152d91815260200190565b6040805180830381865afa158015611549573d6000803e3d6000fd5b505050506040513d601f19601f8201168201806040525081019061156d9190612712565b905081602001516fffffffffffffffffffffffffffffffff16816020015167ffffffffffffffff16116115cc576040517f13809ba500000000000000000000000000000000000000000000000000000000815260040160405180910390fd5b6040805160a0810182529081908101806115e7600189612607565b6fffffffffffffffffffffffffffffffff908116825260408881015182166020808501919091529851928101929092529183528051606081018252978216885285810151821688880152945187860152908501959095528051805181860151908716700100000000000000000000000000000000918816820217600355908401516004559084015180519481015194861694909516029290921760055591909101516006555160015550565b610a6782826001610a79565b600281815481106116af57600080fd5b600091825260209091206003909102018054600182015460029092015463ffffffff8216935064010000000090910460ff1691906fffffffffffffffffffffffffffffffff8082169170010000000000000000000000000000000090041685565b6000805468010000000000000000900460ff166002811115611734576117346122b1565b1461176b576040517f67fe195000000000000000000000000000000000000000000000000000000000815260040160405180910390fd5b60006002878154811061178057611780612591565b6000918252602082206003919091020160028101549092506fffffffffffffffffffffffffffffffff16908715821760011b90506117df7f000000000000000000000000000000000000000000000000000000000000000060016125ef565b61187b826fffffffffffffffffffffffffffffffff167e09010a0d15021d0b0e10121619031e080c141c0f111807131b17061a05041f7f07c4acdd0000000000000000000000000000000000000000000000000000000067ffffffffffffffff831160061b83811c63ffffffff1060051b1792831c600181901c17600281901c17600481901c17600881901c17601081901c170260fb1c1a1790565b67ffffffffffffffff16146118bc576040517f5f53dd9800000000000000000000000000000000000000000000000000000000815260040160405180910390fd5b600080891561193f576118e0836fffffffffffffffffffffffffffffffff16612066565b67ffffffffffffffff16156119135761190a6118fd600186612799565b865463ffffffff1661210c565b60010154611935565b7f00000000000000000000000000000000000000000000000000000000000000005b9150849050611959565b846001015491506119568460016118fd91906127ca565b90505b600882901b60088a8a6040516119709291906127fe565b6040518091039020901b146119b1576040517f696550ff00000000000000000000000000000000000000000000000000000000815260040160405180910390fd5b600081600101547f000000000000000000000000000000000000000000000000000000000000000073ffffffffffffffffffffffffffffffffffffffff1663f8e0cb968c8c8c8c6040518563ffffffff1660e01b8152600401611a179493929190612857565b6020604051808303816000875af1158015611a36573d6000803e3d6000fd5b505050506040513d601f19601f82011682018060405250810190611a5a919061261e565b600284810154929091149250600091611b05906fffffffffffffffffffffffffffffffff167e09010a0d15021d0b0e10121619031e080c141c0f111807131b17061a05041f7f07c4acdd0000000000000000000000000000000000000000000000000000000067ffffffffffffffff831160061b83811c63ffffffff1060051b1792831c600181901c17600281901c17600481901c17600881901c17601081901c170260fb1c1a1790565b611ba1886fffffffffffffffffffffffffffffffff167e09010a0d15021d0b0e10121619031e080c141c0f111807131b17061a05041f7f07c4acdd0000000000000000000000000000000000000000000000000000000067ffffffffffffffff831160061b83811c63ffffffff1060051b1792831c600181901c17600281901c17600481901c17600881901c17601081901c170260fb1c1a1790565b611bab9190612889565b611bb591906128aa565b67ffffffffffffffff161590508115158103611bfd576040517ffb4e40dd00000000000000000000000000000000000000000000000000000000815260040160405180910390fd5b505084547fffffffffffffffffffffffffffffffffffffffffffffffffffffff00ffffffff166401000000001790945550505050505050505050565b7f0000000000000000000000000000000000000000000000000000000000000000367ffffffffffffffffffffffffffffffffffffffffffffffffffffffffffffffffe81013560f01c9003356060611c8f610a6b565b9050909192565b6000805468010000000000000000900460ff166002811115611cba57611cba6122b1565b14611cf1576040517f67fe195000000000000000000000000000000000000000000000000000000000815260040160405180910390fd5b600060028281548110611d0657611d06612591565b60009182526020909120600260039092020190810154909150677fffffffffffffff7f000000000000000000000000000000000000000000000000000000000000000060011c1690611d7690700100000000000000000000000000000000900467ffffffffffffffff1642612607565b6002830154611da69190700100000000000000000000000000000000900460401c67ffffffffffffffff166125ef565b11611ddd576040517ff2440b5300000000000000000000000000000000000000000000000000000000815260040160405180910390fd5b600082815260086020526040902082158015611dfb575060095460ff165b15611e32576040517ff1a9458100000000000000000000000000000000000000000000000000000000815260040160405180910390fd5b8054158015611e4057508215155b15611e77576040517ff1a9458100000000000000000000000000000000000000000000000000000000815260040160405180910390fd5b6000805b8254811015611f45576000838281548110611e9857611e98612591565b6000918252602080832090910154808352600890915260409091205490915015611eee576040517f9a07664600000000000000000000000000000000000000000000000000000000815260040160405180910390fd5b600060028281548110611f0357611f03612591565b600091825260209091206003909102018054909150640100000000900460ff16611f3257600193505050611f45565b505080611f3e906128f8565b9050611e7b565b5082547fffffffffffffffffffffffffffffffffffffffffffffffffffffff00ffffffff16640100000000821515021783556000848152600860205260408120611f8e91612255565b836000036108f157600980547fffffffffffffffffffffffffffffffffffffffffffffffffffffffffffffff0016600117905550505050565b60606000611ffe84367ffffffffffffffffffffffffffffffffffffffffffffffffffffffffffffffffe81013560f01c90036125ef565b90508267ffffffffffffffff1667ffffffffffffffff81111561202357612023612637565b6040519080825280601f01601f19166020018201604052801561204d576020820181803683370190505b509150828160208401375092915050565b151760011b90565b6000806120f3837e09010a0d15021d0b0e10121619031e080c141c0f111807131b17061a05041f7f07c4acdd0000000000000000000000000000000000000000000000000000000067ffffffffffffffff831160061b83811c63ffffffff1060051b1792831c600181901c17600281901c17600481901c17600881901c17601081901c170260fb1c1a1790565b600167ffffffffffffffff919091161b90920392915050565b60008061212a846fffffffffffffffffffffffffffffffff166121a9565b90506002838154811061213f5761213f612591565b906000526020600020906003020191505b60028201546fffffffffffffffffffffffffffffffff8281169116146121a257815460028054909163ffffffff1690811061218d5761218d612591565b90600052602060002090600302019150612150565b5092915050565b6000811960018301168161223d827e09010a0d15021d0b0e10121619031e080c141c0f111807131b17061a05041f7f07c4acdd0000000000000000000000000000000000000000000000000000000067ffffffffffffffff831160061b83811c63ffffffff1060051b1792831c600181901c17600281901c17600481901c17600881901c17601081901c170260fb1c1a1790565b67ffffffffffffffff169390931c8015179392505050565b50805460008255906000526020600020908101906122739190612276565b50565b5b8082111561228b5760008155600101612277565b5090565b600080604083850312156122a257600080fd5b50508035926020909101359150565b7f4e487b7100000000000000000000000000000000000000000000000000000000600052602160045260246000fd5b602081016003831061231b577f4e487b7100000000000000000000000000000000000000000000000000000000600052602160045260246000fd5b91905290565b6000815180845260005b818110156123475760208185018101518683018201520161232b565b81811115612359576000602083870101525b50601f017fffffffffffffffffffffffffffffffffffffffffffffffffffffffffffffffe0169290920160200192915050565b60208152600061239f6020830184612321565b9392505050565b82516fffffffffffffffffffffffffffffffff90811682526020808501518216818401526040808601518185015284518316606085015290840151909116608083015282015160a082015260c0810161239f565b8035801515811461240a57600080fd5b919050565b60008060006060848603121561242457600080fd5b833592506020840135915061243b604085016123fa565b90509250925092565b60006020828403121561245657600080fd5b5035919050565b60008083601f84011261246f57600080fd5b50813567ffffffffffffffff81111561248757600080fd5b60208301915083602082850101111561249f57600080fd5b9250929050565b600080600080600080608087890312156124bf57600080fd5b863595506124cf602088016123fa565b9450604087013567ffffffffffffffff808211156124ec57600080fd5b6124f88a838b0161245d565b9096509450606089013591508082111561251157600080fd5b5061251e89828a0161245d565b979a9699509497509295939492505050565b60ff841681528260208201526060604082015260006125526060830184612321565b95945050505050565b60006020828403121561256d57600080fd5b815173ffffffffffffffffffffffffffffffffffffffff8116811461239f57600080fd5b7f4e487b7100000000000000000000000000000000000000000000000000000000600052603260045260246000fd5b7f4e487b7100000000000000000000000000000000000000000000000000000000600052601160045260246000fd5b60008219821115612602576126026125c0565b500190565b600082821015612619576126196125c0565b500390565b60006020828403121561263057600080fd5b5051919050565b7f4e487b7100000000000000000000000000000000000000000000000000000000600052604160045260246000fd5b80516fffffffffffffffffffffffffffffffff8116811461240a57600080fd5b60006060828403121561269857600080fd5b6040516060810181811067ffffffffffffffff821117156126e2577f4e487b7100000000000000000000000000000000000000000000000000000000600052604160045260246000fd5b604052825181526126f560208401612666565b602082015261270660408401612666565b60408201529392505050565b60006040828403121561272457600080fd5b6040516040810167ffffffffffffffff828210818311171561276f577f4e487b7100000000000000000000000000000000000000000000000000000000600052604160045260246000fd5b816040528451835260208501519150808216821461278c57600080fd5b5060208201529392505050565b60006fffffffffffffffffffffffffffffffff838116908316818110156127c2576127c26125c0565b039392505050565b60006fffffffffffffffffffffffffffffffff8083168185168083038211156127f5576127f56125c0565b01949350505050565b8183823760009101908152919050565b8183528181602085013750600060208284010152600060207fffffffffffffffffffffffffffffffffffffffffffffffffffffffffffffffe0601f840116840101905092915050565b60408152600061286b60408301868861280e565b828103602084015261287e81858761280e565b979650505050505050565b600067ffffffffffffffff838116908316818110156127c2576127c26125c0565b600067ffffffffffffffff808416806128ec577f4e487b7100000000000000000000000000000000000000000000000000000000600052601260045260246000fd5b92169190910692915050565b60007fffffffffffffffffffffffffffffffffffffffffffffffffffffffffffffffff8203612929576129296125c0565b506001019056fea164736f6c634300080f000a",
    "linkReferences": {}
  },
  "methodIdentifiers": {
    "ABSOLUTE_PRESTATE()": "266198f9",
    "BLOCK_ORACLE()": "529184c9",
    "GAME_DURATION()": "c31b29ce",
    "L2_OUTPUT_ORACLE()": "c0c3a092",
    "MAX_GAME_DEPTH()": "4778efe8",
    "VM()": "92931298",
    "addLocalData(uint256,uint256)": "1e27052a",
    "attack(uint256,bytes32)": "c55cd0c7",
    "bondManager()": "363cc427",
    "claimData(uint256)": "c6f0308c",
    "claimDataLen()": "8980e0cc",
    "createdAt()": "cf09e0d0",
    "defend(uint256,bytes32)": "35fef567",
    "extraData()": "609d3334",
    "gameData()": "fa24f743",
    "gameType()": "bbdc02db",
    "initialize()": "8129fc1c",
    "l1BlockNumber()": "298c9005",
    "l1Head()": "6361506d",
    "l2BlockNumber()": "8b85902b",
    "move(uint256,bytes32,bool)": "632247ea",
    "proposals()": "55ef20e6",
    "resolve()": "2810e1d6",
    "resolveClaim(uint256)": "fdffbb28",
    "rootClaim()": "bcef3b55",
    "status()": "200d2ed2",
    "step(uint256,bool,bytes,bytes)": "d8cc1a3c",
    "version()": "54fd4d50"
  },
  "storageLayout": {
    "storage": [
      {
        "astId": 66494,
        "contract": "src/dispute/FaultDisputeGame.sol:FaultDisputeGame",
        "label": "createdAt",
        "offset": 0,
        "slot": "0",
        "type": "t_userDefinedValueType(Timestamp)70025"
      },
      {
        "astId": 66498,
        "contract": "src/dispute/FaultDisputeGame.sol:FaultDisputeGame",
        "label": "status",
        "offset": 8,
        "slot": "0",
        "type": "t_enum(GameStatus)70041"
      },
      {
        "astId": 66502,
        "contract": "src/dispute/FaultDisputeGame.sol:FaultDisputeGame",
        "label": "bondManager",
        "offset": 9,
        "slot": "0",
        "type": "t_contract(IBondManager)67634"
      },
      {
        "astId": 66506,
        "contract": "src/dispute/FaultDisputeGame.sol:FaultDisputeGame",
        "label": "l1Head",
        "offset": 0,
        "slot": "1",
        "type": "t_userDefinedValueType(Hash)70017"
      },
      {
        "astId": 66511,
        "contract": "src/dispute/FaultDisputeGame.sol:FaultDisputeGame",
        "label": "claimData",
        "offset": 0,
        "slot": "2",
        "type": "t_array(t_struct(ClaimData)67848_storage)dyn_storage"
      },
      {
        "astId": 66515,
        "contract": "src/dispute/FaultDisputeGame.sol:FaultDisputeGame",
        "label": "proposals",
        "offset": 0,
        "slot": "3",
        "type": "t_struct(OutputProposals)67863_storage"
      },
      {
        "astId": 66521,
        "contract": "src/dispute/FaultDisputeGame.sol:FaultDisputeGame",
        "label": "claims",
        "offset": 0,
        "slot": "7",
        "type": "t_mapping(t_userDefinedValueType(ClaimHash)70021,t_bool)"
      },
      {
        "astId": 66527,
        "contract": "src/dispute/FaultDisputeGame.sol:FaultDisputeGame",
        "label": "subgames",
        "offset": 0,
        "slot": "8",
        "type": "t_mapping(t_uint256,t_array(t_uint256)dyn_storage)"
      },
      {
        "astId": 66530,
        "contract": "src/dispute/FaultDisputeGame.sol:FaultDisputeGame",
        "label": "subgameAtRootResolved",
        "offset": 0,
        "slot": "9",
        "type": "t_bool"
      }
    ],
    "types": {
      "t_array(t_struct(ClaimData)67848_storage)dyn_storage": {
        "encoding": "dynamic_array",
        "label": "struct IFaultDisputeGame.ClaimData[]",
        "numberOfBytes": "32",
        "base": "t_struct(ClaimData)67848_storage"
      },
      "t_array(t_uint256)dyn_storage": {
        "encoding": "dynamic_array",
        "label": "uint256[]",
        "numberOfBytes": "32",
        "base": "t_uint256"
      },
      "t_bool": {
        "encoding": "inplace",
        "label": "bool",
        "numberOfBytes": "1"
      },
      "t_contract(IBondManager)67634": {
        "encoding": "inplace",
        "label": "contract IBondManager",
        "numberOfBytes": "20"
      },
      "t_enum(GameStatus)70041": {
        "encoding": "inplace",
        "label": "enum GameStatus",
        "numberOfBytes": "1"
      },
      "t_mapping(t_uint256,t_array(t_uint256)dyn_storage)": {
        "encoding": "mapping",
        "key": "t_uint256",
        "label": "mapping(uint256 => uint256[])",
        "numberOfBytes": "32",
        "value": "t_array(t_uint256)dyn_storage"
      },
      "t_mapping(t_userDefinedValueType(ClaimHash)70021,t_bool)": {
        "encoding": "mapping",
        "key": "t_userDefinedValueType(ClaimHash)70021",
        "label": "mapping(ClaimHash => bool)",
        "numberOfBytes": "32",
        "value": "t_bool"
      },
      "t_struct(ClaimData)67848_storage": {
        "encoding": "inplace",
        "label": "struct IFaultDisputeGame.ClaimData",
        "numberOfBytes": "96",
        "members": [
          {
            "astId": 67836,
            "contract": "src/dispute/FaultDisputeGame.sol:FaultDisputeGame",
            "label": "parentIndex",
            "offset": 0,
            "slot": "0",
            "type": "t_uint32"
          },
          {
            "astId": 67838,
            "contract": "src/dispute/FaultDisputeGame.sol:FaultDisputeGame",
            "label": "countered",
            "offset": 4,
            "slot": "0",
            "type": "t_bool"
          },
          {
            "astId": 67841,
            "contract": "src/dispute/FaultDisputeGame.sol:FaultDisputeGame",
            "label": "claim",
            "offset": 0,
            "slot": "1",
            "type": "t_userDefinedValueType(Claim)70019"
          },
          {
            "astId": 67844,
            "contract": "src/dispute/FaultDisputeGame.sol:FaultDisputeGame",
            "label": "position",
            "offset": 0,
            "slot": "2",
            "type": "t_userDefinedValueType(Position)70033"
          },
          {
            "astId": 67847,
            "contract": "src/dispute/FaultDisputeGame.sol:FaultDisputeGame",
            "label": "clock",
            "offset": 16,
            "slot": "2",
            "type": "t_userDefinedValueType(Clock)70031"
          }
        ]
      },
      "t_struct(OutputProposal)67856_storage": {
        "encoding": "inplace",
        "label": "struct IFaultDisputeGame.OutputProposal",
        "numberOfBytes": "64",
        "members": [
          {
            "astId": 67850,
            "contract": "src/dispute/FaultDisputeGame.sol:FaultDisputeGame",
            "label": "index",
            "offset": 0,
            "slot": "0",
            "type": "t_uint128"
          },
          {
            "astId": 67852,
            "contract": "src/dispute/FaultDisputeGame.sol:FaultDisputeGame",
            "label": "l2BlockNumber",
            "offset": 16,
            "slot": "0",
            "type": "t_uint128"
          },
          {
            "astId": 67855,
            "contract": "src/dispute/FaultDisputeGame.sol:FaultDisputeGame",
            "label": "outputRoot",
            "offset": 0,
            "slot": "1",
            "type": "t_userDefinedValueType(Hash)70017"
          }
        ]
      },
      "t_struct(OutputProposals)67863_storage": {
        "encoding": "inplace",
        "label": "struct IFaultDisputeGame.OutputProposals",
        "numberOfBytes": "128",
        "members": [
          {
            "astId": 67859,
            "contract": "src/dispute/FaultDisputeGame.sol:FaultDisputeGame",
            "label": "starting",
            "offset": 0,
            "slot": "0",
            "type": "t_struct(OutputProposal)67856_storage"
          },
          {
            "astId": 67862,
            "contract": "src/dispute/FaultDisputeGame.sol:FaultDisputeGame",
            "label": "disputed",
            "offset": 0,
            "slot": "2",
            "type": "t_struct(OutputProposal)67856_storage"
          }
        ]
      },
      "t_uint128": {
        "encoding": "inplace",
        "label": "uint128",
        "numberOfBytes": "16"
      },
      "t_uint256": {
        "encoding": "inplace",
        "label": "uint256",
        "numberOfBytes": "32"
      },
      "t_uint32": {
        "encoding": "inplace",
        "label": "uint32",
        "numberOfBytes": "4"
      },
      "t_userDefinedValueType(Claim)70019": {
        "encoding": "inplace",
        "label": "Claim",
        "numberOfBytes": "32"
      },
      "t_userDefinedValueType(ClaimHash)70021": {
        "encoding": "inplace",
        "label": "ClaimHash",
        "numberOfBytes": "32"
      },
      "t_userDefinedValueType(Clock)70031": {
        "encoding": "inplace",
        "label": "Clock",
        "numberOfBytes": "16"
      },
      "t_userDefinedValueType(Hash)70017": {
        "encoding": "inplace",
        "label": "Hash",
        "numberOfBytes": "32"
      },
      "t_userDefinedValueType(Position)70033": {
        "encoding": "inplace",
        "label": "Position",
        "numberOfBytes": "16"
      },
      "t_userDefinedValueType(Timestamp)70025": {
        "encoding": "inplace",
        "label": "Timestamp",
        "numberOfBytes": "8"
      }
    }
  },
  "userdoc": {
    "version": 1,
    "kind": "user",
    "methods": {
      "ABSOLUTE_PRESTATE()": {
        "notice": "The absolute prestate of the instruction trace. This is a constant that is defined         by the program that is being used to execute the trace."
      },
      "BLOCK_ORACLE()": {
        "notice": "The block hash oracle, used for loading block hashes further back         than the `BLOCKHASH` opcode allows as well as their child's timestamp."
      },
      "GAME_DURATION()": {
        "notice": "The duration of the game."
      },
      "L2_OUTPUT_ORACLE()": {
        "notice": "The trusted L2OutputOracle contract."
      },
      "MAX_GAME_DEPTH()": {
        "notice": "The max depth of the game."
      },
      "VM()": {
        "notice": "An onchain VM that performs single instruction steps on a fault proof program trace."
      },
      "addLocalData(uint256,uint256)": {
        "notice": "Posts the requested local data to the VM's `PreimageOralce`."
      },
      "attack(uint256,bytes32)": {
        "notice": "Attack a disagreed upon `Claim`."
      },
      "bondManager()": {
        "notice": "Returns the address of the `BondManager` used."
      },
      "claimData(uint256)": {
        "notice": "An append-only array of all claims made during the dispute game."
      },
      "claimDataLen()": {
        "notice": "Returns the length of the `claimData` array."
      },
      "createdAt()": {
        "notice": "The starting timestamp of the game"
      },
      "defend(uint256,bytes32)": {
        "notice": "Defend an agreed upon `Claim`."
      },
      "extraData()": {
        "notice": "Getter for the extra data."
      },
      "gameData()": {
        "notice": "A compliant implementation of this interface should return the components of the         game UUID's preimage provided in the cwia payload. The preimage of the UUID is         constructed as `keccak256(gameType . rootClaim . extraData)` where `.` denotes         concatenation."
      },
      "gameType()": {
        "notice": "Getter for the game type."
      },
      "initialize()": {
        "notice": "Initializes the contract."
      },
      "l1BlockNumber()": {
        "notice": "The l1BlockNumber that Cannon was ran from to generate the root claim."
      },
      "l1Head()": {
        "notice": "An L1 block hash that contains the disputed output root, fetched from the         `BlockOracle` and verified by referencing the timestamp associated with the         first L2 Output Proposal in the `L2OutputOracle` that contains the disputed         L2 block number."
      },
      "l2BlockNumber()": {
        "notice": "The l2BlockNumber of the disputed output root in the `L2OutputOracle`."
      },
      "move(uint256,bytes32,bool)": {
        "notice": "Internal move function, used by both `attack` and `defend`."
      },
      "proposals()": {
        "notice": "The starting and disputed output proposal for the game. Includes information about         the output indexes in the `L2OutputOracle` and the output roots at the time of         game creation."
      },
      "resolve()": {
        "notice": "If all necessary information has been gathered, this function should mark the game         status as either `CHALLENGER_WINS` or `DEFENDER_WINS` and return the status of         the resolved game. It is at this stage that the bonds should be awarded to the         necessary parties."
      },
      "resolveClaim(uint256)": {
        "notice": "Resolves the subgame rooted at the given claim index."
      },
      "rootClaim()": {
        "notice": "Getter for the root claim."
      },
      "status()": {
        "notice": "Returns the current status of the game."
      },
      "step(uint256,bool,bytes,bytes)": {
        "notice": "Perform an instruction step via an on-chain fault proof processor."
      },
      "version()": {
        "notice": "Semantic version."
      }
    },
    "events": {
      "Move(uint256,bytes32,address)": {
        "notice": "Emitted when a new claim is added to the DAG by `claimant`"
      },
      "Resolved(uint8)": {
        "notice": "Emitted when the game is resolved."
      }
    },
    "errors": {
      "CannotDefendRootClaim()": [
        {
          "notice": "Thrown when a defense against the root claim is attempted."
        }
      ],
      "ClaimAlreadyExists()": [
        {
          "notice": "Thrown when a claim is attempting to be made that already exists."
        }
      ],
      "ClaimAlreadyResolved()": [
        {
          "notice": "Thrown when resolving a claim that has already been resolved."
        }
      ],
      "ClockNotExpired()": [
        {
          "notice": "Thrown when the game is attempted to be resolved too early."
        }
      ],
      "ClockTimeExceeded()": [
        {
          "notice": "Thrown when a move is attempted to be made after the clock has timed out."
        }
      ],
      "GameDepthExceeded()": [
        {
          "notice": "Thrown when a move is attempted to be made at or greater than the max depth of the game."
        }
      ],
      "GameNotInProgress()": [
        {
          "notice": "Thrown when an action that requires the game to be `IN_PROGRESS` is invoked when         the game is not in progress."
        }
      ],
      "InvalidParent()": [
        {
          "notice": "Thrown when a step is attempted above the maximum game depth."
        }
      ],
      "InvalidPrestate()": [
        {
          "notice": "Thrown when an invalid prestate is supplied to `step`."
        }
      ],
      "L1HeadTooOld()": [
        {
          "notice": "Thrown when a game is attempted to be initialized with an L1 head that does         not contain the disputed output root."
        }
      ],
      "OutOfOrderResolution()": [
        {
          "notice": "Thrown when resolving claims out of order."
        }
      ],
      "UnexpectedRootClaim(bytes32)": [
        {
          "notice": "Thrown when the root claim has an unexpected VM status.         Some games can only start with a root-claim with a specific status."
        }
      ],
      "ValidStep()": [
        {
          "notice": "Thrown when a step is made that computes the expected post state correctly."
        }
      ]
    },
    "notice": "An implementation of the `IFaultDisputeGame` interface."
  },
  "devdoc": {
    "version": 1,
    "kind": "dev",
    "methods": {
      "addLocalData(uint256,uint256)": {
        "params": {
          "_ident": "The local identifier of the data to post.",
          "_partOffset": "The offset of the data to post."
        }
      },
      "attack(uint256,bytes32)": {
        "params": {
          "_claim": "The `Claim` at the relative attack position.",
          "_parentIndex": "Index of the `Claim` to attack in the `claimData` array."
        }
      },
      "constructor": {
        "params": {
          "_absolutePrestate": "The absolute prestate of the instruction trace.",
          "_blockOracle": "The block oracle, used for loading block hashes further back                     than the `BLOCKHASH` opcode allows as well as their estimated                     timestamps.",
          "_gameDuration": "The duration of the game.",
          "_gameType": "The type ID of the game.",
          "_l2oo": "The trusted L2OutputOracle contract.",
          "_maxGameDepth": "The maximum depth of bisection.",
          "_vm": "An onchain VM that performs single instruction steps on a fault proof program            trace."
        }
      },
      "defend(uint256,bytes32)": {
        "params": {
          "_claim": "The `Claim` at the relative defense position.",
          "_parentIndex": "Index of the claim to defend in the `claimData` array."
        }
      },
      "extraData()": {
        "details": "`clones-with-immutable-args` argument #2",
        "returns": {
          "extraData_": "Any extra data supplied to the dispute game contract by the creator."
        }
      },
      "gameData()": {
        "returns": {
          "extraData_": "Any extra data supplied to the dispute game contract by the creator.",
          "gameType_": "The type of proof system being used.",
          "rootClaim_": "The root claim of the DisputeGame."
        }
      },
      "gameType()": {
        "details": "The reference impl should be entirely different depending on the type (fault, validity)      i.e. The game type should indicate the security model.",
        "returns": {
          "gameType_": "The type of proof system being used."
        }
      },
      "initialize()": {
        "details": "This function may only be called once."
      },
      "move(uint256,bytes32,bool)": {
        "params": {
          "_challengeIndex": "The index of the claim being moved against.",
          "_claim": "The claim at the next logical position in the game.",
          "_isAttack": "Whether or not the move is an attack or defense."
        }
      },
      "resolve()": {
        "details": "May only be called if the `status` is `IN_PROGRESS`.",
        "returns": {
          "status_": "The status of the game after resolution."
        }
      },
      "resolveClaim(uint256)": {
        "details": "This function must be called bottom-up in the DAG      A subgame is a tree of claims that has a maximum depth of 1.      A subgame root claims is valid if, and only if, all of its child claims are invalid.      At the deepest level in the DAG, a claim is invalid if there's a successful step against it.",
        "params": {
          "_claimIndex": "The index of the subgame root claim to resolve."
        }
      },
      "rootClaim()": {
        "details": "`clones-with-immutable-args` argument #1",
        "returns": {
          "rootClaim_": "The root claim of the DisputeGame."
        }
      },
      "step(uint256,bool,bytes,bytes)": {
        "details": "This function should point to a fault proof processor in order to execute      a step in the fault proof program on-chain. The interface of the fault proof      processor contract should adhere to the `IBigStepper` interface.",
        "params": {
          "_claimIndex": "The index of the challenged claim within `claimData`.",
          "_isAttack": "Whether or not the step is an attack or a defense.",
          "_proof": "Proof to access memory nodes in the VM's merkle state tree.",
          "_stateData": "The stateData of the step is the preimage of the claim at the given        prestate, which is at `_stateIndex` if the move is an attack and `_claimIndex` if        the move is a defense. If the step is an attack on the first instruction, it is        the absolute prestate of the fault proof VM."
        }
      }
    },
    "errors": {
      "UnexpectedRootClaim(bytes32)": [
        {
          "params": {
            "rootClaim": "is the claim that was unexpected."
          }
        }
      ]
    },
    "title": "FaultDisputeGame"
  },
  "id": 135
}