{
  "abi": [
    {
      "anonymous": false,
      "inputs": [
        {
          "components": [
            {
              "internalType": "address",
              "name": "treasury",
              "type": "address"
            },
            {
              "internalType": "uint256",
              "name": "threshold",
              "type": "uint256"
            },
            {
              "internalType": "address",
              "name": "recipient",
              "type": "address"
            }
          ],
          "indexed": false,
          "internalType": "struct CheckGelatoLow.Params",
          "name": "params",
          "type": "tuple"
        }
      ],
      "name": "_EventToExposeStructInABI__Params",
      "type": "event"
    },
    {
      "inputs": [
        {
          "internalType": "bytes",
          "name": "_params",
          "type": "bytes"
        }
      ],
      "name": "check",
      "outputs": [
        {
          "internalType": "bool",
          "name": "execute_",
          "type": "bool"
        }
      ],
      "stateMutability": "view",
      "type": "function"
    }
  ],
  "bytecode": {
    "object": "0x608060405234801561001057600080fd5b506102e3806100206000396000f3fe608060405234801561001057600080fd5b506004361061002b5760003560e01c8063c64b3bb514610030575b600080fd5b61004361003e366004610160565b610057565b604051901515815260200160405180910390f35b6000808280602001905181019061006e9190610258565b6020810151815160408084015190517fb47064c800000000000000000000000000000000000000000000000000000000815273ffffffffffffffffffffffffffffffffffffffff918216600482015273eeeeeeeeeeeeeeeeeeeeeeeeeeeeeeeeeeeeeeee6024820152939450919291169063b47064c890604401602060405180830381865afa158015610105573d6000803e3d6000fd5b505050506040513d601f19601f8201168201806040525081019061012991906102bd565b109392505050565b7f4e487b7100000000000000000000000000000000000000000000000000000000600052604160045260246000fd5b60006020828403121561017257600080fd5b813567ffffffffffffffff8082111561018a57600080fd5b818401915084601f83011261019e57600080fd5b8135818111156101b0576101b0610131565b604051601f82017fffffffffffffffffffffffffffffffffffffffffffffffffffffffffffffffe0908116603f011681019083821181831017156101f6576101f6610131565b8160405282815287602084870101111561020f57600080fd5b826020860160208301376000928101602001929092525095945050505050565b805173ffffffffffffffffffffffffffffffffffffffff8116811461025357600080fd5b919050565b60006060828403121561026a57600080fd5b6040516060810181811067ffffffffffffffff8211171561028d5761028d610131565b6040526102998361022f565b8152602083015160208201526102b16040840161022f565b60408201529392505050565b6000602082840312156102cf57600080fd5b505191905056fea164736f6c634300080f000a",
    "linkReferences": {}
  },
  "methodIdentifiers": {
    "check(bytes)": "c64b3bb5"
  },
  "storageLayout": {
    "storage": [],
    "types": {}
  },
  "userdoc": {
    "version": 1,
    "kind": "user",
    "methods": {
      "check(bytes)": {
        "notice": "Checks whether a drip should be executable."
      }
    },
    "events": {
      "_EventToExposeStructInABI__Params((address,uint256,address))": {
        "notice": "External event used to help client-side tooling encode parameters."
      }
    },
    "notice": "DripCheck for checking if an account's Gelato ETH balance is below some threshold."
  },
  "devdoc": {
    "version": 1,
    "kind": "dev",
    "methods": {
      "check(bytes)": {
        "params": {
          "_params": "Encoded parameters for the drip check."
        },
        "returns": {
          "execute_": "Whether the drip should be executed."
        }
      }
    },
    "events": {
      "_EventToExposeStructInABI__Params((address,uint256,address))": {
        "params": {
          "params": "Parameters to encode."
        }
      }
    },
    "title": "CheckGelatoLow"
  },
  "id": 180
}