{
  "abi": [
    {
      "inputs": [],
      "name": "BlockHashNotPresent",
      "type": "error"
    },
    {
      "anonymous": false,
      "inputs": [
        {
          "indexed": true,
          "internalType": "uint256",
          "name": "blockNumber",
          "type": "uint256"
        },
        {
          "indexed": true,
          "internalType": "Hash",
          "name": "blockHash",
          "type": "bytes32"
        },
        {
          "indexed": true,
          "internalType": "Timestamp",
          "name": "childTimestamp",
          "type": "uint64"
        }
      ],
      "name": "Checkpoint",
      "type": "event"
    },
    {
      "inputs": [],
      "name": "checkpoint",
      "outputs": [
        {
          "internalType": "uint256",
          "name": "blockNumber_",
          "type": "uint256"
        }
      ],
      "stateMutability": "nonpayable",
      "type": "function"
    },
    {
      "inputs": [
        {
          "internalType": "uint256",
          "name": "_blockNumber",
          "type": "uint256"
        }
      ],
      "name": "load",
      "outputs": [
        {
          "components": [
            {
              "internalType": "Hash",
              "name": "hash",
              "type": "bytes32"
            },
            {
              "internalType": "Timestamp",
              "name": "childTimestamp",
              "type": "uint64"
            }
          ],
          "internalType": "struct BlockOracle.BlockInfo",
          "name": "blockInfo_",
          "type": "tuple"
        }
      ],
      "stateMutability": "view",
      "type": "function"
    }
  ],
  "bytecode": {
    "object": "0x608060405234801561001057600080fd5b5061021c806100206000396000f3fe608060405234801561001057600080fd5b50600436106100365760003560e01c806399d548aa1461003b578063c2c4c5c114610078575b600080fd5b61004e6100493660046101b8565b61008e565b604080518251815260209283015167ffffffffffffffff1692810192909252015b60405180910390f35b61008061010d565b60405190815260200161006f565b604080518082018252600080825260209182018190528381528082528281208351808501909452805480855260019091015467ffffffffffffffff169284019290925203610108576040517f37cf270500000000000000000000000000000000000000000000000000000000815260040160405180910390fd5b919050565b600061011a6001436101d1565b60408051808201825282408082524267ffffffffffffffff81811660208086018281526000898152918290528782209651875551600190960180547fffffffffffffffffffffffffffffffffffffffffffffffff000000000000000016969093169590951790915593519495509093909291849186917fb67ff58b33060fd371a35ae2d9f1c3cdaec9b8197969f6efe2594a1ff4ba68c691a4505090565b6000602082840312156101ca57600080fd5b5035919050565b60008282101561020a577f4e487b7100000000000000000000000000000000000000000000000000000000600052601160045260246000fd5b50039056fea164736f6c634300080f000a",
    "linkReferences": {}
  },
  "methodIdentifiers": {
    "checkpoint()": "c2c4c5c1",
    "load(uint256)": "99d548aa"
  },
  "storageLayout": {
    "storage": [
      {
        "astId": 66016,
        "contract": "src/dispute/BlockOracle.sol:BlockOracle",
        "label": "blocks",
        "offset": 0,
        "slot": "0",
        "type": "t_mapping(t_uint256,t_struct(BlockInfo)65999_storage)"
      }
    ],
    "types": {
      "t_mapping(t_uint256,t_struct(BlockInfo)65999_storage)": {
        "encoding": "mapping",
        "key": "t_uint256",
        "label": "mapping(uint256 => struct BlockOracle.BlockInfo)",
        "numberOfBytes": "32",
        "value": "t_struct(BlockInfo)65999_storage"
      },
      "t_struct(BlockInfo)65999_storage": {
        "encoding": "inplace",
        "label": "struct BlockOracle.BlockInfo",
        "numberOfBytes": "64",
        "members": [
          {
            "astId": 65995,
            "contract": "src/dispute/BlockOracle.sol:BlockOracle",
            "label": "hash",
            "offset": 0,
            "slot": "0",
            "type": "t_userDefinedValueType(Hash)70017"
          },
          {
            "astId": 65998,
            "contract": "src/dispute/BlockOracle.sol:BlockOracle",
            "label": "childTimestamp",
            "offset": 0,
            "slot": "1",
            "type": "t_userDefinedValueType(Timestamp)70025"
          }
        ]
      },
      "t_uint256": {
        "encoding": "inplace",
        "label": "uint256",
        "numberOfBytes": "32"
      },
      "t_userDefinedValueType(Hash)70017": {
        "encoding": "inplace",
        "label": "Hash",
        "numberOfBytes": "32"
      },
      "t_userDefinedValueType(Timestamp)70025": {
        "encoding": "inplace",
        "label": "Timestamp",
        "numberOfBytes": "8"
      }
    }
  },
  "userdoc": {
    "version": 1,
    "kind": "user",
    "methods": {
      "checkpoint()": {
        "notice": "Stores a block hash for the previous block number."
      },
      "load(uint256)": {
        "notice": "Loads a block hash for a given block number, assuming that the block number         has been stored in the oracle."
      }
    },
    "events": {
      "Checkpoint(uint256,bytes32,uint64)": {
        "notice": "Emitted when a block is checkpointed."
      }
    },
    "errors": {
      "BlockHashNotPresent()": [
        {
          "notice": "Thrown when a block hash is attempted to be loaded that has not been stored."
        }
      ]
    },
    "notice": "Stores a map of block numbers => block hashes for use in dispute resolution"
  },
  "devdoc": {
    "version": 1,
    "kind": "dev",
    "methods": {
      "checkpoint()": {
        "returns": {
          "blockNumber_": "The block number that was checkpointed, which is always                      `block.number - 1`."
        }
      },
      "load(uint256)": {
        "params": {
          "_blockNumber": "The block number to load the block hash and timestamp for."
        },
        "returns": {
          "blockInfo_": "The block hash and timestamp for the given block number."
        }
      }
    },
    "title": "BlockOracle"
  },
  "id": 133
}