{
  "abi": [
    {
      "inputs": [],
      "stateMutability": "nonpayable",
      "type": "constructor"
    },
    {
      "anonymous": false,
      "inputs": [
        {
          "indexed": false,
          "internalType": "uint8",
          "name": "version",
          "type": "uint8"
        }
      ],
      "name": "Initialized",
      "type": "event"
    },
    {
      "anonymous": false,
      "inputs": [
        {
          "indexed": false,
          "internalType": "address",
          "name": "account",
          "type": "address"
        }
      ],
      "name": "Paused",
      "type": "event"
    },
    {
      "anonymous": false,
      "inputs": [
        {
          "indexed": true,
          "internalType": "address",
          "name": "from",
          "type": "address"
        },
        {
          "indexed": true,
          "internalType": "address",
          "name": "to",
          "type": "address"
        },
        {
          "indexed": true,
          "internalType": "uint256",
          "name": "version",
          "type": "uint256"
        },
        {
          "indexed": false,
          "internalType": "bytes",
          "name": "opaqueData",
          "type": "bytes"
        }
      ],
      "name": "TransactionDeposited",
      "type": "event"
    },
    {
      "anonymous": false,
      "inputs": [
        {
          "indexed": false,
          "internalType": "address",
          "name": "account",
          "type": "address"
        }
      ],
      "name": "Unpaused",
      "type": "event"
    },
    {
      "anonymous": false,
      "inputs": [
        {
          "indexed": true,
          "internalType": "bytes32",
          "name": "withdrawalHash",
          "type": "bytes32"
        },
        {
          "indexed": false,
          "internalType": "bool",
          "name": "success",
          "type": "bool"
        }
      ],
      "name": "WithdrawalFinalized",
      "type": "event"
    },
    {
      "anonymous": false,
      "inputs": [
        {
          "indexed": true,
          "internalType": "bytes32",
          "name": "withdrawalHash",
          "type": "bytes32"
        },
        {
          "indexed": true,
          "internalType": "address",
          "name": "from",
          "type": "address"
        },
        {
          "indexed": true,
          "internalType": "address",
          "name": "to",
          "type": "address"
        }
      ],
      "name": "WithdrawalProven",
      "type": "event"
    },
    {
      "inputs": [],
      "name": "GUARDIAN",
      "outputs": [
        {
          "internalType": "address",
          "name": "",
          "type": "address"
        }
      ],
      "stateMutability": "view",
      "type": "function"
    },
    {
      "inputs": [],
      "name": "L2_ORACLE",
      "outputs": [
        {
          "internalType": "contract L2OutputOracle",
          "name": "",
          "type": "address"
        }
      ],
      "stateMutability": "view",
      "type": "function"
    },
    {
      "inputs": [],
      "name": "SYSTEM_CONFIG",
      "outputs": [
        {
          "internalType": "contract SystemConfig",
          "name": "",
          "type": "address"
        }
      ],
      "stateMutability": "view",
      "type": "function"
    },
    {
      "inputs": [
        {
          "internalType": "address",
          "name": "_to",
          "type": "address"
        },
        {
          "internalType": "uint256",
          "name": "_value",
          "type": "uint256"
        },
        {
          "internalType": "uint64",
          "name": "_gasLimit",
          "type": "uint64"
        },
        {
          "internalType": "bool",
          "name": "_isCreation",
          "type": "bool"
        },
        {
          "internalType": "bytes",
          "name": "_data",
          "type": "bytes"
        }
      ],
      "name": "depositTransaction",
      "outputs": [],
      "stateMutability": "payable",
      "type": "function"
    },
    {
      "inputs": [],
      "name": "donateETH",
      "outputs": [],
      "stateMutability": "payable",
      "type": "function"
    },
    {
      "inputs": [
        {
          "components": [
            {
              "internalType": "uint256",
              "name": "nonce",
              "type": "uint256"
            },
            {
              "internalType": "address",
              "name": "sender",
              "type": "address"
            },
            {
              "internalType": "address",
              "name": "target",
              "type": "address"
            },
            {
              "internalType": "uint256",
              "name": "value",
              "type": "uint256"
            },
            {
              "internalType": "uint256",
              "name": "gasLimit",
              "type": "uint256"
            },
            {
              "internalType": "bytes",
              "name": "data",
              "type": "bytes"
            }
          ],
          "internalType": "struct Types.WithdrawalTransaction",
          "name": "_tx",
          "type": "tuple"
        }
      ],
      "name": "finalizeWithdrawalTransaction",
      "outputs": [],
      "stateMutability": "nonpayable",
      "type": "function"
    },
    {
      "inputs": [
        {
          "internalType": "bytes32",
          "name": "",
          "type": "bytes32"
        }
      ],
      "name": "finalizedWithdrawals",
      "outputs": [
        {
          "internalType": "bool",
          "name": "",
          "type": "bool"
        }
      ],
      "stateMutability": "view",
      "type": "function"
    },
    {
      "inputs": [],
      "name": "guardian",
      "outputs": [
        {
          "internalType": "address",
          "name": "",
          "type": "address"
        }
      ],
      "stateMutability": "view",
      "type": "function"
    },
    {
      "inputs": [
        {
          "internalType": "contract L2OutputOracle",
          "name": "_l2Oracle",
          "type": "address"
        },
        {
          "internalType": "address",
          "name": "_guardian",
          "type": "address"
        },
        {
          "internalType": "contract SystemConfig",
          "name": "_systemConfig",
          "type": "address"
        },
        {
          "internalType": "bool",
          "name": "_paused",
          "type": "bool"
        }
      ],
      "name": "initialize",
      "outputs": [],
      "stateMutability": "nonpayable",
      "type": "function"
    },
    {
      "inputs": [
        {
          "internalType": "uint256",
          "name": "_l2OutputIndex",
          "type": "uint256"
        }
      ],
      "name": "isOutputFinalized",
      "outputs": [
        {
          "internalType": "bool",
          "name": "",
          "type": "bool"
        }
      ],
      "stateMutability": "view",
      "type": "function"
    },
    {
      "inputs": [],
      "name": "l2Oracle",
      "outputs": [
        {
          "internalType": "contract L2OutputOracle",
          "name": "",
          "type": "address"
        }
      ],
      "stateMutability": "view",
      "type": "function"
    },
    {
      "inputs": [],
      "name": "l2Sender",
      "outputs": [
        {
          "internalType": "address",
          "name": "",
          "type": "address"
        }
      ],
      "stateMutability": "view",
      "type": "function"
    },
    {
      "inputs": [
        {
          "internalType": "uint64",
          "name": "_byteCount",
          "type": "uint64"
        }
      ],
      "name": "minimumGasLimit",
      "outputs": [
        {
          "internalType": "uint64",
          "name": "",
          "type": "uint64"
        }
      ],
      "stateMutability": "pure",
      "type": "function"
    },
    {
      "inputs": [],
      "name": "params",
      "outputs": [
        {
          "internalType": "uint128",
          "name": "prevBaseFee",
          "type": "uint128"
        },
        {
          "internalType": "uint64",
          "name": "prevBoughtGas",
          "type": "uint64"
        },
        {
          "internalType": "uint64",
          "name": "prevBlockNum",
          "type": "uint64"
        }
      ],
      "stateMutability": "view",
      "type": "function"
    },
    {
      "inputs": [],
      "name": "pause",
      "outputs": [],
      "stateMutability": "nonpayable",
      "type": "function"
    },
    {
      "inputs": [],
      "name": "paused",
      "outputs": [
        {
          "internalType": "bool",
          "name": "",
          "type": "bool"
        }
      ],
      "stateMutability": "view",
      "type": "function"
    },
    {
      "inputs": [
        {
          "components": [
            {
              "internalType": "uint256",
              "name": "nonce",
              "type": "uint256"
            },
            {
              "internalType": "address",
              "name": "sender",
              "type": "address"
            },
            {
              "internalType": "address",
              "name": "target",
              "type": "address"
            },
            {
              "internalType": "uint256",
              "name": "value",
              "type": "uint256"
            },
            {
              "internalType": "uint256",
              "name": "gasLimit",
              "type": "uint256"
            },
            {
              "internalType": "bytes",
              "name": "data",
              "type": "bytes"
            }
          ],
          "internalType": "struct Types.WithdrawalTransaction",
          "name": "_tx",
          "type": "tuple"
        },
        {
          "internalType": "uint256",
          "name": "_l2OutputIndex",
          "type": "uint256"
        },
        {
          "components": [
            {
              "internalType": "bytes32",
              "name": "version",
              "type": "bytes32"
            },
            {
              "internalType": "bytes32",
              "name": "stateRoot",
              "type": "bytes32"
            },
            {
              "internalType": "bytes32",
              "name": "messagePasserStorageRoot",
              "type": "bytes32"
            },
            {
              "internalType": "bytes32",
              "name": "latestBlockhash",
              "type": "bytes32"
            }
          ],
          "internalType": "struct Types.OutputRootProof",
          "name": "_outputRootProof",
          "type": "tuple"
        },
        {
          "internalType": "bytes[]",
          "name": "_withdrawalProof",
          "type": "bytes[]"
        }
      ],
      "name": "proveWithdrawalTransaction",
      "outputs": [],
      "stateMutability": "nonpayable",
      "type": "function"
    },
    {
      "inputs": [
        {
          "internalType": "bytes32",
          "name": "",
          "type": "bytes32"
        }
      ],
      "name": "provenWithdrawals",
      "outputs": [
        {
          "internalType": "bytes32",
          "name": "outputRoot",
          "type": "bytes32"
        },
        {
          "internalType": "uint128",
          "name": "timestamp",
          "type": "uint128"
        },
        {
          "internalType": "uint128",
          "name": "l2OutputIndex",
          "type": "uint128"
        }
      ],
      "stateMutability": "view",
      "type": "function"
    },
    {
      "inputs": [],
      "name": "systemConfig",
      "outputs": [
        {
          "internalType": "contract SystemConfig",
          "name": "",
          "type": "address"
        }
      ],
      "stateMutability": "view",
      "type": "function"
    },
    {
      "inputs": [],
      "name": "unpause",
      "outputs": [],
      "stateMutability": "nonpayable",
      "type": "function"
    },
    {
      "inputs": [],
      "name": "version",
      "outputs": [
        {
          "internalType": "string",
          "name": "",
          "type": "string"
        }
      ],
      "stateMutability": "view",
      "type": "function"
    },
    {
      "stateMutability": "payable",
      "type": "receive"
    }
  ],
  "bytecode": {
    "object": "0x60806040523480156200001157600080fd5b506200002260008080600162000028565b62000224565b600054600290610100900460ff161580156200004b575060005460ff8083169116105b620000b45760405162461bcd60e51b815260206004820152602e60248201527f496e697469616c697a61626c653a20636f6e747261637420697320616c72656160448201526d191e481a5b9a5d1a585b1a5e995960921b60648201526084015b60405180910390fd5b6000805461ffff191660ff831617610100908117909155603280546001600160a01b031990811661dead1790915560358054603680546001600160a01b0389811691861691909117909155603780548a831695169490941790935585151592891690930260ff19166001600160a81b0319909316929092171790556200013962000181565b6000805461ff001916905560405160ff821681527f7f26b83ff96e1f2b6a682f133852f6798a09c465da95921460cefb38474024989060200160405180910390a15050505050565b600054610100900460ff16620001ee5760405162461bcd60e51b815260206004820152602b60248201527f496e697469616c697a61626c653a20636f6e7472616374206973206e6f74206960448201526a6e697469616c697a696e6760a81b6064820152608401620000ab565b60408051606081018252633b9aca0080825260006020830152436001600160401b031691909201819052600160c01b0217600155565b61545c80620002346000396000f3fe60806040526004361061016d5760003560e01c80638b4c40b0116100cb578063a35d99df1161007f578063e9e05c4211610059578063e9e05c4214610573578063f049875014610586578063fecf9734146105b157600080fd5b8063a35d99df1461040d578063cff0ab9614610446578063e965084c146104e757600080fd5b80639b5f694a116100b05780639b5f694a1461037e5780639bf62d82146103b0578063a14238e7146103dd57600080fd5b80638b4c40b0146101925780638c3152e91461035e57600080fd5b806354fd4d50116101225780636dbffb78116101075780636dbffb78146102fe578063724c184c1461031e5780638456cb591461034957600080fd5b806354fd4d501461027e5780635c975abb146102d457600080fd5b80633f4ba83a116101535780633f4ba83a1461021c578063452a9320146102315780634870496f1461025e57600080fd5b80621c2ff61461019957806333d7e2bd146101ef57600080fd5b36610194576101923334620186a06000604051806020016040528060008152506105d1565b005b600080fd5b3480156101a557600080fd5b50603554610100900473ffffffffffffffffffffffffffffffffffffffff165b60405173ffffffffffffffffffffffffffffffffffffffff90911681526020015b60405180910390f35b3480156101fb57600080fd5b506036546101c59073ffffffffffffffffffffffffffffffffffffffff1681565b34801561022857600080fd5b5061019261086c565b34801561023d57600080fd5b506037546101c59073ffffffffffffffffffffffffffffffffffffffff1681565b34801561026a57600080fd5b50610192610279366004614a4a565b610971565b34801561028a57600080fd5b506102c76040518060400160405280600581526020017f312e392e3100000000000000000000000000000000000000000000000000000081525081565b6040516101e69190614ba0565b3480156102e057600080fd5b506035546102ee9060ff1681565b60405190151581526020016101e6565b34801561030a57600080fd5b506102ee610319366004614bb3565b610fa6565b34801561032a57600080fd5b5060375473ffffffffffffffffffffffffffffffffffffffff166101c5565b34801561035557600080fd5b50610192611065565b34801561036a57600080fd5b50610192610379366004614bcc565b611167565b34801561038a57600080fd5b506035546101c590610100900473ffffffffffffffffffffffffffffffffffffffff1681565b3480156103bc57600080fd5b506032546101c59073ffffffffffffffffffffffffffffffffffffffff1681565b3480156103e957600080fd5b506102ee6103f8366004614bb3565b60336020526000908152604090205460ff1681565b34801561041957600080fd5b5061042d610428366004614c26565b611a2b565b60405167ffffffffffffffff90911681526020016101e6565b34801561045257600080fd5b506001546104ae906fffffffffffffffffffffffffffffffff81169067ffffffffffffffff7001000000000000000000000000000000008204811691780100000000000000000000000000000000000000000000000090041683565b604080516fffffffffffffffffffffffffffffffff909416845267ffffffffffffffff92831660208501529116908201526060016101e6565b3480156104f357600080fd5b50610545610502366004614bb3565b603460205260009081526040902080546001909101546fffffffffffffffffffffffffffffffff8082169170010000000000000000000000000000000090041683565b604080519384526fffffffffffffffffffffffffffffffff92831660208501529116908201526060016101e6565b610192610581366004614c51565b6105d1565b34801561059257600080fd5b5060365473ffffffffffffffffffffffffffffffffffffffff166101c5565b3480156105bd57600080fd5b506101926105cc366004614ccc565b611a44565b8260005a905083156106885773ffffffffffffffffffffffffffffffffffffffff87161561068857604080517f08c379a00000000000000000000000000000000000000000000000000000000081526020600482015260248101919091527f4f7074696d69736d506f7274616c3a206d7573742073656e6420746f2061646460448201527f72657373283029207768656e206372656174696e67206120636f6e747261637460648201526084015b60405180910390fd5b6106928351611a2b565b67ffffffffffffffff168567ffffffffffffffff161015610735576040517f08c379a000000000000000000000000000000000000000000000000000000000815260206004820152602360248201527f4f7074696d69736d506f7274616c3a20676173206c696d697420746f6f20736d60448201527f616c6c0000000000000000000000000000000000000000000000000000000000606482015260840161067f565b6201d4c0835111156107a3576040517f08c379a000000000000000000000000000000000000000000000000000000000815260206004820152601e60248201527f4f7074696d69736d506f7274616c3a206461746120746f6f206c617267650000604482015260640161067f565b333281146107c4575033731111000000000000000000000000000000001111015b600034888888886040516020016107df959493929190614d26565b604051602081830303815290604052905060008973ffffffffffffffffffffffffffffffffffffffff168373ffffffffffffffffffffffffffffffffffffffff167fb3813568d9991fc951961fcb4c784893574240a28925604d09fc577c55bb7c328460405161084f9190614ba0565b60405180910390a450506108638282611c52565b50505050505050565b60375473ffffffffffffffffffffffffffffffffffffffff163314610913576040517f08c379a000000000000000000000000000000000000000000000000000000000815260206004820152602960248201527f4f7074696d69736d506f7274616c3a206f6e6c7920677561726469616e20636160448201527f6e20756e70617573650000000000000000000000000000000000000000000000606482015260840161067f565b603580547fffffffffffffffffffffffffffffffffffffffffffffffffffffffffffffff001690556040513381527f5db9ee0a495bf2e6ff9c91a7834c1ba4fdd244a5e8aa4e537bd38aeae4b073aa906020015b60405180910390a1565b60355460ff16156109de576040517f08c379a000000000000000000000000000000000000000000000000000000000815260206004820152601660248201527f4f7074696d69736d506f7274616c3a2070617573656400000000000000000000604482015260640161067f565b3073ffffffffffffffffffffffffffffffffffffffff16856040015173ffffffffffffffffffffffffffffffffffffffff1603610a9d576040517f08c379a000000000000000000000000000000000000000000000000000000000815260206004820152603f60248201527f4f7074696d69736d506f7274616c3a20796f752063616e6e6f742073656e642060448201527f6d6573736167657320746f2074686520706f7274616c20636f6e747261637400606482015260840161067f565b6035546040517fa25ae55700000000000000000000000000000000000000000000000000000000815260048101869052600091610100900473ffffffffffffffffffffffffffffffffffffffff169063a25ae55790602401606060405180830381865afa158015610b12573d6000803e3d6000fd5b505050506040513d601f19601f82011682018060405250810190610b369190614dab565b519050610b50610b4b36869003860186614e10565b611f7f565b8114610bde576040517f08c379a000000000000000000000000000000000000000000000000000000000815260206004820152602960248201527f4f7074696d69736d506f7274616c3a20696e76616c6964206f7574707574207260448201527f6f6f742070726f6f660000000000000000000000000000000000000000000000606482015260840161067f565b6000610be987611fdb565b6000818152603460209081526040918290208251606081018452815481526001909101546fffffffffffffffffffffffffffffffff8082169383018490527001000000000000000000000000000000009091041692810192909252919250901580610d035750805160355460408084015190517fa25ae5570000000000000000000000000000000000000000000000000000000081526fffffffffffffffffffffffffffffffff909116600482015261010090910473ffffffffffffffffffffffffffffffffffffffff169063a25ae55790602401606060405180830381865afa158015610cdb573d6000803e3d6000fd5b505050506040513d601f19601f82011682018060405250810190610cff9190614dab565b5114155b610d8f576040517f08c379a000000000000000000000000000000000000000000000000000000000815260206004820152603760248201527f4f7074696d69736d506f7274616c3a207769746864726177616c20686173682060448201527f68617320616c7265616479206265656e2070726f76656e000000000000000000606482015260840161067f565b60408051602081018490526000918101829052606001604080517fffffffffffffffffffffffffffffffffffffffffffffffffffffffffffffffe081840301815282825280516020918201209083018190529250610e589101604080517fffffffffffffffffffffffffffffffffffffffffffffffffffffffffffffffe0818403018152828201909152600182527f0100000000000000000000000000000000000000000000000000000000000000602083015290610e4e888a614e76565b8a6040013561200b565b610ee4576040517f08c379a000000000000000000000000000000000000000000000000000000000815260206004820152603260248201527f4f7074696d69736d506f7274616c3a20696e76616c696420776974686472617760448201527f616c20696e636c7573696f6e2070726f6f660000000000000000000000000000606482015260840161067f565b604080516060810182528581526fffffffffffffffffffffffffffffffff42811660208084019182528c831684860190815260008981526034835286812095518655925190518416700100000000000000000000000000000000029316929092176001909301929092558b830151908c0151925173ffffffffffffffffffffffffffffffffffffffff918216939091169186917f67a6208cfcc0801d50f6cbe764733f4fddf66ac0b04442061a8a8c0cb6b63f629190a4505050505050505050565b6035546040517fa25ae5570000000000000000000000000000000000000000000000000000000081526004810183905260009161105f9161010090910473ffffffffffffffffffffffffffffffffffffffff169063a25ae55790602401606060405180830381865afa158015611020573d6000803e3d6000fd5b505050506040513d601f19601f820116820180604052508101906110449190614dab565b602001516fffffffffffffffffffffffffffffffff1661202f565b92915050565b60375473ffffffffffffffffffffffffffffffffffffffff16331461110c576040517f08c379a000000000000000000000000000000000000000000000000000000000815260206004820152602760248201527f4f7074696d69736d506f7274616c3a206f6e6c7920677561726469616e20636160448201527f6e20706175736500000000000000000000000000000000000000000000000000606482015260840161067f565b603580547fffffffffffffffffffffffffffffffffffffffffffffffffffffffffffffff001660011790556040513381527f62e78cea01bee320cd4e420270b5ea74000d11b0c9f74754ebdbfc544b05a25890602001610967565b60355460ff16156111d4576040517f08c379a000000000000000000000000000000000000000000000000000000000815260206004820152601660248201527f4f7074696d69736d506f7274616c3a2070617573656400000000000000000000604482015260640161067f565b60325473ffffffffffffffffffffffffffffffffffffffff1661dead1461127d576040517f08c379a000000000000000000000000000000000000000000000000000000000815260206004820152603f60248201527f4f7074696d69736d506f7274616c3a2063616e206f6e6c79207472696767657260448201527f206f6e65207769746864726177616c20706572207472616e73616374696f6e00606482015260840161067f565b600061128882611fdb565b60008181526034602090815260408083208151606081018352815481526001909101546fffffffffffffffffffffffffffffffff80821694830185905270010000000000000000000000000000000090910416918101919091529293509003611373576040517f08c379a000000000000000000000000000000000000000000000000000000000815260206004820152603260248201527f4f7074696d69736d506f7274616c3a207769746864726177616c20686173206e60448201527f6f74206265656e2070726f76656e207965740000000000000000000000000000606482015260840161067f565b603560019054906101000a900473ffffffffffffffffffffffffffffffffffffffff1673ffffffffffffffffffffffffffffffffffffffff1663887862726040518163ffffffff1660e01b8152600401602060405180830381865afa1580156113e0573d6000803e3d6000fd5b505050506040513d601f19601f820116820180604052508101906114049190614efa565b81602001516fffffffffffffffffffffffffffffffff1610156114cf576040517f08c379a000000000000000000000000000000000000000000000000000000000815260206004820152604b60248201527f4f7074696d69736d506f7274616c3a207769746864726177616c2074696d657360448201527f74616d70206c657373207468616e204c32204f7261636c65207374617274696e60648201527f672074696d657374616d70000000000000000000000000000000000000000000608482015260a40161067f565b6114ee81602001516fffffffffffffffffffffffffffffffff1661202f565b6115a0576040517f08c379a000000000000000000000000000000000000000000000000000000000815260206004820152604560248201527f4f7074696d69736d506f7274616c3a2070726f76656e2077697468647261776160448201527f6c2066696e616c697a6174696f6e20706572696f6420686173206e6f7420656c60648201527f6170736564000000000000000000000000000000000000000000000000000000608482015260a40161067f565b60355460408281015190517fa25ae5570000000000000000000000000000000000000000000000000000000081526fffffffffffffffffffffffffffffffff9091166004820152600091610100900473ffffffffffffffffffffffffffffffffffffffff169063a25ae55790602401606060405180830381865afa15801561162c573d6000803e3d6000fd5b505050506040513d601f19601f820116820180604052508101906116509190614dab565b825181519192501461170a576040517f08c379a000000000000000000000000000000000000000000000000000000000815260206004820152604960248201527f4f7074696d69736d506f7274616c3a206f757470757420726f6f742070726f7660448201527f656e206973206e6f74207468652073616d652061732063757272656e74206f7560648201527f7470757420726f6f740000000000000000000000000000000000000000000000608482015260a40161067f565b61172981602001516fffffffffffffffffffffffffffffffff1661202f565b6117db576040517f08c379a000000000000000000000000000000000000000000000000000000000815260206004820152604360248201527f4f7074696d69736d506f7274616c3a206f75747075742070726f706f73616c2060448201527f66696e616c697a6174696f6e20706572696f6420686173206e6f7420656c617060648201527f7365640000000000000000000000000000000000000000000000000000000000608482015260a40161067f565b60008381526033602052604090205460ff161561187a576040517f08c379a000000000000000000000000000000000000000000000000000000000815260206004820152603560248201527f4f7074696d69736d506f7274616c3a207769746864726177616c20686173206160448201527f6c7265616479206265656e2066696e616c697a65640000000000000000000000606482015260840161067f565b600083815260336020908152604080832080547fffffffffffffffffffffffffffffffffffffffffffffffffffffffffffffff00166001179055908601516032805473ffffffffffffffffffffffffffffffffffffffff9092167fffffffffffffffffffffffff00000000000000000000000000000000000000009092169190911790558501516080860151606087015160a088015161191c939291906120d4565b603280547fffffffffffffffffffffffff00000000000000000000000000000000000000001661dead17905560405190915084907fdb5c7652857aa163daadd670e116628fb42e869d8ac4251ef8971d9e5727df1b9061198190841515815260200190565b60405180910390a2801580156119975750326001145b15611a24576040517f08c379a000000000000000000000000000000000000000000000000000000000815260206004820152602160248201527f4f7074696d69736d506f7274616c3a207769746864726177616c206661696c6560448201527f6400000000000000000000000000000000000000000000000000000000000000606482015260840161067f565b5050505050565b6000611a38826010614f42565b61105f90615208614f72565b600054600290610100900460ff16158015611a66575060005460ff8083169116105b611af2576040517f08c379a000000000000000000000000000000000000000000000000000000000815260206004820152602e60248201527f496e697469616c697a61626c653a20636f6e747261637420697320616c72656160448201527f647920696e697469616c697a6564000000000000000000000000000000000000606482015260840161067f565b600080547fffffffffffffffffffffffffffffffffffffffffffffffffffffffffffff00001660ff831617610100908117909155603280547fffffffffffffffffffffffff000000000000000000000000000000000000000090811661dead17909155603580546036805473ffffffffffffffffffffffffffffffffffffffff89811691861691909117909155603780548a83169516949094179093558515159289169093027fffffffffffffffffffffffffffffffffffffffffffffffffffffffffffffff00167fffffffffffffffffffffff00000000000000000000000000000000000000000090931692909217179055611bed612132565b600080547fffffffffffffffffffffffffffffffffffffffffffffffffffffffffffff00ff16905560405160ff821681527f7f26b83ff96e1f2b6a682f133852f6798a09c465da95921460cefb38474024989060200160405180910390a15050505050565b600154600090611c88907801000000000000000000000000000000000000000000000000900467ffffffffffffffff1643614f9e565b90506000611c94612215565b90506000816020015160ff16826000015163ffffffff16611cb59190614fe4565b90508215611dec57600154600090611cec908390700100000000000000000000000000000000900467ffffffffffffffff1661504c565b90506000836040015160ff1683611d0391906150c0565b600154611d239084906fffffffffffffffffffffffffffffffff166150c0565b611d2d9190614fe4565b600154909150600090611d7e90611d579084906fffffffffffffffffffffffffffffffff1661517c565b866060015163ffffffff168760a001516fffffffffffffffffffffffffffffffff166122db565b90506001861115611dad57611daa611d5782876040015160ff1660018a611da59190614f9e565b6122fa565b90505b6fffffffffffffffffffffffffffffffff16780100000000000000000000000000000000000000000000000067ffffffffffffffff4316021760015550505b60018054869190601090611e1f908490700100000000000000000000000000000000900467ffffffffffffffff16614f72565b92506101000a81548167ffffffffffffffff021916908367ffffffffffffffff160217905550816000015163ffffffff16600160000160109054906101000a900467ffffffffffffffff1667ffffffffffffffff161315611f02576040517f08c379a000000000000000000000000000000000000000000000000000000000815260206004820152603e60248201527f5265736f757263654d65746572696e673a2063616e6e6f7420627579206d6f7260448201527f6520676173207468616e20617661696c61626c6520676173206c696d69740000606482015260840161067f565b600154600090611f2e906fffffffffffffffffffffffffffffffff1667ffffffffffffffff88166151f0565b90506000611f4048633b9aca0061234f565b611f4a908361522d565b905060005a611f599088614f9e565b905080821115611f7557611f75611f708284614f9e565b612366565b5050505050505050565b60008160000151826020015183604001518460600151604051602001611fbe949392919093845260208401929092526040830152606082015260800190565b604051602081830303815290604052805190602001209050919050565b80516020808301516040808501516060860151608087015160a08801519351600097611fbe979096959101615241565b60008061201786612394565b9050612025818686866123c6565b9695505050505050565b6000603560019054906101000a900473ffffffffffffffffffffffffffffffffffffffff1673ffffffffffffffffffffffffffffffffffffffff1663f4daa2916040518163ffffffff1660e01b8152600401602060405180830381865afa15801561209e573d6000803e3d6000fd5b505050506040513d601f19601f820116820180604052508101906120c29190614efa565b6120cc9083615298565b421192915050565b60008060006120e48660006123f6565b90508061211a576308c379a06000526020805278185361666543616c6c3a204e6f7420656e6f756768206761736058526064601cfd5b600080855160208701888b5af1979650505050505050565b600054610100900460ff166121c9576040517f08c379a000000000000000000000000000000000000000000000000000000000815260206004820152602b60248201527f496e697469616c697a61626c653a20636f6e7472616374206973206e6f74206960448201527f6e697469616c697a696e67000000000000000000000000000000000000000000606482015260840161067f565b60408051606081018252633b9aca00808252600060208301524367ffffffffffffffff169190920181905278010000000000000000000000000000000000000000000000000217600155565b6040805160c08082018352600080835260208301819052828401819052606083018190526080830181905260a083015260365483517fcc731b020000000000000000000000000000000000000000000000000000000081529351929373ffffffffffffffffffffffffffffffffffffffff9091169263cc731b02926004808401939192918290030181865afa1580156122b2573d6000803e3d6000fd5b505050506040513d601f19601f820116820180604052508101906122d691906152d5565b905090565b60006122f06122ea8585612414565b83612424565b90505b9392505050565b6000670de0b6b3a764000061233b6123128583614fe4565b61232490670de0b6b3a764000061504c565b61233685670de0b6b3a76400006150c0565b612433565b61234590866150c0565b6122f09190614fe4565b60008183101561235f57816122f3565b5090919050565b6000805a90505b825a6123799083614f9e565b101561238f5761238882615374565b915061236d565b505050565b606081805190602001206040516020016123b091815260200190565b6040516020818303038152906040529050919050565b60006123ed846123d7878686612464565b8051602091820120825192909101919091201490565b95945050505050565b600080603f83619c4001026040850201603f5a021015949350505050565b60008183121561235f57816122f3565b600081831261235f57816122f3565b60006122f3670de0b6b3a76400008361244b86612ee2565b61245591906150c0565b61245f9190614fe4565b613126565b606060008451116124d1576040517f08c379a000000000000000000000000000000000000000000000000000000000815260206004820152601560248201527f4d65726b6c65547269653a20656d707479206b65790000000000000000000000604482015260640161067f565b60006124dc84613365565b905060006124e986613451565b905060008460405160200161250091815260200190565b60405160208183030381529060405290506000805b8451811015612e59576000858281518110612532576125326153ac565b6020026020010151905084518311156125cd576040517f08c379a000000000000000000000000000000000000000000000000000000000815260206004820152602e60248201527f4d65726b6c65547269653a206b657920696e646578206578636565647320746f60448201527f74616c206b6579206c656e677468000000000000000000000000000000000000606482015260840161067f565b82600003612686578051805160209182012060405161261b926125f592910190815260200190565b604051602081830303815290604052858051602091820120825192909101919091201490565b612681576040517f08c379a000000000000000000000000000000000000000000000000000000000815260206004820152601d60248201527f4d65726b6c65547269653a20696e76616c696420726f6f742068617368000000604482015260640161067f565b6127dd565b80515160201161273c57805180516020918201206040516126b0926125f592910190815260200190565b612681576040517f08c379a000000000000000000000000000000000000000000000000000000000815260206004820152602760248201527f4d65726b6c65547269653a20696e76616c6964206c6172676520696e7465726e60448201527f616c206861736800000000000000000000000000000000000000000000000000606482015260840161067f565b8051845160208087019190912082519190920120146127dd576040517f08c379a000000000000000000000000000000000000000000000000000000000815260206004820152602660248201527f4d65726b6c65547269653a20696e76616c696420696e7465726e616c206e6f6460448201527f6520686173680000000000000000000000000000000000000000000000000000606482015260840161067f565b6127e960106001615298565b816020015151036129c5578451830361295d576128238160200151601081518110612816576128166153ac565b60200260200101516134b4565b965060008751116128b6576040517f08c379a000000000000000000000000000000000000000000000000000000000815260206004820152603b60248201527f4d65726b6c65547269653a2076616c7565206c656e677468206d75737420626560448201527f2067726561746572207468616e207a65726f20286272616e6368290000000000606482015260840161067f565b600186516128c49190614f9e565b8214612952576040517f08c379a000000000000000000000000000000000000000000000000000000000815260206004820152603a60248201527f4d65726b6c65547269653a2076616c7565206e6f6465206d757374206265206c60448201527f617374206e6f646520696e2070726f6f6620286272616e636829000000000000606482015260840161067f565b5050505050506122f3565b6000858481518110612971576129716153ac565b602001015160f81c60f81b60f81c9050600082602001518260ff168151811061299c5761299c6153ac565b602002602001015190506129af81613614565b95506129bc600186615298565b94505050612e46565b600281602001515103612dbe5760006129dd82613639565b90506000816000815181106129f4576129f46153ac565b016020015160f81c90506000612a0b6002836153db565b612a169060026153fd565b90506000612a27848360ff1661365d565b90506000612a358a8961365d565b90506000612a438383613693565b905080835114612ad5576040517f08c379a000000000000000000000000000000000000000000000000000000000815260206004820152603a60248201527f4d65726b6c65547269653a20706174682072656d61696e646572206d7573742060448201527f736861726520616c6c206e6962626c65732077697468206b6579000000000000606482015260840161067f565b60ff851660021480612aea575060ff85166003145b15612cd95780825114612b7f576040517f08c379a000000000000000000000000000000000000000000000000000000000815260206004820152603d60248201527f4d65726b6c65547269653a206b65792072656d61696e646572206d757374206260448201527f65206964656e746963616c20746f20706174682072656d61696e646572000000606482015260840161067f565b612b998760200151600181518110612816576128166153ac565b9c5060008d5111612c2c576040517f08c379a000000000000000000000000000000000000000000000000000000000815260206004820152603960248201527f4d65726b6c65547269653a2076616c7565206c656e677468206d75737420626560448201527f2067726561746572207468616e207a65726f20286c6561662900000000000000606482015260840161067f565b60018c51612c3a9190614f9e565b8814612cc8576040517f08c379a000000000000000000000000000000000000000000000000000000000815260206004820152603860248201527f4d65726b6c65547269653a2076616c7565206e6f6465206d757374206265206c60448201527f617374206e6f646520696e2070726f6f6620286c656166290000000000000000606482015260840161067f565b5050505050505050505050506122f3565b60ff85161580612cec575060ff85166001145b15612d2b57612d188760200151600181518110612d0b57612d0b6153ac565b6020026020010151613614565b9950612d24818a615298565b9850612db3565b6040517f08c379a000000000000000000000000000000000000000000000000000000000815260206004820152603260248201527f4d65726b6c65547269653a2072656365697665642061206e6f6465207769746860448201527f20616e20756e6b6e6f776e207072656669780000000000000000000000000000606482015260840161067f565b505050505050612e46565b6040517f08c379a000000000000000000000000000000000000000000000000000000000815260206004820152602860248201527f4d65726b6c65547269653a20726563656976656420616e20756e70617273656160448201527f626c65206e6f6465000000000000000000000000000000000000000000000000606482015260840161067f565b5080612e5181615374565b915050612515565b506040517f08c379a000000000000000000000000000000000000000000000000000000000815260206004820152602560248201527f4d65726b6c65547269653a2072616e206f7574206f662070726f6f6620656c6560448201527f6d656e7473000000000000000000000000000000000000000000000000000000606482015260840161067f565b6000808213612f4d576040517f08c379a000000000000000000000000000000000000000000000000000000000815260206004820152600960248201527f554e444546494e45440000000000000000000000000000000000000000000000604482015260640161067f565b60006060612f5a84613747565b03609f8181039490941b90931c6c465772b2bbbb5f824b15207a3081018102606090811d6d0388eaa27412d5aca026815d636e018202811d6d0df99ac502031bf953eff472fdcc018202811d6d13cdffb29d51d99322bdff5f2211018202811d6d0a0f742023def783a307a986912e018202811d6d01920d8043ca89b5239253284e42018202811d6c0b7a86d7375468fac667a0a527016c29508e458543d8aa4df2abee7883018302821d6d0139601a2efabe717e604cbb4894018302821d6d02247f7a7b6594320649aa03aba1018302821d7fffffffffffffffffffffffffffffffffffffff73c0c716a594e00d54e3c4cbc9018302821d7ffffffffffffffffffffffffffffffffffffffdc7b88c420e53a9890533129f6f01830290911d7fffffffffffffffffffffffffffffffffffffff465fda27eb4d63ded474e5f832019091027ffffffffffffffff5f6af8f7b3396644f18e157960000000000000000000000000105711340daa0d5f769dba1915cef59f0815a5506027d0267a36c0c95b3975ab3ee5b203a7614a3f75373f047d803ae7b6687f2b393909302929092017d57115e47018c7177eebf7cd370a3356a1b7863008a5ae8028c72b88642840160ae1d92915050565b60007ffffffffffffffffffffffffffffffffffffffffffffffffdb731c958f34d94c1821361315757506000919050565b680755bf798b4a1bf1e582126131c9576040517f08c379a000000000000000000000000000000000000000000000000000000000815260206004820152600c60248201527f4558505f4f564552464c4f570000000000000000000000000000000000000000604482015260640161067f565b6503782dace9d9604e83901b059150600060606bb17217f7d1cf79abc9e3b39884821b056b80000000000000000000000001901d6bb17217f7d1cf79abc9e3b39881029093037fffffffffffffffffffffffffffffffffffffffdbf3ccf1604d263450f02a550481018102606090811d6d0277594991cfc85f6e2461837cd9018202811d7fffffffffffffffffffffffffffffffffffffe5adedaa1cb095af9e4da10e363c018202811d6db1bbb201f443cf962f1a1d3db4a5018202811d7ffffffffffffffffffffffffffffffffffffd38dc772608b0ae56cce01296c0eb018202811d6e05180bb14799ab47a8a8cb2a527d57016d02d16720577bd19bf614176fe9ea6c10fe68e7fd37d0007b713f765084018402831d9081019084017ffffffffffffffffffffffffffffffffffffffe2c69812cf03b0763fd454a8f7e010290911d6e0587f503bb6ea29d25fcb7401964500190910279d835ebba824c98fb31b83b2ca45c000000000000000000000000010574029d9dc38563c32e5c2f6dc192ee70ef65f9978af30260c3939093039290921c92915050565b80516060908067ffffffffffffffff8111156133835761338361486a565b6040519080825280602002602001820160405280156133c857816020015b60408051808201909152606080825260208201528152602001906001900390816133a15790505b50915060005b8181101561344a5760405180604001604052808583815181106133f3576133f36153ac565b60200260200101518152602001613422868481518110613415576134156153ac565b602002602001015161381d565b815250838281518110613437576134376153ac565b60209081029190910101526001016133ce565b5050919050565b606080604051905082518060011b603f8101601f1916830160405280835250602084016020830160005b838110156134a9578060011b82018184015160001a8060041c8253600f81166001830153505060010161347b565b509295945050505050565b606060008060006134c485613830565b9194509250905060008160018111156134df576134df615420565b1461356c576040517f08c379a000000000000000000000000000000000000000000000000000000000815260206004820152603960248201527f524c505265616465723a206465636f646564206974656d207479706520666f7260448201527f206279746573206973206e6f7420612064617461206974656d00000000000000606482015260840161067f565b6135768284615298565b855114613605576040517f08c379a000000000000000000000000000000000000000000000000000000000815260206004820152603460248201527f524c505265616465723a2062797465732076616c756520636f6e7461696e732060448201527f616e20696e76616c69642072656d61696e646572000000000000000000000000606482015260840161067f565b6123ed8560200151848461429d565b606060208260000151106136305761362b826134b4565b61105f565b61105f82614331565b606061105f6136588360200151600081518110612816576128166153ac565b613451565b60608251821061367c575060408051602081019091526000815261105f565b6122f3838384865161368e9190614f9e565b614347565b60008082518451106136a65782516136a9565b83515b90505b808210801561373057508282815181106136c8576136c86153ac565b602001015160f81c60f81b7effffffffffffffffffffffffffffffffffffffffffffffffffffffffffffff1916848381518110613707576137076153ac565b01602001517fff0000000000000000000000000000000000000000000000000000000000000016145b15613740578160010191506136ac565b5092915050565b60008082116137b2576040517f08c379a000000000000000000000000000000000000000000000000000000000815260206004820152600960248201527f554e444546494e45440000000000000000000000000000000000000000000000604482015260640161067f565b5060016fffffffffffffffffffffffffffffffff821160071b82811c67ffffffffffffffff1060061b1782811c63ffffffff1060051b1782811c61ffff1060041b1782811c60ff10600390811b90911783811c600f1060021b1783811c909110821b1791821c111790565b606061105f61382b8361451f565b614608565b6000806000808460000151116138ee576040517f08c379a000000000000000000000000000000000000000000000000000000000815260206004820152604a60248201527f524c505265616465723a206c656e677468206f6620616e20524c50206974656d60448201527f206d7573742062652067726561746572207468616e207a65726f20746f20626560648201527f206465636f6461626c6500000000000000000000000000000000000000000000608482015260a40161067f565b6020840151805160001a607f8111613913576000600160009450945094505050614296565b60b78111613b21576000613928608083614f9e565b9050808760000151116139e3576040517f08c379a000000000000000000000000000000000000000000000000000000000815260206004820152604e60248201527f524c505265616465723a206c656e677468206f6620636f6e74656e74206d757360448201527f742062652067726561746572207468616e20737472696e67206c656e6774682060648201527f2873686f727420737472696e6729000000000000000000000000000000000000608482015260a40161067f565b6001838101517fff00000000000000000000000000000000000000000000000000000000000000169082141580613a5c57507f80000000000000000000000000000000000000000000000000000000000000007fff00000000000000000000000000000000000000000000000000000000000000821610155b613b0e576040517f08c379a000000000000000000000000000000000000000000000000000000000815260206004820152604d60248201527f524c505265616465723a20696e76616c6964207072656669782c2073696e676c60448201527f652062797465203c203078383020617265206e6f74207072656669786564202860648201527f73686f727420737472696e672900000000000000000000000000000000000000608482015260a40161067f565b5060019550935060009250614296915050565b60bf8111613e6f576000613b3660b783614f9e565b905080876000015111613bf1576040517f08c379a000000000000000000000000000000000000000000000000000000000815260206004820152605160248201527f524c505265616465723a206c656e677468206f6620636f6e74656e74206d757360448201527f74206265203e207468616e206c656e677468206f6620737472696e67206c656e60648201527f67746820286c6f6e6720737472696e6729000000000000000000000000000000608482015260a40161067f565b60018301517fff00000000000000000000000000000000000000000000000000000000000000166000819003613ccf576040517f08c379a000000000000000000000000000000000000000000000000000000000815260206004820152604a60248201527f524c505265616465723a206c656e677468206f6620636f6e74656e74206d757360448201527f74206e6f74206861766520616e79206c656164696e67207a65726f7320286c6f60648201527f6e6720737472696e672900000000000000000000000000000000000000000000608482015260a40161067f565b600184015160088302610100031c60378111613d93576040517f08c379a000000000000000000000000000000000000000000000000000000000815260206004820152604860248201527f524c505265616465723a206c656e677468206f6620636f6e74656e74206d757360448201527f742062652067726561746572207468616e20353520627974657320286c6f6e6760648201527f20737472696e6729000000000000000000000000000000000000000000000000608482015260a40161067f565b613d9d8184615298565b895111613e52576040517f08c379a000000000000000000000000000000000000000000000000000000000815260206004820152604c60248201527f524c505265616465723a206c656e677468206f6620636f6e74656e74206d757360448201527f742062652067726561746572207468616e20746f74616c206c656e677468202860648201527f6c6f6e6720737472696e67290000000000000000000000000000000000000000608482015260a40161067f565b613e5d836001615298565b97509550600094506142969350505050565b60f78111613f50576000613e8460c083614f9e565b905080876000015111613f3f576040517f08c379a000000000000000000000000000000000000000000000000000000000815260206004820152604a60248201527f524c505265616465723a206c656e677468206f6620636f6e74656e74206d757360448201527f742062652067726561746572207468616e206c697374206c656e67746820287360648201527f686f7274206c6973742900000000000000000000000000000000000000000000608482015260a40161067f565b600195509350849250614296915050565b6000613f5d60f783614f9e565b905080876000015111614018576040517f08c379a000000000000000000000000000000000000000000000000000000000815260206004820152604d60248201527f524c505265616465723a206c656e677468206f6620636f6e74656e74206d757360448201527f74206265203e207468616e206c656e677468206f66206c697374206c656e677460648201527f6820286c6f6e67206c6973742900000000000000000000000000000000000000608482015260a40161067f565b60018301517fff000000000000000000000000000000000000000000000000000000000000001660008190036140f6576040517f08c379a000000000000000000000000000000000000000000000000000000000815260206004820152604860248201527f524c505265616465723a206c656e677468206f6620636f6e74656e74206d757360448201527f74206e6f74206861766520616e79206c656164696e67207a65726f7320286c6f60648201527f6e67206c69737429000000000000000000000000000000000000000000000000608482015260a40161067f565b600184015160088302610100031c603781116141ba576040517f08c379a000000000000000000000000000000000000000000000000000000000815260206004820152604660248201527f524c505265616465723a206c656e677468206f6620636f6e74656e74206d757360448201527f742062652067726561746572207468616e20353520627974657320286c6f6e6760648201527f206c697374290000000000000000000000000000000000000000000000000000608482015260a40161067f565b6141c48184615298565b895111614279576040517f08c379a000000000000000000000000000000000000000000000000000000000815260206004820152604a60248201527f524c505265616465723a206c656e677468206f6620636f6e74656e74206d757360448201527f742062652067726561746572207468616e20746f74616c206c656e677468202860648201527f6c6f6e67206c6973742900000000000000000000000000000000000000000000608482015260a40161067f565b614284836001615298565b97509550600194506142969350505050565b9193909250565b60608167ffffffffffffffff8111156142b8576142b861486a565b6040519080825280601f01601f1916602001820160405280156142e2576020820181803683370190505b50905081156122f35760006142f78486615298565b90506020820160005b84811015614318578281015182820152602001614300565b84811115614327576000858301525b5050509392505050565b606061105f82602001516000846000015161429d565b60608182601f0110156143b6576040517f08c379a000000000000000000000000000000000000000000000000000000000815260206004820152600e60248201527f736c6963655f6f766572666c6f77000000000000000000000000000000000000604482015260640161067f565b828284011015614422576040517f08c379a000000000000000000000000000000000000000000000000000000000815260206004820152600e60248201527f736c6963655f6f766572666c6f77000000000000000000000000000000000000604482015260640161067f565b8183018451101561448f576040517f08c379a000000000000000000000000000000000000000000000000000000000815260206004820152601160248201527f736c6963655f6f75744f66426f756e6473000000000000000000000000000000604482015260640161067f565b6060821580156144ae5760405191506000825260208201604052614516565b6040519150601f8416801560200281840101858101878315602002848b0101015b818310156144e75780518352602092830192016144cf565b5050858452601f017fffffffffffffffffffffffffffffffffffffffffffffffffffffffffffffffe016604052505b50949350505050565b604080518082019091526000808252602082015260008251116145ea576040517f08c379a000000000000000000000000000000000000000000000000000000000815260206004820152604a60248201527f524c505265616465723a206c656e677468206f6620616e20524c50206974656d60448201527f206d7573742062652067726561746572207468616e207a65726f20746f20626560648201527f206465636f6461626c6500000000000000000000000000000000000000000000608482015260a40161067f565b50604080518082019091528151815260209182019181019190915290565b6060600080600061461885613830565b91945092509050600181600181111561463357614633615420565b146146c0576040517f08c379a000000000000000000000000000000000000000000000000000000000815260206004820152603860248201527f524c505265616465723a206465636f646564206974656d207479706520666f7260448201527f206c697374206973206e6f742061206c697374206974656d0000000000000000606482015260840161067f565b84516146cc8385615298565b14614759576040517f08c379a000000000000000000000000000000000000000000000000000000000815260206004820152603260248201527f524c505265616465723a206c697374206974656d2068617320616e20696e766160448201527f6c696420646174612072656d61696e6465720000000000000000000000000000606482015260840161067f565b604080516020808252610420820190925290816020015b60408051808201909152600080825260208201528152602001906001900390816147705790505093506000835b865181101561485e576000806147e36040518060400160405280858c600001516147c79190614f9e565b8152602001858c602001516147dc9190615298565b9052613830565b5091509150604051806040016040528083836147ff9190615298565b8152602001848b602001516148149190615298565b815250888581518110614829576148296153ac565b602090810291909101015261483f600185615298565b935061484b8183615298565b6148559084615298565b9250505061479d565b50845250919392505050565b7f4e487b7100000000000000000000000000000000000000000000000000000000600052604160045260246000fd5b604051601f82017fffffffffffffffffffffffffffffffffffffffffffffffffffffffffffffffe016810167ffffffffffffffff811182821017156148e0576148e061486a565b604052919050565b73ffffffffffffffffffffffffffffffffffffffff8116811461490a57600080fd5b50565b600082601f83011261491e57600080fd5b813567ffffffffffffffff8111156149385761493861486a565b61496960207fffffffffffffffffffffffffffffffffffffffffffffffffffffffffffffffe0601f84011601614899565b81815284602083860101111561497e57600080fd5b816020850160208301376000918101602001919091529392505050565b600060c082840312156149ad57600080fd5b60405160c0810167ffffffffffffffff82821081831117156149d1576149d161486a565b8160405282935084358352602085013591506149ec826148e8565b81602084015260408501359150614a02826148e8565b816040840152606085013560608401526080850135608084015260a0850135915080821115614a3057600080fd5b50614a3d8582860161490d565b60a0830152505092915050565b600080600080600085870360e0811215614a6357600080fd5b863567ffffffffffffffff80821115614a7b57600080fd5b614a878a838b0161499b565b97506020890135965060807fffffffffffffffffffffffffffffffffffffffffffffffffffffffffffffffc084011215614ac057600080fd5b60408901955060c0890135925080831115614ada57600080fd5b828901925089601f840112614aee57600080fd5b8235915080821115614aff57600080fd5b508860208260051b8401011115614b1557600080fd5b959894975092955050506020019190565b60005b83811015614b41578181015183820152602001614b29565b83811115614b50576000848401525b50505050565b60008151808452614b6e816020860160208601614b26565b601f017fffffffffffffffffffffffffffffffffffffffffffffffffffffffffffffffe0169290920160200192915050565b6020815260006122f36020830184614b56565b600060208284031215614bc557600080fd5b5035919050565b600060208284031215614bde57600080fd5b813567ffffffffffffffff811115614bf557600080fd5b614c018482850161499b565b949350505050565b803567ffffffffffffffff81168114614c2157600080fd5b919050565b600060208284031215614c3857600080fd5b6122f382614c09565b80358015158114614c2157600080fd5b600080600080600060a08688031215614c6957600080fd5b8535614c74816148e8565b945060208601359350614c8960408701614c09565b9250614c9760608701614c41565b9150608086013567ffffffffffffffff811115614cb357600080fd5b614cbf8882890161490d565b9150509295509295909350565b60008060008060808587031215614ce257600080fd5b8435614ced816148e8565b93506020850135614cfd816148e8565b92506040850135614d0d816148e8565b9150614d1b60608601614c41565b905092959194509250565b8581528460208201527fffffffffffffffff0000000000000000000000000000000000000000000000008460c01b16604082015282151560f81b604882015260008251614d7a816049850160208701614b26565b919091016049019695505050505050565b80516fffffffffffffffffffffffffffffffff81168114614c2157600080fd5b600060608284031215614dbd57600080fd5b6040516060810181811067ffffffffffffffff82111715614de057614de061486a565b60405282518152614df360208401614d8b565b6020820152614e0460408401614d8b565b60408201529392505050565b600060808284031215614e2257600080fd5b6040516080810181811067ffffffffffffffff82111715614e4557614e4561486a565b8060405250823581526020830135602082015260408301356040820152606083013560608201528091505092915050565b600067ffffffffffffffff80841115614e9157614e9161486a565b8360051b6020614ea2818301614899565b868152918501918181019036841115614eba57600080fd5b865b84811015614eee57803586811115614ed45760008081fd5b614ee036828b0161490d565b845250918301918301614ebc565b50979650505050505050565b600060208284031215614f0c57600080fd5b5051919050565b7f4e487b7100000000000000000000000000000000000000000000000000000000600052601160045260246000fd5b600067ffffffffffffffff80831681851681830481118215151615614f6957614f69614f13565b02949350505050565b600067ffffffffffffffff808316818516808303821115614f9557614f95614f13565b01949350505050565b600082821015614fb057614fb0614f13565b500390565b7f4e487b7100000000000000000000000000000000000000000000000000000000600052601260045260246000fd5b600082614ff357614ff3614fb5565b7fffffffffffffffffffffffffffffffffffffffffffffffffffffffffffffffff83147f80000000000000000000000000000000000000000000000000000000000000008314161561504757615047614f13565b500590565b6000808312837f80000000000000000000000000000000000000000000000000000000000000000183128115161561508657615086614f13565b837f7fffffffffffffffffffffffffffffffffffffffffffffffffffffffffffffff0183138116156150ba576150ba614f13565b50500390565b60007f7fffffffffffffffffffffffffffffffffffffffffffffffffffffffffffffff60008413600084138583048511828216161561510157615101614f13565b7f8000000000000000000000000000000000000000000000000000000000000000600087128682058812818416161561513c5761513c614f13565b6000871292508782058712848416161561515857615158614f13565b8785058712818416161561516e5761516e614f13565b505050929093029392505050565b6000808212827f7fffffffffffffffffffffffffffffffffffffffffffffffffffffffffffffff038413811516156151b6576151b6614f13565b827f80000000000000000000000000000000000000000000000000000000000000000384128116156151ea576151ea614f13565b50500190565b6000817fffffffffffffffffffffffffffffffffffffffffffffffffffffffffffffffff048311821515161561522857615228614f13565b500290565b60008261523c5761523c614fb5565b500490565b868152600073ffffffffffffffffffffffffffffffffffffffff808816602084015280871660408401525084606083015283608083015260c060a083015261528c60c0830184614b56565b98975050505050505050565b600082198211156152ab576152ab614f13565b500190565b805163ffffffff81168114614c2157600080fd5b805160ff81168114614c2157600080fd5b600060c082840312156152e757600080fd5b60405160c0810181811067ffffffffffffffff8211171561530a5761530a61486a565b604052615316836152b0565b8152615324602084016152c4565b6020820152615335604084016152c4565b6040820152615346606084016152b0565b6060820152615357608084016152b0565b608082015261536860a08401614d8b565b60a08201529392505050565b60007fffffffffffffffffffffffffffffffffffffffffffffffffffffffffffffffff82036153a5576153a5614f13565b5060010190565b7f4e487b7100000000000000000000000000000000000000000000000000000000600052603260045260246000fd5b600060ff8316806153ee576153ee614fb5565b8060ff84160691505092915050565b600060ff821660ff84168082101561541757615417614f13565b90039392505050565b7f4e487b7100000000000000000000000000000000000000000000000000000000600052602160045260246000fdfea164736f6c634300080f000a",
    "linkReferences": {}
  },
  "methodIdentifiers": {
    "GUARDIAN()": "724c184c",
    "L2_ORACLE()": "001c2ff6",
    "SYSTEM_CONFIG()": "f0498750",
    "depositTransaction(address,uint256,uint64,bool,bytes)": "e9e05c42",
    "donateETH()": "8b4c40b0",
    "finalizeWithdrawalTransaction((uint256,address,address,uint256,uint256,bytes))": "8c3152e9",
    "finalizedWithdrawals(bytes32)": "a14238e7",
    "guardian()": "452a9320",
    "initialize(address,address,address,bool)": "fecf9734",
    "isOutputFinalized(uint256)": "6dbffb78",
    "l2Oracle()": "9b5f694a",
    "l2Sender()": "9bf62d82",
    "minimumGasLimit(uint64)": "a35d99df",
    "params()": "cff0ab96",
    "pause()": "8456cb59",
    "paused()": "5c975abb",
    "proveWithdrawalTransaction((uint256,address,address,uint256,uint256,bytes),uint256,(bytes32,bytes32,bytes32,bytes32),bytes[])": "4870496f",
    "provenWithdrawals(bytes32)": "e965084c",
    "systemConfig()": "33d7e2bd",
    "unpause()": "3f4ba83a",
    "version()": "54fd4d50"
  },
  "storageLayout": {
    "storage": [
      {
        "astId": 32100,
        "contract": "src/L1/OptimismPortal.sol:OptimismPortal",
        "label": "_initialized",
        "offset": 0,
        "slot": "0",
        "type": "t_uint8"
      },
      {
        "astId": 32103,
        "contract": "src/L1/OptimismPortal.sol:OptimismPortal",
        "label": "_initializing",
        "offset": 1,
        "slot": "0",
        "type": "t_bool"
      },
      {
        "astId": 60674,
        "contract": "src/L1/OptimismPortal.sol:OptimismPortal",
        "label": "params",
        "offset": 0,
        "slot": "1",
        "type": "t_struct(ResourceParams)60657_storage"
      },
      {
        "astId": 60679,
        "contract": "src/L1/OptimismPortal.sol:OptimismPortal",
        "label": "__gap",
        "offset": 0,
        "slot": "2",
        "type": "t_array(t_uint256)48_storage"
      },
      {
        "astId": 59712,
        "contract": "src/L1/OptimismPortal.sol:OptimismPortal",
        "label": "l2Sender",
        "offset": 0,
        "slot": "50",
        "type": "t_address"
      },
      {
        "astId": 59717,
        "contract": "src/L1/OptimismPortal.sol:OptimismPortal",
        "label": "finalizedWithdrawals",
        "offset": 0,
        "slot": "51",
        "type": "t_mapping(t_bytes32,t_bool)"
      },
      {
        "astId": 59723,
        "contract": "src/L1/OptimismPortal.sol:OptimismPortal",
        "label": "provenWithdrawals",
        "offset": 0,
        "slot": "52",
        "type": "t_mapping(t_bytes32,t_struct(ProvenWithdrawal)59701_storage)"
      },
      {
        "astId": 59726,
        "contract": "src/L1/OptimismPortal.sol:OptimismPortal",
        "label": "paused",
        "offset": 0,
        "slot": "53",
        "type": "t_bool"
      },
      {
        "astId": 59730,
        "contract": "src/L1/OptimismPortal.sol:OptimismPortal",
        "label": "l2Oracle",
        "offset": 1,
        "slot": "53",
        "type": "t_contract(L2OutputOracle)59663"
      },
      {
        "astId": 59734,
        "contract": "src/L1/OptimismPortal.sol:OptimismPortal",
        "label": "systemConfig",
        "offset": 0,
        "slot": "54",
        "type": "t_contract(SystemConfig)61770"
      },
      {
        "astId": 59737,
        "contract": "src/L1/OptimismPortal.sol:OptimismPortal",
        "label": "guardian",
        "offset": 0,
        "slot": "55",
        "type": "t_address"
      }
    ],
    "types": {
      "t_address": {
        "encoding": "inplace",
        "label": "address",
        "numberOfBytes": "20"
      },
      "t_array(t_uint256)48_storage": {
        "encoding": "inplace",
        "label": "uint256[48]",
        "numberOfBytes": "1536",
        "base": "t_uint256"
      },
      "t_bool": {
        "encoding": "inplace",
        "label": "bool",
        "numberOfBytes": "1"
      },
      "t_bytes32": {
        "encoding": "inplace",
        "label": "bytes32",
        "numberOfBytes": "32"
      },
      "t_contract(L2OutputOracle)59663": {
        "encoding": "inplace",
        "label": "contract L2OutputOracle",
        "numberOfBytes": "20"
      },
      "t_contract(SystemConfig)61770": {
        "encoding": "inplace",
        "label": "contract SystemConfig",
        "numberOfBytes": "20"
      },
      "t_mapping(t_bytes32,t_bool)": {
        "encoding": "mapping",
        "key": "t_bytes32",
        "label": "mapping(bytes32 => bool)",
        "numberOfBytes": "32",
        "value": "t_bool"
      },
      "t_mapping(t_bytes32,t_struct(ProvenWithdrawal)59701_storage)": {
        "encoding": "mapping",
        "key": "t_bytes32",
        "label": "mapping(bytes32 => struct OptimismPortal.ProvenWithdrawal)",
        "numberOfBytes": "32",
        "value": "t_struct(ProvenWithdrawal)59701_storage"
      },
      "t_struct(ProvenWithdrawal)59701_storage": {
        "encoding": "inplace",
        "label": "struct OptimismPortal.ProvenWithdrawal",
        "numberOfBytes": "64",
        "members": [
          {
            "astId": 59696,
            "contract": "src/L1/OptimismPortal.sol:OptimismPortal",
            "label": "outputRoot",
            "offset": 0,
            "slot": "0",
            "type": "t_bytes32"
          },
          {
            "astId": 59698,
            "contract": "src/L1/OptimismPortal.sol:OptimismPortal",
            "label": "timestamp",
            "offset": 0,
            "slot": "1",
            "type": "t_uint128"
          },
          {
            "astId": 59700,
            "contract": "src/L1/OptimismPortal.sol:OptimismPortal",
            "label": "l2OutputIndex",
            "offset": 16,
            "slot": "1",
            "type": "t_uint128"
          }
        ]
      },
      "t_struct(ResourceParams)60657_storage": {
        "encoding": "inplace",
        "label": "struct ResourceMetering.ResourceParams",
        "numberOfBytes": "32",
        "members": [
          {
            "astId": 60652,
            "contract": "src/L1/OptimismPortal.sol:OptimismPortal",
            "label": "prevBaseFee",
            "offset": 0,
            "slot": "0",
            "type": "t_uint128"
          },
          {
            "astId": 60654,
            "contract": "src/L1/OptimismPortal.sol:OptimismPortal",
            "label": "prevBoughtGas",
            "offset": 16,
            "slot": "0",
            "type": "t_uint64"
          },
          {
            "astId": 60656,
            "contract": "src/L1/OptimismPortal.sol:OptimismPortal",
            "label": "prevBlockNum",
            "offset": 24,
            "slot": "0",
            "type": "t_uint64"
          }
        ]
      },
      "t_uint128": {
        "encoding": "inplace",
        "label": "uint128",
        "numberOfBytes": "16"
      },
      "t_uint256": {
        "encoding": "inplace",
        "label": "uint256",
        "numberOfBytes": "32"
      },
      "t_uint64": {
        "encoding": "inplace",
        "label": "uint64",
        "numberOfBytes": "8"
      },
      "t_uint8": {
        "encoding": "inplace",
        "label": "uint8",
        "numberOfBytes": "1"
      }
    }
  },
  "userdoc": {
    "version": 1,
    "kind": "user",
    "methods": {
      "GUARDIAN()": {
        "notice": "Getter for the Guardian"
      },
      "L2_ORACLE()": {
        "notice": "Getter for the L2OutputOracle"
      },
      "SYSTEM_CONFIG()": {
        "notice": "Getter for the SystemConfig"
      },
      "constructor": {
        "notice": "Constructs the OptimismPortal contract."
      },
      "depositTransaction(address,uint256,uint64,bool,bytes)": {
        "notice": "Accepts deposits of ETH and data, and emits a TransactionDeposited event for use in         deriving deposit transactions. Note that if a deposit is made by a contract, its         address will be aliased when retrieved using `tx.origin` or `msg.sender`. Consider         using the CrossDomainMessenger contracts for a simpler developer experience."
      },
      "donateETH()": {
        "notice": "Accepts ETH value without triggering a deposit to L2.         This function mainly exists for the sake of the migration between the legacy         Optimism system and Bedrock."
      },
      "finalizeWithdrawalTransaction((uint256,address,address,uint256,uint256,bytes))": {
        "notice": "Finalizes a withdrawal transaction."
      },
      "finalizedWithdrawals(bytes32)": {
        "notice": "A list of withdrawal hashes which have been successfully finalized."
      },
      "guardian()": {
        "notice": "Address that has the ability to pause and unpause withdrawals."
      },
      "initialize(address,address,address,bool)": {
        "notice": "Initializer."
      },
      "isOutputFinalized(uint256)": {
        "notice": "Determine if a given output is finalized.         Reverts if the call to L2_ORACLE.getL2Output reverts.         Returns a boolean otherwise."
      },
      "l2Oracle()": {
        "notice": "Address of the L2OutputOracle contract."
      },
      "l2Sender()": {
        "notice": "Address of the L2 account which initiated a withdrawal in this transaction.         If the of this variable is the default L2 sender address, then we are NOT inside of         a call to finalizeWithdrawalTransaction."
      },
      "minimumGasLimit(uint64)": {
        "notice": "Computes the minimum gas limit for a deposit.         The minimum gas limit linearly increases based on the size of the calldata.         This is to prevent users from creating L2 resource usage without paying for it.         This function can be used when interacting with the portal to ensure forwards         compatibility."
      },
      "params()": {
        "notice": "EIP-1559 style gas parameters."
      },
      "pause()": {
        "notice": "Pauses withdrawals."
      },
      "paused()": {
        "notice": "Determines if cross domain messaging is paused.         When set to true, withdrawals are paused.         This may be removed in the future."
      },
      "proveWithdrawalTransaction((uint256,address,address,uint256,uint256,bytes),uint256,(bytes32,bytes32,bytes32,bytes32),bytes[])": {
        "notice": "Proves a withdrawal transaction."
      },
      "provenWithdrawals(bytes32)": {
        "notice": "A mapping of withdrawal hashes to `ProvenWithdrawal` data."
      },
      "systemConfig()": {
        "notice": "Address of the SystemConfig contract."
      },
      "unpause()": {
        "notice": "Unpauses withdrawals."
      },
      "version()": {
        "notice": "Semantic version."
      }
    },
    "events": {
      "Paused(address)": {
        "notice": "Emitted when the pause is triggered."
      },
      "TransactionDeposited(address,address,uint256,bytes)": {
        "notice": "Emitted when a transaction is deposited from L1 to L2.         The parameters of this event are read by the rollup node and used to derive deposit         transactions on L2."
      },
      "Unpaused(address)": {
        "notice": "Emitted when the pause is lifted."
      },
      "WithdrawalFinalized(bytes32,bool)": {
        "notice": "Emitted when a withdrawal transaction is finalized."
      },
      "WithdrawalProven(bytes32,address,address)": {
        "notice": "Emitted when a withdrawal transaction is proven."
      }
    },
    "notice": "The OptimismPortal is a low-level contract responsible for passing messages between L1         and L2. Messages sent directly to the OptimismPortal have no form of replayability.         Users are encouraged to use the L1CrossDomainMessenger for a higher-level interface."
  },
  "devdoc": {
    "version": 1,
    "kind": "dev",
    "methods": {
      "GUARDIAN()": {},
      "L2_ORACLE()": {},
      "SYSTEM_CONFIG()": {},
      "depositTransaction(address,uint256,uint64,bool,bytes)": {
        "params": {
          "_data": "Data to trigger the recipient with.",
          "_gasLimit": "Amount of L2 gas to purchase by burning gas on L1.",
          "_isCreation": "Whether or not the transaction is a contract creation.",
          "_to": "Target address on L2.",
          "_value": "ETH value to send to the recipient."
        }
      },
      "finalizeWithdrawalTransaction((uint256,address,address,uint256,uint256,bytes))": {
        "params": {
          "_tx": "Withdrawal transaction to finalize."
        }
      },
      "initialize(address,address,address,bool)": {
        "params": {
          "_guardian": "Address that can pause withdrawals.",
          "_l2Oracle": "Address of the L2OutputOracle contract.",
          "_paused": "Sets the contract's pausability state.",
          "_systemConfig": "Address of the SystemConfig contract."
        }
      },
      "isOutputFinalized(uint256)": {
        "params": {
          "_l2OutputIndex": "Index of the L2 output to check."
        },
        "returns": {
          "_0": "Whether or not the output is finalized."
        }
      },
      "minimumGasLimit(uint64)": {
        "params": {
          "_byteCount": "Number of bytes in the calldata."
        },
        "returns": {
          "_0": "The minimum gas limit for a deposit."
        }
      },
      "proveWithdrawalTransaction((uint256,address,address,uint256,uint256,bytes),uint256,(bytes32,bytes32,bytes32,bytes32),bytes[])": {
        "params": {
          "_l2OutputIndex": "L2 output index to prove against.",
          "_outputRootProof": "Inclusion proof of the L2ToL1MessagePasser contract's storage root.",
          "_tx": "Withdrawal transaction to finalize.",
          "_withdrawalProof": "Inclusion proof of the withdrawal in L2ToL1MessagePasser contract."
        }
      }
    },
    "events": {
      "Paused(address)": {
        "params": {
          "account": "Address of the account triggering the pause."
        }
      },
      "TransactionDeposited(address,address,uint256,bytes)": {
        "params": {
          "from": "Address that triggered the deposit transaction.",
          "opaqueData": "ABI encoded deposit data to be parsed off-chain.",
          "to": "Address that the deposit transaction is directed to.",
          "version": "Version of this deposit transaction event."
        }
      },
      "Unpaused(address)": {
        "params": {
          "account": "Address of the account triggering the unpause."
        }
      },
      "WithdrawalFinalized(bytes32,bool)": {
        "params": {
          "success": "Whether the withdrawal transaction was successful.",
          "withdrawalHash": "Hash of the withdrawal transaction."
        }
      },
      "WithdrawalProven(bytes32,address,address)": {
        "params": {
          "from": "Address that triggered the withdrawal transaction.",
          "to": "Address that the withdrawal transaction is directed to.",
          "withdrawalHash": "Hash of the withdrawal transaction."
        }
      }
    }
  },
  "id": 112
}