{
  "abi": [
    {
      "inputs": [],
      "stateMutability": "nonpayable",
      "type": "constructor"
    },
    {
      "anonymous": false,
      "inputs": [
        {
          "indexed": true,
          "internalType": "address",
          "name": "owner",
          "type": "address"
        }
      ],
      "name": "AddedOwner",
      "type": "event"
    },
    {
      "anonymous": false,
      "inputs": [
        {
          "indexed": true,
          "internalType": "bytes32",
          "name": "approvedHash",
          "type": "bytes32"
        },
        {
          "indexed": true,
          "internalType": "address",
          "name": "owner",
          "type": "address"
        }
      ],
      "name": "ApproveHash",
      "type": "event"
    },
    {
      "anonymous": false,
      "inputs": [
        {
          "indexed": true,
          "internalType": "address",
          "name": "handler",
          "type": "address"
        }
      ],
      "name": "ChangedFallbackHandler",
      "type": "event"
    },
    {
      "anonymous": false,
      "inputs": [
        {
          "indexed": true,
          "internalType": "address",
          "name": "guard",
          "type": "address"
        }
      ],
      "name": "ChangedGuard",
      "type": "event"
    },
    {
      "anonymous": false,
      "inputs": [
        {
          "indexed": false,
          "internalType": "uint256",
          "name": "threshold",
          "type": "uint256"
        }
      ],
      "name": "ChangedThreshold",
      "type": "event"
    },
    {
      "anonymous": false,
      "inputs": [
        {
          "indexed": true,
          "internalType": "address",
          "name": "module",
          "type": "address"
        }
      ],
      "name": "DisabledModule",
      "type": "event"
    },
    {
      "anonymous": false,
      "inputs": [
        {
          "indexed": true,
          "internalType": "address",
          "name": "module",
          "type": "address"
        }
      ],
      "name": "EnabledModule",
      "type": "event"
    },
    {
      "anonymous": false,
      "inputs": [
        {
          "indexed": true,
          "internalType": "bytes32",
          "name": "txHash",
          "type": "bytes32"
        },
        {
          "indexed": false,
          "internalType": "uint256",
          "name": "payment",
          "type": "uint256"
        }
      ],
      "name": "ExecutionFailure",
      "type": "event"
    },
    {
      "anonymous": false,
      "inputs": [
        {
          "indexed": true,
          "internalType": "address",
          "name": "module",
          "type": "address"
        }
      ],
      "name": "ExecutionFromModuleFailure",
      "type": "event"
    },
    {
      "anonymous": false,
      "inputs": [
        {
          "indexed": true,
          "internalType": "address",
          "name": "module",
          "type": "address"
        }
      ],
      "name": "ExecutionFromModuleSuccess",
      "type": "event"
    },
    {
      "anonymous": false,
      "inputs": [
        {
          "indexed": true,
          "internalType": "bytes32",
          "name": "txHash",
          "type": "bytes32"
        },
        {
          "indexed": false,
          "internalType": "uint256",
          "name": "payment",
          "type": "uint256"
        }
      ],
      "name": "ExecutionSuccess",
      "type": "event"
    },
    {
      "anonymous": false,
      "inputs": [
        {
          "indexed": true,
          "internalType": "address",
          "name": "owner",
          "type": "address"
        }
      ],
      "name": "RemovedOwner",
      "type": "event"
    },
    {
      "anonymous": false,
      "inputs": [
        {
          "indexed": true,
          "internalType": "address",
          "name": "sender",
          "type": "address"
        },
        {
          "indexed": false,
          "internalType": "uint256",
          "name": "value",
          "type": "uint256"
        }
      ],
      "name": "SafeReceived",
      "type": "event"
    },
    {
      "anonymous": false,
      "inputs": [
        {
          "indexed": true,
          "internalType": "address",
          "name": "initiator",
          "type": "address"
        },
        {
          "indexed": false,
          "internalType": "address[]",
          "name": "owners",
          "type": "address[]"
        },
        {
          "indexed": false,
          "internalType": "uint256",
          "name": "threshold",
          "type": "uint256"
        },
        {
          "indexed": false,
          "internalType": "address",
          "name": "initializer",
          "type": "address"
        },
        {
          "indexed": false,
          "internalType": "address",
          "name": "fallbackHandler",
          "type": "address"
        }
      ],
      "name": "SafeSetup",
      "type": "event"
    },
    {
      "anonymous": false,
      "inputs": [
        {
          "indexed": true,
          "internalType": "bytes32",
          "name": "msgHash",
          "type": "bytes32"
        }
      ],
      "name": "SignMsg",
      "type": "event"
    },
    {
      "stateMutability": "nonpayable",
      "type": "fallback"
    },
    {
      "inputs": [],
      "name": "VERSION",
      "outputs": [
        {
          "internalType": "string",
          "name": "",
          "type": "string"
        }
      ],
      "stateMutability": "view",
      "type": "function"
    },
    {
      "inputs": [
        {
          "internalType": "address",
          "name": "owner",
          "type": "address"
        },
        {
          "internalType": "uint256",
          "name": "_threshold",
          "type": "uint256"
        }
      ],
      "name": "addOwnerWithThreshold",
      "outputs": [],
      "stateMutability": "nonpayable",
      "type": "function"
    },
    {
      "inputs": [
        {
          "internalType": "bytes32",
          "name": "hashToApprove",
          "type": "bytes32"
        }
      ],
      "name": "approveHash",
      "outputs": [],
      "stateMutability": "nonpayable",
      "type": "function"
    },
    {
      "inputs": [
        {
          "internalType": "address",
          "name": "",
          "type": "address"
        },
        {
          "internalType": "bytes32",
          "name": "",
          "type": "bytes32"
        }
      ],
      "name": "approvedHashes",
      "outputs": [
        {
          "internalType": "uint256",
          "name": "",
          "type": "uint256"
        }
      ],
      "stateMutability": "view",
      "type": "function"
    },
    {
      "inputs": [
        {
          "internalType": "uint256",
          "name": "_threshold",
          "type": "uint256"
        }
      ],
      "name": "changeThreshold",
      "outputs": [],
      "stateMutability": "nonpayable",
      "type": "function"
    },
    {
      "inputs": [
        {
          "internalType": "bytes32",
          "name": "dataHash",
          "type": "bytes32"
        },
        {
          "internalType": "bytes",
          "name": "data",
          "type": "bytes"
        },
        {
          "internalType": "bytes",
          "name": "signatures",
          "type": "bytes"
        },
        {
          "internalType": "uint256",
          "name": "requiredSignatures",
          "type": "uint256"
        }
      ],
      "name": "checkNSignatures",
      "outputs": [],
      "stateMutability": "view",
      "type": "function"
    },
    {
      "inputs": [
        {
          "internalType": "bytes32",
          "name": "dataHash",
          "type": "bytes32"
        },
        {
          "internalType": "bytes",
          "name": "data",
          "type": "bytes"
        },
        {
          "internalType": "bytes",
          "name": "signatures",
          "type": "bytes"
        }
      ],
      "name": "checkSignatures",
      "outputs": [],
      "stateMutability": "view",
      "type": "function"
    },
    {
      "inputs": [
        {
          "internalType": "address",
          "name": "prevModule",
          "type": "address"
        },
        {
          "internalType": "address",
          "name": "module",
          "type": "address"
        }
      ],
      "name": "disableModule",
      "outputs": [],
      "stateMutability": "nonpayable",
      "type": "function"
    },
    {
      "inputs": [],
      "name": "domainSeparator",
      "outputs": [
        {
          "internalType": "bytes32",
          "name": "",
          "type": "bytes32"
        }
      ],
      "stateMutability": "view",
      "type": "function"
    },
    {
      "inputs": [
        {
          "internalType": "address",
          "name": "module",
          "type": "address"
        }
      ],
      "name": "enableModule",
      "outputs": [],
      "stateMutability": "nonpayable",
      "type": "function"
    },
    {
      "inputs": [
        {
          "internalType": "address",
          "name": "to",
          "type": "address"
        },
        {
          "internalType": "uint256",
          "name": "value",
          "type": "uint256"
        },
        {
          "internalType": "bytes",
          "name": "data",
          "type": "bytes"
        },
        {
          "internalType": "enum Enum.Operation",
          "name": "operation",
          "type": "uint8"
        },
        {
          "internalType": "uint256",
          "name": "safeTxGas",
          "type": "uint256"
        },
        {
          "internalType": "uint256",
          "name": "baseGas",
          "type": "uint256"
        },
        {
          "internalType": "uint256",
          "name": "gasPrice",
          "type": "uint256"
        },
        {
          "internalType": "address",
          "name": "gasToken",
          "type": "address"
        },
        {
          "internalType": "address",
          "name": "refundReceiver",
          "type": "address"
        },
        {
          "internalType": "uint256",
          "name": "_nonce",
          "type": "uint256"
        }
      ],
      "name": "encodeTransactionData",
      "outputs": [
        {
          "internalType": "bytes",
          "name": "",
          "type": "bytes"
        }
      ],
      "stateMutability": "view",
      "type": "function"
    },
    {
      "inputs": [
        {
          "internalType": "address",
          "name": "to",
          "type": "address"
        },
        {
          "internalType": "uint256",
          "name": "value",
          "type": "uint256"
        },
        {
          "internalType": "bytes",
          "name": "data",
          "type": "bytes"
        },
        {
          "internalType": "enum Enum.Operation",
          "name": "operation",
          "type": "uint8"
        },
        {
          "internalType": "uint256",
          "name": "safeTxGas",
          "type": "uint256"
        },
        {
          "internalType": "uint256",
          "name": "baseGas",
          "type": "uint256"
        },
        {
          "internalType": "uint256",
          "name": "gasPrice",
          "type": "uint256"
        },
        {
          "internalType": "address",
          "name": "gasToken",
          "type": "address"
        },
        {
          "internalType": "address payable",
          "name": "refundReceiver",
          "type": "address"
        },
        {
          "internalType": "bytes",
          "name": "signatures",
          "type": "bytes"
        }
      ],
      "name": "execTransaction",
      "outputs": [
        {
          "internalType": "bool",
          "name": "success",
          "type": "bool"
        }
      ],
      "stateMutability": "payable",
      "type": "function"
    },
    {
      "inputs": [
        {
          "internalType": "address",
          "name": "to",
          "type": "address"
        },
        {
          "internalType": "uint256",
          "name": "value",
          "type": "uint256"
        },
        {
          "internalType": "bytes",
          "name": "data",
          "type": "bytes"
        },
        {
          "internalType": "enum Enum.Operation",
          "name": "operation",
          "type": "uint8"
        }
      ],
      "name": "execTransactionFromModule",
      "outputs": [
        {
          "internalType": "bool",
          "name": "success",
          "type": "bool"
        }
      ],
      "stateMutability": "nonpayable",
      "type": "function"
    },
    {
      "inputs": [
        {
          "internalType": "address",
          "name": "to",
          "type": "address"
        },
        {
          "internalType": "uint256",
          "name": "value",
          "type": "uint256"
        },
        {
          "internalType": "bytes",
          "name": "data",
          "type": "bytes"
        },
        {
          "internalType": "enum Enum.Operation",
          "name": "operation",
          "type": "uint8"
        }
      ],
      "name": "execTransactionFromModuleReturnData",
      "outputs": [
        {
          "internalType": "bool",
          "name": "success",
          "type": "bool"
        },
        {
          "internalType": "bytes",
          "name": "returnData",
          "type": "bytes"
        }
      ],
      "stateMutability": "nonpayable",
      "type": "function"
    },
    {
      "inputs": [],
      "name": "getChainId",
      "outputs": [
        {
          "internalType": "uint256",
          "name": "",
          "type": "uint256"
        }
      ],
      "stateMutability": "view",
      "type": "function"
    },
    {
      "inputs": [
        {
          "internalType": "address",
          "name": "start",
          "type": "address"
        },
        {
          "internalType": "uint256",
          "name": "pageSize",
          "type": "uint256"
        }
      ],
      "name": "getModulesPaginated",
      "outputs": [
        {
          "internalType": "address[]",
          "name": "array",
          "type": "address[]"
        },
        {
          "internalType": "address",
          "name": "next",
          "type": "address"
        }
      ],
      "stateMutability": "view",
      "type": "function"
    },
    {
      "inputs": [],
      "name": "getOwners",
      "outputs": [
        {
          "internalType": "address[]",
          "name": "",
          "type": "address[]"
        }
      ],
      "stateMutability": "view",
      "type": "function"
    },
    {
      "inputs": [
        {
          "internalType": "uint256",
          "name": "offset",
          "type": "uint256"
        },
        {
          "internalType": "uint256",
          "name": "length",
          "type": "uint256"
        }
      ],
      "name": "getStorageAt",
      "outputs": [
        {
          "internalType": "bytes",
          "name": "",
          "type": "bytes"
        }
      ],
      "stateMutability": "view",
      "type": "function"
    },
    {
      "inputs": [],
      "name": "getThreshold",
      "outputs": [
        {
          "internalType": "uint256",
          "name": "",
          "type": "uint256"
        }
      ],
      "stateMutability": "view",
      "type": "function"
    },
    {
      "inputs": [
        {
          "internalType": "address",
          "name": "to",
          "type": "address"
        },
        {
          "internalType": "uint256",
          "name": "value",
          "type": "uint256"
        },
        {
          "internalType": "bytes",
          "name": "data",
          "type": "bytes"
        },
        {
          "internalType": "enum Enum.Operation",
          "name": "operation",
          "type": "uint8"
        },
        {
          "internalType": "uint256",
          "name": "safeTxGas",
          "type": "uint256"
        },
        {
          "internalType": "uint256",
          "name": "baseGas",
          "type": "uint256"
        },
        {
          "internalType": "uint256",
          "name": "gasPrice",
          "type": "uint256"
        },
        {
          "internalType": "address",
          "name": "gasToken",
          "type": "address"
        },
        {
          "internalType": "address",
          "name": "refundReceiver",
          "type": "address"
        },
        {
          "internalType": "uint256",
          "name": "_nonce",
          "type": "uint256"
        }
      ],
      "name": "getTransactionHash",
      "outputs": [
        {
          "internalType": "bytes32",
          "name": "",
          "type": "bytes32"
        }
      ],
      "stateMutability": "view",
      "type": "function"
    },
    {
      "inputs": [
        {
          "internalType": "address",
          "name": "module",
          "type": "address"
        }
      ],
      "name": "isModuleEnabled",
      "outputs": [
        {
          "internalType": "bool",
          "name": "",
          "type": "bool"
        }
      ],
      "stateMutability": "view",
      "type": "function"
    },
    {
      "inputs": [
        {
          "internalType": "address",
          "name": "owner",
          "type": "address"
        }
      ],
      "name": "isOwner",
      "outputs": [
        {
          "internalType": "bool",
          "name": "",
          "type": "bool"
        }
      ],
      "stateMutability": "view",
      "type": "function"
    },
    {
      "inputs": [],
      "name": "nonce",
      "outputs": [
        {
          "internalType": "uint256",
          "name": "",
          "type": "uint256"
        }
      ],
      "stateMutability": "view",
      "type": "function"
    },
    {
      "inputs": [
        {
          "internalType": "address",
          "name": "prevOwner",
          "type": "address"
        },
        {
          "internalType": "address",
          "name": "owner",
          "type": "address"
        },
        {
          "internalType": "uint256",
          "name": "_threshold",
          "type": "uint256"
        }
      ],
      "name": "removeOwner",
      "outputs": [],
      "stateMutability": "nonpayable",
      "type": "function"
    },
    {
      "inputs": [
        {
          "internalType": "address",
          "name": "handler",
          "type": "address"
        }
      ],
      "name": "setFallbackHandler",
      "outputs": [],
      "stateMutability": "nonpayable",
      "type": "function"
    },
    {
      "inputs": [
        {
          "internalType": "address",
          "name": "guard",
          "type": "address"
        }
      ],
      "name": "setGuard",
      "outputs": [],
      "stateMutability": "nonpayable",
      "type": "function"
    },
    {
      "inputs": [
        {
          "internalType": "address[]",
          "name": "_owners",
          "type": "address[]"
        },
        {
          "internalType": "uint256",
          "name": "_threshold",
          "type": "uint256"
        },
        {
          "internalType": "address",
          "name": "to",
          "type": "address"
        },
        {
          "internalType": "bytes",
          "name": "data",
          "type": "bytes"
        },
        {
          "internalType": "address",
          "name": "fallbackHandler",
          "type": "address"
        },
        {
          "internalType": "address",
          "name": "paymentToken",
          "type": "address"
        },
        {
          "internalType": "uint256",
          "name": "payment",
          "type": "uint256"
        },
        {
          "internalType": "address payable",
          "name": "paymentReceiver",
          "type": "address"
        }
      ],
      "name": "setup",
      "outputs": [],
      "stateMutability": "nonpayable",
      "type": "function"
    },
    {
      "inputs": [
        {
          "internalType": "bytes32",
          "name": "",
          "type": "bytes32"
        }
      ],
      "name": "signedMessages",
      "outputs": [
        {
          "internalType": "uint256",
          "name": "",
          "type": "uint256"
        }
      ],
      "stateMutability": "view",
      "type": "function"
    },
    {
      "inputs": [
        {
          "internalType": "address",
          "name": "targetContract",
          "type": "address"
        },
        {
          "internalType": "bytes",
          "name": "calldataPayload",
          "type": "bytes"
        }
      ],
      "name": "simulateAndRevert",
      "outputs": [],
      "stateMutability": "nonpayable",
      "type": "function"
    },
    {
      "inputs": [
        {
          "internalType": "address",
          "name": "prevOwner",
          "type": "address"
        },
        {
          "internalType": "address",
          "name": "oldOwner",
          "type": "address"
        },
        {
          "internalType": "address",
          "name": "newOwner",
          "type": "address"
        }
      ],
      "name": "swapOwner",
      "outputs": [],
      "stateMutability": "nonpayable",
      "type": "function"
    },
    {
      "stateMutability": "payable",
      "type": "receive"
    }
  ],
  "bytecode": {
    "object": "0x608060405234801561001057600080fd5b506001600455614201806100256000396000f3fe6080604052600436106101d15760003560e01c8063affed0e0116100f7578063e19a9dd911610095578063f08a032311610064578063f08a0323146105f5578063f698da2514610615578063f8dc5dd91461067c578063ffa1ad741461069c5761020d565b8063e19a9dd914610580578063e318b52b146105a0578063e75235b8146105c0578063e86637db146105d55761020d565b8063cc2f8452116100d1578063cc2f8452146104f2578063d4d9bdcd14610520578063d8d11f7814610540578063e009cfde146105605761020d565b8063affed0e01461049c578063b4faba09146104b2578063b63e800d146104d25761020d565b80635624b25b1161016f5780636a7612021161013e5780636a7612021461040f5780637d83297414610422578063934f3a111461045a578063a0e67e2b1461047a5761020d565b80635624b25b146103755780635ae6bd37146103a2578063610b5925146103cf578063694e80c3146103ef5761020d565b80632f54bf6e116101ab5780632f54bf6e146102ea5780633408e4701461030a578063468721a7146103275780635229073f146103475761020d565b80630d582f131461027357806312fb68e0146102955780632d9ad53d146102b55761020d565b3661020d5760405134815233907f3d0ce9bfc3ed7d6862dbb28b2dea94561fe714a1b4d019aa8af39730d1ad7c3d9060200160405180910390a2005b34801561021957600080fd5b507f6c9a6c4a39284e37ed1cf53d337577d14212a4870fb976a4366c693b939918d580548061024457005b36600080373360601b365260008060143601600080855af190503d6000803e8061026d573d6000fd5b503d6000f35b34801561027f57600080fd5b5061029361028e366004613568565b6106e5565b005b3480156102a157600080fd5b506102936102b036600461366e565b610933565b3480156102c157600080fd5b506102d56102d03660046136e3565b610ff7565b60405190151581526020015b60405180910390f35b3480156102f657600080fd5b506102d56103053660046136e3565b61104c565b34801561031657600080fd5b50465b6040519081526020016102e1565b34801561033357600080fd5b506102d561034236600461370f565b61109e565b34801561035357600080fd5b5061036761036236600461370f565b6111d4565b6040516102e19291906137e4565b34801561038157600080fd5b506103956103903660046137ff565b61120a565b6040516102e19190613821565b3480156103ae57600080fd5b506103196103bd366004613834565b60076020526000908152604090205481565b3480156103db57600080fd5b506102936103ea3660046136e3565b611290565b3480156103fb57600080fd5b5061029361040a366004613834565b611479565b6102d561041d366004613896565b611593565b34801561042e57600080fd5b5061031961043d366004613568565b600860209081526000928352604080842090915290825290205481565b34801561046657600080fd5b5061029361047536600461396f565b61198f565b34801561048657600080fd5b5061048f611a0b565b6040516102e19190613a2d565b3480156104a857600080fd5b5061031960055481565b3480156104be57600080fd5b506102936104cd366004613a40565b611b23565b3480156104de57600080fd5b506102936104ed366004613a90565b611b46565b3480156104fe57600080fd5b5061051261050d366004613568565b611c62565b6040516102e1929190613b85565b34801561052c57600080fd5b5061029361053b366004613834565b611ed0565b34801561054c57600080fd5b5061031961055b366004613bbd565b611fa4565b34801561056c57600080fd5b5061029361057b366004613c7e565b611fd1565b34801561058c57600080fd5b5061029361059b3660046136e3565b6121a3565b3480156105ac57600080fd5b506102936105bb366004613cb7565b612344565b3480156105cc57600080fd5b50600454610319565b3480156105e157600080fd5b506103956105f0366004613bbd565b6126bc565b34801561060157600080fd5b506102936106103660046136e3565b612855565b34801561062157600080fd5b5061031960007f47e79534a245952e8b16893a336b85a3d9ea9fa8c573f3d803afb92a794692184660408051602081019390935282015230606082015260800160405160208183030381529060405280519060200120905090565b34801561068857600080fd5b50610293610697366004613d02565b6128aa565b3480156106a857600080fd5b506103956040518060400160405280600581526020017f312e342e3000000000000000000000000000000000000000000000000000000081525081565b6106ed612b34565b73ffffffffffffffffffffffffffffffffffffffff821615801590610729575073ffffffffffffffffffffffffffffffffffffffff8216600114155b801561074b575073ffffffffffffffffffffffffffffffffffffffff82163014155b6107b6576040517f08c379a000000000000000000000000000000000000000000000000000000000815260206004820152600560248201527f475332303300000000000000000000000000000000000000000000000000000060448201526064015b60405180910390fd5b73ffffffffffffffffffffffffffffffffffffffff8281166000908152600260205260409020541615610845576040517f08c379a000000000000000000000000000000000000000000000000000000000815260206004820152600560248201527f475332303400000000000000000000000000000000000000000000000000000060448201526064016107ad565b60026020527fe90b7bceb6e7df5418fb78d8ee546e97c83a08bbccc01a0644d599ccd2a7c2e0805473ffffffffffffffffffffffffffffffffffffffff8481166000818152604081208054939094167fffffffffffffffffffffffff0000000000000000000000000000000000000000938416179093556001835283549091161790915560038054916108d783613d72565b909155505060405173ffffffffffffffffffffffffffffffffffffffff8316907f9465fa0c962cc76958e6373a993326400c1c94f8be2fe3a952adfa7f60b2ea2690600090a2806004541461092f5761092f81611479565b5050565b61093e816041612b9f565b825110156109a8576040517f08c379a000000000000000000000000000000000000000000000000000000000815260206004820152600560248201527f475330323000000000000000000000000000000000000000000000000000000060448201526064016107ad565b6000808060008060005b86811015610feb576041818102890160208101516040820151919092015160ff16955090935091506000849003610cf857885160208a01208a14610a52576040517f08c379a000000000000000000000000000000000000000000000000000000000815260206004820152600560248201527f475330323700000000000000000000000000000000000000000000000000000060448201526064016107ad565b9193508391610a62876041612b9f565b821015610acb576040517f08c379a000000000000000000000000000000000000000000000000000000000815260206004820152600560248201527f475330323100000000000000000000000000000000000000000000000000000060448201526064016107ad565b8751610ad8836020612bdb565b1115610b40576040517f08c379a000000000000000000000000000000000000000000000000000000000815260206004820152600560248201527f475330323200000000000000000000000000000000000000000000000000000060448201526064016107ad565b602082890181015189519091610b63908390610b5d908790612bdb565b90612bdb565b1115610bcb576040517f08c379a000000000000000000000000000000000000000000000000000000000815260206004820152600560248201527f475330323300000000000000000000000000000000000000000000000000000060448201526064016107ad565b6040517f20c13b0b000000000000000000000000000000000000000000000000000000008082528a85016020019173ffffffffffffffffffffffffffffffffffffffff8916906320c13b0b90610c27908f908690600401613daa565b602060405180830381865afa158015610c44573d6000803e3d6000fd5b505050506040513d601f19601f82011682018060405250810190610c689190613dcf565b7fffffffff000000000000000000000000000000000000000000000000000000001614610cf1576040517f08c379a000000000000000000000000000000000000000000000000000000000815260206004820152600560248201527f475330323400000000000000000000000000000000000000000000000000000060448201526064016107ad565b5050610eeb565b8360ff16600103610dc65791935083913373ffffffffffffffffffffffffffffffffffffffff84161480610d5b575073ffffffffffffffffffffffffffffffffffffffff851660009081526008602090815260408083208d845290915290205415155b610dc1576040517f08c379a000000000000000000000000000000000000000000000000000000000815260206004820152600560248201527f475330323500000000000000000000000000000000000000000000000000000060448201526064016107ad565b610eeb565b601e8460ff161115610e8b576040517f19457468657265756d205369676e6564204d6573736167653a0a3332000000006020820152603c81018b9052600190605c0160405160208183030381529060405280519060200120600486610e2b9190613e11565b6040805160008152602081018083529390935260ff90911690820152606081018590526080810184905260a0016020604051602081039080840390855afa158015610e7a573d6000803e3d6000fd5b505050602060405103519450610eeb565b6040805160008152602081018083528c905260ff861691810191909152606081018490526080810183905260019060a0016020604051602081039080840390855afa158015610ede573d6000803e3d6000fd5b5050506020604051035194505b8573ffffffffffffffffffffffffffffffffffffffff168573ffffffffffffffffffffffffffffffffffffffff16118015610f4c575073ffffffffffffffffffffffffffffffffffffffff8581166000908152600260205260409020541615155b8015610f6f575073ffffffffffffffffffffffffffffffffffffffff8516600114155b610fd5576040517f08c379a000000000000000000000000000000000000000000000000000000000815260206004820152600560248201527f475330323600000000000000000000000000000000000000000000000000000060448201526064016107ad565b8495508080610fe390613d72565b9150506109b2565b50505050505050505050565b6000600173ffffffffffffffffffffffffffffffffffffffff831614801590611046575073ffffffffffffffffffffffffffffffffffffffff8281166000908152600160205260409020541615155b92915050565b600073ffffffffffffffffffffffffffffffffffffffff821660011480159061104657505073ffffffffffffffffffffffffffffffffffffffff90811660009081526002602052604090205416151590565b6000336001148015906110d557503360009081526001602052604090205473ffffffffffffffffffffffffffffffffffffffff1615155b61113b576040517f08c379a000000000000000000000000000000000000000000000000000000000815260206004820152600560248201527f475331303400000000000000000000000000000000000000000000000000000060448201526064016107ad565b611168858585857fffffffffffffffffffffffffffffffffffffffffffffffffffffffffffffffff612bf7565b905080156111a05760405133907f6895c13664aa4f67288b25d7a21d7aaa34916e355fb9b6fae0a139a9085becb890600090a26111cc565b60405133907facd2c8702804128fdb0db2bb49f6d127dd0181c13fd45dbfe16de0930e2bd37590600090a25b949350505050565b600060606111e48686868661109e565b915060405160203d0181016040523d81523d6000602083013e8091505094509492505050565b60606000611219836020613e34565b67ffffffffffffffff81111561123157611231613594565b6040519080825280601f01601f19166020018201604052801561125b576020820181803683370190505b50905060005b8381101561128857848101546020808302840101528061128081613d72565b915050611261565b509392505050565b611298612b34565b73ffffffffffffffffffffffffffffffffffffffff8116158015906112d4575073ffffffffffffffffffffffffffffffffffffffff8116600114155b61133a576040517f08c379a000000000000000000000000000000000000000000000000000000000815260206004820152600560248201527f475331303100000000000000000000000000000000000000000000000000000060448201526064016107ad565b73ffffffffffffffffffffffffffffffffffffffff81811660009081526001602052604090205416156113c9576040517f08c379a000000000000000000000000000000000000000000000000000000000815260206004820152600560248201527f475331303200000000000000000000000000000000000000000000000000000060448201526064016107ad565b600160208190527fcc69885fda6bcc1a4ace058b4a62bf5e179ea78fd58a1ccd71c22cc9b688792f805473ffffffffffffffffffffffffffffffffffffffff848116600081815260408082208054949095167fffffffffffffffffffffffff000000000000000000000000000000000000000094851617909455948552835490911681179092555190917fecdf3a3effea5783a3c4c2140e677577666428d44ed9d474a0b3a4c9943f844091a250565b611481612b34565b6003548111156114ed576040517f08c379a000000000000000000000000000000000000000000000000000000000815260206004820152600560248201527f475332303100000000000000000000000000000000000000000000000000000060448201526064016107ad565b6001811015611558576040517f08c379a000000000000000000000000000000000000000000000000000000000815260206004820152600560248201527f475332303200000000000000000000000000000000000000000000000000000060448201526064016107ad565b60048190556040518181527f610f7ff2b304ae8903c3de74c60c6ab1f7d6226b3f52c5161905bb5ad4039c939060200160405180910390a150565b60008060006115ad8e8e8e8e8e8e8e8e8e8e6005546126bc565b6005805491925060006115bf83613d72565b90915550508051602082012091506115d882828661198f565b5060006116037f4a204f620c8c5ccdca3fd54d003badd85ba500436a431f0cbda4f558c93c34c85490565b905073ffffffffffffffffffffffffffffffffffffffff8116156116a3578073ffffffffffffffffffffffffffffffffffffffff166375f0bb528f8f8f8f8f8f8f8f8f8f8f336040518d63ffffffff1660e01b81526004016116709c9b9a99989796959493929190613edb565b600060405180830381600087803b15801561168a57600080fd5b505af115801561169e573d6000803e3d6000fd5b505050505b6116cf6116b28a6109c4613ff1565b603f6116bf8c6040613e34565b6116c99190614009565b90612c3e565b6116db906101f4613ff1565b5a1015611744576040517f08c379a000000000000000000000000000000000000000000000000000000000815260206004820152600560248201527f475330313000000000000000000000000000000000000000000000000000000060448201526064016107ad565b60005a90506117b58f8f8f8f8080601f016020809104026020016040519081016040528093929190818152602001838380828437600081840152601f19601f820116905080830192505050505050508e8c6000146117a2578e612bf7565b6109c45a6117b09190614044565b612bf7565b93506117c25a8290612c55565b905083806117cf57508915155b806117d957508715155b61183f576040517f08c379a000000000000000000000000000000000000000000000000000000000815260206004820152600560248201527f475330313300000000000000000000000000000000000000000000000000000060448201526064016107ad565b6000881561185757611854828b8b8b8b612c70565b90505b841561189c57837f442e715f626346e8c54381002da614f62bee8d27386535b2521ec8540898556e8260405161188f91815260200190565b60405180910390a26118d7565b837f23428b18acfb3ea64b08dc0c1d296ea9c09702c09083ca5272e64d115b687d23826040516118ce91815260200190565b60405180910390a25b505073ffffffffffffffffffffffffffffffffffffffff81161561197e576040517f9327136800000000000000000000000000000000000000000000000000000000815260048101839052831515602482015273ffffffffffffffffffffffffffffffffffffffff821690639327136890604401600060405180830381600087803b15801561196557600080fd5b505af1158015611979573d6000803e3d6000fd5b505050505b50509b9a5050505050505050505050565b600454806119f9576040517f08c379a000000000000000000000000000000000000000000000000000000000815260206004820152600560248201527f475330303100000000000000000000000000000000000000000000000000000060448201526064016107ad565b611a0584848484610933565b50505050565b6060600060035467ffffffffffffffff811115611a2a57611a2a613594565b604051908082528060200260200182016040528015611a53578160200160208202803683370190505b506001600090815260026020527fe90b7bceb6e7df5418fb78d8ee546e97c83a08bbccc01a0644d599ccd2a7c2e0549192509073ffffffffffffffffffffffffffffffffffffffff165b73ffffffffffffffffffffffffffffffffffffffff8116600114611b1b5780838381518110611ace57611ace61405b565b73ffffffffffffffffffffffffffffffffffffffff928316602091820292909201810191909152918116600090815260029092526040909120541681611b1381613d72565b925050611a9d565b509092915050565b600080825160208401855af480600052503d6020523d600060403e60403d016000fd5b611b848a8a808060200260200160405190810160405280939291908181526020018383602002808284376000920191909152508c9250612e01915050565b73ffffffffffffffffffffffffffffffffffffffff841615611ba957611ba9846131ce565b611be98787878080601f01602080910402602001604051908101604052809392919081815260200183838082843760009201919091525061327192505050565b8115611c0057611bfe82600060018685612c70565b505b3373ffffffffffffffffffffffffffffffffffffffff167f141df868a6331af528e38c83b7aa03edc19be66e37ae67f9285bf4f8e3c6a1a88b8b8b8b89604051611c4e95949392919061408a565b60405180910390a250505050505050505050565b6060600073ffffffffffffffffffffffffffffffffffffffff841660011480611c8f5750611c8f84610ff7565b611cf5576040517f08c379a000000000000000000000000000000000000000000000000000000000815260206004820152600560248201527f475331303500000000000000000000000000000000000000000000000000000060448201526064016107ad565b60008311611d5f576040517f08c379a000000000000000000000000000000000000000000000000000000000815260206004820152600560248201527f475331303600000000000000000000000000000000000000000000000000000060448201526064016107ad565b8267ffffffffffffffff811115611d7857611d78613594565b604051908082528060200260200182016040528015611da1578160200160208202803683370190505b5073ffffffffffffffffffffffffffffffffffffffff808616600090815260016020526040812054929450911691505b73ffffffffffffffffffffffffffffffffffffffff821615801590611e0d575073ffffffffffffffffffffffffffffffffffffffff8216600114155b8015611e1857508381105b15611e805781838281518110611e3057611e3061405b565b73ffffffffffffffffffffffffffffffffffffffff928316602091820292909201810191909152928116600090815260019093526040909220549091169080611e7881613d72565b915050611dd1565b73ffffffffffffffffffffffffffffffffffffffff8216600114611ec55782611eaa600183614044565b81518110611eba57611eba61405b565b602002602001015191505b808352509250929050565b3360009081526002602052604090205473ffffffffffffffffffffffffffffffffffffffff16611f5c576040517f08c379a000000000000000000000000000000000000000000000000000000000815260206004820152600560248201527f475330333000000000000000000000000000000000000000000000000000000060448201526064016107ad565b336000818152600860209081526040808320858452909152808220600190555183917ff2a0eb156472d1440255b0d7c1e19cc07115d1051fe605b0dce69acfec884d9c91a350565b6000611fb98c8c8c8c8c8c8c8c8c8c8c6126bc565b8051906020012090509b9a5050505050505050505050565b611fd9612b34565b73ffffffffffffffffffffffffffffffffffffffff811615801590612015575073ffffffffffffffffffffffffffffffffffffffff8116600114155b61207b576040517f08c379a000000000000000000000000000000000000000000000000000000000815260206004820152600560248201527f475331303100000000000000000000000000000000000000000000000000000060448201526064016107ad565b73ffffffffffffffffffffffffffffffffffffffff82811660009081526001602052604090205481169082161461210e576040517f08c379a000000000000000000000000000000000000000000000000000000000815260206004820152600560248201527f475331303300000000000000000000000000000000000000000000000000000060448201526064016107ad565b73ffffffffffffffffffffffffffffffffffffffff818116600081815260016020526040808220805487861684528284208054919096167fffffffffffffffffffffffff0000000000000000000000000000000000000000918216179095558383528054909416909355915190917faab4fa2b463f581b2b32cb3b7e3b704b9ce37cc209b5fb4d77e593ace405427691a25050565b6121ab612b34565b73ffffffffffffffffffffffffffffffffffffffff8116156122db576040517f01ffc9a70000000000000000000000000000000000000000000000000000000081527fe6d7a83a00000000000000000000000000000000000000000000000000000000600482015273ffffffffffffffffffffffffffffffffffffffff8216906301ffc9a790602401602060405180830381865afa158015612251573d6000803e3d6000fd5b505050506040513d601f19601f820116820180604052508101906122759190614110565b6122db576040517f08c379a000000000000000000000000000000000000000000000000000000000815260206004820152600560248201527f475333303000000000000000000000000000000000000000000000000000000060448201526064016107ad565b7f4a204f620c8c5ccdca3fd54d003badd85ba500436a431f0cbda4f558c93c34c881815560405173ffffffffffffffffffffffffffffffffffffffff8316907f1151116914515bc0891ff9047a6cb32cf902546f83066499bcf8ba33d2353fa290600090a25050565b61234c612b34565b73ffffffffffffffffffffffffffffffffffffffff811615801590612388575073ffffffffffffffffffffffffffffffffffffffff8116600114155b80156123aa575073ffffffffffffffffffffffffffffffffffffffff81163014155b612410576040517f08c379a000000000000000000000000000000000000000000000000000000000815260206004820152600560248201527f475332303300000000000000000000000000000000000000000000000000000060448201526064016107ad565b73ffffffffffffffffffffffffffffffffffffffff818116600090815260026020526040902054161561249f576040517f08c379a000000000000000000000000000000000000000000000000000000000815260206004820152600560248201527f475332303400000000000000000000000000000000000000000000000000000060448201526064016107ad565b73ffffffffffffffffffffffffffffffffffffffff8216158015906124db575073ffffffffffffffffffffffffffffffffffffffff8216600114155b612541576040517f08c379a000000000000000000000000000000000000000000000000000000000815260206004820152600560248201527f475332303300000000000000000000000000000000000000000000000000000060448201526064016107ad565b73ffffffffffffffffffffffffffffffffffffffff8381166000908152600260205260409020548116908316146125d4576040517f08c379a000000000000000000000000000000000000000000000000000000000815260206004820152600560248201527f475332303500000000000000000000000000000000000000000000000000000060448201526064016107ad565b73ffffffffffffffffffffffffffffffffffffffff828116600081815260026020526040808220805486861680855283852080549288167fffffffffffffffffffffffff00000000000000000000000000000000000000009384161790559589168452828420805482169096179095558383528054909416909355915190917ff8d49fc529812e9a7c5c50e69c20f0dccc0db8fa95c98bc58cc9a4f1c1299eaf91a260405173ffffffffffffffffffffffffffffffffffffffff8216907f9465fa0c962cc76958e6373a993326400c1c94f8be2fe3a952adfa7f60b2ea2690600090a2505050565b606060007fbb8310d486368db6bd6f849402fdd73ad53d316b5a4b2644ad6efe0f941286d860001b8d8d8d8d6040516126f6929190614132565b60405190819003812061271c949392918e908e908e908e908e908e908e90602001614142565b604080517fffffffffffffffffffffffffffffffffffffffffffffffffffffffffffffffe0818403018152919052805160209091012090507f19000000000000000000000000000000000000000000000000000000000000007f01000000000000000000000000000000000000000000000000000000000000006127f060007f47e79534a245952e8b16893a336b85a3d9ea9fa8c573f3d803afb92a794692184660408051602081019390935282015230606082015260800160405160208183030381529060405280519060200120905090565b6040517fff0000000000000000000000000000000000000000000000000000000000000093841660208201529290911660218301526022820152604281018290526062016040516020818303038152906040529150509b9a5050505050505050505050565b61285d612b34565b612866816131ce565b60405173ffffffffffffffffffffffffffffffffffffffff8216907f5ac6c46c93c8d0e53714ba3b53db3e7c046da994313d7ed0d192028bc7c228b090600090a250565b6128b2612b34565b8060016003546128c29190614044565b101561292a576040517f08c379a000000000000000000000000000000000000000000000000000000000815260206004820152600560248201527f475332303100000000000000000000000000000000000000000000000000000060448201526064016107ad565b73ffffffffffffffffffffffffffffffffffffffff821615801590612966575073ffffffffffffffffffffffffffffffffffffffff8216600114155b6129cc576040517f08c379a000000000000000000000000000000000000000000000000000000000815260206004820152600560248201527f475332303300000000000000000000000000000000000000000000000000000060448201526064016107ad565b73ffffffffffffffffffffffffffffffffffffffff838116600090815260026020526040902054811690831614612a5f576040517f08c379a000000000000000000000000000000000000000000000000000000000815260206004820152600560248201527f475332303500000000000000000000000000000000000000000000000000000060448201526064016107ad565b73ffffffffffffffffffffffffffffffffffffffff828116600081815260026020526040808220805488861684529183208054929095167fffffffffffffffffffffffff00000000000000000000000000000000000000009283161790945591815282549091169091556003805491612ad7836141bf565b909155505060405173ffffffffffffffffffffffffffffffffffffffff8316907ff8d49fc529812e9a7c5c50e69c20f0dccc0db8fa95c98bc58cc9a4f1c1299eaf90600090a28060045414612b2f57612b2f81611479565b505050565b333014612b9d576040517f08c379a000000000000000000000000000000000000000000000000000000000815260206004820152600560248201527f475330333100000000000000000000000000000000000000000000000000000060448201526064016107ad565b565b600082600003612bb157506000611046565b6000612bbd8385613e34565b905082612bca8583614009565b14612bd457600080fd5b9392505050565b600080612be88385613ff1565b905083811015612bd457600080fd5b60006001836001811115612c0d57612c0d613e71565b03612c25576000808551602087018986f49050612c35565b600080855160208701888a87f190505b95945050505050565b600081831015612c4e5781612bd4565b5090919050565b600082821115612c6457600080fd5b60006111cc8385614044565b60008073ffffffffffffffffffffffffffffffffffffffff831615612c955782612c97565b325b905073ffffffffffffffffffffffffffffffffffffffff8416612d7657612cd63a8610612cc4573a612cc6565b855b612cd08989612bdb565b90612b9f565b60405190925073ffffffffffffffffffffffffffffffffffffffff82169083156108fc029084906000818181858888f19350505050612d71576040517f08c379a000000000000000000000000000000000000000000000000000000000815260206004820152600560248201527f475330313100000000000000000000000000000000000000000000000000000060448201526064016107ad565b612df7565b612d8485612cd08989612bdb565b9150612d91848284613469565b612df7576040517f08c379a000000000000000000000000000000000000000000000000000000000815260206004820152600560248201527f475330313200000000000000000000000000000000000000000000000000000060448201526064016107ad565b5095945050505050565b60045415612e6b576040517f08c379a000000000000000000000000000000000000000000000000000000000815260206004820152600560248201527f475332303000000000000000000000000000000000000000000000000000000060448201526064016107ad565b8151811115612ed6576040517f08c379a000000000000000000000000000000000000000000000000000000000815260206004820152600560248201527f475332303100000000000000000000000000000000000000000000000000000060448201526064016107ad565b6001811015612f41576040517f08c379a000000000000000000000000000000000000000000000000000000000815260206004820152600560248201527f475332303200000000000000000000000000000000000000000000000000000060448201526064016107ad565b600160005b8351811015613176576000848281518110612f6357612f6361405b565b60200260200101519050600073ffffffffffffffffffffffffffffffffffffffff168173ffffffffffffffffffffffffffffffffffffffff1614158015612fc1575073ffffffffffffffffffffffffffffffffffffffff8116600114155b8015612fe3575073ffffffffffffffffffffffffffffffffffffffff81163014155b801561301b57508073ffffffffffffffffffffffffffffffffffffffff168373ffffffffffffffffffffffffffffffffffffffff1614155b613081576040517f08c379a000000000000000000000000000000000000000000000000000000000815260206004820152600560248201527f475332303300000000000000000000000000000000000000000000000000000060448201526064016107ad565b73ffffffffffffffffffffffffffffffffffffffff8181166000908152600260205260409020541615613110576040517f08c379a000000000000000000000000000000000000000000000000000000000815260206004820152600560248201527f475332303400000000000000000000000000000000000000000000000000000060448201526064016107ad565b73ffffffffffffffffffffffffffffffffffffffff928316600090815260026020526040902080547fffffffffffffffffffffffff000000000000000000000000000000000000000016938216939093179092558061316e81613d72565b915050612f46565b5073ffffffffffffffffffffffffffffffffffffffff16600090815260026020526040902080547fffffffffffffffffffffffff00000000000000000000000000000000000000001660011790559051600355600455565b3073ffffffffffffffffffffffffffffffffffffffff82160361324d576040517f08c379a000000000000000000000000000000000000000000000000000000000815260206004820152600560248201527f475334303000000000000000000000000000000000000000000000000000000060448201526064016107ad565b7f6c9a6c4a39284e37ed1cf53d337577d14212a4870fb976a4366c693b939918d555565b600160008190526020527fcc69885fda6bcc1a4ace058b4a62bf5e179ea78fd58a1ccd71c22cc9b688792f5473ffffffffffffffffffffffffffffffffffffffff161561331a576040517f08c379a000000000000000000000000000000000000000000000000000000000815260206004820152600560248201527f475331303000000000000000000000000000000000000000000000000000000060448201526064016107ad565b6001600081905260208190527fcc69885fda6bcc1a4ace058b4a62bf5e179ea78fd58a1ccd71c22cc9b688792f80547fffffffffffffffffffffffff000000000000000000000000000000000000000016909117905573ffffffffffffffffffffffffffffffffffffffff82161561092f57813b6133f4576040517f08c379a000000000000000000000000000000000000000000000000000000000815260206004820152600560248201527f475330303200000000000000000000000000000000000000000000000000000060448201526064016107ad565b6134038260008360015a612bf7565b61092f576040517f08c379a000000000000000000000000000000000000000000000000000000000815260206004820152600560248201527f475330303000000000000000000000000000000000000000000000000000000060448201526064016107ad565b6040805173ffffffffffffffffffffffffffffffffffffffff841660248201526044808201849052825180830390910181526064909101909152602080820180517bffffffffffffffffffffffffffffffffffffffffffffffffffffffff167fa9059cbb000000000000000000000000000000000000000000000000000000001781528251600093929184919082896127105a03f13d8015613516576020811461351e5760009350613529565b819350613529565b600051158215171593505b5050509392505050565b73ffffffffffffffffffffffffffffffffffffffff8116811461355557600080fd5b50565b803561356381613533565b919050565b6000806040838503121561357b57600080fd5b823561358681613533565b946020939093013593505050565b7f4e487b7100000000000000000000000000000000000000000000000000000000600052604160045260246000fd5b600082601f8301126135d457600080fd5b813567ffffffffffffffff808211156135ef576135ef613594565b604051601f83017fffffffffffffffffffffffffffffffffffffffffffffffffffffffffffffffe0908116603f0116810190828211818310171561363557613635613594565b8160405283815286602085880101111561364e57600080fd5b836020870160208301376000602085830101528094505050505092915050565b6000806000806080858703121561368457600080fd5b84359350602085013567ffffffffffffffff808211156136a357600080fd5b6136af888389016135c3565b945060408701359150808211156136c557600080fd5b506136d2878288016135c3565b949793965093946060013593505050565b6000602082840312156136f557600080fd5b8135612bd481613533565b80356002811061356357600080fd5b6000806000806080858703121561372557600080fd5b843561373081613533565b935060208501359250604085013567ffffffffffffffff81111561375357600080fd5b61375f878288016135c3565b92505061376e60608601613700565b905092959194509250565b6000815180845260005b8181101561379f57602081850181015186830182015201613783565b818111156137b1576000602083870101525b50601f017fffffffffffffffffffffffffffffffffffffffffffffffffffffffffffffffe0169290920160200192915050565b82151581526040602082015260006111cc6040830184613779565b6000806040838503121561381257600080fd5b50508035926020909101359150565b602081526000612bd46020830184613779565b60006020828403121561384657600080fd5b5035919050565b60008083601f84011261385f57600080fd5b50813567ffffffffffffffff81111561387757600080fd5b60208301915083602082850101111561388f57600080fd5b9250929050565b60008060008060008060008060008060006101408c8e0312156138b857600080fd5b6138c18c613558565b9a5060208c0135995067ffffffffffffffff8060408e013511156138e457600080fd5b6138f48e60408f01358f0161384d565b909a50985061390560608e01613700565b975060808d0135965060a08d0135955060c08d0135945061392860e08e01613558565b93506139376101008e01613558565b9250806101208e0135111561394b57600080fd5b5061395d8d6101208e01358e016135c3565b90509295989b509295989b9093969950565b60008060006060848603121561398457600080fd5b83359250602084013567ffffffffffffffff808211156139a357600080fd5b6139af878388016135c3565b935060408601359150808211156139c557600080fd5b506139d2868287016135c3565b9150509250925092565b600081518084526020808501945080840160005b83811015613a2257815173ffffffffffffffffffffffffffffffffffffffff16875295820195908201906001016139f0565b509495945050505050565b602081526000612bd460208301846139dc565b60008060408385031215613a5357600080fd5b8235613a5e81613533565b9150602083013567ffffffffffffffff811115613a7a57600080fd5b613a86858286016135c3565b9150509250929050565b6000806000806000806000806000806101008b8d031215613ab057600080fd5b8a3567ffffffffffffffff80821115613ac857600080fd5b818d0191508d601f830112613adc57600080fd5b813581811115613aeb57600080fd5b8e60208260051b8501011115613b0057600080fd5b60208381019d50909b508d01359950613b1b60408e01613558565b985060608d0135915080821115613b3157600080fd5b50613b3e8d828e0161384d565b9097509550613b51905060808c01613558565b9350613b5f60a08c01613558565b925060c08b01359150613b7460e08c01613558565b90509295989b9194979a5092959850565b604081526000613b9860408301856139dc565b905073ffffffffffffffffffffffffffffffffffffffff831660208301529392505050565b60008060008060008060008060008060006101408c8e031215613bdf57600080fd5b8b35613bea81613533565b9a5060208c0135995060408c013567ffffffffffffffff811115613c0d57600080fd5b613c198e828f0161384d565b909a509850613c2c905060608d01613700565b965060808c0135955060a08c0135945060c08c0135935060e08c0135613c5181613533565b92506101008c0135613c6281613533565b809250506101208c013590509295989b509295989b9093969950565b60008060408385031215613c9157600080fd5b8235613c9c81613533565b91506020830135613cac81613533565b809150509250929050565b600080600060608486031215613ccc57600080fd5b8335613cd781613533565b92506020840135613ce781613533565b91506040840135613cf781613533565b809150509250925092565b600080600060608486031215613d1757600080fd5b8335613d2281613533565b92506020840135613d3281613533565b929592945050506040919091013590565b7f4e487b7100000000000000000000000000000000000000000000000000000000600052601160045260246000fd5b60007fffffffffffffffffffffffffffffffffffffffffffffffffffffffffffffffff8203613da357613da3613d43565b5060010190565b604081526000613dbd6040830185613779565b8281036020840152612c358185613779565b600060208284031215613de157600080fd5b81517fffffffff0000000000000000000000000000000000000000000000000000000081168114612bd457600080fd5b600060ff821660ff841680821015613e2b57613e2b613d43565b90039392505050565b6000817fffffffffffffffffffffffffffffffffffffffffffffffffffffffffffffffff0483118215151615613e6c57613e6c613d43565b500290565b7f4e487b7100000000000000000000000000000000000000000000000000000000600052602160045260246000fd5b60028110613ed7577f4e487b7100000000000000000000000000000000000000000000000000000000600052602160045260246000fd5b9052565b600061016073ffffffffffffffffffffffffffffffffffffffff8f1683528d60208401528060408401528b81840152506101808b8d828501376000818d850101527fffffffffffffffffffffffffffffffffffffffffffffffffffffffffffffffe0601f8d01168301613f51606085018d613ea0565b8a60808501528960a08501528860c0850152613f8560e085018973ffffffffffffffffffffffffffffffffffffffff169052565b73ffffffffffffffffffffffffffffffffffffffff87166101008501528184820301610120850152613fb982820187613779565b92505050613fe061014083018473ffffffffffffffffffffffffffffffffffffffff169052565b9d9c50505050505050505050505050565b6000821982111561400457614004613d43565b500190565b60008261403f577f4e487b7100000000000000000000000000000000000000000000000000000000600052601260045260246000fd5b500490565b60008282101561405657614056613d43565b500390565b7f4e487b7100000000000000000000000000000000000000000000000000000000600052603260045260246000fd5b6080808252810185905260008660a08301825b888110156140da5782356140b081613533565b73ffffffffffffffffffffffffffffffffffffffff1682526020928301929091019060010161409d565b506020840196909652505073ffffffffffffffffffffffffffffffffffffffff9283166040820152911660609091015292915050565b60006020828403121561412257600080fd5b81518015158114612bd457600080fd5b8183823760009101908152919050565b6000610160820190508c825273ffffffffffffffffffffffffffffffffffffffff808d1660208401528b60408401528a6060840152614184608084018b613ea0565b60a083019890985260c082019690965260e0810194909452918516610100840152909316610120820152610140019190915295945050505050565b6000816141ce576141ce613d43565b507fffffffffffffffffffffffffffffffffffffffffffffffffffffffffffffffff019056fea164736f6c634300080f000a",
    "linkReferences": {}
  },
  "methodIdentifiers": {
    "VERSION()": "ffa1ad74",
    "addOwnerWithThreshold(address,uint256)": "0d582f13",
    "approveHash(bytes32)": "d4d9bdcd",
    "approvedHashes(address,bytes32)": "7d832974",
    "changeThreshold(uint256)": "694e80c3",
    "checkNSignatures(bytes32,bytes,bytes,uint256)": "12fb68e0",
    "checkSignatures(bytes32,bytes,bytes)": "934f3a11",
    "disableModule(address,address)": "e009cfde",
    "domainSeparator()": "f698da25",
    "enableModule(address)": "610b5925",
    "encodeTransactionData(address,uint256,bytes,uint8,uint256,uint256,uint256,address,address,uint256)": "e86637db",
    "execTransaction(address,uint256,bytes,uint8,uint256,uint256,uint256,address,address,bytes)": "6a761202",
    "execTransactionFromModule(address,uint256,bytes,uint8)": "468721a7",
    "execTransactionFromModuleReturnData(address,uint256,bytes,uint8)": "5229073f",
    "getChainId()": "3408e470",
    "getModulesPaginated(address,uint256)": "cc2f8452",
    "getOwners()": "a0e67e2b",
    "getStorageAt(uint256,uint256)": "5624b25b",
    "getThreshold()": "e75235b8",
    "getTransactionHash(address,uint256,bytes,uint8,uint256,uint256,uint256,address,address,uint256)": "d8d11f78",
    "isModuleEnabled(address)": "2d9ad53d",
    "isOwner(address)": "2f54bf6e",
    "nonce()": "affed0e0",
    "removeOwner(address,address,uint256)": "f8dc5dd9",
    "setFallbackHandler(address)": "f08a0323",
    "setGuard(address)": "e19a9dd9",
    "setup(address[],uint256,address,bytes,address,address,uint256,address)": "b63e800d",
    "signedMessages(bytes32)": "5ae6bd37",
    "simulateAndRevert(address,bytes)": "b4faba09",
    "swapOwner(address,address,address)": "e318b52b"
  },
  "storageLayout": {
    "storage": [
      {
        "astId": 41654,
        "contract": "lib/safe-contracts/contracts/Safe.sol:Safe",
        "label": "singleton",
        "offset": 0,
        "slot": "0",
        "type": "t_address"
      },
      {
        "astId": 40647,
        "contract": "lib/safe-contracts/contracts/Safe.sol:Safe",
        "label": "modules",
        "offset": 0,
        "slot": "1",
        "type": "t_mapping(t_address,t_address)"
      },
      {
        "astId": 41062,
        "contract": "lib/safe-contracts/contracts/Safe.sol:Safe",
        "label": "owners",
        "offset": 0,
        "slot": "2",
        "type": "t_mapping(t_address,t_address)"
      },
      {
        "astId": 41064,
        "contract": "lib/safe-contracts/contracts/Safe.sol:Safe",
        "label": "ownerCount",
        "offset": 0,
        "slot": "3",
        "type": "t_uint256"
      },
      {
        "astId": 41066,
        "contract": "lib/safe-contracts/contracts/Safe.sol:Safe",
        "label": "threshold",
        "offset": 0,
        "slot": "4",
        "type": "t_uint256"
      },
      {
        "astId": 39555,
        "contract": "lib/safe-contracts/contracts/Safe.sol:Safe",
        "label": "nonce",
        "offset": 0,
        "slot": "5",
        "type": "t_uint256"
      },
      {
        "astId": 39557,
        "contract": "lib/safe-contracts/contracts/Safe.sol:Safe",
        "label": "_deprecatedDomainSeparator",
        "offset": 0,
        "slot": "6",
        "type": "t_bytes32"
      },
      {
        "astId": 39561,
        "contract": "lib/safe-contracts/contracts/Safe.sol:Safe",
        "label": "signedMessages",
        "offset": 0,
        "slot": "7",
        "type": "t_mapping(t_bytes32,t_uint256)"
      },
      {
        "astId": 39567,
        "contract": "lib/safe-contracts/contracts/Safe.sol:Safe",
        "label": "approvedHashes",
        "offset": 0,
        "slot": "8",
        "type": "t_mapping(t_address,t_mapping(t_bytes32,t_uint256))"
      }
    ],
    "types": {
      "t_address": {
        "encoding": "inplace",
        "label": "address",
        "numberOfBytes": "20"
      },
      "t_bytes32": {
        "encoding": "inplace",
        "label": "bytes32",
        "numberOfBytes": "32"
      },
      "t_mapping(t_address,t_address)": {
        "encoding": "mapping",
        "key": "t_address",
        "label": "mapping(address => address)",
        "numberOfBytes": "32",
        "value": "t_address"
      },
      "t_mapping(t_address,t_mapping(t_bytes32,t_uint256))": {
        "encoding": "mapping",
        "key": "t_address",
        "label": "mapping(address => mapping(bytes32 => uint256))",
        "numberOfBytes": "32",
        "value": "t_mapping(t_bytes32,t_uint256)"
      },
      "t_mapping(t_bytes32,t_uint256)": {
        "encoding": "mapping",
        "key": "t_bytes32",
        "label": "mapping(bytes32 => uint256)",
        "numberOfBytes": "32",
        "value": "t_uint256"
      },
      "t_uint256": {
        "encoding": "inplace",
        "label": "uint256",
        "numberOfBytes": "32"
      }
    }
  },
  "userdoc": {
    "version": 1,
    "kind": "user",
    "methods": {
      "addOwnerWithThreshold(address,uint256)": {
        "notice": "Adds the owner `owner` to the Safe and updates the threshold to `_threshold`."
      },
      "approveHash(bytes32)": {
        "notice": "Marks hash `hashToApprove` as approved."
      },
      "changeThreshold(uint256)": {
        "notice": "Changes the threshold of the Safe to `_threshold`."
      },
      "checkNSignatures(bytes32,bytes,bytes,uint256)": {
        "notice": "Checks whether the signature provided is valid for the provided data and hash. Reverts otherwise."
      },
      "checkSignatures(bytes32,bytes,bytes)": {
        "notice": "Checks whether the signature provided is valid for the provided data and hash. Reverts otherwise."
      },
      "disableModule(address,address)": {
        "notice": "Disables the module `module` for the Safe."
      },
      "enableModule(address)": {
        "notice": "Enables the module `module` for the Safe."
      },
      "encodeTransactionData(address,uint256,bytes,uint8,uint256,uint256,uint256,address,address,uint256)": {
        "notice": "Returns the pre-image of the transaction hash (see getTransactionHash)."
      },
      "execTransaction(address,uint256,bytes,uint8,uint256,uint256,uint256,address,address,bytes)": {
        "notice": "Executes a `operation` {0: Call, 1: DelegateCall}} transaction to `to` with `value` (Native Currency)          and pays `gasPrice` * `gasLimit` in `gasToken` token to `refundReceiver`."
      },
      "execTransactionFromModule(address,uint256,bytes,uint8)": {
        "notice": "Execute `operation` (0: Call, 1: DelegateCall) to `to` with `value` (Native Token)"
      },
      "execTransactionFromModuleReturnData(address,uint256,bytes,uint8)": {
        "notice": "Execute `operation` (0: Call, 1: DelegateCall) to `to` with `value` (Native Token) and return data"
      },
      "getChainId()": {
        "notice": "Returns the ID of the chain the contract is currently deployed on."
      },
      "getModulesPaginated(address,uint256)": {
        "notice": "Returns an array of modules.         If all entries fit into a single page, the next pointer will be 0x1.         If another page is present, next will be the last element of the returned array."
      },
      "getOwners()": {
        "notice": "Returns a list of Safe owners."
      },
      "getStorageAt(uint256,uint256)": {
        "notice": "Reads `length` bytes of storage in the currents contract"
      },
      "getThreshold()": {
        "notice": "Returns the number of required confirmations for a Safe transaction aka the threshold."
      },
      "getTransactionHash(address,uint256,bytes,uint8,uint256,uint256,uint256,address,address,uint256)": {
        "notice": "Returns transaction hash to be signed by owners."
      },
      "isModuleEnabled(address)": {
        "notice": "Returns if an module is enabled"
      },
      "isOwner(address)": {
        "notice": "Returns if `owner` is an owner of the Safe."
      },
      "removeOwner(address,address,uint256)": {
        "notice": "Removes the owner `owner` from the Safe and updates the threshold to `_threshold`."
      },
      "setFallbackHandler(address)": {
        "notice": "Set Fallback Handler to `handler` for the Safe."
      },
      "setGuard(address)": {
        "notice": "Set Transaction Guard `guard` for the Safe. Make sure you trust the guard."
      },
      "setup(address[],uint256,address,bytes,address,address,uint256,address)": {
        "notice": "Sets an initial storage of the Safe contract."
      },
      "swapOwner(address,address,address)": {
        "notice": "Replaces the owner `oldOwner` in the Safe with `newOwner`."
      }
    }
  },
  "devdoc": {
    "version": 1,
    "kind": "dev",
    "author": "Stefan George - @Georgi87Richard Meissner - @rmeissner",
    "details": "Most important concepts:      - Threshold: Number of required confirmations for a Safe transaction.      - Owners: List of addresses that control the Safe. They are the only ones that can add/remove owners, change the threshold and        approve transactions. Managed in `OwnerManager`.      - Transaction Hash: Hash of a transaction is calculated using the EIP-712 typed structured data hashing scheme.      - Nonce: Each transaction should have a different nonce to prevent replay attacks.      - Signature: A valid signature of an owner of the Safe for a transaction hash.      - Guard: Guard is a contract that can execute pre- and post- transaction checks. Managed in `GuardManager`.      - Modules: Modules are contracts that can be used to extend the write functionality of a Safe. Managed in `ModuleManager`.      - Fallback: Fallback handler is a contract that can provide additional read-only functional for Safe. Managed in `FallbackManager`.      Note: This version of the implementation contract doesn't emit events for the sake of gas efficiency and therefore requires a tracing node for indexing/      For the events-based implementation see `SafeL2.sol`.",
    "methods": {
      "addOwnerWithThreshold(address,uint256)": {
        "details": "This can only be done via a Safe transaction.",
        "params": {
          "_threshold": "New threshold.",
          "owner": "New owner address."
        }
      },
      "approveHash(bytes32)": {
        "details": "This can be used with a pre-approved hash transaction signature.      IMPORTANT: The approved hash stays approved forever. There's no revocation mechanism, so it behaves similarly to ECDSA signatures",
        "params": {
          "hashToApprove": "The hash to mark as approved for signatures that are verified by this contract."
        }
      },
      "changeThreshold(uint256)": {
        "details": "This can only be done via a Safe transaction.",
        "params": {
          "_threshold": "New threshold."
        }
      },
      "checkNSignatures(bytes32,bytes,bytes,uint256)": {
        "details": "Since the EIP-1271 does an external call, be mindful of reentrancy attacks.",
        "params": {
          "data": "That should be signed (this is passed to an external validator contract)",
          "dataHash": "Hash of the data (could be either a message hash or transaction hash)",
          "requiredSignatures": "Amount of required valid signatures.",
          "signatures": "Signature data that should be verified.                   Can be packed ECDSA signature ({bytes32 r}{bytes32 s}{uint8 v}), contract signature (EIP-1271) or approved hash."
        }
      },
      "checkSignatures(bytes32,bytes,bytes)": {
        "params": {
          "data": "That should be signed (this is passed to an external validator contract)",
          "dataHash": "Hash of the data (could be either a message hash or transaction hash)",
          "signatures": "Signature data that should be verified.                   Can be packed ECDSA signature ({bytes32 r}{bytes32 s}{uint8 v}), contract signature (EIP-1271) or approved hash."
        }
      },
      "disableModule(address,address)": {
        "details": "This can only be done via a Safe transaction.",
        "params": {
          "module": "Module to be removed.",
          "prevModule": "Previous module in the modules linked list."
        }
      },
      "domainSeparator()": {
        "details": "Returns the domain separator for this contract, as defined in the EIP-712 standard.",
        "returns": {
          "_0": "bytes32 The domain separator hash."
        }
      },
      "enableModule(address)": {
        "details": "This can only be done via a Safe transaction.",
        "params": {
          "module": "Module to be whitelisted."
        }
      },
      "encodeTransactionData(address,uint256,bytes,uint8,uint256,uint256,uint256,address,address,uint256)": {
        "params": {
          "_nonce": "Transaction nonce.",
          "baseGas": "Gas costs for that are independent of the transaction execution(e.g. base transaction fee, signature check, payment of the refund)",
          "data": "Data payload.",
          "gasPrice": "Maximum gas price that should be used for this transaction.",
          "gasToken": "Token address (or 0 if ETH) that is used for the payment.",
          "operation": "Operation type.",
          "refundReceiver": "Address of receiver of gas payment (or 0 if tx.origin).",
          "safeTxGas": "Gas that should be used for the safe transaction.",
          "to": "Destination address.",
          "value": "Ether value."
        },
        "returns": {
          "_0": "Transaction hash bytes."
        }
      },
      "execTransaction(address,uint256,bytes,uint8,uint256,uint256,uint256,address,address,bytes)": {
        "details": "The fees are always transferred, even if the user transaction fails.      This method doesn't perform any sanity check of the transaction, such as:      - if the contract at `to` address has code or not      - if the `gasToken` is a contract or not      It is the responsibility of the caller to perform such checks.",
        "params": {
          "baseGas": "Gas costs that are independent of the transaction execution(e.g. base transaction fee, signature check, payment of the refund)",
          "data": "Data payload of Safe transaction.",
          "gasPrice": "Gas price that should be used for the payment calculation.",
          "gasToken": "Token address (or 0 if ETH) that is used for the payment.",
          "operation": "Operation type of Safe transaction.",
          "refundReceiver": "Address of receiver of gas payment (or 0 if tx.origin).",
          "safeTxGas": "Gas that should be used for the Safe transaction.",
          "signatures": "Signature data that should be verified.                   Can be packed ECDSA signature ({bytes32 r}{bytes32 s}{uint8 v}), contract signature (EIP-1271) or approved hash.",
          "to": "Destination address of Safe transaction.",
          "value": "Ether value of Safe transaction."
        },
        "returns": {
          "success": "Boolean indicating transaction's success."
        }
      },
      "execTransactionFromModule(address,uint256,bytes,uint8)": {
        "details": "Function is virtual to allow overriding for L2 singleton to emit an event for indexing.",
        "params": {
          "data": "Data payload of module transaction.",
          "operation": "Operation type of module transaction.",
          "to": "Destination address of module transaction.",
          "value": "Ether value of module transaction."
        },
        "returns": {
          "success": "Boolean flag indicating if the call succeeded."
        }
      },
      "execTransactionFromModuleReturnData(address,uint256,bytes,uint8)": {
        "params": {
          "data": "Data payload of module transaction.",
          "operation": "Operation type of module transaction.",
          "to": "Destination address of module transaction.",
          "value": "Ether value of module transaction."
        },
        "returns": {
          "returnData": "Data returned by the call.",
          "success": "Boolean flag indicating if the call succeeded."
        }
      },
      "getChainId()": {
        "returns": {
          "_0": "The ID of the current chain as a uint256."
        }
      },
      "getModulesPaginated(address,uint256)": {
        "params": {
          "pageSize": "Maximum number of modules that should be returned. Has to be > 0",
          "start": "Start of the page. Has to be a module or start pointer (0x1 address)"
        },
        "returns": {
          "array": "Array of modules.",
          "next": "Start of the next page."
        }
      },
      "getOwners()": {
        "returns": {
          "_0": "Array of Safe owners."
        }
      },
      "getStorageAt(uint256,uint256)": {
        "params": {
          "length": "- the number of words (32 bytes) of data to read",
          "offset": "- the offset in the current contract's storage in words to start reading from"
        },
        "returns": {
          "_0": "the bytes that were read."
        }
      },
      "getThreshold()": {
        "returns": {
          "_0": "Threshold number."
        }
      },
      "getTransactionHash(address,uint256,bytes,uint8,uint256,uint256,uint256,address,address,uint256)": {
        "params": {
          "_nonce": "Transaction nonce.",
          "baseGas": "Gas costs for data used to trigger the safe transaction.",
          "data": "Data payload.",
          "gasPrice": "Maximum gas price that should be used for this transaction.",
          "gasToken": "Token address (or 0 if ETH) that is used for the payment.",
          "operation": "Operation type.",
          "refundReceiver": "Address of receiver of gas payment (or 0 if tx.origin).",
          "safeTxGas": "Fas that should be used for the safe transaction.",
          "to": "Destination address.",
          "value": "Ether value."
        },
        "returns": {
          "_0": "Transaction hash."
        }
      },
      "isModuleEnabled(address)": {
        "returns": {
          "_0": "True if the module is enabled"
        }
      },
      "isOwner(address)": {
        "returns": {
          "_0": "Boolean if owner is an owner of the Safe."
        }
      },
      "removeOwner(address,address,uint256)": {
        "details": "This can only be done via a Safe transaction.",
        "params": {
          "_threshold": "New threshold.",
          "owner": "Owner address to be removed.",
          "prevOwner": "Owner that pointed to the owner to be removed in the linked list"
        }
      },
      "setFallbackHandler(address)": {
        "details": "Only fallback calls without value and with data will be forwarded.      This can only be done via a Safe transaction.      Cannot be set to the Safe itself.",
        "params": {
          "handler": "contract to handle fallback calls."
        }
      },
      "setGuard(address)": {
        "details": "Set a guard that checks transactions before execution      This can only be done via a Safe transaction.       IMPORTANT: Since a guard has full power to block Safe transaction execution,        a broken guard can cause a denial of service for the Safe. Make sure to carefully        audit the guard code and design recovery mechanisms.",
        "params": {
          "guard": "The address of the guard to be used or the 0 address to disable the guard"
        }
      },
      "setup(address[],uint256,address,bytes,address,address,uint256,address)": {
        "details": "This method can only be called once.      If a proxy was created without setting up, anyone can call setup and claim the proxy.",
        "params": {
          "_owners": "List of Safe owners.",
          "_threshold": "Number of required confirmations for a Safe transaction.",
          "data": "Data payload for optional delegate call.",
          "fallbackHandler": "Handler for fallback calls to this contract",
          "payment": "Value that should be paid",
          "paymentReceiver": "Address that should receive the payment (or 0 if tx.origin)",
          "paymentToken": "Token that should be used for the payment (0 is ETH)",
          "to": "Contract address for optional delegate call."
        }
      },
      "simulateAndRevert(address,bytes)": {
        "details": "Performs a delegatecall on a targetContract in the context of self. Internally reverts execution to avoid side effects (making it static). This method reverts with data equal to `abi.encode(bool(success), bytes(response))`. Specifically, the `returndata` after a call to this method will be: `success:bool || response.length:uint256 || response:bytes`.",
        "params": {
          "calldataPayload": "Calldata that should be sent to the target contract (encoded method name and arguments).",
          "targetContract": "Address of the contract containing the code to execute."
        }
      },
      "swapOwner(address,address,address)": {
        "details": "This can only be done via a Safe transaction.",
        "params": {
          "newOwner": "New owner address.",
          "oldOwner": "Owner address to be replaced.",
          "prevOwner": "Owner that pointed to the owner to be replaced in the linked list"
        }
      }
    },
    "title": "Safe - A multisignature wallet with support for confirmations using signed messages based on EIP-712."
  },
  "id": 65
}