{
  "abi": [
    {
      "inputs": [],
      "name": "PartOffsetOOB",
      "type": "error"
    },
    {
      "inputs": [
        {
          "internalType": "uint256",
          "name": "_partOffset",
          "type": "uint256"
        },
        {
          "internalType": "bytes",
          "name": "_preimage",
          "type": "bytes"
        }
      ],
      "name": "loadKeccak256PreimagePart",
      "outputs": [],
      "stateMutability": "nonpayable",
      "type": "function"
    },
    {
      "inputs": [
        {
          "internalType": "uint256",
          "name": "_ident",
          "type": "uint256"
        },
        {
          "internalType": "bytes32",
          "name": "_word",
          "type": "bytes32"
        },
        {
          "internalType": "uint256",
          "name": "_size",
          "type": "uint256"
        },
        {
          "internalType": "uint256",
          "name": "_partOffset",
          "type": "uint256"
        }
      ],
      "name": "loadLocalData",
      "outputs": [
        {
          "internalType": "bytes32",
          "name": "key_",
          "type": "bytes32"
        }
      ],
      "stateMutability": "nonpayable",
      "type": "function"
    },
    {
      "inputs": [
        {
          "internalType": "bytes32",
          "name": "",
          "type": "bytes32"
        }
      ],
      "name": "preimageLengths",
      "outputs": [
        {
          "internalType": "uint256",
          "name": "",
          "type": "uint256"
        }
      ],
      "stateMutability": "view",
      "type": "function"
    },
    {
      "inputs": [
        {
          "internalType": "bytes32",
          "name": "",
          "type": "bytes32"
        },
        {
          "internalType": "uint256",
          "name": "",
          "type": "uint256"
        }
      ],
      "name": "preimagePartOk",
      "outputs": [
        {
          "internalType": "bool",
          "name": "",
          "type": "bool"
        }
      ],
      "stateMutability": "view",
      "type": "function"
    },
    {
      "inputs": [
        {
          "internalType": "bytes32",
          "name": "",
          "type": "bytes32"
        },
        {
          "internalType": "uint256",
          "name": "",
          "type": "uint256"
        }
      ],
      "name": "preimageParts",
      "outputs": [
        {
          "internalType": "bytes32",
          "name": "",
          "type": "bytes32"
        }
      ],
      "stateMutability": "view",
      "type": "function"
    },
    {
      "inputs": [
        {
          "internalType": "bytes32",
          "name": "_key",
          "type": "bytes32"
        },
        {
          "internalType": "uint256",
          "name": "_offset",
          "type": "uint256"
        }
      ],
      "name": "readPreimage",
      "outputs": [
        {
          "internalType": "bytes32",
          "name": "dat_",
          "type": "bytes32"
        },
        {
          "internalType": "uint256",
          "name": "datLen_",
          "type": "uint256"
        }
      ],
      "stateMutability": "view",
      "type": "function"
    }
  ],
  "bytecode": {
    "object": "0x608060405234801561001057600080fd5b50610625806100206000396000f3fe608060405234801561001057600080fd5b50600436106100725760003560e01c8063e03110e111610050578063e03110e114610106578063e15926111461012e578063fef2b4ed1461014357600080fd5b806361238bde146100775780638542cf50146100b55780639a1f5e7f146100f3575b600080fd5b6100a26100853660046104d1565b600160209081526000928352604080842090915290825290205481565b6040519081526020015b60405180910390f35b6100e36100c33660046104d1565b600260209081526000928352604080842090915290825290205460ff1681565b60405190151581526020016100ac565b6100a26101013660046104f3565b610163565b6101196101143660046104d1565b610236565b604080519283526020830191909152016100ac565b61014161013c366004610525565b610327565b005b6100a26101513660046105a1565b60006020819052908152604090205481565b600061016e85610430565b905061017b8360086105e9565b8211806101885750602083115b156101bf576040517ffe25498700000000000000000000000000000000000000000000000000000000815260040160405180910390fd5b6000602081815260c085901b82526008959095528251828252600286526040808320858452875280832080547fffffffffffffffffffffffffffffffffffffffffffffffffffffffffffffff0016600190811790915584845287528083209483529386528382205581815293849052922055919050565b6000828152600260209081526040808320848452909152812054819060ff166102bf576040517f08c379a000000000000000000000000000000000000000000000000000000000815260206004820152601460248201527f7072652d696d616765206d757374206578697374000000000000000000000000604482015260640160405180910390fd5b50600083815260208181526040909120546102db8160086105e9565b6102e68560206105e9565b1061030457836102f78260086105e9565b6103019190610601565b91505b506000938452600160209081526040808620948652939052919092205492909150565b604435600080600883018611156103465763fe2549876000526004601cfd5b60c083901b6080526088838682378087017ffffffffffffffffffffffffffffffffffffffffffffffffffffffffffffffff80151908490207effffffffffffffffffffffffffffffffffffffffffffffffffffffffffffff167f02000000000000000000000000000000000000000000000000000000000000001760008181526002602090815260408083208b8452825280832080547fffffffffffffffffffffffffffffffffffffffffffffffffffffffffffffff0016600190811790915584845282528083209a83529981528982209390935590815290819052959095209190915550505050565b7f01000000000000000000000000000000000000000000000000000000000000007effffffffffffffffffffffffffffffffffffffffffffffffffffffffffffff8216176104cb81600090815233602052604090207effffffffffffffffffffffffffffffffffffffffffffffffffffffffffffff167f01000000000000000000000000000000000000000000000000000000000000001790565b92915050565b600080604083850312156104e457600080fd5b50508035926020909101359150565b6000806000806080858703121561050957600080fd5b5050823594602084013594506040840135936060013592509050565b60008060006040848603121561053a57600080fd5b83359250602084013567ffffffffffffffff8082111561055957600080fd5b818601915086601f83011261056d57600080fd5b81358181111561057c57600080fd5b87602082850101111561058e57600080fd5b6020830194508093505050509250925092565b6000602082840312156105b357600080fd5b5035919050565b7f4e487b7100000000000000000000000000000000000000000000000000000000600052601160045260246000fd5b600082198211156105fc576105fc6105ba565b500190565b600082821015610613576106136105ba565b50039056fea164736f6c634300080f000a",
    "linkReferences": {}
  },
  "methodIdentifiers": {
    "loadKeccak256PreimagePart(uint256,bytes)": "e1592611",
    "loadLocalData(uint256,bytes32,uint256,uint256)": "9a1f5e7f",
    "preimageLengths(bytes32)": "fef2b4ed",
    "preimagePartOk(bytes32,uint256)": "8542cf50",
    "preimageParts(bytes32,uint256)": "61238bde",
    "readPreimage(bytes32,uint256)": "e03110e1"
  },
  "storageLayout": {
    "storage": [
      {
        "astId": 65769,
        "contract": "src/cannon/PreimageOracle.sol:PreimageOracle",
        "label": "preimageLengths",
        "offset": 0,
        "slot": "0",
        "type": "t_mapping(t_bytes32,t_uint256)"
      },
      {
        "astId": 65776,
        "contract": "src/cannon/PreimageOracle.sol:PreimageOracle",
        "label": "preimageParts",
        "offset": 0,
        "slot": "1",
        "type": "t_mapping(t_bytes32,t_mapping(t_uint256,t_bytes32))"
      },
      {
        "astId": 65783,
        "contract": "src/cannon/PreimageOracle.sol:PreimageOracle",
        "label": "preimagePartOk",
        "offset": 0,
        "slot": "2",
        "type": "t_mapping(t_bytes32,t_mapping(t_uint256,t_bool))"
      }
    ],
    "types": {
      "t_bool": {
        "encoding": "inplace",
        "label": "bool",
        "numberOfBytes": "1"
      },
      "t_bytes32": {
        "encoding": "inplace",
        "label": "bytes32",
        "numberOfBytes": "32"
      },
      "t_mapping(t_bytes32,t_mapping(t_uint256,t_bool))": {
        "encoding": "mapping",
        "key": "t_bytes32",
        "label": "mapping(bytes32 => mapping(uint256 => bool))",
        "numberOfBytes": "32",
        "value": "t_mapping(t_uint256,t_bool)"
      },
      "t_mapping(t_bytes32,t_mapping(t_uint256,t_bytes32))": {
        "encoding": "mapping",
        "key": "t_bytes32",
        "label": "mapping(bytes32 => mapping(uint256 => bytes32))",
        "numberOfBytes": "32",
        "value": "t_mapping(t_uint256,t_bytes32)"
      },
      "t_mapping(t_bytes32,t_uint256)": {
        "encoding": "mapping",
        "key": "t_bytes32",
        "label": "mapping(bytes32 => uint256)",
        "numberOfBytes": "32",
        "value": "t_uint256"
      },
      "t_mapping(t_uint256,t_bool)": {
        "encoding": "mapping",
        "key": "t_uint256",
        "label": "mapping(uint256 => bool)",
        "numberOfBytes": "32",
        "value": "t_bool"
      },
      "t_mapping(t_uint256,t_bytes32)": {
        "encoding": "mapping",
        "key": "t_uint256",
        "label": "mapping(uint256 => bytes32)",
        "numberOfBytes": "32",
        "value": "t_bytes32"
      },
      "t_uint256": {
        "encoding": "inplace",
        "label": "uint256",
        "numberOfBytes": "32"
      }
    }
  },
  "userdoc": {
    "version": 1,
    "kind": "user",
    "methods": {
      "loadKeccak256PreimagePart(uint256,bytes)": {
        "notice": "Prepares a preimage to be read by keccak256 key, starting at         the given offset and up to 32 bytes (clipped at preimage length, if out of data)."
      },
      "loadLocalData(uint256,bytes32,uint256,uint256)": {
        "notice": "Loads of local data part into the preimage oracle."
      },
      "preimageLengths(bytes32)": {
        "notice": "Mapping of pre-image keys to pre-image lengths."
      },
      "preimagePartOk(bytes32,uint256)": {
        "notice": "Mapping of pre-image keys to pre-image part offsets."
      },
      "preimageParts(bytes32,uint256)": {
        "notice": "Mapping of pre-image keys to pre-image parts."
      },
      "readPreimage(bytes32,uint256)": {
        "notice": "Reads a preimage from the oracle."
      }
    },
    "errors": {
      "PartOffsetOOB()": [
        {
          "notice": "Thrown when a passed part offset is out of bounds."
        }
      ]
    },
    "notice": "A contract for storing permissioned pre-images."
  },
  "devdoc": {
    "version": 1,
    "kind": "dev",
    "methods": {
      "loadKeccak256PreimagePart(uint256,bytes)": {
        "params": {
          "_partOffset": "The offset of the preimage to read.",
          "_preimage": "The preimage data."
        }
      },
      "loadLocalData(uint256,bytes32,uint256,uint256)": {
        "details": "The local data parts are loaded into the preimage oracle under the context      of the caller - no other account can write to the caller's context      specific data.      There are 5 local data identifiers:      ┌────────────┬────────────────────────┐      │ Identifier │      Data              │      ├────────────┼────────────────────────┤      │          1 │ L1 Head Hash (bytes32) │      │          2 │ Output Root (bytes32)  │      │          3 │ Root Claim (bytes32)   │      │          4 │ L2 Block Number (u64)  │      │          5 │ Chain ID (u64)         │      └────────────┴────────────────────────┘",
        "params": {
          "_ident": "The identifier of the local data.",
          "_partOffset": "The offset of the local data part to write to the oracle.",
          "_size": "The number of bytes in `_word` to load.",
          "_word": "The local data word."
        }
      },
      "readPreimage(bytes32,uint256)": {
        "params": {
          "_key": "The key of the preimage to read.",
          "_offset": "The offset of the preimage to read."
        },
        "returns": {
          "datLen_": "The length of the preimage data.",
          "dat_": "The preimage data."
        }
      }
    },
    "title": "PreimageOracle"
  },
  "id": 130
}