{
  "abi": [
    {
      "stateMutability": "payable",
      "type": "fallback"
    },
    {
      "inputs": [],
      "name": "getL1BlockNumber",
      "outputs": [
        {
          "internalType": "uint256",
          "name": "",
          "type": "uint256"
        }
      ],
      "stateMutability": "view",
      "type": "function"
    },
    {
      "inputs": [],
      "name": "version",
      "outputs": [
        {
          "internalType": "string",
          "name": "",
          "type": "string"
        }
      ],
      "stateMutability": "view",
      "type": "function"
    },
    {
      "stateMutability": "payable",
      "type": "receive"
    }
  ],
  "bytecode": {
    "object": "0x608060405234801561001057600080fd5b50610219806100206000396000f3fe60806040526004361061002d5760003560e01c806354fd4d5014610052578063b9b3efe9146100b157610048565b3661004857600061003c6100d4565b90508060005260206000f35b600061003c6100d4565b34801561005e57600080fd5b5061009b6040518060400160405280600581526020017f312e312e3000000000000000000000000000000000000000000000000000000081525081565b6040516100a89190610168565b60405180910390f35b3480156100bd57600080fd5b506100c66100d4565b6040519081526020016100a8565b600073420000000000000000000000000000000000001573ffffffffffffffffffffffffffffffffffffffff16638381f58a6040518163ffffffff1660e01b8152600401602060405180830381865afa158015610135573d6000803e3d6000fd5b505050506040513d601f19601f8201168201806040525081019061015991906101db565b67ffffffffffffffff16905090565b600060208083528351808285015260005b8181101561019557858101830151858201604001528201610179565b818111156101a7576000604083870101525b50601f017fffffffffffffffffffffffffffffffffffffffffffffffffffffffffffffffe016929092016040019392505050565b6000602082840312156101ed57600080fd5b815167ffffffffffffffff8116811461020557600080fd5b939250505056fea164736f6c634300080f000a",
    "linkReferences": {}
  },
  "methodIdentifiers": {
    "getL1BlockNumber()": "b9b3efe9",
    "version()": "54fd4d50"
  },
  "storageLayout": {
    "storage": [],
    "types": {}
  },
  "userdoc": {
    "version": 1,
    "kind": "user",
    "methods": {
      "getL1BlockNumber()": {
        "notice": "Retrieves the latest L1 block number."
      },
      "version()": {
        "notice": "Semantic version."
      }
    },
    "notice": "L1BlockNumber is a legacy contract that fills the roll of the OVM_L1BlockNumber contract        in the old version of the Optimism system. Only necessary for backwards compatibility.        If you want to access the L1 block number going forward, you should use the L1Block        contract instead."
  },
  "devdoc": {
    "version": 1,
    "kind": "dev",
    "methods": {
      "getL1BlockNumber()": {
        "returns": {
          "_0": "Latest L1 block number."
        }
      }
    },
    "title": "L1BlockNumber"
  },
  "id": 150
}