{
  "abi": [
    {
      "anonymous": false,
      "inputs": [
        {
          "components": [
            {
              "internalType": "address",
              "name": "target",
              "type": "address"
            },
            {
              "internalType": "uint256",
              "name": "threshold",
              "type": "uint256"
            }
          ],
          "indexed": false,
          "internalType": "struct CheckBalanceLow.Params",
          "name": "params",
          "type": "tuple"
        }
      ],
      "name": "_EventToExposeStructInABI__Params",
      "type": "event"
    },
    {
      "inputs": [
        {
          "internalType": "bytes",
          "name": "_params",
          "type": "bytes"
        }
      ],
      "name": "check",
      "outputs": [
        {
          "internalType": "bool",
          "name": "execute_",
          "type": "bool"
        }
      ],
      "stateMutability": "view",
      "type": "function"
    }
  ],
  "bytecode": {
    "object": "0x608060405234801561001057600080fd5b50610210806100206000396000f3fe608060405234801561001057600080fd5b506004361061002b5760003560e01c8063c64b3bb514610030575b600080fd5b61004361003e3660046100c3565b610057565b604051901515815260200160405180910390f35b6000808280602001905181019061006e9190610192565b6020810151905173ffffffffffffffffffffffffffffffffffffffff1631109392505050565b7f4e487b7100000000000000000000000000000000000000000000000000000000600052604160045260246000fd5b6000602082840312156100d557600080fd5b813567ffffffffffffffff808211156100ed57600080fd5b818401915084601f83011261010157600080fd5b81358181111561011357610113610094565b604051601f82017fffffffffffffffffffffffffffffffffffffffffffffffffffffffffffffffe0908116603f0116810190838211818310171561015957610159610094565b8160405282815287602084870101111561017257600080fd5b826020860160208301376000928101602001929092525095945050505050565b6000604082840312156101a457600080fd5b6040516040810181811067ffffffffffffffff821117156101c7576101c7610094565b604052825173ffffffffffffffffffffffffffffffffffffffff811681146101ee57600080fd5b8152602092830151928101929092525091905056fea164736f6c634300080f000a",
    "linkReferences": {}
  },
  "methodIdentifiers": {
    "check(bytes)": "c64b3bb5"
  },
  "storageLayout": {
    "storage": [],
    "types": {}
  },
  "userdoc": {
    "version": 1,
    "kind": "user",
    "methods": {
      "check(bytes)": {
        "notice": "Checks whether a drip should be executable."
      }
    },
    "events": {
      "_EventToExposeStructInABI__Params((address,uint256))": {
        "notice": "External event used to help client-side tooling encode parameters."
      }
    },
    "notice": "DripCheck for checking if an account's balance is below a given threshold."
  },
  "devdoc": {
    "version": 1,
    "kind": "dev",
    "methods": {
      "check(bytes)": {
        "params": {
          "_params": "Encoded parameters for the drip check."
        },
        "returns": {
          "execute_": "Whether the drip should be executed."
        }
      }
    },
    "events": {
      "_EventToExposeStructInABI__Params((address,uint256))": {
        "params": {
          "params": "Parameters to encode."
        }
      }
    },
    "title": "CheckBalanceLow"
  },
  "id": 179
}