{
  "abi": [
    {
      "inputs": [],
      "stateMutability": "nonpayable",
      "type": "constructor"
    },
    {
      "anonymous": false,
      "inputs": [
        {
          "indexed": true,
          "internalType": "uint256",
          "name": "version",
          "type": "uint256"
        },
        {
          "indexed": true,
          "internalType": "enum SystemConfig.UpdateType",
          "name": "updateType",
          "type": "uint8"
        },
        {
          "indexed": false,
          "internalType": "bytes",
          "name": "data",
          "type": "bytes"
        }
      ],
      "name": "ConfigUpdate",
      "type": "event"
    },
    {
      "anonymous": false,
      "inputs": [
        {
          "indexed": false,
          "internalType": "uint8",
          "name": "version",
          "type": "uint8"
        }
      ],
      "name": "Initialized",
      "type": "event"
    },
    {
      "anonymous": false,
      "inputs": [
        {
          "indexed": true,
          "internalType": "address",
          "name": "previousOwner",
          "type": "address"
        },
        {
          "indexed": true,
          "internalType": "address",
          "name": "newOwner",
          "type": "address"
        }
      ],
      "name": "OwnershipTransferred",
      "type": "event"
    },
    {
      "inputs": [],
      "name": "BATCH_INBOX_SLOT",
      "outputs": [
        {
          "internalType": "bytes32",
          "name": "",
          "type": "bytes32"
        }
      ],
      "stateMutability": "view",
      "type": "function"
    },
    {
      "inputs": [],
      "name": "L1_CROSS_DOMAIN_MESSENGER_SLOT",
      "outputs": [
        {
          "internalType": "bytes32",
          "name": "",
          "type": "bytes32"
        }
      ],
      "stateMutability": "view",
      "type": "function"
    },
    {
      "inputs": [],
      "name": "L1_ERC_721_BRIDGE_SLOT",
      "outputs": [
        {
          "internalType": "bytes32",
          "name": "",
          "type": "bytes32"
        }
      ],
      "stateMutability": "view",
      "type": "function"
    },
    {
      "inputs": [],
      "name": "L1_STANDARD_BRIDGE_SLOT",
      "outputs": [
        {
          "internalType": "bytes32",
          "name": "",
          "type": "bytes32"
        }
      ],
      "stateMutability": "view",
      "type": "function"
    },
    {
      "inputs": [],
      "name": "L2_OUTPUT_ORACLE_SLOT",
      "outputs": [
        {
          "internalType": "bytes32",
          "name": "",
          "type": "bytes32"
        }
      ],
      "stateMutability": "view",
      "type": "function"
    },
    {
      "inputs": [],
      "name": "OPTIMISM_MINTABLE_ERC20_FACTORY_SLOT",
      "outputs": [
        {
          "internalType": "bytes32",
          "name": "",
          "type": "bytes32"
        }
      ],
      "stateMutability": "view",
      "type": "function"
    },
    {
      "inputs": [],
      "name": "OPTIMISM_PORTAL_SLOT",
      "outputs": [
        {
          "internalType": "bytes32",
          "name": "",
          "type": "bytes32"
        }
      ],
      "stateMutability": "view",
      "type": "function"
    },
    {
      "inputs": [],
      "name": "UNSAFE_BLOCK_SIGNER_SLOT",
      "outputs": [
        {
          "internalType": "bytes32",
          "name": "",
          "type": "bytes32"
        }
      ],
      "stateMutability": "view",
      "type": "function"
    },
    {
      "inputs": [],
      "name": "VERSION",
      "outputs": [
        {
          "internalType": "uint256",
          "name": "",
          "type": "uint256"
        }
      ],
      "stateMutability": "view",
      "type": "function"
    },
    {
      "inputs": [],
      "name": "batchInbox",
      "outputs": [
        {
          "internalType": "address",
          "name": "addr_",
          "type": "address"
        }
      ],
      "stateMutability": "view",
      "type": "function"
    },
    {
      "inputs": [],
      "name": "batcherHash",
      "outputs": [
        {
          "internalType": "bytes32",
          "name": "",
          "type": "bytes32"
        }
      ],
      "stateMutability": "view",
      "type": "function"
    },
    {
      "inputs": [],
      "name": "gasLimit",
      "outputs": [
        {
          "internalType": "uint64",
          "name": "",
          "type": "uint64"
        }
      ],
      "stateMutability": "view",
      "type": "function"
    },
    {
      "inputs": [
        {
          "internalType": "address",
          "name": "_owner",
          "type": "address"
        },
        {
          "internalType": "uint256",
          "name": "_overhead",
          "type": "uint256"
        },
        {
          "internalType": "uint256",
          "name": "_scalar",
          "type": "uint256"
        },
        {
          "internalType": "bytes32",
          "name": "_batcherHash",
          "type": "bytes32"
        },
        {
          "internalType": "uint64",
          "name": "_gasLimit",
          "type": "uint64"
        },
        {
          "internalType": "address",
          "name": "_unsafeBlockSigner",
          "type": "address"
        },
        {
          "components": [
            {
              "internalType": "uint32",
              "name": "maxResourceLimit",
              "type": "uint32"
            },
            {
              "internalType": "uint8",
              "name": "elasticityMultiplier",
              "type": "uint8"
            },
            {
              "internalType": "uint8",
              "name": "baseFeeMaxChangeDenominator",
              "type": "uint8"
            },
            {
              "internalType": "uint32",
              "name": "minimumBaseFee",
              "type": "uint32"
            },
            {
              "internalType": "uint32",
              "name": "systemTxMaxGas",
              "type": "uint32"
            },
            {
              "internalType": "uint128",
              "name": "maximumBaseFee",
              "type": "uint128"
            }
          ],
          "internalType": "struct ResourceMetering.ResourceConfig",
          "name": "_config",
          "type": "tuple"
        },
        {
          "internalType": "uint256",
          "name": "_startBlock",
          "type": "uint256"
        },
        {
          "internalType": "address",
          "name": "_batchInbox",
          "type": "address"
        },
        {
          "components": [
            {
              "internalType": "address",
              "name": "l1CrossDomainMessenger",
              "type": "address"
            },
            {
              "internalType": "address",
              "name": "l1ERC721Bridge",
              "type": "address"
            },
            {
              "internalType": "address",
              "name": "l1StandardBridge",
              "type": "address"
            },
            {
              "internalType": "address",
              "name": "l2OutputOracle",
              "type": "address"
            },
            {
              "internalType": "address",
              "name": "optimismPortal",
              "type": "address"
            },
            {
              "internalType": "address",
              "name": "optimismMintableERC20Factory",
              "type": "address"
            }
          ],
          "internalType": "struct SystemConfig.Addresses",
          "name": "_addresses",
          "type": "tuple"
        }
      ],
      "name": "initialize",
      "outputs": [],
      "stateMutability": "nonpayable",
      "type": "function"
    },
    {
      "inputs": [],
      "name": "l1CrossDomainMessenger",
      "outputs": [
        {
          "internalType": "address",
          "name": "addr_",
          "type": "address"
        }
      ],
      "stateMutability": "view",
      "type": "function"
    },
    {
      "inputs": [],
      "name": "l1ERC721Bridge",
      "outputs": [
        {
          "internalType": "address",
          "name": "addr_",
          "type": "address"
        }
      ],
      "stateMutability": "view",
      "type": "function"
    },
    {
      "inputs": [],
      "name": "l1StandardBridge",
      "outputs": [
        {
          "internalType": "address",
          "name": "addr_",
          "type": "address"
        }
      ],
      "stateMutability": "view",
      "type": "function"
    },
    {
      "inputs": [],
      "name": "l2OutputOracle",
      "outputs": [
        {
          "internalType": "address",
          "name": "addr_",
          "type": "address"
        }
      ],
      "stateMutability": "view",
      "type": "function"
    },
    {
      "inputs": [],
      "name": "minimumGasLimit",
      "outputs": [
        {
          "internalType": "uint64",
          "name": "",
          "type": "uint64"
        }
      ],
      "stateMutability": "view",
      "type": "function"
    },
    {
      "inputs": [],
      "name": "optimismMintableERC20Factory",
      "outputs": [
        {
          "internalType": "address",
          "name": "addr_",
          "type": "address"
        }
      ],
      "stateMutability": "view",
      "type": "function"
    },
    {
      "inputs": [],
      "name": "optimismPortal",
      "outputs": [
        {
          "internalType": "address",
          "name": "addr_",
          "type": "address"
        }
      ],
      "stateMutability": "view",
      "type": "function"
    },
    {
      "inputs": [],
      "name": "overhead",
      "outputs": [
        {
          "internalType": "uint256",
          "name": "",
          "type": "uint256"
        }
      ],
      "stateMutability": "view",
      "type": "function"
    },
    {
      "inputs": [],
      "name": "owner",
      "outputs": [
        {
          "internalType": "address",
          "name": "",
          "type": "address"
        }
      ],
      "stateMutability": "view",
      "type": "function"
    },
    {
      "inputs": [],
      "name": "renounceOwnership",
      "outputs": [],
      "stateMutability": "nonpayable",
      "type": "function"
    },
    {
      "inputs": [],
      "name": "resourceConfig",
      "outputs": [
        {
          "components": [
            {
              "internalType": "uint32",
              "name": "maxResourceLimit",
              "type": "uint32"
            },
            {
              "internalType": "uint8",
              "name": "elasticityMultiplier",
              "type": "uint8"
            },
            {
              "internalType": "uint8",
              "name": "baseFeeMaxChangeDenominator",
              "type": "uint8"
            },
            {
              "internalType": "uint32",
              "name": "minimumBaseFee",
              "type": "uint32"
            },
            {
              "internalType": "uint32",
              "name": "systemTxMaxGas",
              "type": "uint32"
            },
            {
              "internalType": "uint128",
              "name": "maximumBaseFee",
              "type": "uint128"
            }
          ],
          "internalType": "struct ResourceMetering.ResourceConfig",
          "name": "",
          "type": "tuple"
        }
      ],
      "stateMutability": "view",
      "type": "function"
    },
    {
      "inputs": [],
      "name": "scalar",
      "outputs": [
        {
          "internalType": "uint256",
          "name": "",
          "type": "uint256"
        }
      ],
      "stateMutability": "view",
      "type": "function"
    },
    {
      "inputs": [
        {
          "internalType": "bytes32",
          "name": "_batcherHash",
          "type": "bytes32"
        }
      ],
      "name": "setBatcherHash",
      "outputs": [],
      "stateMutability": "nonpayable",
      "type": "function"
    },
    {
      "inputs": [
        {
          "internalType": "uint256",
          "name": "_overhead",
          "type": "uint256"
        },
        {
          "internalType": "uint256",
          "name": "_scalar",
          "type": "uint256"
        }
      ],
      "name": "setGasConfig",
      "outputs": [],
      "stateMutability": "nonpayable",
      "type": "function"
    },
    {
      "inputs": [
        {
          "internalType": "uint64",
          "name": "_gasLimit",
          "type": "uint64"
        }
      ],
      "name": "setGasLimit",
      "outputs": [],
      "stateMutability": "nonpayable",
      "type": "function"
    },
    {
      "inputs": [
        {
          "components": [
            {
              "internalType": "uint32",
              "name": "maxResourceLimit",
              "type": "uint32"
            },
            {
              "internalType": "uint8",
              "name": "elasticityMultiplier",
              "type": "uint8"
            },
            {
              "internalType": "uint8",
              "name": "baseFeeMaxChangeDenominator",
              "type": "uint8"
            },
            {
              "internalType": "uint32",
              "name": "minimumBaseFee",
              "type": "uint32"
            },
            {
              "internalType": "uint32",
              "name": "systemTxMaxGas",
              "type": "uint32"
            },
            {
              "internalType": "uint128",
              "name": "maximumBaseFee",
              "type": "uint128"
            }
          ],
          "internalType": "struct ResourceMetering.ResourceConfig",
          "name": "_config",
          "type": "tuple"
        }
      ],
      "name": "setResourceConfig",
      "outputs": [],
      "stateMutability": "nonpayable",
      "type": "function"
    },
    {
      "inputs": [
        {
          "internalType": "address",
          "name": "_unsafeBlockSigner",
          "type": "address"
        }
      ],
      "name": "setUnsafeBlockSigner",
      "outputs": [],
      "stateMutability": "nonpayable",
      "type": "function"
    },
    {
      "inputs": [],
      "name": "startBlock",
      "outputs": [
        {
          "internalType": "uint256",
          "name": "",
          "type": "uint256"
        }
      ],
      "stateMutability": "view",
      "type": "function"
    },
    {
      "inputs": [
        {
          "internalType": "address",
          "name": "newOwner",
          "type": "address"
        }
      ],
      "name": "transferOwnership",
      "outputs": [],
      "stateMutability": "nonpayable",
      "type": "function"
    },
    {
      "inputs": [],
      "name": "unsafeBlockSigner",
      "outputs": [
        {
          "internalType": "address",
          "name": "addr_",
          "type": "address"
        }
      ],
      "stateMutability": "view",
      "type": "function"
    },
    {
      "inputs": [],
      "name": "version",
      "outputs": [
        {
          "internalType": "string",
          "name": "",
          "type": "string"
        }
      ],
      "stateMutability": "view",
      "type": "function"
    }
  ],
  "bytecode": {
    "object": "0x60806040523480156200001157600080fd5b506040805160c080820183526001808352602080840182905260028486015260006060808601829052608080870183905260a08088018490528851968701895283875293860183905296850182905284018190529483018590528201849052620000909361dead93909283928392909183919060001990839062000096565b62000c92565b600054600290610100900460ff16158015620000b9575060005460ff8083169116105b620001225760405162461bcd60e51b815260206004820152602e60248201527f496e697469616c697a61626c653a20636f6e747261637420697320616c72656160448201526d191e481a5b9a5d1a585b1a5e995960921b60648201526084015b60405180910390fd5b6000805461ffff191660ff83161761010017905562000140620003b4565b6200014b8b6200041c565b62000156886200049b565b620001628a8a620004ed565b6200016d8762000551565b6200017886620005ee565b620001ad83620001aa60017f71ac12829d66ee73d8d95bff50b3589745ce57edae70a3fb111a2342464dc59862000b6f565b55565b8151620001e190620001aa60017f383f291819e6d54073bc9a648251d97421076bdd101933c0c022219ce958063762000b6f565b60208201516200021890620001aa60017f46adcbebc6be8ce551740c29c47c8798210f23f7f4086c41752944352568d5a862000b6f565b60408201516200024f90620001aa60017f9904ba90dde5696cda05c9e0dab5cbaa0fea005ace4d11218a02ac668dad637762000b6f565b60608201516200028690620001aa60017fe52a667f71ec761b9b381c7b76ca9b852adf7e8905da0e0ad49986a0a687181662000b6f565b6080820151620002bd90620001aa60017f4b6c74f9e688cb39801f2112c14a8c57232a3fc5202e1444126d4bce86eb19ad62000b6f565b60a0820151620002f490620001aa60017fa04c5bb938ca6fc46d95553abf0a76345ce3e722a30bf4f74928b8e7d852320d62000b6f565b620002ff8462000648565b6200030a85620006d3565b6200031462000a17565b6001600160401b0316876001600160401b03161015620003665760405162461bcd60e51b815260206004820152601f602482015260008051602062002845833981519152604482015260640162000119565b6000805461ff001916905560405160ff821681527f7f26b83ff96e1f2b6a682f133852f6798a09c465da95921460cefb38474024989060200160405180910390a15050505050505050505050565b600054610100900460ff16620004105760405162461bcd60e51b815260206004820152602b60248201526000805160206200288583398151915260448201526a6e697469616c697a696e6760a81b606482015260840162000119565b6200041a62000a44565b565b6200042662000aab565b6001600160a01b0381166200048d5760405162461bcd60e51b815260206004820152602660248201527f4f776e61626c653a206e6577206f776e657220697320746865207a65726f206160448201526564647265737360d01b606482015260840162000119565b620004988162000b07565b50565b60678190556040805160208082018490528251808303909101815290820190915260005b60006000805160206200286583398151915283604051620004e1919062000b89565b60405180910390a35050565b60658290556066819055604080516020810184905290810182905260009060600160408051601f19818403018152919052905060016000600080516020620028658339815191528360405162000544919062000b89565b60405180910390a3505050565b6200055b62000a17565b6001600160401b0316816001600160401b03161015620005ad5760405162461bcd60e51b815260206004820152601f602482015260008051602062002845833981519152604482015260640162000119565b606880546001600160401b0319166001600160401b0383169081179091556040805160208082019390935281518082039093018352810190526002620004bf565b62000617817f65a7ed542fb37fe237fdfbdd70b31598523fe5b32879e307bae27a0bd9581c0855565b604080516001600160a01b03831660208201526000910160408051601f1981840301815291905290506003620004bf565b606a5415620006c05760405162461bcd60e51b815260206004820152603860248201527f53797374656d436f6e6669673a2063616e6e6f74206f7665727269646520616e60448201527f20616c72656164792073657420737461727420626c6f636b0000000000000000606482015260840162000119565b8015620006cc57606a55565b43606a5550565b8060a001516001600160801b0316816060015163ffffffff161115620007625760405162461bcd60e51b815260206004820152603560248201527f53797374656d436f6e6669673a206d696e206261736520666565206d7573742060448201527f6265206c657373207468616e206d617820626173650000000000000000000000606482015260840162000119565b6001816040015160ff1611620007d35760405162461bcd60e51b815260206004820152602f60248201527f53797374656d436f6e6669673a2064656e6f6d696e61746f72206d757374206260448201526e65206c6172676572207468616e203160881b606482015260840162000119565b606854608082015182516001600160401b0390921691620007f5919062000be1565b63ffffffff1611156200083a5760405162461bcd60e51b815260206004820152601f602482015260008051602062002845833981519152604482015260640162000119565b6000816020015160ff1611620008ab5760405162461bcd60e51b815260206004820152602f60248201527f53797374656d436f6e6669673a20656c6173746963697479206d756c7469706c60448201526e06965722063616e6e6f74206265203608c1b606482015260840162000119565b8051602082015163ffffffff82169160ff90911690620008cd90829062000c0c565b620008d9919062000c3e565b63ffffffff1614620009545760405162461bcd60e51b815260206004820152603760248201527f53797374656d436f6e6669673a20707265636973696f6e206c6f73732077697460448201527f6820746172676574207265736f75726365206c696d6974000000000000000000606482015260840162000119565b805160698054602084015160408501516060860151608087015160a09097015163ffffffff96871664ffffffffff199095169490941764010000000060ff948516021764ffffffffff60281b191665010000000000939092169290920263ffffffff60301b19161766010000000000009185169190910217600160501b600160f01b0319166a01000000000000000000009390941692909202600160701b600160f01b03191692909217600160701b6001600160801b0390921691909102179055565b60695460009062000a3f9063ffffffff6a010000000000000000000082048116911662000c6d565b905090565b600054610100900460ff1662000aa05760405162461bcd60e51b815260206004820152602b60248201526000805160206200288583398151915260448201526a6e697469616c697a696e6760a81b606482015260840162000119565b6200041a3362000b07565b6033546001600160a01b031633146200041a5760405162461bcd60e51b815260206004820181905260248201527f4f776e61626c653a2063616c6c6572206973206e6f7420746865206f776e6572604482015260640162000119565b603380546001600160a01b038381166001600160a01b0319831681179093556040519116919082907f8be0079c531659141344cd1fd0a4f28419497f9722a3daafe3b4186f6b6457e090600090a35050565b634e487b7160e01b600052601160045260246000fd5b60008282101562000b845762000b8462000b59565b500390565b600060208083528351808285015260005b8181101562000bb85785810183015185820160400152820162000b9a565b8181111562000bcb576000604083870101525b50601f01601f1916929092016040019392505050565b600063ffffffff80831681851680830382111562000c035762000c0362000b59565b01949350505050565b600063ffffffff8084168062000c3257634e487b7160e01b600052601260045260246000fd5b92169190910492915050565b600063ffffffff8083168185168183048111821515161562000c645762000c6462000b59565b02949350505050565b60006001600160401b0382811684821680830382111562000c035762000c0362000b59565b611ba38062000ca26000396000f3fe608060405234801561001057600080fd5b50600436106102265760003560e01c8063935f029e1161012a578063cc731b02116100bd578063f45e65d81161008c578063f8c68de011610071578063f8c68de014610575578063fd32aa0f1461057d578063ffa1ad741461058557600080fd5b8063f45e65d814610558578063f68016b71461056157600080fd5b8063cc731b0214610400578063dac6e63a14610534578063e81b2c6d1461053c578063f2fde38b1461054557600080fd5b8063bc49ce5f116100f9578063bc49ce5f146103ca578063c4e8ddfa146103d2578063c71973f6146103da578063c9b26f61146103ed57600080fd5b8063935f029e146103945780639b7d7f0a146103a7578063a7119869146103af578063b40a817c146103b757600080fd5b80634add321d116101bd57806354fd4d501161018c57806361d157681161017157806361d1576814610366578063715018a61461036e5780638da5cb5b1461037657600080fd5b806354fd4d50146103155780635d73369c1461035e57600080fd5b80634add321d146102b25780634d9f1559146102d35780634f16540b146102db5780635228a6ac1461030257600080fd5b806318d13918116101f957806318d139181461028457806319f5cea8146102995780631fd19ee1146102a157806348cd4cb1146102a957600080fd5b806306c926571461022b578063078f29cf146102465780630a49cb03146102735780630c18c1621461027b575b600080fd5b61023361058d565b6040519081526020015b60405180910390f35b61024e6105bb565b60405173ffffffffffffffffffffffffffffffffffffffff909116815260200161023d565b61024e6105f4565b61023360655481565b6102976102923660046116d7565b610624565b005b610233610638565b61024e610663565b610233606a5481565b6102ba61068d565b60405167ffffffffffffffff909116815260200161023d565b61024e6106b3565b6102337f65a7ed542fb37fe237fdfbdd70b31598523fe5b32879e307bae27a0bd9581c0881565b610297610310366004611867565b6106e3565b6103516040518060400160405280600581526020017f312e372e3100000000000000000000000000000000000000000000000000000081525081565b60405161023d9190611a0a565b610233610a66565b610233610a91565b610297610abc565b60335473ffffffffffffffffffffffffffffffffffffffff1661024e565b6102976103a2366004611a1d565b610ad0565b61024e610ae6565b61024e610b16565b6102976103c5366004611a3f565b610b46565b610233610b57565b61024e610b82565b6102976103e8366004611a5a565b610bb2565b6102976103fb366004611a76565b610bc3565b6104c46040805160c081018252600080825260208201819052918101829052606081018290526080810182905260a0810191909152506040805160c08101825260695463ffffffff8082168352640100000000820460ff9081166020850152650100000000008304169383019390935266010000000000008104831660608301526a0100000000000000000000810490921660808201526e0100000000000000000000000000009091046fffffffffffffffffffffffffffffffff1660a082015290565b60405161023d9190600060c08201905063ffffffff80845116835260ff602085015116602084015260ff6040850151166040840152806060850151166060840152806080850151166080840152506fffffffffffffffffffffffffffffffff60a08401511660a083015292915050565b61024e610bd4565b61023360675481565b6102976105533660046116d7565b610c04565b61023360665481565b6068546102ba9067ffffffffffffffff1681565b610233610cb8565b610233610ce3565b610233600081565b6105b860017fa04c5bb938ca6fc46d95553abf0a76345ce3e722a30bf4f74928b8e7d852320d611abe565b81565b60006105ef6105eb60017f9904ba90dde5696cda05c9e0dab5cbaa0fea005ace4d11218a02ac668dad6377611abe565b5490565b905090565b60006105ef6105eb60017f4b6c74f9e688cb39801f2112c14a8c57232a3fc5202e1444126d4bce86eb19ad611abe565b61062c610d0e565b61063581610d8f565b50565b6105b860017f46adcbebc6be8ce551740c29c47c8798210f23f7f4086c41752944352568d5a8611abe565b60006105ef7f65a7ed542fb37fe237fdfbdd70b31598523fe5b32879e307bae27a0bd9581c085490565b6069546000906105ef9063ffffffff6a0100000000000000000000820481169116611ad5565b60006105ef6105eb60017fe52a667f71ec761b9b381c7b76ca9b852adf7e8905da0e0ad49986a0a6871816611abe565b600054600290610100900460ff16158015610705575060005460ff8083169116105b610796576040517f08c379a000000000000000000000000000000000000000000000000000000000815260206004820152602e60248201527f496e697469616c697a61626c653a20636f6e747261637420697320616c72656160448201527f647920696e697469616c697a656400000000000000000000000000000000000060648201526084015b60405180910390fd5b600080547fffffffffffffffffffffffffffffffffffffffffffffffffffffffffffff00001660ff8316176101001790556107cf610e4b565b6107d88b610c04565b6107e188610eea565b6107eb8a8a610f12565b6107f487610fa3565b6107fd86610d8f565b61082f8361082c60017f71ac12829d66ee73d8d95bff50b3589745ce57edae70a3fb111a2342464dc598611abe565b55565b81516108609061082c60017f383f291819e6d54073bc9a648251d97421076bdd101933c0c022219ce9580637611abe565b60208201516108949061082c60017f46adcbebc6be8ce551740c29c47c8798210f23f7f4086c41752944352568d5a8611abe565b60408201516108c89061082c60017f9904ba90dde5696cda05c9e0dab5cbaa0fea005ace4d11218a02ac668dad6377611abe565b60608201516108fc9061082c60017fe52a667f71ec761b9b381c7b76ca9b852adf7e8905da0e0ad49986a0a6871816611abe565b60808201516109309061082c60017f4b6c74f9e688cb39801f2112c14a8c57232a3fc5202e1444126d4bce86eb19ad611abe565b60a08201516109649061082c60017fa04c5bb938ca6fc46d95553abf0a76345ce3e722a30bf4f74928b8e7d852320d611abe565b61096d84611081565b61097685611123565b61097e61068d565b67ffffffffffffffff168767ffffffffffffffff1610156109fb576040517f08c379a000000000000000000000000000000000000000000000000000000000815260206004820152601f60248201527f53797374656d436f6e6669673a20676173206c696d697420746f6f206c6f7700604482015260640161078d565b600080547fffffffffffffffffffffffffffffffffffffffffffffffffffffffffffff00ff16905560405160ff821681527f7f26b83ff96e1f2b6a682f133852f6798a09c465da95921460cefb38474024989060200160405180910390a15050505050505050505050565b6105b860017f383f291819e6d54073bc9a648251d97421076bdd101933c0c022219ce9580637611abe565b6105b860017fe52a667f71ec761b9b381c7b76ca9b852adf7e8905da0e0ad49986a0a6871816611abe565b610ac4610d0e565b610ace6000611597565b565b610ad8610d0e565b610ae28282610f12565b5050565b60006105ef6105eb60017fa04c5bb938ca6fc46d95553abf0a76345ce3e722a30bf4f74928b8e7d852320d611abe565b60006105ef6105eb60017f383f291819e6d54073bc9a648251d97421076bdd101933c0c022219ce9580637611abe565b610b4e610d0e565b61063581610fa3565b6105b860017f71ac12829d66ee73d8d95bff50b3589745ce57edae70a3fb111a2342464dc598611abe565b60006105ef6105eb60017f46adcbebc6be8ce551740c29c47c8798210f23f7f4086c41752944352568d5a8611abe565b610bba610d0e565b61063581611123565b610bcb610d0e565b61063581610eea565b60006105ef6105eb60017f71ac12829d66ee73d8d95bff50b3589745ce57edae70a3fb111a2342464dc598611abe565b610c0c610d0e565b73ffffffffffffffffffffffffffffffffffffffff8116610caf576040517f08c379a000000000000000000000000000000000000000000000000000000000815260206004820152602660248201527f4f776e61626c653a206e6577206f776e657220697320746865207a65726f206160448201527f6464726573730000000000000000000000000000000000000000000000000000606482015260840161078d565b61063581611597565b6105b860017f9904ba90dde5696cda05c9e0dab5cbaa0fea005ace4d11218a02ac668dad6377611abe565b6105b860017f4b6c74f9e688cb39801f2112c14a8c57232a3fc5202e1444126d4bce86eb19ad611abe565b60335473ffffffffffffffffffffffffffffffffffffffff163314610ace576040517f08c379a000000000000000000000000000000000000000000000000000000000815260206004820181905260248201527f4f776e61626c653a2063616c6c6572206973206e6f7420746865206f776e6572604482015260640161078d565b610db7817f65a7ed542fb37fe237fdfbdd70b31598523fe5b32879e307bae27a0bd9581c0855565b6040805173ffffffffffffffffffffffffffffffffffffffff8316602082015260009101604080517fffffffffffffffffffffffffffffffffffffffffffffffffffffffffffffffe0818403018152919052905060035b60007f1d2b0bda21d56b8bd12d4f94ebacffdfb35f5e226f84b461103bb8beab6353be83604051610e3f9190611a0a565b60405180910390a35050565b600054610100900460ff16610ee2576040517f08c379a000000000000000000000000000000000000000000000000000000000815260206004820152602b60248201527f496e697469616c697a61626c653a20636f6e7472616374206973206e6f74206960448201527f6e697469616c697a696e67000000000000000000000000000000000000000000606482015260840161078d565b610ace61160e565b6067819055604080516020808201849052825180830390910181529082019091526000610e0e565b606582905560668190556040805160208101849052908101829052600090606001604080517fffffffffffffffffffffffffffffffffffffffffffffffffffffffffffffffe08184030181529190529050600160007f1d2b0bda21d56b8bd12d4f94ebacffdfb35f5e226f84b461103bb8beab6353be83604051610f969190611a0a565b60405180910390a3505050565b610fab61068d565b67ffffffffffffffff168167ffffffffffffffff161015611028576040517f08c379a000000000000000000000000000000000000000000000000000000000815260206004820152601f60248201527f53797374656d436f6e6669673a20676173206c696d697420746f6f206c6f7700604482015260640161078d565b606880547fffffffffffffffffffffffffffffffffffffffffffffffff00000000000000001667ffffffffffffffff83169081179091556040805160208082019390935281518082039093018352810190526002610e0e565b606a5415611111576040517f08c379a000000000000000000000000000000000000000000000000000000000815260206004820152603860248201527f53797374656d436f6e6669673a2063616e6e6f74206f7665727269646520616e60448201527f20616c72656164792073657420737461727420626c6f636b0000000000000000606482015260840161078d565b801561111c57606a55565b43606a5550565b8060a001516fffffffffffffffffffffffffffffffff16816060015163ffffffff1611156111d3576040517f08c379a000000000000000000000000000000000000000000000000000000000815260206004820152603560248201527f53797374656d436f6e6669673a206d696e206261736520666565206d7573742060448201527f6265206c657373207468616e206d617820626173650000000000000000000000606482015260840161078d565b6001816040015160ff161161126a576040517f08c379a000000000000000000000000000000000000000000000000000000000815260206004820152602f60248201527f53797374656d436f6e6669673a2064656e6f6d696e61746f72206d757374206260448201527f65206c6172676572207468616e20310000000000000000000000000000000000606482015260840161078d565b6068546080820151825167ffffffffffffffff9092169161128b9190611b01565b63ffffffff1611156112f9576040517f08c379a000000000000000000000000000000000000000000000000000000000815260206004820152601f60248201527f53797374656d436f6e6669673a20676173206c696d697420746f6f206c6f7700604482015260640161078d565b6000816020015160ff1611611390576040517f08c379a000000000000000000000000000000000000000000000000000000000815260206004820152602f60248201527f53797374656d436f6e6669673a20656c6173746963697479206d756c7469706c60448201527f6965722063616e6e6f7420626520300000000000000000000000000000000000606482015260840161078d565b8051602082015163ffffffff82169160ff909116906113b0908290611b20565b6113ba9190611b6a565b63ffffffff161461144d576040517f08c379a000000000000000000000000000000000000000000000000000000000815260206004820152603760248201527f53797374656d436f6e6669673a20707265636973696f6e206c6f73732077697460448201527f6820746172676574207265736f75726365206c696d6974000000000000000000606482015260840161078d565b805160698054602084015160408501516060860151608087015160a09097015163ffffffff9687167fffffffffffffffffffffffffffffffffffffffffffffffffffffff00000000009095169490941764010000000060ff94851602177fffffffffffffffffffffffffffffffffffffffffffff0000000000ffffffffff166501000000000093909216929092027fffffffffffffffffffffffffffffffffffffffffffff00000000ffffffffffff1617660100000000000091851691909102177fffff0000000000000000000000000000000000000000ffffffffffffffffffff166a010000000000000000000093909416929092027fffff00000000000000000000000000000000ffffffffffffffffffffffffffff16929092176e0100000000000000000000000000006fffffffffffffffffffffffffffffffff90921691909102179055565b6033805473ffffffffffffffffffffffffffffffffffffffff8381167fffffffffffffffffffffffff0000000000000000000000000000000000000000831681179093556040519116919082907f8be0079c531659141344cd1fd0a4f28419497f9722a3daafe3b4186f6b6457e090600090a35050565b600054610100900460ff166116a5576040517f08c379a000000000000000000000000000000000000000000000000000000000815260206004820152602b60248201527f496e697469616c697a61626c653a20636f6e7472616374206973206e6f74206960448201527f6e697469616c697a696e67000000000000000000000000000000000000000000606482015260840161078d565b610ace33611597565b803573ffffffffffffffffffffffffffffffffffffffff811681146116d257600080fd5b919050565b6000602082840312156116e957600080fd5b6116f2826116ae565b9392505050565b803567ffffffffffffffff811681146116d257600080fd5b60405160c0810167ffffffffffffffff8111828210171561175b577f4e487b7100000000000000000000000000000000000000000000000000000000600052604160045260246000fd5b60405290565b803563ffffffff811681146116d257600080fd5b803560ff811681146116d257600080fd5b600060c0828403121561179857600080fd5b60405160c0810181811067ffffffffffffffff821117156117e2577f4e487b7100000000000000000000000000000000000000000000000000000000600052604160045260246000fd5b6040529050806117f183611761565b81526117ff60208401611775565b602082015261181060408401611775565b604082015261182160608401611761565b606082015261183260808401611761565b608082015260a08301356fffffffffffffffffffffffffffffffff8116811461185a57600080fd5b60a0919091015292915050565b6000806000806000806000806000808a8c0361028081121561188857600080fd5b6118918c6116ae565b9a5060208c0135995060408c0135985060608c013597506118b460808d016116f9565b96506118c260a08d016116ae565b95506118d18d60c08e01611786565b94506101808c013593506118e86101a08d016116ae565b925060c07ffffffffffffffffffffffffffffffffffffffffffffffffffffffffffffffe408201121561191a57600080fd5b50611923611711565b6119306101c08d016116ae565b815261193f6101e08d016116ae565b60208201526119516102008d016116ae565b60408201526119636102208d016116ae565b60608201526119756102408d016116ae565b60808201526119876102608d016116ae565b60a0820152809150509295989b9194979a5092959850565b6000815180845260005b818110156119c5576020818501810151868301820152016119a9565b818111156119d7576000602083870101525b50601f017fffffffffffffffffffffffffffffffffffffffffffffffffffffffffffffffe0169290920160200192915050565b6020815260006116f2602083018461199f565b60008060408385031215611a3057600080fd5b50508035926020909101359150565b600060208284031215611a5157600080fd5b6116f2826116f9565b600060c08284031215611a6c57600080fd5b6116f28383611786565b600060208284031215611a8857600080fd5b5035919050565b7f4e487b7100000000000000000000000000000000000000000000000000000000600052601160045260246000fd5b600082821015611ad057611ad0611a8f565b500390565b600067ffffffffffffffff808316818516808303821115611af857611af8611a8f565b01949350505050565b600063ffffffff808316818516808303821115611af857611af8611a8f565b600063ffffffff80841680611b5e577f4e487b7100000000000000000000000000000000000000000000000000000000600052601260045260246000fd5b92169190910492915050565b600063ffffffff80831681851681830481118215151615611b8d57611b8d611a8f565b0294935050505056fea164736f6c634300080f000a53797374656d436f6e6669673a20676173206c696d697420746f6f206c6f77001d2b0bda21d56b8bd12d4f94ebacffdfb35f5e226f84b461103bb8beab6353be496e697469616c697a61626c653a20636f6e7472616374206973206e6f742069",
    "linkReferences": {}
  },
  "methodIdentifiers": {
    "BATCH_INBOX_SLOT()": "bc49ce5f",
    "L1_CROSS_DOMAIN_MESSENGER_SLOT()": "5d73369c",
    "L1_ERC_721_BRIDGE_SLOT()": "19f5cea8",
    "L1_STANDARD_BRIDGE_SLOT()": "f8c68de0",
    "L2_OUTPUT_ORACLE_SLOT()": "61d15768",
    "OPTIMISM_MINTABLE_ERC20_FACTORY_SLOT()": "06c92657",
    "OPTIMISM_PORTAL_SLOT()": "fd32aa0f",
    "UNSAFE_BLOCK_SIGNER_SLOT()": "4f16540b",
    "VERSION()": "ffa1ad74",
    "batchInbox()": "dac6e63a",
    "batcherHash()": "e81b2c6d",
    "gasLimit()": "f68016b7",
    "initialize(address,uint256,uint256,bytes32,uint64,address,(uint32,uint8,uint8,uint32,uint32,uint128),uint256,address,(address,address,address,address,address,address))": "5228a6ac",
    "l1CrossDomainMessenger()": "a7119869",
    "l1ERC721Bridge()": "c4e8ddfa",
    "l1StandardBridge()": "078f29cf",
    "l2OutputOracle()": "4d9f1559",
    "minimumGasLimit()": "4add321d",
    "optimismMintableERC20Factory()": "9b7d7f0a",
    "optimismPortal()": "0a49cb03",
    "overhead()": "0c18c162",
    "owner()": "8da5cb5b",
    "renounceOwnership()": "715018a6",
    "resourceConfig()": "cc731b02",
    "scalar()": "f45e65d8",
    "setBatcherHash(bytes32)": "c9b26f61",
    "setGasConfig(uint256,uint256)": "935f029e",
    "setGasLimit(uint64)": "b40a817c",
    "setResourceConfig((uint32,uint8,uint8,uint32,uint32,uint128))": "c71973f6",
    "setUnsafeBlockSigner(address)": "18d13918",
    "startBlock()": "48cd4cb1",
    "transferOwnership(address)": "f2fde38b",
    "unsafeBlockSigner()": "1fd19ee1",
    "version()": "54fd4d50"
  },
  "storageLayout": {
    "storage": [
      {
        "astId": 29536,
        "contract": "src/L1/SystemConfig.sol:SystemConfig",
        "label": "_initialized",
        "offset": 0,
        "slot": "0",
        "type": "t_uint8"
      },
      {
        "astId": 29539,
        "contract": "src/L1/SystemConfig.sol:SystemConfig",
        "label": "_initializing",
        "offset": 1,
        "slot": "0",
        "type": "t_bool"
      },
      {
        "astId": 31067,
        "contract": "src/L1/SystemConfig.sol:SystemConfig",
        "label": "__gap",
        "offset": 0,
        "slot": "1",
        "type": "t_array(t_uint256)50_storage"
      },
      {
        "astId": 29408,
        "contract": "src/L1/SystemConfig.sol:SystemConfig",
        "label": "_owner",
        "offset": 0,
        "slot": "51",
        "type": "t_address"
      },
      {
        "astId": 29528,
        "contract": "src/L1/SystemConfig.sol:SystemConfig",
        "label": "__gap",
        "offset": 0,
        "slot": "52",
        "type": "t_array(t_uint256)49_storage"
      },
      {
        "astId": 61128,
        "contract": "src/L1/SystemConfig.sol:SystemConfig",
        "label": "overhead",
        "offset": 0,
        "slot": "101",
        "type": "t_uint256"
      },
      {
        "astId": 61131,
        "contract": "src/L1/SystemConfig.sol:SystemConfig",
        "label": "scalar",
        "offset": 0,
        "slot": "102",
        "type": "t_uint256"
      },
      {
        "astId": 61134,
        "contract": "src/L1/SystemConfig.sol:SystemConfig",
        "label": "batcherHash",
        "offset": 0,
        "slot": "103",
        "type": "t_bytes32"
      },
      {
        "astId": 61137,
        "contract": "src/L1/SystemConfig.sol:SystemConfig",
        "label": "gasLimit",
        "offset": 0,
        "slot": "104",
        "type": "t_uint64"
      },
      {
        "astId": 61141,
        "contract": "src/L1/SystemConfig.sol:SystemConfig",
        "label": "_resourceConfig",
        "offset": 0,
        "slot": "105",
        "type": "t_struct(ResourceConfig)60670_storage"
      },
      {
        "astId": 61154,
        "contract": "src/L1/SystemConfig.sol:SystemConfig",
        "label": "startBlock",
        "offset": 0,
        "slot": "106",
        "type": "t_uint256"
      }
    ],
    "types": {
      "t_address": {
        "encoding": "inplace",
        "label": "address",
        "numberOfBytes": "20"
      },
      "t_array(t_uint256)49_storage": {
        "encoding": "inplace",
        "label": "uint256[49]",
        "numberOfBytes": "1568",
        "base": "t_uint256"
      },
      "t_array(t_uint256)50_storage": {
        "encoding": "inplace",
        "label": "uint256[50]",
        "numberOfBytes": "1600",
        "base": "t_uint256"
      },
      "t_bool": {
        "encoding": "inplace",
        "label": "bool",
        "numberOfBytes": "1"
      },
      "t_bytes32": {
        "encoding": "inplace",
        "label": "bytes32",
        "numberOfBytes": "32"
      },
      "t_struct(ResourceConfig)60670_storage": {
        "encoding": "inplace",
        "label": "struct ResourceMetering.ResourceConfig",
        "numberOfBytes": "32",
        "members": [
          {
            "astId": 60659,
            "contract": "src/L1/SystemConfig.sol:SystemConfig",
            "label": "maxResourceLimit",
            "offset": 0,
            "slot": "0",
            "type": "t_uint32"
          },
          {
            "astId": 60661,
            "contract": "src/L1/SystemConfig.sol:SystemConfig",
            "label": "elasticityMultiplier",
            "offset": 4,
            "slot": "0",
            "type": "t_uint8"
          },
          {
            "astId": 60663,
            "contract": "src/L1/SystemConfig.sol:SystemConfig",
            "label": "baseFeeMaxChangeDenominator",
            "offset": 5,
            "slot": "0",
            "type": "t_uint8"
          },
          {
            "astId": 60665,
            "contract": "src/L1/SystemConfig.sol:SystemConfig",
            "label": "minimumBaseFee",
            "offset": 6,
            "slot": "0",
            "type": "t_uint32"
          },
          {
            "astId": 60667,
            "contract": "src/L1/SystemConfig.sol:SystemConfig",
            "label": "systemTxMaxGas",
            "offset": 10,
            "slot": "0",
            "type": "t_uint32"
          },
          {
            "astId": 60669,
            "contract": "src/L1/SystemConfig.sol:SystemConfig",
            "label": "maximumBaseFee",
            "offset": 14,
            "slot": "0",
            "type": "t_uint128"
          }
        ]
      },
      "t_uint128": {
        "encoding": "inplace",
        "label": "uint128",
        "numberOfBytes": "16"
      },
      "t_uint256": {
        "encoding": "inplace",
        "label": "uint256",
        "numberOfBytes": "32"
      },
      "t_uint32": {
        "encoding": "inplace",
        "label": "uint32",
        "numberOfBytes": "4"
      },
      "t_uint64": {
        "encoding": "inplace",
        "label": "uint64",
        "numberOfBytes": "8"
      },
      "t_uint8": {
        "encoding": "inplace",
        "label": "uint8",
        "numberOfBytes": "1"
      }
    }
  },
  "userdoc": {
    "version": 1,
    "kind": "user",
    "methods": {
      "BATCH_INBOX_SLOT()": {
        "notice": "Storage slot that the batch inbox address is stored at."
      },
      "L1_CROSS_DOMAIN_MESSENGER_SLOT()": {
        "notice": "Storage slot that the L1CrossDomainMessenger address is stored at."
      },
      "L1_ERC_721_BRIDGE_SLOT()": {
        "notice": "Storage slot that the L1ERC721Bridge address is stored at."
      },
      "L1_STANDARD_BRIDGE_SLOT()": {
        "notice": "Storage slot that the L1StandardBridge address is stored at."
      },
      "L2_OUTPUT_ORACLE_SLOT()": {
        "notice": "Storage slot that the L2OutputOracle address is stored at."
      },
      "OPTIMISM_MINTABLE_ERC20_FACTORY_SLOT()": {
        "notice": "Storage slot that the OptimismMintableERC20Factory address is stored at."
      },
      "OPTIMISM_PORTAL_SLOT()": {
        "notice": "Storage slot that the OptimismPortal address is stored at."
      },
      "UNSAFE_BLOCK_SIGNER_SLOT()": {
        "notice": "Storage slot that the unsafe block signer is stored at.         Storing it at this deterministic storage slot allows for decoupling the storage         layout from the way that `solc` lays out storage. The `op-node` uses a storage         proof to fetch this value."
      },
      "VERSION()": {
        "notice": "Version identifier, used for upgrades."
      },
      "batchInbox()": {
        "notice": "Getter for the BatchInbox address."
      },
      "batcherHash()": {
        "notice": "Identifier for the batcher.         For version 1 of this configuration, this is represented as an address left-padded         with zeros to 32 bytes."
      },
      "constructor": {
        "notice": "Constructs the SystemConfig contract. Cannot set         the owner to `address(0)` due to the Ownable contract's         implementation, so set it to `address(0xdEaD)`"
      },
      "gasLimit()": {
        "notice": "L2 block gas limit."
      },
      "initialize(address,uint256,uint256,bytes32,uint64,address,(uint32,uint8,uint8,uint32,uint32,uint128),uint256,address,(address,address,address,address,address,address))": {
        "notice": "Initializer.         The resource config must be set before the require check."
      },
      "l1CrossDomainMessenger()": {
        "notice": "Getter for the L1CrossDomainMessenger address."
      },
      "l1ERC721Bridge()": {
        "notice": "Getter for the L1ERC721Bridge address."
      },
      "l1StandardBridge()": {
        "notice": "Getter for the L1StandardBridge address."
      },
      "l2OutputOracle()": {
        "notice": "Getter for the L2OutputOracle address."
      },
      "minimumGasLimit()": {
        "notice": "Returns the minimum L2 gas limit that can be safely set for the system to         operate. The L2 gas limit must be larger than or equal to the amount of         gas that is allocated for deposits per block plus the amount of gas that         is allocated for the system transaction.         This function is used to determine if changes to parameters are safe."
      },
      "optimismMintableERC20Factory()": {
        "notice": "Getter for the OptimismMintableERC20Factory address."
      },
      "optimismPortal()": {
        "notice": "Getter for the OptimismPortal address."
      },
      "overhead()": {
        "notice": "Fixed L2 gas overhead. Used as part of the L2 fee calculation."
      },
      "resourceConfig()": {
        "notice": "A getter for the resource config.         Ensures that the struct is returned instead of a tuple."
      },
      "scalar()": {
        "notice": "Dynamic L2 gas overhead. Used as part of the L2 fee calculation."
      },
      "setBatcherHash(bytes32)": {
        "notice": "Updates the batcher hash. Can only be called by the owner."
      },
      "setGasConfig(uint256,uint256)": {
        "notice": "Updates gas config. Can only be called by the owner."
      },
      "setGasLimit(uint64)": {
        "notice": "Updates the L2 gas limit. Can only be called by the owner."
      },
      "setResourceConfig((uint32,uint8,uint8,uint32,uint32,uint128))": {
        "notice": "An external setter for the resource config.         In the future, this method may emit an event that the `op-node` picks up         for when the resource config is changed."
      },
      "setUnsafeBlockSigner(address)": {
        "notice": "Updates the unsafe block signer address. Can only be called by the owner."
      },
      "startBlock()": {
        "notice": "The block at which the op-node can start searching for logs from."
      },
      "unsafeBlockSigner()": {
        "notice": "High level getter for the unsafe block signer address.         Unsafe blocks can be propagated across the p2p network if they are signed by the         key corresponding to this address."
      },
      "version()": {
        "notice": "Semantic version."
      }
    },
    "events": {
      "ConfigUpdate(uint256,uint8,bytes)": {
        "notice": "Emitted when configuration is updated."
      }
    },
    "notice": "The SystemConfig contract is used to manage configuration of an Optimism network.         All configuration is stored on L1 and picked up by L2 as part of the derviation of         the L2 chain."
  },
  "devdoc": {
    "version": 1,
    "kind": "dev",
    "methods": {
      "initialize(address,uint256,uint256,bytes32,uint64,address,(uint32,uint8,uint8,uint32,uint32,uint128),uint256,address,(address,address,address,address,address,address))": {
        "params": {
          "_addresses": "Set of L1 contract addresses. These should be the proxies.",
          "_batchInbox": "Batch inbox address. An identifier for the op-node to find                           canonical data.",
          "_batcherHash": "Initial batcher hash.",
          "_config": "Initial ResourceConfig.",
          "_gasLimit": "Initial gas limit.",
          "_overhead": "Initial overhead value.",
          "_owner": "Initial owner of the contract.",
          "_scalar": "Initial scalar value.",
          "_startBlock": "Starting block for the op-node to search for logs from.                           Contracts that were deployed before this field existed                           need to have this field set manually via an override.                           Newly deployed contracts should set this value to uint256(0).",
          "_unsafeBlockSigner": "Initial unsafe block signer address."
        }
      },
      "minimumGasLimit()": {
        "returns": {
          "_0": "uint64 Minimum gas limit."
        }
      },
      "owner()": {
        "details": "Returns the address of the current owner."
      },
      "renounceOwnership()": {
        "details": "Leaves the contract without owner. It will not be possible to call `onlyOwner` functions anymore. Can only be called by the current owner. NOTE: Renouncing ownership will leave the contract without an owner, thereby removing any functionality that is only available to the owner."
      },
      "resourceConfig()": {
        "returns": {
          "_0": "ResourceConfig"
        }
      },
      "setBatcherHash(bytes32)": {
        "params": {
          "_batcherHash": "New batcher hash."
        }
      },
      "setGasConfig(uint256,uint256)": {
        "params": {
          "_overhead": "New overhead value.",
          "_scalar": "New scalar value."
        }
      },
      "setGasLimit(uint64)": {
        "params": {
          "_gasLimit": "New gas limit."
        }
      },
      "setResourceConfig((uint32,uint8,uint8,uint32,uint32,uint128))": {
        "params": {
          "_config": "The new resource config values."
        }
      },
      "setUnsafeBlockSigner(address)": {
        "params": {
          "_unsafeBlockSigner": "New unsafe block signer address."
        }
      },
      "transferOwnership(address)": {
        "details": "Transfers ownership of the contract to a new account (`newOwner`). Can only be called by the current owner."
      },
      "unsafeBlockSigner()": {
        "returns": {
          "addr_": "Address of the unsafe block signer."
        }
      }
    },
    "events": {
      "ConfigUpdate(uint256,uint8,bytes)": {
        "params": {
          "data": "Encoded update data.",
          "updateType": "Type of update.",
          "version": "SystemConfig version."
        }
      }
    },
    "title": "SystemConfig"
  },
  "id": 115
}