{
  "abi": [
    {
      "inputs": [
        {
          "internalType": "address",
          "name": "_otherBridge",
          "type": "address"
        }
      ],
      "stateMutability": "nonpayable",
      "type": "constructor"
    },
    {
      "anonymous": false,
      "inputs": [
        {
          "indexed": true,
          "internalType": "address",
          "name": "localToken",
          "type": "address"
        },
        {
          "indexed": true,
          "internalType": "address",
          "name": "remoteToken",
          "type": "address"
        },
        {
          "indexed": true,
          "internalType": "address",
          "name": "from",
          "type": "address"
        },
        {
          "indexed": false,
          "internalType": "address",
          "name": "to",
          "type": "address"
        },
        {
          "indexed": false,
          "internalType": "uint256",
          "name": "tokenId",
          "type": "uint256"
        },
        {
          "indexed": false,
          "internalType": "bytes",
          "name": "extraData",
          "type": "bytes"
        }
      ],
      "name": "ERC721BridgeFinalized",
      "type": "event"
    },
    {
      "anonymous": false,
      "inputs": [
        {
          "indexed": true,
          "internalType": "address",
          "name": "localToken",
          "type": "address"
        },
        {
          "indexed": true,
          "internalType": "address",
          "name": "remoteToken",
          "type": "address"
        },
        {
          "indexed": true,
          "internalType": "address",
          "name": "from",
          "type": "address"
        },
        {
          "indexed": false,
          "internalType": "address",
          "name": "to",
          "type": "address"
        },
        {
          "indexed": false,
          "internalType": "uint256",
          "name": "tokenId",
          "type": "uint256"
        },
        {
          "indexed": false,
          "internalType": "bytes",
          "name": "extraData",
          "type": "bytes"
        }
      ],
      "name": "ERC721BridgeInitiated",
      "type": "event"
    },
    {
      "anonymous": false,
      "inputs": [
        {
          "indexed": false,
          "internalType": "uint8",
          "name": "version",
          "type": "uint8"
        }
      ],
      "name": "Initialized",
      "type": "event"
    },
    {
      "inputs": [],
      "name": "MESSENGER",
      "outputs": [
        {
          "internalType": "contract CrossDomainMessenger",
          "name": "",
          "type": "address"
        }
      ],
      "stateMutability": "view",
      "type": "function"
    },
    {
      "inputs": [],
      "name": "OTHER_BRIDGE",
      "outputs": [
        {
          "internalType": "address",
          "name": "",
          "type": "address"
        }
      ],
      "stateMutability": "view",
      "type": "function"
    },
    {
      "inputs": [
        {
          "internalType": "address",
          "name": "_localToken",
          "type": "address"
        },
        {
          "internalType": "address",
          "name": "_remoteToken",
          "type": "address"
        },
        {
          "internalType": "uint256",
          "name": "_tokenId",
          "type": "uint256"
        },
        {
          "internalType": "uint32",
          "name": "_minGasLimit",
          "type": "uint32"
        },
        {
          "internalType": "bytes",
          "name": "_extraData",
          "type": "bytes"
        }
      ],
      "name": "bridgeERC721",
      "outputs": [],
      "stateMutability": "nonpayable",
      "type": "function"
    },
    {
      "inputs": [
        {
          "internalType": "address",
          "name": "_localToken",
          "type": "address"
        },
        {
          "internalType": "address",
          "name": "_remoteToken",
          "type": "address"
        },
        {
          "internalType": "address",
          "name": "_to",
          "type": "address"
        },
        {
          "internalType": "uint256",
          "name": "_tokenId",
          "type": "uint256"
        },
        {
          "internalType": "uint32",
          "name": "_minGasLimit",
          "type": "uint32"
        },
        {
          "internalType": "bytes",
          "name": "_extraData",
          "type": "bytes"
        }
      ],
      "name": "bridgeERC721To",
      "outputs": [],
      "stateMutability": "nonpayable",
      "type": "function"
    },
    {
      "inputs": [
        {
          "internalType": "address",
          "name": "_localToken",
          "type": "address"
        },
        {
          "internalType": "address",
          "name": "_remoteToken",
          "type": "address"
        },
        {
          "internalType": "address",
          "name": "_from",
          "type": "address"
        },
        {
          "internalType": "address",
          "name": "_to",
          "type": "address"
        },
        {
          "internalType": "uint256",
          "name": "_tokenId",
          "type": "uint256"
        },
        {
          "internalType": "bytes",
          "name": "_extraData",
          "type": "bytes"
        }
      ],
      "name": "finalizeBridgeERC721",
      "outputs": [],
      "stateMutability": "nonpayable",
      "type": "function"
    },
    {
      "inputs": [
        {
          "internalType": "contract CrossDomainMessenger",
          "name": "_messenger",
          "type": "address"
        }
      ],
      "name": "initialize",
      "outputs": [],
      "stateMutability": "nonpayable",
      "type": "function"
    },
    {
      "inputs": [],
      "name": "messenger",
      "outputs": [
        {
          "internalType": "contract CrossDomainMessenger",
          "name": "",
          "type": "address"
        }
      ],
      "stateMutability": "view",
      "type": "function"
    },
    {
      "inputs": [],
      "name": "otherBridge",
      "outputs": [
        {
          "internalType": "address",
          "name": "",
          "type": "address"
        }
      ],
      "stateMutability": "view",
      "type": "function"
    },
    {
      "inputs": [],
      "name": "version",
      "outputs": [
        {
          "internalType": "string",
          "name": "",
          "type": "string"
        }
      ],
      "stateMutability": "view",
      "type": "function"
    }
  ],
  "bytecode": {
    "object": "0x60a06040523480156200001157600080fd5b506040516200187f3803806200187f83398101604081905262000034916200024b565b806001600160a01b038116620000a95760405162461bcd60e51b815260206004820152602f60248201527f4552433732314272696467653a206f74686572206272696467652063616e6e6f60448201526e74206265206164647265737328302960881b60648201526084015b60405180910390fd5b6001600160a01b0316608052620000c16000620000c8565b506200027d565b600054600290610100900460ff16158015620000eb575060005460ff8083169116105b620001505760405162461bcd60e51b815260206004820152602e60248201527f496e697469616c697a61626c653a20636f6e747261637420697320616c72656160448201526d191e481a5b9a5d1a585b1a5e995960921b6064820152608401620000a0565b6000805461ffff191660ff8316176101001790556200016f82620001b4565b6000805461ff001916905560405160ff821681527f7f26b83ff96e1f2b6a682f133852f6798a09c465da95921460cefb38474024989060200160405180910390a15050565b600054610100900460ff16620002215760405162461bcd60e51b815260206004820152602b60248201527f496e697469616c697a61626c653a20636f6e7472616374206973206e6f74206960448201526a6e697469616c697a696e6760a81b6064820152608401620000a0565b600080546001600160a01b03909216620100000262010000600160b01b0319909216919091179055565b6000602082840312156200025e57600080fd5b81516001600160a01b03811681146200027657600080fd5b9392505050565b6080516115d1620002ae6000396000818161016e015281816101dc015281816102d60152610ea101526115d16000f3fe608060405234801561001057600080fd5b50600436106100a35760003560e01c80637f46ddb211610076578063aa5574521161005b578063aa557452146101b4578063c4d66de8146101c7578063c89701a2146101da57600080fd5b80637f46ddb214610169578063927ede2d1461019057600080fd5b80633687011a146100a85780633cb747bf146100bd57806354fd4d501461010d578063761f449314610156575b600080fd5b6100bb6100b636600461124f565b610200565b005b6000546100e39062010000900473ffffffffffffffffffffffffffffffffffffffff1681565b60405173ffffffffffffffffffffffffffffffffffffffff90911681526020015b60405180910390f35b6101496040518060400160405280600581526020017f312e332e3000000000000000000000000000000000000000000000000000000081525081565b604051610104919061133d565b6100bb610164366004611350565b6102ac565b6100e37f000000000000000000000000000000000000000000000000000000000000000081565b60005462010000900473ffffffffffffffffffffffffffffffffffffffff166100e3565b6100bb6101c23660046113e8565b6107fd565b6100bb6101d536600461145f565b6108b9565b7f00000000000000000000000000000000000000000000000000000000000000006100e3565b333b15610294576040517f08c379a000000000000000000000000000000000000000000000000000000000815260206004820152602d60248201527f4552433732314272696467653a206163636f756e74206973206e6f742065787460448201527f65726e616c6c79206f776e65640000000000000000000000000000000000000060648201526084015b60405180910390fd5b6102a48686333388888888610a03565b505050505050565b60005462010000900473ffffffffffffffffffffffffffffffffffffffff16331480156103b457507f000000000000000000000000000000000000000000000000000000000000000073ffffffffffffffffffffffffffffffffffffffff16600060029054906101000a900473ffffffffffffffffffffffffffffffffffffffff1673ffffffffffffffffffffffffffffffffffffffff16636e296e456040518163ffffffff1660e01b8152600401602060405180830381865afa158015610378573d6000803e3d6000fd5b505050506040513d601f19601f8201168201806040525081019061039c919061147c565b73ffffffffffffffffffffffffffffffffffffffff16145b610440576040517f08c379a000000000000000000000000000000000000000000000000000000000815260206004820152603f60248201527f4552433732314272696467653a2066756e6374696f6e2063616e206f6e6c792060448201527f62652063616c6c65642066726f6d20746865206f746865722062726964676500606482015260840161028b565b3073ffffffffffffffffffffffffffffffffffffffff8816036104e5576040517f08c379a000000000000000000000000000000000000000000000000000000000815260206004820152602a60248201527f4c324552433732314272696467653a206c6f63616c20746f6b656e2063616e6e60448201527f6f742062652073656c6600000000000000000000000000000000000000000000606482015260840161028b565b61050f877f74259ebf00000000000000000000000000000000000000000000000000000000610f8d565b61059b576040517f08c379a000000000000000000000000000000000000000000000000000000000815260206004820152603660248201527f4c324552433732314272696467653a206c6f63616c20746f6b656e20696e746560448201527f7266616365206973206e6f7420636f6d706c69616e7400000000000000000000606482015260840161028b565b8673ffffffffffffffffffffffffffffffffffffffff1663d6c0b2c46040518163ffffffff1660e01b8152600401602060405180830381865afa1580156105e6573d6000803e3d6000fd5b505050506040513d601f19601f8201168201806040525081019061060a919061147c565b73ffffffffffffffffffffffffffffffffffffffff168673ffffffffffffffffffffffffffffffffffffffff16146106ea576040517f08c379a000000000000000000000000000000000000000000000000000000000815260206004820152604b60248201527f4c324552433732314272696467653a2077726f6e672072656d6f746520746f6b60448201527f656e20666f72204f7074696d69736d204d696e7461626c65204552433732312060648201527f6c6f63616c20746f6b656e000000000000000000000000000000000000000000608482015260a40161028b565b6040517fa144819400000000000000000000000000000000000000000000000000000000815273ffffffffffffffffffffffffffffffffffffffff85811660048301526024820185905288169063a144819490604401600060405180830381600087803b15801561075a57600080fd5b505af115801561076e573d6000803e3d6000fd5b505050508473ffffffffffffffffffffffffffffffffffffffff168673ffffffffffffffffffffffffffffffffffffffff168873ffffffffffffffffffffffffffffffffffffffff167f1f39bf6707b5d608453e0ae4c067b562bcc4c85c0f562ef5d2c774d2e7f131ac878787876040516107ec94939291906114e2565b60405180910390a450505050505050565b73ffffffffffffffffffffffffffffffffffffffff85166108a0576040517f08c379a000000000000000000000000000000000000000000000000000000000815260206004820152603060248201527f4552433732314272696467653a206e667420726563697069656e742063616e6e60448201527f6f74206265206164647265737328302900000000000000000000000000000000606482015260840161028b565b6108b08787338888888888610a03565b50505050505050565b600054600290610100900460ff161580156108db575060005460ff8083169116105b610967576040517f08c379a000000000000000000000000000000000000000000000000000000000815260206004820152602e60248201527f496e697469616c697a61626c653a20636f6e747261637420697320616c72656160448201527f647920696e697469616c697a6564000000000000000000000000000000000000606482015260840161028b565b600080547fffffffffffffffffffffffffffffffffffffffffffffffffffffffffffff00001660ff8316176101001790556109a182610fb0565b600080547fffffffffffffffffffffffffffffffffffffffffffffffffffffffffffff00ff16905560405160ff821681527f7f26b83ff96e1f2b6a682f133852f6798a09c465da95921460cefb38474024989060200160405180910390a15050565b73ffffffffffffffffffffffffffffffffffffffff8716610aa6576040517f08c379a000000000000000000000000000000000000000000000000000000000815260206004820152603160248201527f4c324552433732314272696467653a2072656d6f746520746f6b656e2063616e60448201527f6e6f742062652061646472657373283029000000000000000000000000000000606482015260840161028b565b6040517f6352211e0000000000000000000000000000000000000000000000000000000081526004810185905273ffffffffffffffffffffffffffffffffffffffff891690636352211e90602401602060405180830381865afa158015610b11573d6000803e3d6000fd5b505050506040513d601f19601f82011682018060405250810190610b35919061147c565b73ffffffffffffffffffffffffffffffffffffffff168673ffffffffffffffffffffffffffffffffffffffff1614610bef576040517f08c379a000000000000000000000000000000000000000000000000000000000815260206004820152603e60248201527f4c324552433732314272696467653a205769746864726177616c206973206e6f60448201527f74206265696e6720696e69746961746564206279204e4654206f776e65720000606482015260840161028b565b60008873ffffffffffffffffffffffffffffffffffffffff1663d6c0b2c46040518163ffffffff1660e01b8152600401602060405180830381865afa158015610c3c573d6000803e3d6000fd5b505050506040513d601f19601f82011682018060405250810190610c60919061147c565b90508773ffffffffffffffffffffffffffffffffffffffff168173ffffffffffffffffffffffffffffffffffffffff1614610d1d576040517f08c379a000000000000000000000000000000000000000000000000000000000815260206004820152603760248201527f4c324552433732314272696467653a2072656d6f746520746f6b656e20646f6560448201527f73206e6f74206d6174636820676976656e2076616c7565000000000000000000606482015260840161028b565b6040517f9dc29fac00000000000000000000000000000000000000000000000000000000815273ffffffffffffffffffffffffffffffffffffffff8881166004830152602482018790528a1690639dc29fac90604401600060405180830381600087803b158015610d8d57600080fd5b505af1158015610da1573d6000803e3d6000fd5b50505050600063761f449360e01b828b8a8a8a8989604051602401610dcc9796959493929190611522565b604080517fffffffffffffffffffffffffffffffffffffffffffffffffffffffffffffffe08184030181529181526020820180517bffffffffffffffffffffffffffffffffffffffffffffffffffffffff167fffffffff000000000000000000000000000000000000000000000000000000009094169390931790925260005491517f3dbb202b00000000000000000000000000000000000000000000000000000000815290925073ffffffffffffffffffffffffffffffffffffffff620100009092049190911690633dbb202b90610ecd907f00000000000000000000000000000000000000000000000000000000000000009085908a9060040161157f565b600060405180830381600087803b158015610ee757600080fd5b505af1158015610efb573d6000803e3d6000fd5b505050508773ffffffffffffffffffffffffffffffffffffffff168273ffffffffffffffffffffffffffffffffffffffff168b73ffffffffffffffffffffffffffffffffffffffff167fb7460e2a880f256ebef3406116ff3eee0cee51ebccdc2a40698f87ebb2e9c1a58a8a8989604051610f7994939291906114e2565b60405180910390a450505050505050505050565b6000610f9883611094565b8015610fa95750610fa983836110f9565b9392505050565b600054610100900460ff16611047576040517f08c379a000000000000000000000000000000000000000000000000000000000815260206004820152602b60248201527f496e697469616c697a61626c653a20636f6e7472616374206973206e6f74206960448201527f6e697469616c697a696e67000000000000000000000000000000000000000000606482015260840161028b565b6000805473ffffffffffffffffffffffffffffffffffffffff90921662010000027fffffffffffffffffffff0000000000000000000000000000000000000000ffff909216919091179055565b60006110c0827f01ffc9a7000000000000000000000000000000000000000000000000000000006110f9565b80156110f357506110f1827fffffffff000000000000000000000000000000000000000000000000000000006110f9565b155b92915050565b604080517fffffffff000000000000000000000000000000000000000000000000000000008316602480830191909152825180830390910181526044909101909152602080820180517bffffffffffffffffffffffffffffffffffffffffffffffffffffffff167f01ffc9a700000000000000000000000000000000000000000000000000000000178152825160009392849283928392918391908a617530fa92503d915060005190508280156111b1575060208210155b80156111bd5750600081115b979650505050505050565b73ffffffffffffffffffffffffffffffffffffffff811681146111ea57600080fd5b50565b803563ffffffff8116811461120157600080fd5b919050565b60008083601f84011261121857600080fd5b50813567ffffffffffffffff81111561123057600080fd5b60208301915083602082850101111561124857600080fd5b9250929050565b60008060008060008060a0878903121561126857600080fd5b8635611273816111c8565b95506020870135611283816111c8565b945060408701359350611298606088016111ed565b9250608087013567ffffffffffffffff8111156112b457600080fd5b6112c089828a01611206565b979a9699509497509295939492505050565b6000815180845260005b818110156112f8576020818501810151868301820152016112dc565b8181111561130a576000602083870101525b50601f017fffffffffffffffffffffffffffffffffffffffffffffffffffffffffffffffe0169290920160200192915050565b602081526000610fa960208301846112d2565b600080600080600080600060c0888a03121561136b57600080fd5b8735611376816111c8565b96506020880135611386816111c8565b95506040880135611396816111c8565b945060608801356113a6816111c8565b93506080880135925060a088013567ffffffffffffffff8111156113c957600080fd5b6113d58a828b01611206565b989b979a50959850939692959293505050565b600080600080600080600060c0888a03121561140357600080fd5b873561140e816111c8565b9650602088013561141e816111c8565b9550604088013561142e816111c8565b945060608801359350611443608089016111ed565b925060a088013567ffffffffffffffff8111156113c957600080fd5b60006020828403121561147157600080fd5b8135610fa9816111c8565b60006020828403121561148e57600080fd5b8151610fa9816111c8565b8183528181602085013750600060208284010152600060207fffffffffffffffffffffffffffffffffffffffffffffffffffffffffffffffe0601f840116840101905092915050565b73ffffffffffffffffffffffffffffffffffffffff85168152836020820152606060408201526000611518606083018486611499565b9695505050505050565b600073ffffffffffffffffffffffffffffffffffffffff808a1683528089166020840152808816604084015280871660608401525084608083015260c060a083015261157260c083018486611499565b9998505050505050505050565b73ffffffffffffffffffffffffffffffffffffffff841681526060602082015260006115ae60608301856112d2565b905063ffffffff8316604083015294935050505056fea164736f6c634300080f000a",
    "linkReferences": {}
  },
  "methodIdentifiers": {
    "MESSENGER()": "927ede2d",
    "OTHER_BRIDGE()": "7f46ddb2",
    "bridgeERC721(address,address,uint256,uint32,bytes)": "3687011a",
    "bridgeERC721To(address,address,address,uint256,uint32,bytes)": "aa557452",
    "finalizeBridgeERC721(address,address,address,address,uint256,bytes)": "761f4493",
    "initialize(address)": "c4d66de8",
    "messenger()": "3cb747bf",
    "otherBridge()": "c89701a2",
    "version()": "54fd4d50"
  },
  "storageLayout": {
    "storage": [
      {
        "astId": 32100,
        "contract": "src/L2/L2ERC721Bridge.sol:L2ERC721Bridge",
        "label": "_initialized",
        "offset": 0,
        "slot": "0",
        "type": "t_uint8"
      },
      {
        "astId": 32103,
        "contract": "src/L2/L2ERC721Bridge.sol:L2ERC721Bridge",
        "label": "_initializing",
        "offset": 1,
        "slot": "0",
        "type": "t_bool"
      },
      {
        "astId": 75420,
        "contract": "src/L2/L2ERC721Bridge.sol:L2ERC721Bridge",
        "label": "messenger",
        "offset": 2,
        "slot": "0",
        "type": "t_contract(CrossDomainMessenger)75405"
      },
      {
        "astId": 75428,
        "contract": "src/L2/L2ERC721Bridge.sol:L2ERC721Bridge",
        "label": "__gap",
        "offset": 0,
        "slot": "1",
        "type": "t_array(t_uint256)48_storage"
      }
    ],
    "types": {
      "t_array(t_uint256)48_storage": {
        "encoding": "inplace",
        "label": "uint256[48]",
        "numberOfBytes": "1536",
        "base": "t_uint256"
      },
      "t_bool": {
        "encoding": "inplace",
        "label": "bool",
        "numberOfBytes": "1"
      },
      "t_contract(CrossDomainMessenger)75405": {
        "encoding": "inplace",
        "label": "contract CrossDomainMessenger",
        "numberOfBytes": "20"
      },
      "t_uint256": {
        "encoding": "inplace",
        "label": "uint256",
        "numberOfBytes": "32"
      },
      "t_uint8": {
        "encoding": "inplace",
        "label": "uint8",
        "numberOfBytes": "1"
      }
    }
  },
  "userdoc": {
    "version": 1,
    "kind": "user",
    "methods": {
      "MESSENGER()": {
        "notice": "Getter for messenger contract."
      },
      "OTHER_BRIDGE()": {
        "notice": "Address of the bridge on the other network."
      },
      "bridgeERC721(address,address,uint256,uint32,bytes)": {
        "notice": "Initiates a bridge of an NFT to the caller's account on the other chain. Note that         this function can only be called by EOAs. Smart contract wallets should use the         `bridgeERC721To` function after ensuring that the recipient address on the remote         chain exists. Also note that the current owner of the token on this chain must         approve this contract to operate the NFT before it can be bridged.         **WARNING**: Do not bridge an ERC721 that was originally deployed on Optimism. This         bridge only supports ERC721s originally deployed on Ethereum. Users will need to         wait for the one-week challenge period to elapse before their Optimism-native NFT         can be refunded on L2."
      },
      "bridgeERC721To(address,address,address,uint256,uint32,bytes)": {
        "notice": "Initiates a bridge of an NFT to some recipient's account on the other chain. Note         that the current owner of the token on this chain must approve this contract to         operate the NFT before it can be bridged.         **WARNING**: Do not bridge an ERC721 that was originally deployed on Optimism. This         bridge only supports ERC721s originally deployed on Ethereum. Users will need to         wait for the one-week challenge period to elapse before their Optimism-native NFT         can be refunded on L2."
      },
      "constructor": {
        "notice": "Constructs the L2ERC721Bridge contract."
      },
      "finalizeBridgeERC721(address,address,address,address,uint256,bytes)": {
        "notice": "Completes an ERC721 bridge from the other domain and sends the ERC721 token to the         recipient on this domain."
      },
      "initialize(address)": {
        "notice": "Initializes the contract."
      },
      "messenger()": {
        "notice": "Messenger contract on this domain."
      },
      "otherBridge()": {
        "notice": "Getter for other bridge address."
      }
    },
    "events": {
      "ERC721BridgeFinalized(address,address,address,address,uint256,bytes)": {
        "notice": "Emitted when an ERC721 bridge from the other network is finalized."
      },
      "ERC721BridgeInitiated(address,address,address,address,uint256,bytes)": {
        "notice": "Emitted when an ERC721 bridge to the other network is initiated."
      }
    },
    "notice": "The L2 ERC721 bridge is a contract which works together with the L1 ERC721 bridge to         make it possible to transfer ERC721 tokens from Ethereum to Optimism. This contract         acts as a minter for new tokens when it hears about deposits into the L1 ERC721 bridge.         This contract also acts as a burner for tokens being withdrawn.         **WARNING**: Do not bridge an ERC721 that was originally deployed on Optimism. This         bridge ONLY supports ERC721s originally deployed on Ethereum. Users will need to         wait for the one-week challenge period to elapse before their Optimism-native NFT         can be refunded on L2."
  },
  "devdoc": {
    "version": 1,
    "kind": "dev",
    "methods": {
      "bridgeERC721(address,address,uint256,uint32,bytes)": {
        "params": {
          "_extraData": "Optional data to forward to the other chain. Data supplied here will not                     be used to execute any code on the other chain and is only emitted as                     extra data for the convenience of off-chain tooling.",
          "_localToken": "Address of the ERC721 on this domain.",
          "_minGasLimit": "Minimum gas limit for the bridge message on the other domain.",
          "_remoteToken": "Address of the ERC721 on the remote domain.",
          "_tokenId": "Token ID to bridge."
        }
      },
      "bridgeERC721To(address,address,address,uint256,uint32,bytes)": {
        "params": {
          "_extraData": "Optional data to forward to the other chain. Data supplied here will not                     be used to execute any code on the other chain and is only emitted as                     extra data for the convenience of off-chain tooling.",
          "_localToken": "Address of the ERC721 on this domain.",
          "_minGasLimit": "Minimum gas limit for the bridge message on the other domain.",
          "_remoteToken": "Address of the ERC721 on the remote domain.",
          "_to": "Address to receive the token on the other domain.",
          "_tokenId": "Token ID to bridge."
        }
      },
      "constructor": {
        "params": {
          "_otherBridge": "Address of the ERC721 bridge on the other network."
        }
      },
      "finalizeBridgeERC721(address,address,address,address,uint256,bytes)": {
        "params": {
          "_extraData": "Optional data to forward to L1.                     Data supplied here will not be used to execute any code on L1 and is                     only emitted as extra data for the convenience of off-chain tooling.",
          "_from": "Address that triggered the bridge on the other domain.",
          "_localToken": "Address of the ERC721 token on this domain.",
          "_remoteToken": "Address of the ERC721 token on the other domain.",
          "_to": "Address to receive the token on this domain.",
          "_tokenId": "ID of the token being deposited."
        }
      },
      "initialize(address)": {
        "params": {
          "_messenger": "Address of the CrossDomainMessenger on this network."
        }
      },
      "otherBridge()": {
        "returns": {
          "_0": "Address of the bridge on the other network."
        }
      }
    },
    "title": "L2ERC721Bridge"
  },
  "id": 124
}