{
  "abi": [
    {
      "inputs": [],
      "stateMutability": "nonpayable",
      "type": "constructor"
    },
    {
      "anonymous": false,
      "inputs": [
        {
          "indexed": true,
          "internalType": "uint256",
          "name": "version",
          "type": "uint256"
        },
        {
          "indexed": true,
          "internalType": "enum ProtocolVersions.UpdateType",
          "name": "updateType",
          "type": "uint8"
        },
        {
          "indexed": false,
          "internalType": "bytes",
          "name": "data",
          "type": "bytes"
        }
      ],
      "name": "ConfigUpdate",
      "type": "event"
    },
    {
      "anonymous": false,
      "inputs": [
        {
          "indexed": false,
          "internalType": "uint8",
          "name": "version",
          "type": "uint8"
        }
      ],
      "name": "Initialized",
      "type": "event"
    },
    {
      "anonymous": false,
      "inputs": [
        {
          "indexed": true,
          "internalType": "address",
          "name": "previousOwner",
          "type": "address"
        },
        {
          "indexed": true,
          "internalType": "address",
          "name": "newOwner",
          "type": "address"
        }
      ],
      "name": "OwnershipTransferred",
      "type": "event"
    },
    {
      "inputs": [],
      "name": "RECOMMENDED_SLOT",
      "outputs": [
        {
          "internalType": "bytes32",
          "name": "",
          "type": "bytes32"
        }
      ],
      "stateMutability": "view",
      "type": "function"
    },
    {
      "inputs": [],
      "name": "REQUIRED_SLOT",
      "outputs": [
        {
          "internalType": "bytes32",
          "name": "",
          "type": "bytes32"
        }
      ],
      "stateMutability": "view",
      "type": "function"
    },
    {
      "inputs": [],
      "name": "VERSION",
      "outputs": [
        {
          "internalType": "uint256",
          "name": "",
          "type": "uint256"
        }
      ],
      "stateMutability": "view",
      "type": "function"
    },
    {
      "inputs": [
        {
          "internalType": "address",
          "name": "_owner",
          "type": "address"
        },
        {
          "internalType": "ProtocolVersion",
          "name": "_required",
          "type": "uint256"
        },
        {
          "internalType": "ProtocolVersion",
          "name": "_recommended",
          "type": "uint256"
        }
      ],
      "name": "initialize",
      "outputs": [],
      "stateMutability": "nonpayable",
      "type": "function"
    },
    {
      "inputs": [],
      "name": "owner",
      "outputs": [
        {
          "internalType": "address",
          "name": "",
          "type": "address"
        }
      ],
      "stateMutability": "view",
      "type": "function"
    },
    {
      "inputs": [],
      "name": "recommended",
      "outputs": [
        {
          "internalType": "ProtocolVersion",
          "name": "out_",
          "type": "uint256"
        }
      ],
      "stateMutability": "view",
      "type": "function"
    },
    {
      "inputs": [],
      "name": "renounceOwnership",
      "outputs": [],
      "stateMutability": "nonpayable",
      "type": "function"
    },
    {
      "inputs": [],
      "name": "required",
      "outputs": [
        {
          "internalType": "ProtocolVersion",
          "name": "out_",
          "type": "uint256"
        }
      ],
      "stateMutability": "view",
      "type": "function"
    },
    {
      "inputs": [
        {
          "internalType": "ProtocolVersion",
          "name": "_recommended",
          "type": "uint256"
        }
      ],
      "name": "setRecommended",
      "outputs": [],
      "stateMutability": "nonpayable",
      "type": "function"
    },
    {
      "inputs": [
        {
          "internalType": "ProtocolVersion",
          "name": "_required",
          "type": "uint256"
        }
      ],
      "name": "setRequired",
      "outputs": [],
      "stateMutability": "nonpayable",
      "type": "function"
    },
    {
      "inputs": [
        {
          "internalType": "address",
          "name": "newOwner",
          "type": "address"
        }
      ],
      "name": "transferOwnership",
      "outputs": [],
      "stateMutability": "nonpayable",
      "type": "function"
    },
    {
      "inputs": [],
      "name": "version",
      "outputs": [
        {
          "internalType": "string",
          "name": "",
          "type": "string"
        }
      ],
      "stateMutability": "view",
      "type": "function"
    }
  ],
  "bytecode": {
    "object": "0x60806040523480156200001157600080fd5b506200002261dead60008062000028565b620004b5565b600054600290610100900460ff161580156200004b575060005460ff8083169116105b620000b45760405162461bcd60e51b815260206004820152602e60248201527f496e697469616c697a61626c653a20636f6e747261637420697320616c72656160448201526d191e481a5b9a5d1a585b1a5e995960921b60648201526084015b60405180910390fd5b6000805461ffff191660ff831617610100179055620000d26200013a565b620000dd84620001a2565b620000e88362000221565b620000f382620002c0565b6000805461ff001916905560405160ff821681527f7f26b83ff96e1f2b6a682f133852f6798a09c465da95921460cefb38474024989060200160405180910390a150505050565b600054610100900460ff16620001965760405162461bcd60e51b815260206004820152602b602482015260008051602062000e7e83398151915260448201526a6e697469616c697a696e6760a81b6064820152608401620000ab565b620001a062000322565b565b620001ac62000389565b6001600160a01b038116620002135760405162461bcd60e51b815260206004820152602660248201527f4f776e61626c653a206e6577206f776e657220697320746865207a65726f206160448201526564647265737360d01b6064820152608401620000ab565b6200021e81620003e5565b50565b62000256816200025360017f4aaefe95bd84fd3f32700cf3b7566bc944b73138e41958b5785826df2aecace162000437565b55565b6000816040516020016200026c91815260200190565b60408051601f19818403018152919052905060005b60007f1d2b0bda21d56b8bd12d4f94ebacffdfb35f5e226f84b461103bb8beab6353be83604051620002b491906200045d565b60405180910390a35050565b620002f2816200025360017fe314dfc40f0025322aacc0ba8ef420b62fb3b702cf01e0cdf3d829117ac2ff1b62000437565b6000816040516020016200030891815260200190565b60408051601f198184030181529190529050600162000281565b600054610100900460ff166200037e5760405162461bcd60e51b815260206004820152602b602482015260008051602062000e7e83398151915260448201526a6e697469616c697a696e6760a81b6064820152608401620000ab565b620001a033620003e5565b6033546001600160a01b03163314620001a05760405162461bcd60e51b815260206004820181905260248201527f4f776e61626c653a2063616c6c6572206973206e6f7420746865206f776e65726044820152606401620000ab565b603380546001600160a01b038381166001600160a01b0319831681179093556040519116919082907f8be0079c531659141344cd1fd0a4f28419497f9722a3daafe3b4186f6b6457e090600090a35050565b6000828210156200045857634e487b7160e01b600052601160045260246000fd5b500390565b600060208083528351808285015260005b818110156200048c578581018301518582016040015282016200046e565b818111156200049f576000604083870101525b50601f01601f1916929092016040019392505050565b6109b980620004c56000396000f3fe608060405234801561001057600080fd5b50600436106100d45760003560e01c80638da5cb5b11610081578063f2fde38b1161005b578063f2fde38b146101b8578063f7d12760146101cb578063ffa1ad74146101d357600080fd5b80638da5cb5b14610180578063d798b1ac146101a8578063dc8452cd146101b057600080fd5b80635fd579af116100b25780635fd579af14610152578063715018a6146101655780637a1ac61e1461016d57600080fd5b80630457d6f2146100d9578063206a8300146100ee57806354fd4d5014610109575b600080fd5b6100ec6100e7366004610859565b6101db565b005b6100f66101ef565b6040519081526020015b60405180910390f35b6101456040518060400160405280600581526020017f302e312e3000000000000000000000000000000000000000000000000000000081525081565b60405161010091906108dd565b6100ec610160366004610859565b61021d565b6100ec61022e565b6100ec61017b366004610920565b610242565b60335460405173ffffffffffffffffffffffffffffffffffffffff9091168152602001610100565b6100f66103ad565b6100f66103e6565b6100ec6101c6366004610953565b610416565b6100f66104ca565b6100f6600081565b6101e36104f5565b6101ec81610576565b50565b61021a60017f4aaefe95bd84fd3f32700cf3b7566bc944b73138e41958b5785826df2aecace161096e565b81565b6102256104f5565b6101ec8161062d565b6102366104f5565b61024060006106a8565b565b600054600290610100900460ff16158015610264575060005460ff8083169116105b6102f5576040517f08c379a000000000000000000000000000000000000000000000000000000000815260206004820152602e60248201527f496e697469616c697a61626c653a20636f6e747261637420697320616c72656160448201527f647920696e697469616c697a656400000000000000000000000000000000000060648201526084015b60405180910390fd5b600080547fffffffffffffffffffffffffffffffffffffffffffffffffffffffffffff00001660ff83161761010017905561032e61071f565b61033784610416565b61034083610576565b6103498261062d565b600080547fffffffffffffffffffffffffffffffffffffffffffffffffffffffffffff00ff16905560405160ff821681527f7f26b83ff96e1f2b6a682f133852f6798a09c465da95921460cefb38474024989060200160405180910390a150505050565b60006103e16103dd60017fe314dfc40f0025322aacc0ba8ef420b62fb3b702cf01e0cdf3d829117ac2ff1b61096e565b5490565b905090565b60006103e16103dd60017f4aaefe95bd84fd3f32700cf3b7566bc944b73138e41958b5785826df2aecace161096e565b61041e6104f5565b73ffffffffffffffffffffffffffffffffffffffff81166104c1576040517f08c379a000000000000000000000000000000000000000000000000000000000815260206004820152602660248201527f4f776e61626c653a206e6577206f776e657220697320746865207a65726f206160448201527f646472657373000000000000000000000000000000000000000000000000000060648201526084016102ec565b6101ec816106a8565b61021a60017fe314dfc40f0025322aacc0ba8ef420b62fb3b702cf01e0cdf3d829117ac2ff1b61096e565b60335473ffffffffffffffffffffffffffffffffffffffff163314610240576040517f08c379a000000000000000000000000000000000000000000000000000000000815260206004820181905260248201527f4f776e61626c653a2063616c6c6572206973206e6f7420746865206f776e657260448201526064016102ec565b6105a8816105a560017f4aaefe95bd84fd3f32700cf3b7566bc944b73138e41958b5785826df2aecace161096e565b55565b6000816040516020016105bd91815260200190565b604080517fffffffffffffffffffffffffffffffffffffffffffffffffffffffffffffffe0818403018152919052905060005b60007f1d2b0bda21d56b8bd12d4f94ebacffdfb35f5e226f84b461103bb8beab6353be8360405161062191906108dd565b60405180910390a35050565b61065c816105a560017fe314dfc40f0025322aacc0ba8ef420b62fb3b702cf01e0cdf3d829117ac2ff1b61096e565b60008160405160200161067191815260200190565b604080517fffffffffffffffffffffffffffffffffffffffffffffffffffffffffffffffe0818403018152919052905060016105f0565b6033805473ffffffffffffffffffffffffffffffffffffffff8381167fffffffffffffffffffffffff0000000000000000000000000000000000000000831681179093556040519116919082907f8be0079c531659141344cd1fd0a4f28419497f9722a3daafe3b4186f6b6457e090600090a35050565b600054610100900460ff166107b6576040517f08c379a000000000000000000000000000000000000000000000000000000000815260206004820152602b60248201527f496e697469616c697a61626c653a20636f6e7472616374206973206e6f74206960448201527f6e697469616c697a696e6700000000000000000000000000000000000000000060648201526084016102ec565b610240600054610100900460ff16610850576040517f08c379a000000000000000000000000000000000000000000000000000000000815260206004820152602b60248201527f496e697469616c697a61626c653a20636f6e7472616374206973206e6f74206960448201527f6e697469616c697a696e6700000000000000000000000000000000000000000060648201526084016102ec565b610240336106a8565b60006020828403121561086b57600080fd5b5035919050565b6000815180845260005b818110156108985760208185018101518683018201520161087c565b818111156108aa576000602083870101525b50601f017fffffffffffffffffffffffffffffffffffffffffffffffffffffffffffffffe0169290920160200192915050565b6020815260006108f06020830184610872565b9392505050565b803573ffffffffffffffffffffffffffffffffffffffff8116811461091b57600080fd5b919050565b60008060006060848603121561093557600080fd5b61093e846108f7565b95602085013595506040909401359392505050565b60006020828403121561096557600080fd5b6108f0826108f7565b6000828210156109a7577f4e487b7100000000000000000000000000000000000000000000000000000000600052601160045260246000fd5b50039056fea164736f6c634300080f000a496e697469616c697a61626c653a20636f6e7472616374206973206e6f742069",
    "linkReferences": {}
  },
  "methodIdentifiers": {
    "RECOMMENDED_SLOT()": "f7d12760",
    "REQUIRED_SLOT()": "206a8300",
    "VERSION()": "ffa1ad74",
    "initialize(address,uint256,uint256)": "7a1ac61e",
    "owner()": "8da5cb5b",
    "recommended()": "d798b1ac",
    "renounceOwnership()": "715018a6",
    "required()": "dc8452cd",
    "setRecommended(uint256)": "5fd579af",
    "setRequired(uint256)": "0457d6f2",
    "transferOwnership(address)": "f2fde38b",
    "version()": "54fd4d50"
  },
  "storageLayout": {
    "storage": [
      {
        "astId": 29536,
        "contract": "src/L1/ProtocolVersions.sol:ProtocolVersions",
        "label": "_initialized",
        "offset": 0,
        "slot": "0",
        "type": "t_uint8"
      },
      {
        "astId": 29539,
        "contract": "src/L1/ProtocolVersions.sol:ProtocolVersions",
        "label": "_initializing",
        "offset": 1,
        "slot": "0",
        "type": "t_bool"
      },
      {
        "astId": 31067,
        "contract": "src/L1/ProtocolVersions.sol:ProtocolVersions",
        "label": "__gap",
        "offset": 0,
        "slot": "1",
        "type": "t_array(t_uint256)50_storage"
      },
      {
        "astId": 29408,
        "contract": "src/L1/ProtocolVersions.sol:ProtocolVersions",
        "label": "_owner",
        "offset": 0,
        "slot": "51",
        "type": "t_address"
      },
      {
        "astId": 29528,
        "contract": "src/L1/ProtocolVersions.sol:ProtocolVersions",
        "label": "__gap",
        "offset": 0,
        "slot": "52",
        "type": "t_array(t_uint256)49_storage"
      }
    ],
    "types": {
      "t_address": {
        "encoding": "inplace",
        "label": "address",
        "numberOfBytes": "20"
      },
      "t_array(t_uint256)49_storage": {
        "encoding": "inplace",
        "label": "uint256[49]",
        "numberOfBytes": "1568",
        "base": "t_uint256"
      },
      "t_array(t_uint256)50_storage": {
        "encoding": "inplace",
        "label": "uint256[50]",
        "numberOfBytes": "1600",
        "base": "t_uint256"
      },
      "t_bool": {
        "encoding": "inplace",
        "label": "bool",
        "numberOfBytes": "1"
      },
      "t_uint256": {
        "encoding": "inplace",
        "label": "uint256",
        "numberOfBytes": "32"
      },
      "t_uint8": {
        "encoding": "inplace",
        "label": "uint8",
        "numberOfBytes": "1"
      }
    }
  },
  "userdoc": {
    "version": 1,
    "kind": "user",
    "methods": {
      "RECOMMENDED_SLOT()": {
        "notice": "Storage slot that the recommended protocol version is stored at."
      },
      "REQUIRED_SLOT()": {
        "notice": "Storage slot that the required protocol version is stored at."
      },
      "VERSION()": {
        "notice": "Version identifier, used for upgrades."
      },
      "constructor": {
        "notice": "Constructs the ProtocolVersion contract. Cannot set         the owner to `address(0)` due to the Ownable contract's         implementation, so set it to `address(0xdEaD)`         A zero version is considered empty and is ignored by nodes."
      },
      "initialize(address,uint256,uint256)": {
        "notice": "Initializer."
      },
      "recommended()": {
        "notice": "High level getter for the recommended protocol version."
      },
      "required()": {
        "notice": "High level getter for the required protocol version."
      },
      "setRecommended(uint256)": {
        "notice": "Updates the recommended protocol version. Can only be called by the owner."
      },
      "setRequired(uint256)": {
        "notice": "Updates the required protocol version. Can only be called by the owner."
      },
      "version()": {
        "notice": "Semantic version."
      }
    },
    "events": {
      "ConfigUpdate(uint256,uint8,bytes)": {
        "notice": "Emitted when configuration is updated."
      }
    },
    "notice": "The ProtocolVersions contract is used to manage superchain protocol version information."
  },
  "devdoc": {
    "version": 1,
    "kind": "dev",
    "methods": {
      "initialize(address,uint256,uint256)": {
        "params": {
          "_owner": "Initial owner of the contract.",
          "_recommended": "Recommended protocol version to operate on thi chain.",
          "_required": "Required protocol version to operate on this chain."
        }
      },
      "owner()": {
        "details": "Returns the address of the current owner."
      },
      "recommended()": {
        "returns": {
          "out_": "Recommended protocol version to sync to the head of the chain."
        }
      },
      "renounceOwnership()": {
        "details": "Leaves the contract without owner. It will not be possible to call `onlyOwner` functions anymore. Can only be called by the current owner. NOTE: Renouncing ownership will leave the contract without an owner, thereby removing any functionality that is only available to the owner."
      },
      "required()": {
        "returns": {
          "out_": "Required protocol version to sync to the head of the chain."
        }
      },
      "setRecommended(uint256)": {
        "params": {
          "_recommended": "New recommended protocol version."
        }
      },
      "setRequired(uint256)": {
        "params": {
          "_required": "New required protocol version."
        }
      },
      "transferOwnership(address)": {
        "details": "Transfers ownership of the contract to a new account (`newOwner`). Can only be called by the current owner."
      }
    },
    "events": {
      "ConfigUpdate(uint256,uint8,bytes)": {
        "params": {
          "data": "Encoded update data.",
          "updateType": "Type of update.",
          "version": "ProtocolVersion version."
        }
      }
    },
    "title": "ProtocolVersions"
  },
  "id": 113
}