{
  "abi": [
    {
      "inputs": [],
      "name": "doRevert",
      "outputs": [],
      "stateMutability": "pure",
      "type": "function"
    }
  ],
  "bytecode": {
    "object": "0x6080604052348015600f57600080fd5b5060a88061001e6000396000f3fe6080604052348015600f57600080fd5b506004361060285760003560e01c8063afc874d214602d575b600080fd5b60336035565b005b6040517f08c379a000000000000000000000000000000000000000000000000000000000815260206004820152601160248201527f5265766572746572207265766572746564000000000000000000000000000000604482015260640160405180910390fdfea164736f6c634300080f000a",
    "linkReferences": {}
  },
  "methodIdentifiers": {
    "doRevert()": "afc874d2"
  },
  "storageLayout": {
    "storage": [],
    "types": {}
  },
  "userdoc": {
    "version": 1,
    "kind": "user"
  },
  "devdoc": {
    "version": 1,
    "kind": "dev"
  },
  "id": 233
}